{
  "abi": [
    {
      "inputs": [
        {
          "internalType": "contract IFrensStorage",
          "name": "frensStorage_",
          "type": "address"
        }
      ],
      "stateMutability": "nonpayable",
      "type": "constructor"
    },
    {
      "anonymous": false,
      "inputs": [
        {
          "indexed": true,
          "internalType": "address",
          "name": "owner",
          "type": "address"
        },
        {
          "indexed": true,
          "internalType": "address",
          "name": "approved",
          "type": "address"
        },
        {
          "indexed": true,
          "internalType": "uint256",
          "name": "tokenId",
          "type": "uint256"
        }
      ],
      "name": "Approval",
      "type": "event"
    },
    {
      "anonymous": false,
      "inputs": [
        {
          "indexed": true,
          "internalType": "address",
          "name": "owner",
          "type": "address"
        },
        {
          "indexed": true,
          "internalType": "address",
          "name": "operator",
          "type": "address"
        },
        {
          "indexed": false,
          "internalType": "bool",
          "name": "approved",
          "type": "bool"
        }
      ],
      "name": "ApprovalForAll",
      "type": "event"
    },
    {
      "anonymous": false,
      "inputs": [
        {
          "indexed": true,
          "internalType": "address",
          "name": "previousOwner",
          "type": "address"
        },
        {
          "indexed": true,
          "internalType": "address",
          "name": "newOwner",
          "type": "address"
        }
      ],
      "name": "OwnershipTransferred",
      "type": "event"
    },
    {
      "anonymous": false,
      "inputs": [
        {
          "indexed": true,
          "internalType": "bytes32",
          "name": "role",
          "type": "bytes32"
        },
        {
          "indexed": true,
          "internalType": "bytes32",
          "name": "previousAdminRole",
          "type": "bytes32"
        },
        {
          "indexed": true,
          "internalType": "bytes32",
          "name": "newAdminRole",
          "type": "bytes32"
        }
      ],
      "name": "RoleAdminChanged",
      "type": "event"
    },
    {
      "anonymous": false,
      "inputs": [
        {
          "indexed": true,
          "internalType": "bytes32",
          "name": "role",
          "type": "bytes32"
        },
        {
          "indexed": true,
          "internalType": "address",
          "name": "account",
          "type": "address"
        },
        {
          "indexed": true,
          "internalType": "address",
          "name": "sender",
          "type": "address"
        }
      ],
      "name": "RoleGranted",
      "type": "event"
    },
    {
      "anonymous": false,
      "inputs": [
        {
          "indexed": true,
          "internalType": "bytes32",
          "name": "role",
          "type": "bytes32"
        },
        {
          "indexed": true,
          "internalType": "address",
          "name": "account",
          "type": "address"
        },
        {
          "indexed": true,
          "internalType": "address",
          "name": "sender",
          "type": "address"
        }
      ],
      "name": "RoleRevoked",
      "type": "event"
    },
    {
      "anonymous": false,
      "inputs": [
        {
          "indexed": true,
          "internalType": "address",
          "name": "from",
          "type": "address"
        },
        {
          "indexed": true,
          "internalType": "address",
          "name": "to",
          "type": "address"
        },
        {
          "indexed": true,
          "internalType": "uint256",
          "name": "tokenId",
          "type": "uint256"
        }
      ],
      "name": "Transfer",
      "type": "event"
    },
    {
      "inputs": [],
      "name": "DEFAULT_ADMIN_ROLE",
      "outputs": [
        {
          "internalType": "bytes32",
          "name": "",
          "type": "bytes32"
        }
      ],
      "stateMutability": "view",
      "type": "function"
    },
    {
      "inputs": [],
      "name": "MINTER_ROLE",
      "outputs": [
        {
          "internalType": "bytes32",
          "name": "",
          "type": "bytes32"
        }
      ],
      "stateMutability": "view",
      "type": "function"
    },
    {
      "inputs": [
        {
          "internalType": "address",
          "name": "to",
          "type": "address"
        },
        {
          "internalType": "uint256",
          "name": "tokenId",
          "type": "uint256"
        }
      ],
      "name": "approve",
      "outputs": [],
      "stateMutability": "nonpayable",
      "type": "function"
    },
    {
      "inputs": [
        {
          "internalType": "address",
          "name": "owner",
          "type": "address"
        }
      ],
      "name": "balanceOf",
      "outputs": [
        {
          "internalType": "uint256",
          "name": "",
          "type": "uint256"
        }
      ],
      "stateMutability": "view",
      "type": "function"
    },
    {
      "inputs": [
        {
          "internalType": "uint256",
          "name": "tokenId",
          "type": "uint256"
        }
      ],
      "name": "burn",
      "outputs": [],
      "stateMutability": "nonpayable",
      "type": "function"
    },
    {
      "inputs": [
        {
          "internalType": "uint256",
          "name": "_id",
          "type": "uint256"
        }
      ],
      "name": "exists",
      "outputs": [
        {
          "internalType": "bool",
          "name": "",
          "type": "bool"
        }
      ],
      "stateMutability": "view",
      "type": "function"
    },
    {
      "inputs": [
        {
          "internalType": "uint256",
          "name": "tokenId",
          "type": "uint256"
        }
      ],
      "name": "getApproved",
      "outputs": [
        {
          "internalType": "address",
          "name": "",
          "type": "address"
        }
      ],
      "stateMutability": "view",
      "type": "function"
    },
    {
      "inputs": [
        {
          "internalType": "uint256",
          "name": "_id",
          "type": "uint256"
        }
      ],
      "name": "getPoolById",
      "outputs": [
        {
          "internalType": "address",
          "name": "",
          "type": "address"
        }
      ],
      "stateMutability": "view",
      "type": "function"
    },
    {
      "inputs": [
        {
          "internalType": "bytes32",
          "name": "role",
          "type": "bytes32"
        }
      ],
      "name": "getRoleAdmin",
      "outputs": [
        {
          "internalType": "bytes32",
          "name": "",
          "type": "bytes32"
        }
      ],
      "stateMutability": "view",
      "type": "function"
    },
    {
      "inputs": [
        {
          "internalType": "bytes32",
          "name": "role",
          "type": "bytes32"
        },
        {
          "internalType": "address",
          "name": "account",
          "type": "address"
        }
      ],
      "name": "grantRole",
      "outputs": [],
      "stateMutability": "nonpayable",
      "type": "function"
    },
    {
      "inputs": [
        {
          "internalType": "bytes32",
          "name": "role",
          "type": "bytes32"
        },
        {
          "internalType": "address",
          "name": "account",
          "type": "address"
        }
      ],
      "name": "hasRole",
      "outputs": [
        {
          "internalType": "bool",
          "name": "",
          "type": "bool"
        }
      ],
      "stateMutability": "view",
      "type": "function"
    },
    {
      "inputs": [
        {
          "internalType": "address",
          "name": "owner",
          "type": "address"
        },
        {
          "internalType": "address",
          "name": "operator",
          "type": "address"
        }
      ],
      "name": "isApprovedForAll",
      "outputs": [
        {
          "internalType": "bool",
          "name": "",
          "type": "bool"
        }
      ],
      "stateMutability": "view",
      "type": "function"
    },
    {
      "inputs": [
        {
          "internalType": "address",
          "name": "userAddress",
          "type": "address"
        }
      ],
      "name": "mint",
      "outputs": [],
      "stateMutability": "nonpayable",
      "type": "function"
    },
    {
      "inputs": [],
      "name": "name",
      "outputs": [
        {
          "internalType": "string",
          "name": "",
          "type": "string"
        }
      ],
      "stateMutability": "view",
      "type": "function"
    },
    {
      "inputs": [],
      "name": "owner",
      "outputs": [
        {
          "internalType": "address",
          "name": "",
          "type": "address"
        }
      ],
      "stateMutability": "view",
      "type": "function"
    },
    {
      "inputs": [
        {
          "internalType": "uint256",
          "name": "tokenId",
          "type": "uint256"
        }
      ],
      "name": "ownerOf",
      "outputs": [
        {
          "internalType": "address",
          "name": "",
          "type": "address"
        }
      ],
      "stateMutability": "view",
      "type": "function"
    },
    {
      "inputs": [
        {
          "internalType": "uint256",
          "name": "",
          "type": "uint256"
        }
      ],
      "name": "poolByIds",
      "outputs": [
        {
          "internalType": "address",
          "name": "",
          "type": "address"
        }
      ],
      "stateMutability": "view",
      "type": "function"
    },
    {
      "inputs": [
        {
          "internalType": "uint256",
          "name": "id",
          "type": "uint256"
        }
      ],
      "name": "renderTokenById",
      "outputs": [
        {
          "internalType": "string",
          "name": "",
          "type": "string"
        }
      ],
      "stateMutability": "view",
      "type": "function"
    },
    {
      "inputs": [],
      "name": "renounceOwnership",
      "outputs": [],
      "stateMutability": "nonpayable",
      "type": "function"
    },
    {
      "inputs": [
        {
          "internalType": "bytes32",
          "name": "role",
          "type": "bytes32"
        },
        {
          "internalType": "address",
          "name": "account",
          "type": "address"
        }
      ],
      "name": "renounceRole",
      "outputs": [],
      "stateMutability": "nonpayable",
      "type": "function"
    },
    {
      "inputs": [
        {
          "internalType": "bytes32",
          "name": "role",
          "type": "bytes32"
        },
        {
          "internalType": "address",
          "name": "account",
          "type": "address"
        }
      ],
      "name": "revokeRole",
      "outputs": [],
      "stateMutability": "nonpayable",
      "type": "function"
    },
    {
      "inputs": [
        {
          "internalType": "address",
          "name": "from",
          "type": "address"
        },
        {
          "internalType": "address",
          "name": "to",
          "type": "address"
        },
        {
          "internalType": "uint256",
          "name": "tokenId",
          "type": "uint256"
        }
      ],
      "name": "safeTransferFrom",
      "outputs": [],
      "stateMutability": "nonpayable",
      "type": "function"
    },
    {
      "inputs": [
        {
          "internalType": "address",
          "name": "from",
          "type": "address"
        },
        {
          "internalType": "address",
          "name": "to",
          "type": "address"
        },
        {
          "internalType": "uint256",
          "name": "tokenId",
          "type": "uint256"
        },
        {
          "internalType": "bytes",
          "name": "data",
          "type": "bytes"
        }
      ],
      "name": "safeTransferFrom",
      "outputs": [],
      "stateMutability": "nonpayable",
      "type": "function"
    },
    {
      "inputs": [
        {
          "internalType": "address",
          "name": "operator",
          "type": "address"
        },
        {
          "internalType": "bool",
          "name": "approved",
          "type": "bool"
        }
      ],
      "name": "setApprovalForAll",
      "outputs": [],
      "stateMutability": "nonpayable",
      "type": "function"
    },
    {
      "inputs": [
        {
          "internalType": "bytes4",
          "name": "interfaceId",
          "type": "bytes4"
        }
      ],
      "name": "supportsInterface",
      "outputs": [
        {
          "internalType": "bool",
          "name": "",
          "type": "bool"
        }
      ],
      "stateMutability": "view",
      "type": "function"
    },
    {
      "inputs": [],
      "name": "symbol",
      "outputs": [
        {
          "internalType": "string",
          "name": "",
          "type": "string"
        }
      ],
      "stateMutability": "view",
      "type": "function"
    },
    {
      "inputs": [
        {
          "internalType": "uint256",
          "name": "index",
          "type": "uint256"
        }
      ],
      "name": "tokenByIndex",
      "outputs": [
        {
          "internalType": "uint256",
          "name": "",
          "type": "uint256"
        }
      ],
      "stateMutability": "view",
      "type": "function"
    },
    {
      "inputs": [
        {
          "internalType": "address",
          "name": "owner",
          "type": "address"
        },
        {
          "internalType": "uint256",
          "name": "index",
          "type": "uint256"
        }
      ],
      "name": "tokenOfOwnerByIndex",
      "outputs": [
        {
          "internalType": "uint256",
          "name": "",
          "type": "uint256"
        }
      ],
      "stateMutability": "view",
      "type": "function"
    },
    {
      "inputs": [
        {
          "internalType": "uint256",
          "name": "id",
          "type": "uint256"
        }
      ],
      "name": "tokenURI",
      "outputs": [
        {
          "internalType": "string",
          "name": "",
          "type": "string"
        }
      ],
      "stateMutability": "view",
      "type": "function"
    },
    {
      "inputs": [],
      "name": "totalSupply",
      "outputs": [
        {
          "internalType": "uint256",
          "name": "",
          "type": "uint256"
        }
      ],
      "stateMutability": "view",
      "type": "function"
    },
    {
      "inputs": [
        {
          "internalType": "address",
          "name": "from",
          "type": "address"
        },
        {
          "internalType": "address",
          "name": "to",
          "type": "address"
        },
        {
          "internalType": "uint256",
          "name": "tokenId",
          "type": "uint256"
        }
      ],
      "name": "transferFrom",
      "outputs": [],
      "stateMutability": "nonpayable",
      "type": "function"
    },
    {
      "inputs": [
        {
          "internalType": "address",
          "name": "newOwner",
          "type": "address"
        }
      ],
      "name": "transferOwnership",
      "outputs": [],
      "stateMutability": "nonpayable",
      "type": "function"
    }
  ],
  "bytecode": {
    "object": "0x60803462000404576200285c90813803601f1991601f91838382011682019460018060401b039183871083881117620003ee57808492604098895283396020938491810103126200040457516001600160a01b0380821692909183900362000404576200006b62000409565b94600b86526a4652454e5320536861726560a81b858701526200008d62000409565b60058152644652454e5360d81b86820152865197838911620003ee576000988954986001998a81811c91168015620003e3575b8a821014620003cf579081868493116200037c575b5089908683116001146200031b578c926200030f575b5050600019600383901b1c191690891b1789555b8151938411620002fb5787548881811c91168015620002f0575b88821014620002dc57908184869594931162000285575b5087928411600114620002245750889262000218575b5050600019600383901b1c191690851b1784555b600b80546001600160a01b03198082163390811790935592167f8be0079c531659141344cd1fd0a4f28419497f9722a3daafe3b4186f6b6457e08780a3600c541617600c55828052600a8152838320338452815260ff848420541615620001cb575b835161243290816200042a8239f35b828052600a815283832090338452528282209060ff19825416179055339033907f2f8788117e7eff1d82e926ec794901d17c78024a50270940304540a733656f0d8180a4388080620001bc565b01519050388062000146565b888a52878a20899590939291168a5b898282106200026e575050841162000254575b505050811b0184556200015a565b015160001960f88460031b161c1916905538808062000246565b8385015186558b9790950194938401930162000233565b9091929350888a52878a208480870160051c8201928a8810620002d2575b9187968c92969594930160051c01915b828110620002c357505062000130565b8c81558796508b9101620002b3565b92508192620002a3565b634e487b7160e01b8a52602260045260248afd5b90607f169062000119565b634e487b7160e01b89526041600452602489fd5b015190503880620000eb565b908c91858d95168380528c8420935b8d8282106200036557505084116200034b575b505050811b018955620000ff565b015160001960f88460031b161c191690553880806200033d565b8385015186558f979095019493840193016200032a565b9091508b8052898c208680850160051c8201928c8610620003c5575b918d91869594930160051c01915b828110620003b6575050620000d5565b8e81558594508d9101620003a6565b9250819262000398565b634e487b7160e01b8c52602260045260248cfd5b90607f1690620000c0565b634e487b7160e01b600052604160045260246000fd5b600080fd5b60408051919082016001600160401b03811183821017620003ee5760405256fe6080604081815260048036101561001557600080fd5b600092833560e01c90816301ffc9a7146115085750806306fdde031461143d578063081812fc1461141d578063095ea7b3146112b05780630bc59b381461125f57806318160ddd146112915780631dc82a751461125f57806323b872dd1461123a578063248a9ca3146112105780632f2ff15d146111645780632f745c59146110b857806336568abe1461102657806342842e0e14610fc957806342966c6814610c845780634f558e7914610c455780634f6ccce714610bb25780636352211e14610b815780636a6278421461091357806370a08231146108e6578063715018a6146108895780638da5cb5b1461086057806391d148541461081a57806395d89b4114610704578063a217fddf146106e9578063a22cb4651461061a578063a2d6c6da14610553578063b88d4fde146104a0578063c87b56dd14610317578063d5391393146102dc578063d547741f1461029e578063e985e9c51461024c5763f2fde38b1461018357600080fd5b346102485760203660031901126102485761019c6115f0565b906101a5611bb5565b6001600160a01b039182169283156101f6575050600b54826001600160601b0360a01b821617600b55167f8be0079c531659141344cd1fd0a4f28419497f9722a3daafe3b4186f6b6457e08380a380f35b906020608492519162461bcd60e51b8352820152602660248201527f4f776e61626c653a206e6577206f776e657220697320746865207a65726f206160448201526564647265737360d01b6064820152fd5b8280fd5b50503461029a578060031936011261029a5760ff8160209361026c6115f0565b61027461160b565b6001600160a01b0391821683526005875283832091168252855220549151911615158152f35b5080fd5b5090346102485780600319360112610248576102d991356102d460016102c261160b565b93838752600a60205286200154611809565b611b3f565b80f35b50503461029a578160031936011261029a57602090517f9f2df0fed2c77648de5860a4cc508cd0818c85b8b8a1ab4ceeef8d981c8956a68152f35b509034610248576020918260031936011261049c57600c5482516f636f6e74726163742e6164647265737360801b858201908152754672656e73506f6f6c5368617265546f6b656e55524960501b6030830152602682526001600160a01b0393919260608401919085169067ffffffffffffffff831185841017610489578260248180948b948d9998978c52885190206321f8a72160e01b835260648901525afa92831561047f5787908594610444575b5050506024908551948593849263c87b56dd60e01b8452803590840152165afa93841561043957809461040f575b505061040b90519282849384528301906115cb565b0390f35b61040b92945090610431913d8091833e6104298183611656565b8101906117a7565b9290386103f6565b8251903d90823e3d90fd5b9080929394503d8311610478575b61045c8185611656565b81010312610248575183811681036102485790602486386103c8565b503d610452565b86513d86823e3d90fd5b634e487b7160e01b895260418452602489fd5b8380fd5b509034610248576080366003190112610248576104bb6115f0565b906104c461160b565b604435906064359467ffffffffffffffff861161054f573660238701121561054f57850135936104ff6104f68661168e565b94519485611656565b84845286366024878901011161054c576020866105479760246102d99a0183890137860101526105376105328433611dc8565b611cf3565b610542838383611edc565b612313565b611da8565b80fd5b8680fd5b509034610248576020918260031936011261049c57838135808252600d85528260018060a01b0386818786205416875196878092638ae578fd60e01b82525afa94851561047f5784956105df575b50906024918651958694859363516b636d60e11b8552840152165afa93841561043957809461040f57505061040b90519282849384528301906115cb565b9094508681813d8311610613575b6105f78183611656565b8101031261049c575190848216820361049c57909360246105a1565b503d6105ed565b5090346102485780600319360112610248576106346115f0565b90602435918215158093036106e5576001600160a01b0316923384146106a35750338452600560205280842083855260205280842060ff1981541660ff8416179055519081527f17307eab39ab6107e8899845ad3d59bd9653f200f220920489ca2b5937696c3160203392a380f35b6020606492519162461bcd60e51b8352820152601960248201527f4552433732313a20617070726f766520746f2063616c6c6572000000000000006044820152fd5b8480fd5b50503461029a578160031936011261029a5751908152602090f35b50913461054c578060031936011261054c578151918160019283549384811c91818616958615610810575b60209687851081146107fd578899509688969785829a5291826000146107d657505060011461077b575b50505061040b929161076c910385611656565b519282849384528301906115cb565b91908693508083527fb10e2d527612073b26eecdfd717e6a320cf44b4afac2b0732d9fcbe2b7fa0cf65b8284106107be575050508201018161076c61040b610759565b8054848a0186015288955087949093019281016107a5565b60ff19168782015293151560051b8601909301935084925061076c915061040b9050610759565b634e487b7160e01b835260228a52602483fd5b92607f169261072f565b50346102485781600319360112610248578160209360ff9261083a61160b565b90358252600a86528282206001600160a01b039091168252855220549151911615158152f35b50503461029a578160031936011261029a57600b5490516001600160a01b039091168152602090f35b833461054c578060031936011261054c576108a2611bb5565b600b80546001600160a01b0319811690915581906001600160a01b03167f8be0079c531659141344cd1fd0a4f28419497f9722a3daafe3b4186f6b6457e08280a380f35b50503461029a57602036600319011261029a5760209061090c6109076115f0565b611c0d565b9051908152f35b5082903461029a5760209081600319360112610248576109316115f0565b7f9f2df0fed2c77648de5860a4cc508cd0818c85b8b8a1ab4ceeef8d981c8956a68452600a8352848420338552835260ff858520541615610b3f5760085491828552600d84528585206001600160601b0360a01b90338282541617905586519480860186811067ffffffffffffffff821117610b2c5788528686526001600160a01b038416928315610aec576000868152600260205260409020546109e2906001600160a01b031615155b15611e36565b6008549086895260098352818a8a2055600160401b821015610ad9575091836102d99899600288979694610a4089610a258960016105479f9e9b0160085561239e565b90919082549060031b600019811b9283911b16911916179055565b8c83610a4b8a611c0d565b8683526006845281832081845284528183208a905589835260078452912055600d8152600087815260026020526040902054610a91906001600160a01b031615156109dc565b838d5260038152828d2060018154019055868d52528a2091825416179055877fddf252ad1be2c89b69c2b068fc378daa952ba7f163c4a11628f55a4df523b3ef8180a46121f7565b634e487b7160e01b895260419052602488fd5b816064928a519262461bcd60e51b845283015260248201527f4552433732313a206d696e7420746f20746865207a65726f20616464726573736044820152fd5b634e487b7160e01b885260418452602488fd5b5060649184519162461bcd60e51b8352820152601b60248201527f796f7520617265206e6f7420616c6c6f77656420746f206d696e7400000000006044820152fd5b50913461054c57602036600319011261054c5750610ba160209235611cd0565b90516001600160a01b039091168152f35b50823461054c57602036600319011261054c5750803590600854821015610bed57602083610bdf8461239e565b91905490519160031b1c8152f35b608490602084519162461bcd60e51b8352820152602c60248201527f455243373231456e756d657261626c653a20676c6f62616c20696e646578206f60448201526b7574206f6620626f756e647360a01b6064820152fd5b50913461054c57602036600319011261054c5750610c7b60209235600052600260205260018060a01b0360406000205416151590565b90519015158152f35b5082903461029a5760209283600319360112610248578135808452600d85528184205490926001600160a01b0392909183163303610f7b57610cc584611cd0565b838116801597918815610efa575050600854858752600982528083882055600160401b811015610ee75785610a25826001610d03940160085561239e565b6008546000199490858101908111610ed45786885260098352610d29848920549161239e565b90549060031b1c610d3d81610a258461239e565b885260098352838820558587528683812055600854978815610ec15785889998979801610d698161239e565b8882549160031b1b19169055600855878752600d8352818488205416901580610eba575b610e01575b5090600291610da088611cd0565b948888528252838720946001600160601b0360a01b958681541690551694858752600382528387209081540190558686525283209081541690557fddf252ad1be2c89b69c2b068fc378daa952ba7f163c4a11628f55a4df523b3ef8280a480f35b8394959650916024919281945192838092635a2d1e0760e11b82528b8a8301525afa908115610eb0578891610e77575b50610e425790869493929188610d92565b50905162461bcd60e51b815291820152601060248201526f6e6f74207472616e7366657261626c6560801b6044820152606490fd5b90508281813d8311610ea9575b610e8e8183611656565b81010312610ea557610e9f906116aa565b88610e31565b8780fd5b503d610e84565b84513d8a823e3d90fd5b5086610d8d565b634e487b7160e01b885260318552602488fd5b634e487b7160e01b885260118552602488fd5b634e487b7160e01b875260418452602487fd5b610f0390611c0d565b600019810191908211610ed4578688526007835283882054828103610f44575b50868852878481205587526006825282872090875281528582812055610d03565b81895260068452848920838a52845284892054828a5260068552858a20828b52855280868b20558952600784528489205589610f23565b5162461bcd60e51b8152908101859052602360248201527f63616e6e6f74206275726e207368617265732066726f6d206f7468657220706f6044820152626f6c7360e81b6064820152608490fd5b5091903461029a57610fda36611621565b91835193602085019085821067ffffffffffffffff83111761101357916102d99593916105479593528684526105376105328433611dc8565b634e487b7160e01b875260418852602487fd5b5082903461029a578260031936011261029a5761104161160b565b90336001600160a01b0383160361105d57906102d99135611b3f565b608490602085519162461bcd60e51b8352820152602f60248201527f416363657373436f6e74726f6c3a2063616e206f6e6c792072656e6f756e636560448201526e103937b632b9903337b91039b2b63360891b6064820152fd5b50913461054c578160031936011261054c576110d26115f0565b602435906110df81611c0d565b82101561110d576001600160a01b031682526006602090815283832091835290815290829020548251908152f35b835162461bcd60e51b8152602081870152602b60248201527f455243373231456e756d657261626c653a206f776e657220696e646578206f7560448201526a74206f6620626f756e647360a81b6064820152608490fd5b5034610248578160031936011261024857359061117f61160b565b90828452600a60205261119760018286200154611809565b828452600a60209081528185206001600160a01b039093168086529290528084205460ff16156111c5578380f35b828452600a6020528084208285526020528320600160ff1982541617905533917f2f8788117e7eff1d82e926ec794901d17c78024a50270940304540a733656f0d8480a43880808380f35b50346102485760203660031901126102485781602093600192358152600a85522001549051908152f35b833461054c576102d961124c36611621565b9161125a6105328433611dc8565b611edc565b503461024857602036600319011261024857358252600d6020908152918190205490516001600160a01b039091168152f35b50503461029a578160031936011261029a576020906008549051908152f35b50346102485781600319360112610248576112c96115f0565b6024359290916001600160a01b03919082806112e487611cd0565b169416938085146113d0578033149081156113b1575b501561134957848652602052842080546001600160a01b0319168317905561132183611cd0565b167f8c5be1e5ebec7d5bd14f71427d1e84f3dd0314c0f7b2291e5b200ac8c7c3b9258480a480f35b6020608492519162461bcd60e51b8352820152603d60248201527f4552433732313a20617070726f76652063616c6c6572206973206e6f7420746f60448201527f6b656e206f776e6572206f7220617070726f76656420666f7220616c6c0000006064820152fd5b90508652600560205281862033875260205260ff8287205416386112fa565b506020608492519162461bcd60e51b8352820152602160248201527f4552433732313a20617070726f76616c20746f2063757272656e74206f776e656044820152603960f91b6064820152fd5b50913461054c57602036600319011261054c5750610ba1602092356116b7565b50913461054c578060031936011261054c5781519181825492600184811c918186169586156114fe575b60209687851081146107fd578899509688969785829a5291826000146107d65750506001146114a35750505061040b929161076c910385611656565b91908693508280527f290decd9548b62a8d60345a988386fc84ba6bc95484008f6362f93160ef3e5635b8284106114e6575050508201018161076c61040b610759565b8054848a0186015288955087949093019281016114cd565b92607f1692611467565b92505034610248576020366003190112610248573563ffffffff60e01b81168091036102485760209250637965db0b60e01b811490811561154b575b5015158152f35b63780e9d6360e01b811491508115611565575b5038611544565b6380ac58cd60e01b811491508115611597575b8115611586575b503861155e565b6301ffc9a760e01b1490503861157f565b635b5e139f60e01b81149150611578565b60005b8381106115bb5750506000910152565b81810151838201526020016115ab565b906020916115e4815180928185528580860191016115a8565b601f01601f1916010190565b600435906001600160a01b038216820361160657565b600080fd5b602435906001600160a01b038216820361160657565b6060906003190112611606576001600160a01b0390600435828116810361160657916024359081168103611606579060443590565b90601f8019910116810190811067ffffffffffffffff82111761167857604052565b634e487b7160e01b600052604160045260246000fd5b67ffffffffffffffff811161167857601f01601f191660200190565b5190811515820361160657565b6000818152600260205260409020546116da906001600160a01b03161515611c84565b6000818152600d60205260018060a01b03908160408220541692604051637e01dd6960e11b8152816004820152606081602481885afa90811561179c578391611760575b501561172a5750505090565b600081815260026020526040908190205493945092611753906001600160a01b03161515611c84565b8152600460205220541690565b90506060813d8211611794575b8161177a60609383611656565b8101031261024857604061178e91016116aa565b3861171e565b3d915061176d565b6040513d85823e3d90fd5b6020818303126116065780519067ffffffffffffffff8211611606570181601f820112156116065780516117da8161168e565b926117e86040519485611656565b818452602082840101116116065761180691602080850191016115a8565b90565b600090808252602090600a8252604092838120338252835260ff8482205416156118335750505050565b83519167ffffffffffffffff90336060850183811186821017611b2b578752602a85528585019187368437855115611b175760308353855191600192831015611b03576078602188015360295b838111611a995750611a575790875193608085019085821090821117611a4357885260428452868401946060368737845115611a2f57603086538451821015611a2f5790607860218601536041915b8183116119c15750505061197f5761197b93869361195f936119506048946119279a519a8b957f416363657373436f6e74726f6c3a206163636f756e74200000000000000000008c88015251809260378801906115a8565b8401917001034b99036b4b9b9b4b733903937b6329607d1b6037840152518093868401906115a8565b01036028810187520185611656565b5192839262461bcd60e51b8452600484015260248301906115cb565b0390fd5b60648587519062461bcd60e51b825280600483015260248201527f537472696e67733a20686578206c656e67746820696e73756666696369656e746044820152fd5b909192600f81166010811015611a1b576f181899199a1a9b1b9c1cb0b131b232b360811b901a6119f185886123eb565b5360041c928015611a07576000190191906118cf565b634e487b7160e01b82526011600452602482fd5b634e487b7160e01b83526032600452602483fd5b634e487b7160e01b81526032600452602490fd5b634e487b7160e01b86526041600452602486fd5b60648789519062461bcd60e51b825280600483015260248201527f537472696e67733a20686578206c656e67746820696e73756666696369656e746044820152fd5b90600f81166010811015611aef576f181899199a1a9b1b9c1cb0b131b232b360811b901a611ac7838a6123eb565b5360041c908015611adb5760001901611880565b634e487b7160e01b87526011600452602487fd5b634e487b7160e01b88526032600452602488fd5b634e487b7160e01b86526032600452602486fd5b634e487b7160e01b85526032600452602485fd5b634e487b7160e01b85526041600452602485fd5b90600091808352600a602052604083209160018060a01b03169182845260205260ff604084205416611b7057505050565b808352600a602052604083208284526020526040832060ff1981541690557ff6391f5c32d9c69d2a47ea670b442974b53935d1edc7fd64eb21e047a839171b339380a4565b600b546001600160a01b03163303611bc957565b606460405162461bcd60e51b815260206004820152602060248201527f4f776e61626c653a2063616c6c6572206973206e6f7420746865206f776e65726044820152fd5b6001600160a01b03168015611c2d57600052600360205260406000205490565b60405162461bcd60e51b815260206004820152602960248201527f4552433732313a2061646472657373207a65726f206973206e6f7420612076616044820152683634b21037bbb732b960b91b6064820152608490fd5b15611c8b57565b60405162461bcd60e51b815260206004820152601860248201527f4552433732313a20696e76616c696420746f6b656e20494400000000000000006044820152606490fd5b6000908152600260205260409020546001600160a01b0316611806811515611c84565b15611cfa57565b60405162461bcd60e51b815260206004820152602d60248201527f4552433732313a2063616c6c6572206973206e6f7420746f6b656e206f776e6560448201526c1c881bdc88185c1c1c9bdd9959609a1b6064820152608490fd5b60809060208152603260208201527f4552433732313a207472616e7366657220746f206e6f6e20455243373231526560408201527131b2b4bb32b91034b6b83632b6b2b73a32b960711b60608201520190565b15611daf57565b60405162461bcd60e51b81528061197b60048201611d55565b906001600160a01b038080611ddc84611cd0565b16931691838314938415611e0f575b508315611df9575b50505090565b611e05919293506116b7565b1614388080611df3565b909350600052600560205260406000208260005260205260ff604060002054169238611deb565b15611e3d57565b60405162461bcd60e51b815260206004820152601c60248201527f4552433732313a20746f6b656e20616c7265616479206d696e746564000000006044820152606490fd5b15611e8957565b60405162461bcd60e51b815260206004820152602560248201527f4552433732313a207472616e736665722066726f6d20696e636f72726563742060448201526437bbb732b960d91b6064820152608490fd5b611f0091611ee984611cd0565b6001600160a01b0393848416939185168414611e82565b8382169384156121a65783801592836000146120f35750506008549286600052600960205283604060002055600160401b84101561167857611f4d87610a2586600189980160085561239e565b8386036120c0575b5084600092878452602092600d84526040918183872054169015806120b8575b612000575b507fddf252ad1be2c89b69c2b068fc378daa952ba7f163c4a11628f55a4df523b3ef95611fb191611faa8b611cd0565b1614611e82565b878452600483526002818520936001600160601b0360a01b94858154169055878652600381528286206000198154019055838652828620600181540190558986525283209182541617905580a4565b8495965082602493959294505192838092635a2d1e0760e11b82528c60048301525afa9081156120ae578591612079575b506120425784939291869138611f7a565b815162461bcd60e51b815260048101849052601060248201526f6e6f74207472616e7366657261626c6560801b6044820152606490fd5b90508381813d83116120a7575b6120908183611656565b810103126106e5576120a1906116aa565b38612031565b503d612086565b83513d87823e3d90fd5b506001611f75565b6120c990611c0d565b60406000878152600660205281812083825260205288828220558881526007602052205538611f55565b8682959203612103575b50611f4d565b61210e919450611c0d565b6000198101939084116121905784936000908882526020906007825260409182842054828103612159575b508a845283838120558784526006815282842091845252812055386120fd565b8885526006825283852083865282528385205489865260068352848620828752835280858720558552600782528385205538612139565b634e487b7160e01b600052601160045260246000fd5b60405162461bcd60e51b8152602060048201526024808201527f4552433732313a207472616e7366657220746f20746865207a65726f206164646044820152637265737360e01b6064820152608490fd5b9192600092909190803b1561230957612245946040518092630a85bd0160e11b9485835233600484015287602484015260448301526080606483015281878160209a8b9660848301906115cb565b03926001600160a01b03165af18491816122c9575b506122b8575050503d6000146122b0573d6122748161168e565b906122826040519283611656565b81528091833d92013e5b805191826122ad5760405162461bcd60e51b81528061197b60048201611d55565b01fd5b50606061228c565b6001600160e01b0319161492509050565b9091508581813d8311612302575b6122e18183611656565b810103126106e557516001600160e01b0319811681036106e557903861225a565b503d6122d7565b5050915050600190565b9293600093909291803b156123935794849161236d9660405180948193630a85bd0160e11b9788845233600485015260018060a01b0380921660248501526044840152608060648401528260209b8c9760848301906115cb565b0393165af18491816122c957506122b8575050503d6000146122b0573d6122748161168e565b505050915050600190565b6008548110156123d55760086000527ff3f7a9fe364faab93b216da50a3214154f22a0a2b415b23a84c8169e8b636ee30190600090565b634e487b7160e01b600052603260045260246000fd5b9081518110156123d557016020019056fea2646970667358221220b3ae91f69940b823159207eaf627dbf6d854c99fd544bfbb2601cbe0bfffb95d64736f6c63430008110033",
    "linkReferences": {}
  },
  "methodIdentifiers": {
    "DEFAULT_ADMIN_ROLE()": "a217fddf",
    "MINTER_ROLE()": "d5391393",
    "approve(address,uint256)": "095ea7b3",
    "balanceOf(address)": "70a08231",
    "burn(uint256)": "42966c68",
    "exists(uint256)": "4f558e79",
    "getApproved(uint256)": "081812fc",
    "getPoolById(uint256)": "0bc59b38",
    "getRoleAdmin(bytes32)": "248a9ca3",
    "grantRole(bytes32,address)": "2f2ff15d",
    "hasRole(bytes32,address)": "91d14854",
    "isApprovedForAll(address,address)": "e985e9c5",
    "mint(address)": "6a627842",
    "name()": "06fdde03",
    "owner()": "8da5cb5b",
    "ownerOf(uint256)": "6352211e",
    "poolByIds(uint256)": "1dc82a75",
    "renderTokenById(uint256)": "a2d6c6da",
    "renounceOwnership()": "715018a6",
    "renounceRole(bytes32,address)": "36568abe",
    "revokeRole(bytes32,address)": "d547741f",
    "safeTransferFrom(address,address,uint256)": "42842e0e",
    "safeTransferFrom(address,address,uint256,bytes)": "b88d4fde",
    "setApprovalForAll(address,bool)": "a22cb465",
    "supportsInterface(bytes4)": "01ffc9a7",
    "symbol()": "95d89b41",
    "tokenByIndex(uint256)": "4f6ccce7",
    "tokenOfOwnerByIndex(address,uint256)": "2f745c59",
    "tokenURI(uint256)": "c87b56dd",
    "totalSupply()": "18160ddd",
    "transferFrom(address,address,uint256)": "23b872dd",
    "transferOwnership(address)": "f2fde38b"
  },
  "id": 4
}