{
  "abi": [
    {
      "inputs": [],
      "name": "getWaves",
      "outputs": [
        {
          "internalType": "bytes",
          "name": "",
          "type": "bytes"
        }
      ],
      "stateMutability": "pure",
      "type": "function"
    }
  ],
  "bytecode": {
    "object": "0x60808060405234610016576117ce908161001c8239f35b600080fdfe6080600436101561000f57600080fd5b6000803560e01c63a9d42f7e1461002557600080fd5b346117955780600319360112611795576020917f3c696d616765206f7061636974793d222e33222020786c696e6b3a687265663d838201527f22646174613a696d6167652f706e673b6261736536342c6956424f5277304b4760408201527f676f414141414e5355684555674141415a41414141475141514d41414143366360608201527f61535041414141426c424d564556736648787366487863626c3274414141414160808201527f6e5253546c4d43395035316d623841414132505355524256486a61374a6c4e6a60a08201527f68764a4559574c717246716744475553322b4d4c674d2b6748554151366c626560c08201527f44752b676233545974444a4e67467a5a78356835695a544e41467a4f5435434e60e08201527f6267594c5a4f51466a6d44564b586669386773567639595a73334b69307074316101008201527f4630714d6a506978526376556c57317247557461316e4c577461796c7257735a6101208201527f5331725763746131724b577461786c4c57745a793172577370613172475574616101408201527f316e4c577461796c7257735a5331725763746131724b5739662b787670372f536101608201527f707a2f53766f46722f537a583346683969746d2f6d4657762b4177626a33376c6101808201527f58626d2b562f694d4837654b362b717170345a736a645676356f5a736c73495a6101a08201527f706a33796c41352f4a6d566c4b464b6e65336d764e4c457976566d56705152346101c08201527f445930666d59616d7a6776796a6a474b73324c4d76586c31724f696e463579636101e08201527f3235576a4347597874735a5771376a546458566f5a32526d436263566d4556356102008201527f7954476547532f757032546d505a65424c4f5a6b5a6a326746643875352b52476102208201527f4c754478714b356e2f474b613647783150675a69526c73583956704536352f5a6102408201527f5255644d704c32386670633169483944516679772f5735624d344a676a4842376102608201527f61374f70546b4e4e3958624a74726a31626c736a2f464e4665716850595872306102808201527f7849474d43615a6337772b4c57634b786d3344634831615468534d50555233666102a08201527f56702b434f6869454f6531695546617676575647597850317a594d70455545556102c08201527f794d782f7571306b4441557a4c574a515672594a323250784d5272302f4c54516102e08201527f4368355a38374474576e354545566a6468765374576e354d62797050415344786103008201527f4b79765459752f72595a564d6b684d64313161334c63397372394f32327354776103208201527f3753514d4c3037584a7359624d64745935574376556469776e555169776c647a6103408201527f4d5857583573596848624145557871777639497a472f48744b437970497474496103608201527f684f7a2f7079664b476c422f556f58327a4d786e3474795356704e4d615958466103808201527f41775438376b6f6c342f4443585966426f5553456d504336494f6542737158336103a08201527f704b776e7876614259764548485049374c4f644b7a2b44536f37553247706f6b6103c08201527f5a6a37394638396346336e63435a6f6355654e415570496a452b793466715a566103e08201527f356f374457654e33554e5a3142696735464142736d487a5448354d352f497a516104008201527f45773142696a5a6264522f2f4a7872627674576e746c675478476672314243426104208201527f327934732f6f3562323543667562644d56426a4c61466b635071456a374a702f6104408201527f666f5a4231616e794764643270325a774470744a544764545669786576666b6c6104608201527f542f4447715a504c715656676e7874686849533078752b34702b7854543674576104808201527f7a35446a3042616e436149696645722f6e706450336c6c4656785838316e48356104a08201527f75554a4a66794669596e6f7a536c554a6a786c424f4b5058513955497a3663546104c08201527f676d4238363742345355412f716d647776434272316d4c5941345a536a6a55496104e08201527f52664d4d31464f7a555577646776426646507832397237497069377834587a706105008201527f6273727a7967543270364b586378344655553731492b2f35735a32535a3431416105208201527f38384d7762694f6b5775436c56436c3244782b7862613950724f526b5157556e6105408201527f47635832305444777a544a50356c4e734831356c6c756b51416c34616664446a6105608201527f516858434c3539386932484b4d384d494c6e317444316d59456e3334477a362b6105808201527f48314b542b637338586d70523662586250644f6f65534f33716e475170572b656105a08201527f4a5157714859747a3459566f5a51796c453742396f32496f68346541614e475a6105c08201527f44743535676d6c63345a536534347450702b6961474c3753506f48454a6a506b6105e08201527f68696b55344653474a4268534c6e486f504849417a543341335458634d2f38386106008201527f434f67394a5a664678303551583235783359655236466766764d527a2f6344626106208201527f412b7439634445374655554b3554655934693575364b2f44644e4370775365676106408201527f7a564a564e39674e506e646731642b44317972566d763069475456576d395a4f6106608201527f6c597067697a39356345726630573132364251776c66596a566872794f4159446106808201527f48653253734834683056477070696b77494c473250686f72566b7844536b43556106a08201527f6254334431386875527275724b4847416e6e66446730546731366533694f55616106c08201527f7a5462522b376767476544364d3974495565506c7a644d444d536c55454a4c666106e08201527f7a6a66496a4b5643415a514d69667058654b556f4c594d7063486354392f34416107008201527f6d463161336b5755664a48615878305375786943695549356a424e2f797645306107208201527f2b717a486e573438366b344a5a374b6969686767716176744b316f6a4474544b6107408201527f45466a627873364a62666c41542b4a594d7755474f3375666d674553703737516107608201527f62324e54696c4443594a354f414730364d485533316676745974746f624862536107808201527f687579696f4b436564445044547039562f53334662424b46384d657654616a6c6107a08201527f6d55395063735766714a33457968425936346e39376568465646514d4f6e4c536107c08201527f526b66344670384f3448536756417938686444766f6c67686a394f796869744c6107e08201527f6e6378364d2b7144624f786b613944544e3653496e6a3764764c4b6d5979724b6108008201527f5a68576f45537a5a34616168307053336e69554867774e446661317a3249696c6108208201527f4d5253727449646e5a4c7274464f744d41444736525474544a2b37474b476b786108408201527f745631347051796c42725551706732462f4331514b6b52462f5a43356e306d786108608201527f697555444d39345363787247423236434e6d5845612b5872545861654353554f6108808201527f6c4447626538765748376e647663522b6a4d4b4a6459693533316f4e7a6955646108a08201527f50554868426d454d61644c7858774430306247495144435658464b67525553416108c08201527f61567362653551464a6458784270756976343264457253785a695972444745506108e08201527f4e724a6d4a6e45674536674e4d373753457a70564e4459524d70417a77564b376109008201527f455257353332324d3268737a652f325a4e572f70763049483963574b4a304b6c6109208201527f4d37716c414a4630634762753339637450396868424a636c4430574b415536706109408201527f52567a78533647625937393474664e5761475578436b354f43557255424a37736109608201527f63354f43594b357a49773364635342693862454b626b6532392f545a6c6831536109808201527f6e334e6b492f397774347872434f554f45366b66394b43694c315170385175646109a08201527f72694d575154456351496c37437a396e5932492b654770564253517a334178316109c08201527f5135376b52754f4443584f2b7951583763565172527964456b523669713948576109e08201527f326c78596b43704576335257684e4b6a54696c73564f78464d4b377356794131610a008201527f46544d7331687251416b567a4d52304579687478794a5463452b646b737a3764610a208201527f2f68624d763045537274796c394e55306835476130316c6e41676c4a7842552b610a408201527f797851616b754c4d5a30306f536d554f4538344c2f347653754e726b76696d30610a608201527f6d4a614c3632754e4558705967496c4254724273364a546f68437a2b74764972610a808201527f527755536c6136474b4545624a4a6e475572714164744f7779656a6e54716c44610aa08201527f4b5854554d613348304c57474b44456f736f47733959367a46434b674e49786c610ac08201527f76487478336a5247457533754d5845677757723174717a6977573968457a6d41610ae08201527f2b4b33556968787168754b5737517966574837547079535a31726b45744a7466610b008201527f306f5152534e4f79544d74343844474a46462f72435a384f495879707670616e610b208201527f64496d53394642317a52306370524b377076346366707354787479572f465170610b408201527f78464b4b3457532f744430596733686c4c4a364e7146416965446f586459596f610b608201527f5a544850784130595a63324e37356166456942456b53683446456f4858516e67610b808201527f41364d3668524b6f684f39684152717841316c4b4945703630703732756d4255610ba08201527f784c31453070733578434d483645454961367a534d384b4a61395179764d2b64610bc08201527f7568496b5349594e74546564615555754257452b4e38726832324f383735596b610be08201527f78464b71424137466877454d344553593675435962566d7030516f3464636a36610c008201527f2f63544b495678336764347a476d307a77716c4d686335723143714c31444b34610c208201527f787377716c44793470525175347871773538796c4a794d622f316c33742f6f35610c408201527f37716668576f6b52433878686a736a6c4a42534f6f4b786933486533342b3746610c608201527f796a523272325574496a507530427063356e332b2b485371654143574b4f5753610c808201527f596f43705846386b78364265642f524b626b485542496477655a4c5759762b4c610ca08201527f6c32737a664d2b3237684379516b676a71486d50716b46684b2f4e546c32366d610cc08201527f497876394e6749524c4850784e424f423759564e555a566d587758514b655572610ce08201527f6656677846702f39797542456e356478734c41756a67574b5045494f7538334d610d008201527f752b724b416274597031576a346e5374716d2f5439386e755878546133314842610d208201527f2b667954452f6a4d4e6a785471536551496c3377676531316a496c5a46474974610d408201527f63624d564162704f376b563649714c6f7474354d56707273632b5254516a7567610d608201527f464f2f65552f3979643144466f7952716671565445376f46744b70564443374d610d808201527f3156315936514e43705445576e647969793461712b556f68794b4b5471624d44610da08201527f6a495342795a51476b596f57567072722b4e624e3837374c417057694a554b55610dc08201527f53697452796a702b4a614d574f76637157715a6d485049455439613639457036610de08201527f627950726f475937494a324b68664a716a3272665332444e4147525856544c2f610e008201527f393267594e4362546b5273466f566e576a5a425446416a39303251694d373768610e208201527f464c495549492b547a7276753951784c5931763956496736443243414973666f610e408201527f4949785567586e43355132534576765647506c74674968356a617078647a466d610e608201527f4a694c55304a6152696a7854724d66352f3034516f6c3073796f4b685a49646f610e808201527f5351334c2b4f38543255496c41546e6f314d4b72546f616d6230547238354375610ea08201527f57397171497738372b2f6b456c4b68354b556f7845783766687743717a394667610ec08201527f564b3231685172787a663355626f596f392b503977686274645a694651564b37610ee08201527f47496931767352715649552b57514e4461463743435769524b376a664c70304d610f008201527f64616f786d394651326a5852582b73305830574449347973645a79315a546545610f208201527f3071774c4777642f7047316c71764632476f58433549387664397056582f476c610f408201527f307449707157525330683574394575316c737846426c4b58736856786a656439610f608201527f373161363161733958646679627850703151636d504152523472366e64743843610f808201527f616b553664786c6643732b7231476e4c7065516635724f2b787568534c364572610fa08201527f4b576f316d58457a5536396e637a37315955693437782f696d4d6d6e44723134610fc08201527f70545946504c2f6a476a624b66502b5561364c644453514573337a2f70704757610fe08201527f793868525a394e306b36467a72435453366c4d4e5942416e4a4972383336346f6110008201527f564e7154394d754a6b374a463359534e794d3739336f4a4756646161324d58476110208201527f2f6976644a62313470547341796a316f6a455a6c762f546c746e6b4e417844516110408201527f64695668624c4d45584945626b4276775a6162554351575858494662674a524c6110608201527f684b5542647430676551694b38597a37796347735733564b7248473837365a706110808201527f354e717735485865326848336a643346474e464e635a49626e6d4c306973485a6110a08201527f565a536f356551626b727355354f624571716d54464d366b705371332b776c4a6110c08201527f4b635970324d397536696949436b6c462b6b46564244563158534b446267466b6110e08201527f766472474e396f536f4d4348556d70506a33364a696b684f6357696245594d726111008201527f5758777a534959584469595576415355715a596155337058654c62614664336c6111208201527f4c7a666539356657315053764539534f754f496e6b522f534950426932354f736111408201527f59476d314c486f6e686e667945303935495076467333376d66454e55347969516111608201527f4541503453314c70375141326258345a4e36766e39397544536e463332684e556111808201527f7249336b3959314f6c714c4b5145414c764236635248457478637a7059532b796111a08201527f556d707337786653516e613937776653556f48443044595a53744675536e4e4d6111c08201527f4b586e706f54456d5865367061424531754f6676453954476a6458465150626f6111e08201527f49717a2b4c626e666154667a4e304e74507631554239462f396530712f484e386112008201527f373673617a7468595330685258706c2f53652b426152713776636e73724463776112208201527f316b6d2f64684d735a3355595571356b4a526753723251457442366b576e444e6112408201527f2f366764646e6f714c2b2f4d72346c5449754f6e7249476f5262626a32417a4e6112608201527f796c6173314d617548326a594172324c766576516b6f557165616b30396c494b6112808201527f64475550764d6453364170573936434654524c517578315a504464664b4d57796112a08201527f366553486e3841535932416149484c54714941414141415355564f524b3543596112c08201526524a49e91179f60d11b6112e08201526112c6815261130081019181831067ffffffffffffffff841117611781578260405283835281519081611320840152805b82811061176c57508282016113400152601f01601f19168101036040019150f35b8086918501611340838201519101520161174b565b634e487b7160e01b81526041600452602490fd5b80fdfea2646970667358221220b6e56d88c91942e353d74277b1dbd61b389e80455732b18be2d861ff8845601c64736f6c63430008110033",
    "linkReferences": {}
  },
  "methodIdentifiers": {
    "getWaves()": "a9d42f7e"
  },
  "id": 10
}