{
  "abi": [
    {
      "inputs": [],
      "name": "getLogo",
      "outputs": [
        {
          "internalType": "bytes",
          "name": "",
          "type": "bytes"
        }
      ],
      "stateMutability": "pure",
      "type": "function"
    }
  ],
  "bytecode": {
    "object": "0x6080806040523461001657611d24908161001c8239f35b600080fdfe6080600436101561000f57600080fd5b6000803560e01c630b6700d61461002557600080fd5b34611ceb5780600319360112611ceb577f3c67206f7061636974793d22302e3235222066696c6c3d2223303046464646226020838101919091527f207472616e73666f726d3d226d6174726978282e34302c302c302c2e34302c30604084015264161814911f60d91b60608401527f3c706174682020643d224d3731342e322c3531362e3263312e382d312c332e3360658401527f2d322c332e392d342e316c302d302e396c2d302e362d31632d302e342d302e3760858401527f2d302e382d312e332d312e322d32632d362e372d31302e352d31332e332d323060a5840152690b8e4b4c8c0b4ccc4b8d60b21b60c58401527f6331302e342d31362e352c31382e382d33332e362c31382e382d35372e36633060cf8401527f2d31342e332d322e352d32342e332d372e362d33302e37632d342e322d352e3360ef8401527f2d31302e332d372e392d31382d372e39632d31392e372c302d32382e352c313461010f8401527f2e392d33352e332c33302e326c2d35342e382d38362e3100000000000000000061012f8401527f632d31322e312d31392d32342e322d33372e392d33362e322d35362e39632d316101468401527f302e312d31352e392d32302e332d33312e392d33302e342d34372e386c2d32336101668401527f2e312d33362e32632d302e382d312e332d322e312d322d332e352d326c302c306101868401527f632d312e342c302d322e372c302e382d332e352c322e310000000000000000006101a68401527f632d302e312c302e322d302e322c302e342d302e332c302e35632d302e312c306101bd8401527f2e322d302e322c302e342d302e332c302e366c2d31352e362c32342e35632d316101dd8401527f302c31352e372d32302c33312e342d33302c34372e316c2d38382e332c3133386101fd8401527f2e36632d31302e392d352e322d32332d382e312d33352d382e3100000000000061021d8401527f632d32332e382c302d35312e362c382e362d35312e362c33322e3963302c392e6102378401527f332c372e392c31362c32322e312c32382e3363352e382c352c31322e362c31306102578401527f2e382c31392e352c31372e35632d332e352c352e342d362e392c31302e392d31610277840152700605c6858626c5c66d85a625c7058645c7607b1b6102978401527f632d352e312c382d31302e332c31362e322d31352e352c32342e33632d302e386102a88401527f2c312e332d312e312c322e352d302e392c332e3663302e332c312e312c312c326102c88401527f2c322e332c322e376c37342e342c34322e3363302e322c322e392c302e332c356102e88401527f2e392c302e332c3963302c332e352c302e312c362e392c302e342c31302e32006103088401527f6c2d35312e352d3330632d362e332d332e372d31322e392d372e352d31392e336103278401527f2d31312e32632d302e372d302e342d322e312d312e312d332e342d302e39632d6103478401527f312e342c302e322d322e352c312d332c322e32632d302e352c312e322d302e346103678401526b058645c6e58605c6a58665c760a31b6103878401527f63312e332c312e392c322e372c332e372c342e312c352e3563302e352c302e376103938401527f2c312e312c312e342c312e362c322e316c382e372c31312e366331312e392c316103b38401527f352e382c32332e382c33312e362c33352e372c34372e346c32322e382c33302e6103d38401527f3263392e332c31322e332c31382e362c32342e372c32372e392c3337000000006103f38401527f6331302e382c31342e332c32312e362c32382e372c33322e342c34336c37342e61040f8401527f322c39382e3563302e392c312e322c322e312c312e392c332e342c312e396c3061042f8401527f2c3063312e332c302c322e352d302e372c332e342d312e396c322e352d332e3361044f8401527f63322e372d332e362c352e342d372e322c382e312d31302e380000000000000061046f8401527f6c322e382d332e376331362e382d32322e322c33332e352d34342e352c35302e6104888401527f332d36362e376331352e352d32302e352c33302e392d34312c34362e342d36316104a88401527f2e356c37362e352d3130312e3563362e382d392c31332e362d31382c32302e336104c88401527f2d323763302e342d302e362c302e372d312e322c312d312e38000000000000006104e88401527f63302e312d302e332c302e322d302e352c302e342d302e386c302e312d302e326105018401527f6c302d302e32632d302e332d312e392d312e322d332d322e382d332e37632d316105218401527f2e362d302e372d322e392c302e312d342c302e376c2d382e322c342e38632d3161054184015275382e392c31312d33372e392c32322d35362e382c333360501b6105618401527f63332e342d382c362e372d31362e312c392e382d32342e33433637352e342c356105778401527f33382e332c3639342e382c3532372e332c3731342e322c3531362e324c3731346105978401527f2e322c3531362e327a204d3636302e362c3533372e3663302d302e312c302e316105b78401526b0b4c0b8ccb0c0b8c8b4c0b8d60a21b6105d78401527f63352e312d31332e332c31322e322d32342e392c31392e352d33366c32342e386105e38401527f2c31312e314c3636302e362c3533372e364c3636302e362c3533372e367a204d6106038401527f3730332e352c3530322e386c2d332e322d312e34632d332e322d312e342d362e61062384015275332d322e382d392e342d342e326c2d362e312d322e3760501b6106438401527f63302e312d302e322c302e332d302e342c302e342d302e3663312e312d312e366106598401527f2c322e322d332e322c332e322d342e3863312e312d312e362c322e322d332e336106798401527f2c332e332d342e394c3730332e352c3530322e384c3730332e352c3530322e386106998401527f7a204d3531302e322c3139392e336c3134302e332c3232302e330000000000006106b98401527f632d322e332c352e342d342e372c31302e392d372e362c3136632d342e352c376106d38401527f2e392d31302e332c31362e332d31352e322c32322e39632d352e362d352e392d6106f38401527f31332e312d392e312d32322e312d392e35632d302e392c302d312e392d302e316107138401527f2d322e382d302e31632d322e352c302d342e392c302e322d372e322c302e35006107338401527f632d302e382d31342e342d342d32352e382d392e372d33332e38632d362e362d6107528401527f392e332d31362e332d31342e332d32392d31342e38632d302e362c302d312e326107728401527f2c302d312e382c30632d352e352c302d31302e352c312e312d31352c332e32636107928401527f2d382e322d31322e312d32312e352d31352d33302d31352e38000000000000006107b28401527f63302d35352c302d3130392e392c302d3136342e384c3531302e322c3139392e6107cb8401527f334c3531302e322c3139392e337a204d3438372e352c3433382e34632d312e326107eb8401527f2c312e342d33352e312c32322e372d34312e332c35332e36632d332e342d362d61080b8401527f372e382d31312e362d31332e352d31362e316c302e372c302e3400000000000061082b8401527f63302e312d302e322c382e372d31382e362c32322e312d33362e366c302c30636108458401527f302c302c302c302c302d302e3163302e382d312c312e352d322c322e342d332e6108658401527f316c302c306331312e342d31342e352c32372e352d33302e312c34342e342d336108858401527f302e366c302c3063302e372c302c312e332c302c322c300000000000000000006108a58401527f63312c302c322c302e312c332c302e3263302c302c302c302c302c3063312c306108bc8401527f2e312c322c302e312c322e392c302e336c302c306331312e372c312e332c32316108dc8401527f2e312c362e322c32302e322c32372e33632d312e342c33332e312d34312e322c6108fc8401526938352e362d35352c383560b01b61091c8401527f632d382e322d302e332d31372e382d332e382d31372e322d31382e3463312e326109268401527f2d32392e352c32392e362d36322c32392e392d36322e334c3438372e352c34336109468401527f382e344c3438372e352c3433382e347a204d3530302e322c3531382e366332306109668401527f2e382d32302e332c34312e372d35382e312c34322e382d38342e3500000000006109868401527f63302e322d332e392c302d372e342d302e332d31302e3663312e322d312e342c6109a18401527f352d352c31332e342d342e3663372e392c302e332c32342e352c312c32322e376109c18401527f2c34332e3463302c302e322c302c302e332c302c302e35632d302e322c302e346109e18401527f2d302e332c302e362d302e342c302e386c302e342c302e320000000000000000610a018401527f632d322e362c33392e312d34312e342c38342e342d35392e372c38332e37632d610a198401527f372e322d302e332d31322e332d322e372d31352e342d372e31433439382e352c610a398401527f3533332c3439392e382c3532312e372c3530302e322c3531382e364c3530302e610a598401527419161a989c171b3d10269a9a9a971b161a9a18171960591b610a798401527f63332e332d332e352c362e342d372e322c392e312d31302e386331342e362d31610a8e8401527f392e312c32332e392d34302e372c32362e332d36302e3163322d312e312c362e610aae8401527f312d322e352c31332e382d322e3263342e342c302e322c31372e382c302e372c610ace8401526831362e372c32362e3360b81b610aee8401527f632d312e322c32392e332d33302e312c37312e382d34382e322c37312e31632d610af78401527f382e332d302e332d31332e382d322e382d31362e352d372e32433535332e352c610b178401527f3535322c3535342e362c3534342e312c3535352e362c3534302e324c3535352e610b378401527f362c3534302e327a204d3530322e322c3139392e357632322e31000000000000610b578401527f63302c35352e342c302c3131302e382c302c3136362e31632d31392e312c302e610b718401527f342d33382e342c31332e312d35372e362c33372e37632d31322c31352e342d32610b918401527f302e362c33312e342d32342e342c33382e38632d342e352d312e382d392e342d610bb18401526b332e312d31342e352d332e3960a01b610bd18401527f63302e342d332e342c302e362d362e392c302e362d31302e3563302d31372e35610bdd8401527f2d382e342d33332e372d32332e362d34352e37632d322e342d312e392d342e39610bfd8401527f2d332e362d372e352d352e324c3530322e322c3139392e354c3530322e322c31610c1d8401526f39392e357a204d3332392c3437312e3560801b610c3d8401527f63342e382c342e392c392e362c31302e332c31342e312c31362e316c2d33332e610c4d8401527f372c3135632d302e312c302e312d302e332c302e312d302e342c302e314c3332610c6d8401527f392c3437312e354c3332392c3437312e357a204d3330372e352c3531322e336c610c8d84015266068605c6a5a62760cb1b610cad8401527f6331302e352c31352c31392c33322e372c32322e332c35332e384c3330372e35610cb48401527f2c3531322e334c3330372e352c3531322e337a204d3530322e332c3737392e39610cd48401527f7632322e354c3331332e372c3535322e3163302e352c302e332c302e392c302e610cf484015272352c312e342c302e386c32352e362c31342e3960681b610d148401527f6331302e382c362e332c32312e382c31322e372c33322e372c313963392e312c610d278401527f35352c35352e352c38302e312c38392e352c38302e316331322e342c302c3233610d478401527f2e362d322e392c33332e342d382e3663312e342c302e382c322e372c312e362c610d678401527f342e312c322e3463312e352c302e392c322c312e372c322c332e350000000000610d878401527f433530322e332c3730322e382c3530322e332c3734322c3530322e332c373739610da28401527f2e394c3530322e332c3737392e397a204d3637322e382c3536372e336c32362d610dc28401527f31352e3163302c302c302c302c302c304c3531302e332c3830322e3263302d30610de28401527305c6458605a605c6858605a605c6cec5a66645c760631b610e028401527f63302d33352e322c302d37302e342c302d3130352e3663302d302e332c302d30610e168401527f2e362c302e312d302e3863392e332c322e392c32312e372c342e342c33372c34610e368401527f2e346332382e342c302c35322d31342c37322e322d34322e3963382d31312e35610e568401527105862685c725a64685c685864625c645a66760731b610e768401527f433635312e342c3537392e372c3636322e312c3537332e352c3637322e382c35610e888401527f36372e334c3637322e382c3536372e337a204d3632302e352c3538382e354c36610ea88401527f32302e352c3538382e35632d302e352c312e312d312e312c322e322d312e372c610ec88401527f332e32632d302e312c302e322d302e322c302e332d302e332c302e3500000000610ee88401527f632d302e352c312d312c322d312e352c322e3963302c302e312d302e312c302e610f048401527f322d302e312c302e32632d312e322c322e322d322e342c342e332d332e362c36610f248401527f2e34632d31372e312c32392e362d33372e322c34382e332d36362c34382e3363610f448401527f2d362e322c302d31312e342d302e322d31352e382d302e376c302c3000000000610f648401527f632d352d302e352d392e312d312e322d31322e332d312e396c302c30632d352e610f808401527f392d312e342d392e312d332e312d31302e382d342e336332302e322d32322e35610fa08401527f2c32342e332d35382e392c31372e342d38305635363363302c302e322d302e35610fc08401526d05864645c705a705c725868685c760931b610fe08401527f632d312e392c352d342e312c392e372d362e352c31332e38632d312e322c322d610fee8401527f322e342c332e392d332e372c352e3763302c302c302c302e312d302e312c302e61100e8401527f31632d312e332c312e382d322e362c332e352d342c352e31632d342e342c352d61102e840152700725c6658705c725a62685c6e5862625c7607b1b61104e8401527f632d302e372c302e342d312e342c302e372d322e312c31632d302e312c302d3061105f8401527f2e322c302e312d302e332c302e32632d302e362c302e332d312e322c302e352d61107f8401527f312e392c302e38632d302e312c302e312d302e332c302e312d302e342c302e3261109f8401527f632d302e362c302e322d312e322c302e352d312e392c302e37000000000000006110bf8401527f632d302e312c302d302e332c302e312d302e342c302e31632d302e382c302e326110d88401527f2d312e352c302e352d322e332c302e37632d342e392c312e342d31302e312c326110f88401527f2e312d31352e362c322e31632d31392e362c302d35362d31332e332d36392e326111188401527f2d35312e356c302c30632d312e322d332e342d322e322d372d332d31302e39006111388401527f632d312e332d362e342d322d31332e332d322d32302e3963302d312e342c302d6111578401527f322e372d302e312d3463302d302e322c302d302e342c302d302e36632d312d336111778401527f322e312d31322e342d35372e372d32372d37382e32632d302e312d302e312d306111978401526d171896981719169817191698171960911b6111b78401527f632d302e382d312e312d312e352d322e312d322e332d332e326c302c306c302c6111c58401527f30632d362e362d382e382d31332e372d31362e372d32302e382d32332e366c306111e58401527f2c30632d312d312d312e392d312e392d322e392d322e3863302c302c302c302c6112058401527f302c30632d312d302e392d312e392d312e382d322e392d322e376c302c3000006112258401527f6c302c30632d362e332d352e392d31322e342d31312e312d31372e382d31352e6112438401527f38632d362e382d352e382d31352e322d31332e312d31362e332d31352e3863306112638401527f2e332d31322e352c32322e392d31352e382c33342e382d31352e3863392e362c6112838401526e0c0b0c4e0b8d0b0c8b0c8d8b0d4b8d608a1b6112a38401527f63312e312c302e352c322e322c312c332e332c312e3663302e322c302e312c306112b28401527f2e342c302e322c302e362c302e3363312e312c302e362c322e312c312e322c336112d28401527f2e322c312e386331352e312c392e322c32342e322c32332e392c32342e322c336112f28401527f372e3763302c32342e392d322e362c34332e312d322e362c34332e31000000006113128401527f63302e352d302e372c362d362e322c31302d31372e346332352e342c322c333961132e8401527f2e382c31362e372c34372e392c33322e3863302e392c342e352c322e352c382e61134e8401527f352c342e392c31312e3863352e352c31362e352c352e372c33312e372c352e3761136e8401527f2c33332e3163302d302e332c312e352d31322e322c302d32372e32000000000061138e8401527f63342e382c332e362c31312c352e382c31382e322c362e3163332e382c302e326113a98401527f2c382d312e322c31322e352d332e3863302e342c362e332c322c31332e382c366113c98401527f2e332c323063352e352c372e392c31332e392c31322e322c32352c31322e36636113e98401527f372e352c302e332c31352e372d332e352c32332e362d392e33000000000000006114098401527f63302e342c342e322c312e362c382e372c342c31322e3863352e312c382e342c6114228401527f31342c31332c32362e362c31332e356332362e392c312e312c36302e322d35306114428401527f2e332c36312e362d38342e3763302e322d352e362d302e312d31302e362d312d61146284015263189a971960e11b6114828401527f63352e372d372e322c31362e362d32312e352c32342e322d33342e3963322e326114868401527f2d332e382c342d372e362c352e372d31312e3463302e312d302e312c302e312d6114a68401527f302e332c302e322d302e3463302e362d312e342c312e322d322e372c312e382d6114c6840152720342e3163302c302c302c302c302c306c302c3606c1b6114e68401527f63302e362d312e342c312e322d322e372c312e372d342e3163372e322d31362e6114f98401527f392c31312e382d32362e342c32322e372d32362e3463332e322c302c382e382d6115198401527f302e352c382e382c32312e3863302c31362e382d342e392c32392e342d31322e6115398401527f312c34312e39632d302e372c312e322d312e352c322e352d322e322c332e37006115598401527f6c302c30632d302e382c312e322d312e352c322e352d322e332c332e37632d336115788401527f2e332c352e312d362e392c31302e332d31302e362c31352e39632d392e342c316115988401527f342e312d31392e322c32382e372d32362e312c34362e37632d322e362c362e386115b8840152712d352e322c31332e332d372e382c31392e3760701b6115d88401527f632d312e362c342d332e332c382d342e392c31312e396c302c30433632382e346115ea8401527f2c3537312e392c3632342e362c3538302e352c3632302e352c3538382e354c3661160a8401526d1918171a961a9c1c171abd11179f60911b61162a840152631e17b39f60e11b61163884015261161c83529161164081019167ffffffffffffffff831182841017611cd7578260405283835281519081611660840152805b828110611cc257508282016116800152601f01601f19168101036040019150f35b80869185016116808382015191015201611ca1565b634e487b7160e01b81526041600452602490fd5b80fdfea2646970667358221220364319d1056f431245f855fe66730480869ba94ce26070c570b26eaea2e3008d64736f6c63430008110033",
    "linkReferences": {}
  },
  "methodIdentifiers": {
    "getLogo()": "0b6700d6"
  },
  "id": 1
}