{
  "abi": [
    {
      "inputs": [
        {
          "internalType": "contract IFrensStorage",
          "name": "frensStorage_",
          "type": "address"
        }
      ],
      "stateMutability": "nonpayable",
      "type": "constructor"
    },
    {
      "inputs": [
        {
          "internalType": "bytes32",
          "name": "key",
          "type": "bytes32"
        }
      ],
      "name": "getBoolFromStorage",
      "outputs": [
        {
          "internalType": "bool",
          "name": "",
          "type": "bool"
        }
      ],
      "stateMutability": "view",
      "type": "function"
    }
  ],
  "bytecode": {
    "object": "0x60803461005d57601f61019c38819003918201601f19168301916001600160401b038311848410176100625780849260209460405283398101031261005d57516001600160a01b0381160361005d5760405161012390816100798239f35b600080fd5b634e487b7160e01b600052604160045260246000fdfe6080806040526004361015601257600080fd5b600090813560e01c638db53b4c14602857600080fd5b3460c2576020918260031936011260bf578054633d70e7e560e11b835260048035908401528390839060249082906001600160a01b03165afa91821560e05781926079575b50506040519015158152f35b909150823d841160da575b601f8101601f1916820167ffffffffffffffff81118382101760c657849183916040528101031260c2575190811515820360bf57503880606d565b80fd5b5080fd5b634e487b7160e01b84526041600452602484fd5b503d6084565b50604051903d90823e3d90fdfea264697066735822122037bd4868390aac542a4b896cff7204e901ff5261bcdab1db372f5837387be57464736f6c63430008110033",
    "linkReferences": {}
  },
  "methodIdentifiers": {
    "getBoolFromStorage(bytes32)": "8db53b4c"
  },
  "id": 53
}