{
  "abi": [
    {
      "inputs": [
        {
          "internalType": "bytes32[]",
          "name": "merkleProof",
          "type": "bytes32[]"
        },
        {
          "internalType": "bytes32",
          "name": "merkleRoot",
          "type": "bytes32"
        },
        {
          "internalType": "address",
          "name": "sender",
          "type": "address"
        }
      ],
      "name": "verify",
      "outputs": [],
      "stateMutability": "pure",
      "type": "function"
    }
  ],
  "bytecode": {
    "object": "0x6080806040523461001657610213908161001c8239f35b600080fdfe608060048036101561001057600080fd5b6000803560e01c63879c84e91461002657600080fd5b346101da57606091826003193601126101d65780359267ffffffffffffffff908185116101d257366023860112156101d257848301358281116101ce5760059181831b9760249889818a01013681116101ca57604435996001600160a01b038b168b036101c6576020958685019b6bffffffffffffffffffffffff1990871b168c52601485526040988986019c8d828882109111176101b4578d8b528651902094603f01601f191686018a019081118d8210176101a25789528b528b01858486015b83831061019257505050509387945b895186101561014b5785821b8301840151908181101561013e57895284528588205b94600019811461012c57600101946100f7565b634e487b7160e01b8952601188528a89fd5b9089528452858820610119565b878b86898c9483350361015c578480f35b5162461bcd60e51b8152928301526014908201527334b73b30b634b21036b2b935b63290383937b7b360611b6044820152606490fd5b82358152918101918791016100e8565b634e487b7160e01b8c5260418b528d8cfd5b634e487b7160e01b8d5260418c528e8dfd5b8980fd5b8880fd5b8480fd5b8380fd5b5080fd5b80fdfea2646970667358221220d74a9380ef7fbf29efd94d57045dbab7cab08d5c2c3e5aac053c1b8b14548c2964736f6c63430008110033",
    "linkReferences": {}
  },
  "methodIdentifiers": {
    "verify(bytes32[],bytes32,address)": "879c84e9"
  },
  "id": 2
}