{
  "abi": [
    {
      "inputs": [
        {
          "internalType": "contract IFrensStorage",
          "name": "frensStorage_",
          "type": "address"
        }
      ],
      "stateMutability": "nonpayable",
      "type": "constructor"
    },
    {
      "inputs": [
        {
          "internalType": "uint256",
          "name": "id",
          "type": "uint256"
        }
      ],
      "name": "getDepositStringForId",
      "outputs": [
        {
          "internalType": "string",
          "name": "",
          "type": "string"
        }
      ],
      "stateMutability": "view",
      "type": "function"
    },
    {
      "inputs": [
        {
          "internalType": "address",
          "name": "addr",
          "type": "address"
        }
      ],
      "name": "getEns",
      "outputs": [
        {
          "internalType": "bool",
          "name": "",
          "type": "bool"
        },
        {
          "internalType": "string",
          "name": "",
          "type": "string"
        }
      ],
      "stateMutability": "view",
      "type": "function"
    },
    {
      "inputs": [
        {
          "internalType": "uint256",
          "name": "amountInWei",
          "type": "uint256"
        }
      ],
      "name": "getEthDecimalString",
      "outputs": [
        {
          "internalType": "string",
          "name": "",
          "type": "string"
        }
      ],
      "stateMutability": "pure",
      "type": "function"
    },
    {
      "inputs": [
        {
          "internalType": "uint256",
          "name": "id",
          "type": "uint256"
        }
      ],
      "name": "getPoolString",
      "outputs": [
        {
          "internalType": "string",
          "name": "",
          "type": "string"
        }
      ],
      "stateMutability": "view",
      "type": "function"
    }
  ],
  "bytecode": {
    "object": "0x6080604090808252346101535780610c4b803803809161001f8285610158565b833960209283918101031261015357516001600160a01b0380821692909183900361015357600180546001600160a01b0319908116851790915584516f636f6e74726163742e6164647265737360801b8382019081526d4672656e73506f6f6c536861726560901b6030830152601e825291949092838701929091906001600160401b0384118585101761013d5760248484938193828c52885190206321f8a72160e01b835260448901525afa928315610132576000936100f5575b5050501690600054161760005551610acf908161017c8239f35b813d831161012b575b6101088185610158565b81010312610127575190828216820361012457503880806100db565b80fd5b5080fd5b503d6100fe565b86513d6000823e3d90fd5b634e487b7160e01b600052604160045260246000fd5b600080fd5b601f909101601f19168101906001600160401b0382119082101761013d5760405256fe6080604052600436101561001257600080fd5b60003560e01c806392a2e5ac14610057578063de1c7f7014610052578063edd148a21461004d5763ef21184f1461004857600080fd5b6101db565b6101ae565b61016a565b346100e657610065366100eb565b6020608060248160018060a01b0394856000541690630178b36760e31b83526084525afa80156100e1576100b1916100a5916000906100b5575b16610a13565b60405191829182610145565b0390f35b5060203d81116100da575b806100cd6100d5926102f8565b608001610342565b61009f565b503d6100c0565b61036f565b600080fd5b60209060031901126100e65760043590565b60005b8381106101105750506000910152565b8181015183820152602001610100565b90602091610139815180928185528580860191016100fd565b601f01601f1916010190565b906020610156928181520190610120565b90565b6001600160a01b038116036100e657565b346100e65760203660031901126100e65761018f60043561018a81610159565b61052f565b906100b160405192839215158352604060208401526040830190610120565b346100e6576100b16101c76101c2366100eb565b6103c4565b604051918291602083526020830190610120565b346100e6576101e9366100eb565b600054610206906001600160a01b03165b6001600160a01b031690565b604051630178b36760e31b8152600481018390526020918290829060249082905afa9283156100e15761025e9383926000916102b5575b506040518080968194632daad61d60e01b8352600483019190602083019252565b03916001600160a01b03165afa80156100e1576100b1926100a592600092610288575b50506103c4565b6102a79250803d106102ae575b61029f8183610320565b81019061037b565b3880610281565b503d610295565b6102d59150833d85116102db575b6102cd8183610320565b81019061035a565b3861023d565b503d6102c3565b634e487b7160e01b600052604160045260246000fd5b601f80199101166080016080811067ffffffffffffffff82111761031b57604052565b6102e2565b90601f8019910116810190811067ffffffffffffffff82111761031b57604052565b602090607f1901126100e65760805161015681610159565b908160209103126100e6575161015681610159565b6040513d6000823e3d90fd5b908160209103126100e6575190565b906103c260216040518094600360fc1b60208301526103b281518092602086860191016100fd565b8101036001810185520183610320565b565b66038d7ea4c68000670de0b6b3a76400006103e0818404610836565b920604906103ed82610836565b9160648110610464575b600a1161044c575b602161015691604051938161041e8693518092602080870191016100fd565b8201601760f91b602082015261043d82518093602087850191016100fd565b01036001810184520182610320565b90602161045b6101569261038a565b929150506103ff565b91610470600a9161038a565b9290506103f7565b67ffffffffffffffff811161031b57601f01601f191660200190565b604051906020820182811067ffffffffffffffff82111761031b5760405260008252565b908160209103126100e6575180151581036100e65790565b6020818303126100e65780519067ffffffffffffffff82116100e6570181601f820112156100e657805161050381610478565b926105116040519485610320565b818452602082840101116100e65761015691602080850191016100fd565b6001549091906105ce9061054b906001600160a01b03166101fa565b926040516020948186809301906105aa8161059c61058d856019907f65787465726e616c2e636f6e74726163742e616464726573730000000000000081520190565b62454e5360e81b815260030190565b03601f198101835282610320565b5190209060405180809681946321f8a72160e01b8352600483019190602083019252565b03915afa9182156100e157600092610719575b506001600160a01b03918216906105f790610738565b604051630178b8bf60e01b8152600481018290529092908581602481865afa9081156100e1576000916106fc575b50169182156106ec57604051631ef3fca760e31b815260048101829052918590839060249082905afa9182156100e157610687956000936106ba575b505060009192604051808097819463691f343160e01b8352600483019190602083019252565b03915afa9283156100e15760009361069e57509190565b61015691933d8091833e6106b28183610320565b8101906104d0565b6000935090816106de92903d106106e5575b6106d68183610320565b8101906104b8565b9138610661565b503d6106cc565b5050509050600090610156610494565b6107139150863d88116102db576102cd8183610320565b38610625565b610731919250843d86116102db576102cd8183610320565b90386105e1565b6028805b61079b575050602860002060405160208101917f91d1777781884d03a6757a803996e38de2a42967fb37eeaca72729271025a9e283526040820152604081526060810181811067ffffffffffffffff82111761031b5760405251902090565b6f181899199a1a9b1b9c1cb0b131b232b360811b91600f9182821684901a600019820153600119019283928260041c161a825360081c9161073c565b604051906060820182811067ffffffffffffffff82111761031b57604052602a8252604082602036910137565b9061080e82610478565b61081b6040519182610320565b828152809261082c601f1991610478565b0190602036910137565b806000917a184f03e93ff9f4daa797ed6e38ed64bf6a1f0100000000000000008082101561096b575b506d04ee2d6d415b85acef81000000008083101561095c575b50662386f26fc100008083101561094d575b506305f5e1008083101561093e575b506127108083101561092f575b50606482101561091f575b600a80921015610915575b6001908160216108cd828701610804565b95860101905b6108df575b5050505090565b600019019083906f181899199a1a9b1b9c1cb0b131b232b360811b8282061a835304918215610910579190826108d3565b6108d8565b91600101916108bc565b91906064600291049101916108b1565b600491939204910191386108a6565b60089193920491019138610899565b6010919392049101913861088a565b60209193920491019138610878565b60409350810491503861085f565b634e487b7160e01b600052603260045260246000fd5b9081518110156109a0570160200190565b610979565b80156109b2576000190190565b634e487b7160e01b600052601160045260246000fd5b156109cf57565b606460405162461bcd60e51b815260206004820152602060248201527f537472696e67733a20686578206c656e67746820696e73756666696369656e746044820152fd5b610a1b6107d7565b908151156109a0576030602083015381516001908110156109a05790607860218401536029915b808311610a5557506101569150156109c8565b90600f81169060108210156109a057610a92916f181899199a1a9b1b9c1cb0b131b232b360811b901a610a88858761098f565b5360041c926109a5565b9190610a4256fea2646970667358221220cd8caf4aff57409f1242fb3ffcc28fd4c61144f12b2f88aa7f9b4263fa3c3c9264736f6c63430008140033",
    "linkReferences": {}
  },
  "methodIdentifiers": {
    "getDepositStringForId(uint256)": "ef21184f",
    "getEns(address)": "de1c7f70",
    "getEthDecimalString(uint256)": "edd148a2",
    "getPoolString(uint256)": "92a2e5ac"
  },
  "id": 2
}