{
  "abi": [
    {
      "inputs": [
        {
          "internalType": "address",
          "name": "owner_",
          "type": "address"
        },
        {
          "internalType": "bool",
          "name": "validatorLocked_",
          "type": "bool"
        },
        {
          "internalType": "contract IFrensStorage",
          "name": "frensStorage_",
          "type": "address"
        }
      ],
      "stateMutability": "nonpayable",
      "type": "constructor"
    },
    {
      "anonymous": false,
      "inputs": [
        {
          "indexed": false,
          "internalType": "uint256",
          "name": "id",
          "type": "uint256"
        },
        {
          "indexed": false,
          "internalType": "uint256",
          "name": "ammount",
          "type": "uint256"
        }
      ],
      "name": "AddToDeposit",
      "type": "event"
    },
    {
      "anonymous": false,
      "inputs": [
        {
          "indexed": false,
          "internalType": "uint256",
          "name": "id",
          "type": "uint256"
        },
        {
          "indexed": false,
          "internalType": "uint256",
          "name": "amount",
          "type": "uint256"
        },
        {
          "indexed": false,
          "internalType": "address",
          "name": "recipient",
          "type": "address"
        }
      ],
      "name": "Claim",
      "type": "event"
    },
    {
      "anonymous": false,
      "inputs": [
        {
          "indexed": false,
          "internalType": "uint256",
          "name": "amount",
          "type": "uint256"
        },
        {
          "indexed": false,
          "internalType": "address",
          "name": "depositer",
          "type": "address"
        },
        {
          "indexed": false,
          "internalType": "uint256",
          "name": "id",
          "type": "uint256"
        }
      ],
      "name": "DepositToPool",
      "type": "event"
    },
    {
      "anonymous": false,
      "inputs": [
        {
          "indexed": true,
          "internalType": "address",
          "name": "previousOwner",
          "type": "address"
        },
        {
          "indexed": true,
          "internalType": "address",
          "name": "newOwner",
          "type": "address"
        }
      ],
      "name": "OwnershipTransferred",
      "type": "event"
    },
    {
      "anonymous": false,
      "inputs": [
        {
          "indexed": false,
          "internalType": "bytes",
          "name": "_pubKey",
          "type": "bytes"
        },
        {
          "indexed": false,
          "internalType": "bytes",
          "name": "_withdrawal_credentials",
          "type": "bytes"
        },
        {
          "indexed": false,
          "internalType": "bytes",
          "name": "_signature",
          "type": "bytes"
        },
        {
          "indexed": false,
          "internalType": "bytes32",
          "name": "_deposit_data_root",
          "type": "bytes32"
        }
      ],
      "name": "SetPubKey",
      "type": "event"
    },
    {
      "anonymous": false,
      "inputs": [
        {
          "indexed": false,
          "internalType": "address",
          "name": "depositContractAddress",
          "type": "address"
        },
        {
          "indexed": false,
          "internalType": "address",
          "name": "caller",
          "type": "address"
        }
      ],
      "name": "Stake",
      "type": "event"
    },
    {
      "anonymous": false,
      "inputs": [
        {
          "indexed": false,
          "internalType": "uint256",
          "name": "id",
          "type": "uint256"
        },
        {
          "indexed": false,
          "internalType": "uint256",
          "name": "amount",
          "type": "uint256"
        },
        {
          "indexed": false,
          "internalType": "address",
          "name": "recipient",
          "type": "address"
        }
      ],
      "name": "Withdraw",
      "type": "event"
    },
    {
      "stateMutability": "payable",
      "type": "fallback"
    },
    {
      "inputs": [
        {
          "internalType": "uint256",
          "name": "_id",
          "type": "uint256"
        }
      ],
      "name": "addToDeposit",
      "outputs": [],
      "stateMutability": "payable",
      "type": "function"
    },
    {
      "inputs": [],
      "name": "artForPool",
      "outputs": [
        {
          "internalType": "contract IFrensArt",
          "name": "",
          "type": "address"
        }
      ],
      "stateMutability": "view",
      "type": "function"
    },
    {
      "inputs": [
        {
          "internalType": "uint256",
          "name": "_id",
          "type": "uint256"
        }
      ],
      "name": "claim",
      "outputs": [],
      "stateMutability": "nonpayable",
      "type": "function"
    },
    {
      "inputs": [],
      "name": "currentState",
      "outputs": [
        {
          "internalType": "enum StakingPool.PoolState",
          "name": "",
          "type": "uint8"
        }
      ],
      "stateMutability": "view",
      "type": "function"
    },
    {
      "inputs": [],
      "name": "depositContract",
      "outputs": [
        {
          "internalType": "contract IDepositContract",
          "name": "",
          "type": "address"
        }
      ],
      "stateMutability": "view",
      "type": "function"
    },
    {
      "inputs": [
        {
          "internalType": "uint256",
          "name": "",
          "type": "uint256"
        }
      ],
      "name": "depositForId",
      "outputs": [
        {
          "internalType": "uint256",
          "name": "",
          "type": "uint256"
        }
      ],
      "stateMutability": "view",
      "type": "function"
    },
    {
      "inputs": [],
      "name": "depositToPool",
      "outputs": [],
      "stateMutability": "payable",
      "type": "function"
    },
    {
      "inputs": [],
      "name": "deposit_data_root",
      "outputs": [
        {
          "internalType": "bytes32",
          "name": "",
          "type": "bytes32"
        }
      ],
      "stateMutability": "view",
      "type": "function"
    },
    {
      "inputs": [],
      "name": "feePercent",
      "outputs": [
        {
          "internalType": "uint256",
          "name": "",
          "type": "uint256"
        }
      ],
      "stateMutability": "view",
      "type": "function"
    },
    {
      "inputs": [],
      "name": "feeRecipient",
      "outputs": [
        {
          "internalType": "address",
          "name": "",
          "type": "address"
        }
      ],
      "stateMutability": "view",
      "type": "function"
    },
    {
      "inputs": [
        {
          "internalType": "uint256",
          "name": "",
          "type": "uint256"
        }
      ],
      "name": "frenPastClaim",
      "outputs": [
        {
          "internalType": "uint256",
          "name": "",
          "type": "uint256"
        }
      ],
      "stateMutability": "view",
      "type": "function"
    },
    {
      "inputs": [],
      "name": "frensPoolShare",
      "outputs": [
        {
          "internalType": "contract IFrensPoolShare",
          "name": "",
          "type": "address"
        }
      ],
      "stateMutability": "view",
      "type": "function"
    },
    {
      "inputs": [],
      "name": "frensStorage",
      "outputs": [
        {
          "internalType": "contract IFrensStorage",
          "name": "",
          "type": "address"
        }
      ],
      "stateMutability": "view",
      "type": "function"
    },
    {
      "inputs": [
        {
          "internalType": "uint256",
          "name": "_id",
          "type": "uint256"
        }
      ],
      "name": "getDistributableShare",
      "outputs": [
        {
          "internalType": "uint256",
          "name": "",
          "type": "uint256"
        }
      ],
      "stateMutability": "view",
      "type": "function"
    },
    {
      "inputs": [],
      "name": "getIdsInThisPool",
      "outputs": [
        {
          "internalType": "uint256[]",
          "name": "",
          "type": "uint256[]"
        }
      ],
      "stateMutability": "view",
      "type": "function"
    },
    {
      "inputs": [
        {
          "internalType": "uint256",
          "name": "_id",
          "type": "uint256"
        }
      ],
      "name": "getShare",
      "outputs": [
        {
          "internalType": "uint256",
          "name": "",
          "type": "uint256"
        }
      ],
      "stateMutability": "view",
      "type": "function"
    },
    {
      "inputs": [],
      "name": "getState",
      "outputs": [
        {
          "internalType": "string",
          "name": "",
          "type": "string"
        }
      ],
      "stateMutability": "view",
      "type": "function"
    },
    {
      "inputs": [
        {
          "internalType": "uint256",
          "name": "",
          "type": "uint256"
        }
      ],
      "name": "idsInPool",
      "outputs": [
        {
          "internalType": "uint256",
          "name": "",
          "type": "uint256"
        }
      ],
      "stateMutability": "view",
      "type": "function"
    },
    {
      "inputs": [
        {
          "internalType": "uint256",
          "name": "",
          "type": "uint256"
        }
      ],
      "name": "locked",
      "outputs": [
        {
          "internalType": "bool",
          "name": "",
          "type": "bool"
        }
      ],
      "stateMutability": "view",
      "type": "function"
    },
    {
      "inputs": [],
      "name": "owner",
      "outputs": [
        {
          "internalType": "address",
          "name": "",
          "type": "address"
        }
      ],
      "stateMutability": "view",
      "type": "function"
    },
    {
      "inputs": [],
      "name": "pubKey",
      "outputs": [
        {
          "internalType": "bytes",
          "name": "",
          "type": "bytes"
        }
      ],
      "stateMutability": "view",
      "type": "function"
    },
    {
      "inputs": [
        {
          "internalType": "uint256",
          "name": "",
          "type": "uint256"
        }
      ],
      "name": "rageQuitInfo",
      "outputs": [
        {
          "internalType": "uint256",
          "name": "price",
          "type": "uint256"
        },
        {
          "internalType": "uint256",
          "name": "time",
          "type": "uint256"
        },
        {
          "internalType": "bool",
          "name": "rageQuitting",
          "type": "bool"
        }
      ],
      "stateMutability": "view",
      "type": "function"
    },
    {
      "inputs": [],
      "name": "renounceOwnership",
      "outputs": [],
      "stateMutability": "nonpayable",
      "type": "function"
    },
    {
      "inputs": [
        {
          "internalType": "contract IFrensArt",
          "name": "newArtContract",
          "type": "address"
        }
      ],
      "name": "setArt",
      "outputs": [],
      "stateMutability": "nonpayable",
      "type": "function"
    },
    {
      "inputs": [
        {
          "internalType": "bytes",
          "name": "_pubKey",
          "type": "bytes"
        },
        {
          "internalType": "bytes",
          "name": "_withdrawal_credentials",
          "type": "bytes"
        },
        {
          "internalType": "bytes",
          "name": "_signature",
          "type": "bytes"
        },
        {
          "internalType": "bytes32",
          "name": "_deposit_data_root",
          "type": "bytes32"
        }
      ],
      "name": "setPubKey",
      "outputs": [],
      "stateMutability": "nonpayable",
      "type": "function"
    },
    {
      "inputs": [],
      "name": "signature",
      "outputs": [
        {
          "internalType": "bytes",
          "name": "",
          "type": "bytes"
        }
      ],
      "stateMutability": "view",
      "type": "function"
    },
    {
      "inputs": [],
      "name": "stake",
      "outputs": [],
      "stateMutability": "nonpayable",
      "type": "function"
    },
    {
      "inputs": [
        {
          "internalType": "bytes",
          "name": "_pubKey",
          "type": "bytes"
        },
        {
          "internalType": "bytes",
          "name": "_withdrawal_credentials",
          "type": "bytes"
        },
        {
          "internalType": "bytes",
          "name": "_signature",
          "type": "bytes"
        },
        {
          "internalType": "bytes32",
          "name": "_deposit_data_root",
          "type": "bytes32"
        }
      ],
      "name": "stake",
      "outputs": [],
      "stateMutability": "nonpayable",
      "type": "function"
    },
    {
      "inputs": [],
      "name": "totalClaims",
      "outputs": [
        {
          "internalType": "uint256",
          "name": "",
          "type": "uint256"
        }
      ],
      "stateMutability": "view",
      "type": "function"
    },
    {
      "inputs": [],
      "name": "totalDeposits",
      "outputs": [
        {
          "internalType": "uint256",
          "name": "",
          "type": "uint256"
        }
      ],
      "stateMutability": "view",
      "type": "function"
    },
    {
      "inputs": [],
      "name": "transferLocked",
      "outputs": [
        {
          "internalType": "bool",
          "name": "",
          "type": "bool"
        }
      ],
      "stateMutability": "view",
      "type": "function"
    },
    {
      "inputs": [
        {
          "internalType": "address",
          "name": "newOwner",
          "type": "address"
        }
      ],
      "name": "transferOwnership",
      "outputs": [],
      "stateMutability": "nonpayable",
      "type": "function"
    },
    {
      "inputs": [],
      "name": "validatorLocked",
      "outputs": [
        {
          "internalType": "bool",
          "name": "",
          "type": "bool"
        }
      ],
      "stateMutability": "view",
      "type": "function"
    },
    {
      "inputs": [],
      "name": "validatorSet",
      "outputs": [
        {
          "internalType": "bool",
          "name": "",
          "type": "bool"
        }
      ],
      "stateMutability": "view",
      "type": "function"
    },
    {
      "inputs": [
        {
          "internalType": "uint256",
          "name": "_id",
          "type": "uint256"
        },
        {
          "internalType": "uint256",
          "name": "_amount",
          "type": "uint256"
        }
      ],
      "name": "withdraw",
      "outputs": [],
      "stateMutability": "nonpayable",
      "type": "function"
    },
    {
      "inputs": [],
      "name": "withdrawal_credentials",
      "outputs": [
        {
          "internalType": "bytes",
          "name": "",
          "type": "bytes"
        }
      ],
      "stateMutability": "view",
      "type": "function"
    },
    {
      "stateMutability": "payable",
      "type": "receive"
    }
  ],
  "bytecode": {
    "object": "0x608060409080825234620006ad5760608162002bfd8038038091620000258285620006e4565b833981010312620006ad576200003b8162000708565b9060208082015191821515809303620006ad578401516001600160a01b03808216929091839003620006ad5762000072336200071d565b81851615620006585782156200060157601180546001600160a01b0319908116851790915586516f636f6e74726163742e6164647265737360801b83820181815267119c995b9cd05c9d60c21b603084015260188352909491620000d681620006b2565b519020948851946321f8a72160e01b908187526004978888015260249686818981875afa801562000511578591600091620005c2575b501680156200056f578560105416176010558a518681019182526d4672656e73506f6f6c536861726560901b6030820152601e81526200014c81620006b2565b5190208a51908282528882015285818881865afa80156200046e57849160009162000530575b501684600f541617600f5589518581017f65787465726e616c2e636f6e74726163742e616464726573730000000000000081526e11195c1bdcda5d10dbdb9d1c9858dd608a1b603983015260288252606082019082821060018060401b038311176200051c57818d5282519020838252606483015286818981875afa9081156200051157878693600093620004d0575b50505016801562000479578460125416176012558951858101907f70726f746f636f6c2e6665652e70657263656e740000000000000000000000008252601481526200024e81620006b2565b5190208a519063bd02d0f560e01b82528882015285818881865afa80156200046e576000906200043a575b600a91508060085511620003ee578490868b51838101907f70726f746f636f6c2e6665652e726563697069656e7400000000000000000000825260168152620002c281620006b2565b519020918c51948593849283528b8301525afa908115620003e357600091620003a3575b50168091600e541617600e55156200035157856200032a868660ff801960095416911680911760095560001462000338576000805460ff60a01b191690556200071d565b516124989081620007658239f35b6000805460ff60a01b1916600160a01b1790556200071d565b855162461bcd60e51b8152928301526029908201527f4652454e5320636f6e7472616374206572726f72206e6f2066656520726563696044820152681c1a595b9d081cd95d60ba1b6064820152608490fd5b908482813d8311620003db575b620003bc8183620006e4565b81010312620003d85750620003d19062000708565b38620002e6565b80fd5b503d620003b0565b89513d6000823e3d90fd5b895162461bcd60e51b81528088018690526021818801527f4652454e5320636f6e7472616374206572726f722066656520746f6f206869676044820152600d60fb1b6064820152608490fd5b8682813d831162000466575b620004528183620006e4565b81010312620003d85750600a905162000279565b503d62000446565b8b513d6000823e3d90fd5b8a5162461bcd60e51b8152808901879052602c818901527f4652454e5320636f6e7472616374206572726f72206e6f204465706f7369742060448201526b18dbdb9d1c9858dd081cd95d60a21b6064820152608490fd5b90809294503d831162000509575b620004ea8186620006e4565b81010312620003d8575062000500849162000708565b38878162000202565b503d620004de565b8c513d6000823e3d90fd5b8860418b634e487b7160e01b600052526000fd5b91508682813d831162000567575b6200054a8183620006e4565b81010312620003d8575062000560849162000708565b3862000172565b503d6200053e565b508a5162461bcd60e51b81528089018790526027818901527f4652454e5320636f6e7472616374206572726f72206e6f206172742061646472604482015266195cdcc81cd95d60ca1b6064820152608490fd5b91508782813d8311620005f9575b620005dc8183620006e4565b81010312620003d85750620005f2859162000708565b386200010c565b503d620005d0565b60849086519062461bcd60e51b82526004820152602b60248201527f4652454e5320636f6e7472616374206572726f72206e6f2073746f726167652060448201526a1859191c995cdcc81cd95d60aa1b6064820152fd5b60849086519062461bcd60e51b82526004820152602960248201527f4652454e5320636f6e7472616374206572726f72206e6f206f776e6572206164604482015268191c995cdcc81cd95d60ba1b6064820152fd5b600080fd5b604081019081106001600160401b03821117620006ce57604052565b634e487b7160e01b600052604160045260246000fd5b601f909101601f19168101906001600160401b03821190821017620006ce57604052565b51906001600160a01b0382168203620006ad57565b600080546001600160a01b039283166001600160a01b03198216811783559216907f8be0079c531659141344cd1fd0a4f28419497f9722a3daafe3b4186f6b6457e09080a356fe6080604081815260048036101561001e575b505050361561001c57005b005b600092833560e01c9081630c3f6acf1461146f5750806312686aae146114485780631865c57d146114175780632cf2cd48146113f05780632daad61d146113c957806330dbf887146113a0578063379607f514610f6f5780633a4b66f114610f5657806341c6138314610f37578063441a3e7014610d2c57806345b58fe414610c795780634690484014610c505780634b2b4e3614610b9357806351ff484714610b6e578063591167c714610b45578063678e300a14610b25578063715018a614610acb5780637d88209714610aac5780637fd6f15c14610a8d5780638620891c146108df578063888e9cf8146108a75780638ae578fd1461087e5780638da5cb5b146108565780639426e2261461082f578063ac2a5dfd1461080a578063b45a3c0e146107de578063cfb5a5f814610735578063e2d9ae3e14610716578063e3f05d83146106f2578063e4a50276146106b0578063e6b1a3ae14610570578063e920eec014610544578063e94ad65b14610517578063f2fde38b1461044d578063f9faa104146101f95763fc03bad20361001157346101f55760203660031901126101f557606092818392358252602052209081549160ff60026001830154920154169082519384526020840152151590820152f35b8280fd5b50826003193601126101f55734156104165760ff835460a01c16818110156104035760016102279114611834565b6102476801bc16d674ec80000061024060055434611879565b111561189c565b600f5482516318160ddd60e01b8152602093909290916001600160a01b0390859085908490829085165afa9384156103f95786946103c6575b5083865260018552348387205561029934600554611879565b600555600754680100000000000000008110156103b357906102c3826001899594016007556117e7565b81549060031b9087821b91600019901b19161790558483526002865260018484205560ff60095460081c16600387528484209060ff801983541691151516179055600f5416803b156101f55760248392855194859384926335313c2160e11b845233908401525af180156103a95761036f575b5091606091837fd91527a40417d48f76ba016aaa9157e2ddaca6cb5b660432901659cb075058fc9451923484523390840152820152a180f35b917fd91527a40417d48f76ba016aaa9157e2ddaca6cb5b660432901659cb075058fc93919461039f60609461177f565b9491935091610336565b82513d87823e3d90fd5b634e487b7160e01b875260418352602487fd5b9093508481813d83116103f2575b6103de81836117c5565b810103126103ee57519238610280565b8580fd5b503d6103d4565b83513d88823e3d90fd5b634e487b7160e01b845260218252602484fd5b6020606492519162461bcd60e51b8352820152601260248201527136bab9ba103232b837b9b4ba1032ba3432b960711b6044820152fd5b5090346101f55760203660031901126101f5576001600160a01b038235818116939192908490036105135761048061240a565b83156104c157505082546001600160a01b0319811683178455167f8be0079c531659141344cd1fd0a4f28419497f9722a3daafe3b4186f6b6457e08380a380f35b906020608492519162461bcd60e51b8352820152602660248201527f4f776e61626c653a206e6577206f776e657220697320746865207a65726f206160448201526564647265737360d01b6064820152fd5b8480fd5b50503461054057816003193601126105405760125490516001600160a01b039091168152602090f35b5080fd5b833461056d5761056a61055636611529565b9561056595919594929461240a565b611c32565b80f35b80fd5b50346101f5576020806003193601126106ac5781356001600160a01b0381169390849003610513576105a061240a565b805163516b636d60e11b81526001848201528581602481885afa9081156106a2578691610625575b5051156105ed575050506bffffffffffffffffffffffff60a01b601054161760105580f35b5162461bcd60e51b81529182015260146024820152731a5b9d985b1a5908185c9d0818dbdb9d1c9858dd60621b604482015260649150fd5b90503d8087833e61063681836117c5565b810190838183031261069e5780519067ffffffffffffffff821161069a570181601f8201121561069e57805161066b8161197d565b92610678855194856117c5565b81845285828401011161069a57610694918580850191016114ae565b386105c8565b8780fd5b8680fd5b82513d88823e3d90fd5b8380fd5b50503461054057816003193601126105405780516106ee916106dc826106d5816116f8565b03836117c5565b519182916020835260208301906114d1565b0390f35b50503461054057816003193601126105405760209060ff6009541690519015158152f35b505034610540578160031936011261054057602090600d549051908152f35b50346101f55760203660031901126101f557600f548251631dc82a7560e01b81528235928101839052906001600160a01b03906020908390602490829085165afa9182156107d457916107999161079e9493602097926107a5575b50163014611919565b612215565b9051908152f35b6107c6919250873d81116107cd575b6107be81836117c5565b8101906118fa565b9038610790565b503d6107b4565b84513d87823e3d90fd5b50346101f55760203660031901126101f5578160209360ff923581526003855220541690519015158152f35b50503461054057816003193601126105405780516106ee916106dc826106d5816115cd565b50503461054057816003193601126105405760209060ff60095460101c1690519015158152f35b505034610540578160031936011261054057905490516001600160a01b039091168152602090f35b50503461054057816003193601126105405760105490516001600160a01b039091168152602090f35b50346101f55760203660031901126101f557359160075483101561056d57506108d16020926117e7565b91905490519160031b1c8152f35b509190602092836003193601126101f55780359060ff845460a01c1681811015610a7a57600161090f9114611834565b6109286801bc16d674ec80000061024060055434611879565b600f548351631dc82a7560e01b81528281018490526001600160a01b03918216918782602481865afa918215610a7057889260249492610971928a92610a585750163014611919565b855192838092634f558e7960e01b825287878301525afa9081156107d4578591610a2b575b50156109f457508293817f2e4d11c40e9ddf229c2807835f88a91899498f9e8531757e8489a824b1bdc1199452600181528285206109d5348254611879565b90556109e334600554611879565b60055582519182523490820152a180f35b825162461bcd60e51b815290810185905260116024820152701a5908191bd95cc81b9bdd08195e1a5cdd607a1b6044820152606490fd5b610a4b9150863d8811610a51575b610a4381836117c5565b810190611965565b38610996565b503d610a39565b6107c6919250853d87116107cd576107be81836117c5565b86513d89823e3d90fd5b634e487b7160e01b855260218252602485fd5b5050346105405781600319360112610540576020906008549051908152f35b5050346105405781600319360112610540576020906005549051908152f35b833461056d578060031936011261056d57610ae461240a565b80546001600160a01b03198116825581906001600160a01b03167f8be0079c531659141344cd1fd0a4f28419497f9722a3daafe3b4186f6b6457e08280a380f35b50913461056d57602036600319011261056d575061079e60209235612288565b505034610540578160031936011261054057600f5490516001600160a01b039091168152602090f35b50503461054057816003193601126105405780516106ee916106dc826106d581611671565b50346101f557610ba236611529565b93610bb198969893919361240a565b60095460101c60ff1615610c3b57505050505092610bd29192933691611999565b602081519101208151610bef81610be8816115cd565b03826117c5565b6020815191012003610c065750505b61056a611a0a565b906020606492519162461bcd60e51b8352820152600f60248201526e0e0eac496caf240dad2e6dac2e8c6d608b1b6044820152fd5b92955092955092610c4b96611c32565b610bfe565b505034610540578160031936011261054057600e5490516001600160a01b039091168152602090f35b82843461056d578060031936011261056d579080519182906007549182855260208095018093600784527fa66cc928b5edb82af9bd49922954155ab7b0942694bea4ce44661d9a8736c68890845b818110610d185750505081610cdd9103826117c5565b83519485948186019282875251809352850193925b828110610d0157505050500390f35b835185528695509381019392810192600101610cf2565b825484529288019260019283019201610cc7565b50346101f557816003193601126101f557803590602480359160ff865460a01c1681811015610f25576001610d619114611834565b600f5485516331a9108f60e11b8082528382018790526020949290916001600160a01b0391869082908690829086165afa8015610f1b5782918b91610efe575b50163303610ecc578689526001855285888a205410610e93579286928594928a9693858852600185528a8820610dd88a82546121c5565b9055610de6896005546121c5565b600555600f54168a51958694859384528301525afa918215610e895792808080877f71ef96c43343734b1d843bb85d52ef329f5e9143e4d35827771e3b0dd90c5f849a96610e4b96610e66998492610e6c575b50505af1610e456121d2565b50611bf4565b51928352602083019190915233604083015281906060820190565b0390a180f35b610e829250803d106107cd576107be81836117c5565b3880610e39565b86513d85823e3d90fd5b875162461bcd60e51b8152808501869052601481850152731b9bdd08195b9bdd59da0819195c1bdcda5d195960621b6044820152606490fd5b875162461bcd60e51b8152808501869052600d818501526c3737ba103a34329037bbb732b960991b6044820152606490fd5b610f159150873d89116107cd576107be81836117c5565b38610da1565b89513d8c823e3d90fd5b50634e487b7160e01b86526021905284fd5b5050346105405781600319360112610540576020906006549051908152f35b833461056d578060031936011261056d57610bfe61240a565b50919034610540576020806003193601126101f557600f548251631dc82a7560e01b8152853581870181905292916024916001600160a01b0391849082908590829086165afa908115610a705790610fd2918891611383575b5082163014611919565b60ff865460a01c169680881015611371576001881461132f5760644711156112df579596949587956003146112d657816011541692848851818101906f636f6e74726163742e6164647265737360801b82526a4672656e734f7261636c6560a81b6030820152601b8152611045816117a9565b519020828a51809781936321f8a72160e01b8352878301525afa9384156112cc5783828996889388916112af575b508b5163404df7b160e11b815230878201529a8b938492165af19687156112a5578497611286575b508680611253575b61123d575b6110b186612215565b96868552600286528885206110c7898254611879565b90556110d588600654611879565b600655600854908115159081611234575b506111b7575b50600f5488516331a9108f60e11b815292830187905285918391829086165afa9384156111ad577fd79254e5daba749baa8ba954e77bbbb18efef113a8070d00df9a188d81932426979284928892610e6697611180575b5050918080809361115a9588165af1610e456121d2565b5192835260208301939093526001600160a01b0390921660408201529081906060820190565b8493849397506111a284938361115a9894903d106107cd576107be81836117c5565b979350939450611143565b87513d85823e3d90fd5b8760646111c788949a8a94612202565b0490600182116111e4575b906111dc916121c5565b9791506110ec565b9250929394505083600e5416600019830190838211611222578a959493879361121a888080808e986111dc985af1610e456121d2565b9091506111d2565b634e487b7160e01b8b5260118552888bfd5b905015386110e6565b835460ff60a01b1916600360a01b1784556110a8565b5090919260ff905460a01c16828110156112745790600289949392146110a3565b50634e487b7160e01b88526021825287fd5b61129e919750853d8711610a5157610a4381836117c5565b953861109b565b88513d86823e3d90fd5b6112c69150843d86116107cd576107be81836117c5565b38611073565b88513d89823e3d90fd5b600195926110a8565b855162461bcd60e51b81529081018490526025818401527f6d7573742062652067726561746572207468616e203130302077656920746f20604482015264636c61696d60d81b6064820152608490fd5b855162461bcd60e51b8152908101849052601c818401527f757365207769746864726177207768656e206e6f74207374616b6564000000006044820152606490fd5b634e487b7160e01b8752602190528186fd5b61139a9150853d87116107cd576107be81836117c5565b38610fc8565b50503461054057816003193601126105405760115490516001600160a01b039091168152602090f35b50346101f55760203660031901126101f55760209282913581526001845220549051908152f35b50346101f55760203660031901126101f55760209282913581526002845220549051908152f35b5050346105405781600319360112610540576106ee90611435612304565b90519182916020835260208301906114d1565b50503461054057816003193601126105405760209060ff60095460081c1690519015158152f35b9050833461056d578060031936011261056d5760ff815460a01c16908382101561149b57602083838152f35b634e487b7160e01b815260218452602490fd5b60005b8381106114c15750506000910152565b81810151838201526020016114b1565b906020916114ea815180928185528580860191016114ae565b601f01601f1916010190565b9181601f840112156115245782359167ffffffffffffffff8311611524576020838186019501011161152457565b600080fd5b9060806003198301126115245767ffffffffffffffff6004358181116115245783611556916004016114f6565b939093926024358381116115245782611571916004016114f6565b939093926044359182116115245761158b916004016114f6565b909160643590565b90600182811c921680156115c3575b60208310146115ad57565b634e487b7160e01b600052602260045260246000fd5b91607f16916115a2565b600a54600092916115dd82611593565b8082529160019081811690811561165457506001146115fb57505050565b91929350600a6000527fc65a7bb8d6351c1cf70c95a316cc6a92839c986682d98bc35f958f4883f9d2a8916000925b84841061163c57505060209250010190565b8054602085850181019190915290930192810161162a565b915050602093945060ff929192191683830152151560051b010190565b600c546000929161168182611593565b80825291600190818116908115611654575060011461169f57505050565b91929350600c6000527fdf6966c971051c3d54ec59162606531493a51404a002842f56009d7e5cf4a8c7916000925b8484106116e057505060209250010190565b805460208585018101919091529093019281016116ce565b600b546000929161170882611593565b80825291600190818116908115611654575060011461172657505050565b91929350600b6000527f0175b7a638427703f0dbe7bb9bbf987a2551717b34e79f33b5b1008d1fa01db9916000925b84841061176757505060209250010190565b80546020858501810191909152909301928101611755565b67ffffffffffffffff811161179357604052565b634e487b7160e01b600052604160045260246000fd5b6040810190811067ffffffffffffffff82111761179357604052565b90601f8019910116810190811067ffffffffffffffff82111761179357604052565b60075481101561181e5760076000527fa66cc928b5edb82af9bd49922954155ab7b0942694bea4ce44661d9a8736c6880190600090565b634e487b7160e01b600052603260045260246000fd5b1561183b57565b60405162461bcd60e51b81526020600482015260166024820152756e6f7420616363657074696e67206465706f7369747360501b6044820152606490fd5b9190820180921161188657565b634e487b7160e01b600052601160045260246000fd5b156118a357565b60405162461bcd60e51b815260206004820152602960248201527f746f74616c206465706f736974732063616e6e6f74206265206d6f72652074686044820152680c2dc406664408ae8d60bb1b6064820152608490fd5b9081602091031261152457516001600160a01b03811681036115245790565b1561192057565b60405162461bcd60e51b815260206004820152601960248201527f77726f6e67207374616b696e6720706f6f6c20666f72206964000000000000006044820152606490fd5b90816020910312611524575180151581036115245790565b67ffffffffffffffff811161179357601f01601f191660200190565b9291926119a58261197d565b916119b360405193846117c5565b829481845281830111611524578281602093846000960137010152565b156119d757565b60405162461bcd60e51b815260206004820152600b60248201526a77726f6e6720737461746560a81b6044820152606490fd5b6801bc16d674ec800000804710611bbe578060055403611b8357600090815460ff8160a01c166004811015611b6f576001611a4591146119d0565b60ff60095460101c1615611b365760ff60a01b1916600160a11b178255601254600d546001600160a01b0393918416803b156101f55790829160405180958180946304512a2360e31b825260806004830152611acb611aa6608484016115cd565b611abc60031991828682030160248701526116f8565b90848203016044850152611671565b90606483015203925af1908115611b2a5750916040917f72b356fd889b9abd3530accd2c9f4aecbce67d70757181f9f862ac91464ce19293611b1b575b50601254168151908152336020820152a1565b611b249061177f565b38611b08565b604051903d90823e3d90fd5b60405162461bcd60e51b81526020600482015260116024820152701d985b1a59185d1bdc881b9bdd081cd95d607a1b6044820152606490fd5b634e487b7160e01b84526021600452602484fd5b60405162461bcd60e51b81526020600482015260136024820152726e6f7420656e6f756768206465706f7369747360681b6044820152606490fd5b60405162461bcd60e51b815260206004820152600e60248201526d0dcdee840cadcdeeaced040cae8d60931b6044820152606490fd5b15611bfb57565b634e487b7160e01b600052600160045260246000fd5b908060209392818452848401376000828201840152601f01601f1916010190565b949190939695926040519160209283810190600160f81b82526000918260218301523060601b602c830152858252611c69826117a9565b611c74368686611999565b86815191012091519020036121805760095460ff811661213e575b5060ff815460a01c1690600482101561212a57611caf60018093146119d0565b67ffffffffffffffff90818911611f1957611ccb600a54611593565b9189601f938481116120c6575b508284821160011461203a57839161202f575b5060001960038c901b1c19168a851b17600a555b80861161201b57611d11600b54611593565b838111611fb9575b508582848211600114611f38578391611f2d575b50600019600388901b1c191686851b17600b555b8711611f1957611d52600c54611593565b828111611eb7575b5080918711600114611e0d579286807ffd84b86d2e47014cef6e8fc5310d3968b38c5998dd6a57a8b68b350628b8f9f89c9d9794611df7999794611de99793611e02575b501b906000198760031b1c191617600c555b87600d556201000062ff0000196009541617600955611ddc6040519a8b9a60808c5260808c0191611c11565b92898403908a0152611c11565b918583036040870152611c11565b9060608301520390a1565b890135925038611d9e565b90601f198716600c83527fdf6966c971051c3d54ec59162606531493a51404a002842f56009d7e5cf4a8c7925b818110611ea2575092879592611de99592611df7997ffd84b86d2e47014cef6e8fc5310d3968b38c5998dd6a57a8b68b350628b8f9f89e9f999610611e88575b505085811b01600c55611db0565b880135600019600389901b60f8161c191690553880611e7a565b8d830135845592840192918701918701611e3a565b600c82527fdf6966c971051c3d54ec59162606531493a51404a002842f56009d7e5cf4a8c783808a0160051c820192898b10611f10575b0160051c019084905b828110611f05575050611d5a565b838155018490611ef7565b92508192611eee565b634e487b7160e01b81526041600452602490fd5b905085013538611d2d565b600b84527f0175b7a638427703f0dbe7bb9bbf987a2551717b34e79f33b5b1008d1fa01db9915087601f198116855b8b89838310611fa25750505010611f88575b50508386811b01600b55611d41565b860135600019600389901b60f8161c191690553880611f79565b858c0135875590950194938401938b935001611f67565b600b83527f0175b7a638427703f0dbe7bb9bbf987a2551717b34e79f33b5b1008d1fa01db98480890160051c8201928a8a10612012575b0160051c019085905b828110612007575050611d19565b848155018590611ff9565b92508192611ff0565b634e487b7160e01b82526041600452602482fd5b90508b013538611ceb565b8c91601f198116600a86527fc65a7bb8d6351c1cf70c95a316cc6a92839c986682d98bc35f958f4883f9d2a8938b8988925b8484106120a657505050501061208c575b5050838a811b01600a55611cff565b8c013560001960038d901b60f8161c19169055388061207d565b8294955095809791929396013581550194019201908d918f898d9161206c565b600a8452847fc65a7bb8d6351c1cf70c95a316cc6a92839c986682d98bc35f958f4883f9d2a8918a82850160051c84019410612121575b0160051c019085905b82811061211657508b9150611cd8565b848155018590612106565b925081926120fd565b634e487b7160e01b81526021600452602490fd5b81549060ff8260a01c166004811015611b6f5761216b9161216160ff92156119d0565b60101c1615611bf4565b60ff60a01b1916600160a01b17815538611c8f565b60405162461bcd60e51b815260048101859052601e60248201527f7769746864726177616c2063726564656e7469616c206d69736d6174636800006044820152606490fd5b9190820391821161188657565b3d156121fd573d906121e38261197d565b916121f160405193846117c5565b82523d6000602084013e565b606090565b8181029291811591840414171561188657565b471561228257600090815260016020526040812054600260205261224b6040832054916122454760065490611879565b90612202565b60055490811561226e570480156122695761226692506121c5565b90565b505090565b634e487b7160e01b84526012600452602484fd5b50600090565b60ff60005460a01c169060048210156122ee57600182036122aa575050600090565b6122b390612215565b906008549081151590816122e2575b506122cb575090565b9060646122db8261226694612202565b04906121c5565b600391501415386122c2565b634e487b7160e01b600052602160045260246000fd5b60ff60005460a01c1660048110156122ee5780156123d057600281146123ad576001811461237e5760031461235c5760405161233f816117a9565b600d81526c7374617465206661696c75726560981b602082015290565b604051612368816117a9565b6006815265195e1a5d195960d21b602082015290565b5060405161238b816117a9565b6012815271616363657074696e67206465706f7369747360701b602082015290565b506040516123ba816117a9565b60068152651cdd185ad95960d21b602082015290565b506040516123dd816117a9565b601781527f6177616974696e672076616c696461746f7220696e666f000000000000000000602082015290565b6000546001600160a01b0316330361241e57565b606460405162461bcd60e51b815260206004820152602060248201527f4f776e61626c653a2063616c6c6572206973206e6f7420746865206f776e65726044820152fdfea26469706673582212202204f321163d4c3dc97db0eeeec209a93ac21202380d1d15a4dd122674f1d88264736f6c63430008140033",
    "linkReferences": {}
  },
  "methodIdentifiers": {
    "addToDeposit(uint256)": "8620891c",
    "artForPool()": "8ae578fd",
    "claim(uint256)": "379607f5",
    "currentState()": "0c3f6acf",
    "depositContract()": "e94ad65b",
    "depositForId(uint256)": "2daad61d",
    "depositToPool()": "f9faa104",
    "deposit_data_root()": "e2d9ae3e",
    "feePercent()": "7fd6f15c",
    "feeRecipient()": "46904840",
    "frenPastClaim(uint256)": "2cf2cd48",
    "frensPoolShare()": "591167c7",
    "frensStorage()": "30dbf887",
    "getDistributableShare(uint256)": "678e300a",
    "getIdsInThisPool()": "45b58fe4",
    "getShare(uint256)": "cfb5a5f8",
    "getState()": "1865c57d",
    "idsInPool(uint256)": "888e9cf8",
    "locked(uint256)": "b45a3c0e",
    "owner()": "8da5cb5b",
    "pubKey()": "ac2a5dfd",
    "rageQuitInfo(uint256)": "fc03bad2",
    "renounceOwnership()": "715018a6",
    "setArt(address)": "e6b1a3ae",
    "setPubKey(bytes,bytes,bytes,bytes32)": "e920eec0",
    "signature()": "51ff4847",
    "stake()": "3a4b66f1",
    "stake(bytes,bytes,bytes,bytes32)": "4b2b4e36",
    "totalClaims()": "41c61383",
    "totalDeposits()": "7d882097",
    "transferLocked()": "12686aae",
    "transferOwnership(address)": "f2fde38b",
    "validatorLocked()": "e3f05d83",
    "validatorSet()": "9426e226",
    "withdraw(uint256,uint256)": "441a3e70",
    "withdrawal_credentials()": "e4a50276"
  },
  "id": 6
}