{
  "abi": [
    {
      "inputs": [
        {
          "internalType": "address",
          "name": "owner_",
          "type": "address"
        },
        {
          "internalType": "bool",
          "name": "validatorLocked_",
          "type": "bool"
        },
        {
          "internalType": "contract IFrensStorage",
          "name": "frensStorage_",
          "type": "address"
        }
      ],
      "stateMutability": "nonpayable",
      "type": "constructor"
    },
    {
      "anonymous": false,
      "inputs": [
        {
          "indexed": false,
          "internalType": "uint256",
          "name": "amount",
          "type": "uint256"
        },
        {
          "indexed": false,
          "internalType": "address",
          "name": "depositer",
          "type": "address"
        },
        {
          "indexed": false,
          "internalType": "uint256",
          "name": "id",
          "type": "uint256"
        }
      ],
      "name": "DepositToPool",
      "type": "event"
    },
    {
      "anonymous": false,
      "inputs": [
        {
          "indexed": true,
          "internalType": "address",
          "name": "previousOwner",
          "type": "address"
        },
        {
          "indexed": true,
          "internalType": "address",
          "name": "newOwner",
          "type": "address"
        }
      ],
      "name": "OwnershipTransferred",
      "type": "event"
    },
    {
      "anonymous": false,
      "inputs": [
        {
          "indexed": false,
          "internalType": "address",
          "name": "depositContractAddress",
          "type": "address"
        },
        {
          "indexed": false,
          "internalType": "address",
          "name": "caller",
          "type": "address"
        }
      ],
      "name": "Stake",
      "type": "event"
    },
    {
      "stateMutability": "payable",
      "type": "fallback"
    },
    {
      "inputs": [
        {
          "internalType": "uint256",
          "name": "_id",
          "type": "uint256"
        }
      ],
      "name": "addToDeposit",
      "outputs": [],
      "stateMutability": "payable",
      "type": "function"
    },
    {
      "inputs": [],
      "name": "artForPool",
      "outputs": [
        {
          "internalType": "contract IFrensArt",
          "name": "",
          "type": "address"
        }
      ],
      "stateMutability": "view",
      "type": "function"
    },
    {
      "inputs": [
        {
          "internalType": "uint256",
          "name": "_id",
          "type": "uint256"
        }
      ],
      "name": "claim",
      "outputs": [],
      "stateMutability": "nonpayable",
      "type": "function"
    },
    {
      "inputs": [
        {
          "internalType": "uint256",
          "name": "",
          "type": "uint256"
        }
      ],
      "name": "depositForId",
      "outputs": [
        {
          "internalType": "uint256",
          "name": "",
          "type": "uint256"
        }
      ],
      "stateMutability": "view",
      "type": "function"
    },
    {
      "inputs": [],
      "name": "depositToPool",
      "outputs": [],
      "stateMutability": "payable",
      "type": "function"
    },
    {
      "inputs": [],
      "name": "deposit_data_root",
      "outputs": [
        {
          "internalType": "bytes32",
          "name": "",
          "type": "bytes32"
        }
      ],
      "stateMutability": "view",
      "type": "function"
    },
    {
      "inputs": [
        {
          "internalType": "uint256",
          "name": "",
          "type": "uint256"
        }
      ],
      "name": "frenPastClaim",
      "outputs": [
        {
          "internalType": "uint256",
          "name": "",
          "type": "uint256"
        }
      ],
      "stateMutability": "view",
      "type": "function"
    },
    {
      "inputs": [],
      "name": "frensPoolShare",
      "outputs": [
        {
          "internalType": "contract IFrensPoolShare",
          "name": "",
          "type": "address"
        }
      ],
      "stateMutability": "view",
      "type": "function"
    },
    {
      "inputs": [],
      "name": "frensStorage",
      "outputs": [
        {
          "internalType": "contract IFrensStorage",
          "name": "",
          "type": "address"
        }
      ],
      "stateMutability": "view",
      "type": "function"
    },
    {
      "inputs": [
        {
          "internalType": "uint256",
          "name": "_id",
          "type": "uint256"
        }
      ],
      "name": "getDistributableShare",
      "outputs": [
        {
          "internalType": "uint256",
          "name": "",
          "type": "uint256"
        }
      ],
      "stateMutability": "view",
      "type": "function"
    },
    {
      "inputs": [],
      "name": "getIdsInThisPool",
      "outputs": [
        {
          "internalType": "uint256[]",
          "name": "",
          "type": "uint256[]"
        }
      ],
      "stateMutability": "view",
      "type": "function"
    },
    {
      "inputs": [
        {
          "internalType": "uint256",
          "name": "_id",
          "type": "uint256"
        }
      ],
      "name": "getShare",
      "outputs": [
        {
          "internalType": "uint256",
          "name": "",
          "type": "uint256"
        }
      ],
      "stateMutability": "view",
      "type": "function"
    },
    {
      "inputs": [],
      "name": "getState",
      "outputs": [
        {
          "internalType": "string",
          "name": "",
          "type": "string"
        }
      ],
      "stateMutability": "view",
      "type": "function"
    },
    {
      "inputs": [
        {
          "internalType": "uint256",
          "name": "",
          "type": "uint256"
        }
      ],
      "name": "idsInPool",
      "outputs": [
        {
          "internalType": "uint256",
          "name": "",
          "type": "uint256"
        }
      ],
      "stateMutability": "view",
      "type": "function"
    },
    {
      "inputs": [
        {
          "internalType": "uint256",
          "name": "",
          "type": "uint256"
        }
      ],
      "name": "locked",
      "outputs": [
        {
          "internalType": "bool",
          "name": "",
          "type": "bool"
        }
      ],
      "stateMutability": "view",
      "type": "function"
    },
    {
      "inputs": [],
      "name": "owner",
      "outputs": [
        {
          "internalType": "address",
          "name": "",
          "type": "address"
        }
      ],
      "stateMutability": "view",
      "type": "function"
    },
    {
      "inputs": [],
      "name": "pubKey",
      "outputs": [
        {
          "internalType": "bytes",
          "name": "",
          "type": "bytes"
        }
      ],
      "stateMutability": "view",
      "type": "function"
    },
    {
      "inputs": [
        {
          "internalType": "uint256",
          "name": "",
          "type": "uint256"
        }
      ],
      "name": "rageQuitInfo",
      "outputs": [
        {
          "internalType": "uint256",
          "name": "price",
          "type": "uint256"
        },
        {
          "internalType": "uint256",
          "name": "time",
          "type": "uint256"
        },
        {
          "internalType": "bool",
          "name": "rageQuitting",
          "type": "bool"
        }
      ],
      "stateMutability": "view",
      "type": "function"
    },
    {
      "inputs": [],
      "name": "renounceOwnership",
      "outputs": [],
      "stateMutability": "nonpayable",
      "type": "function"
    },
    {
      "inputs": [
        {
          "internalType": "contract IFrensArt",
          "name": "newArtContract",
          "type": "address"
        }
      ],
      "name": "setArt",
      "outputs": [],
      "stateMutability": "nonpayable",
      "type": "function"
    },
    {
      "inputs": [
        {
          "internalType": "bytes",
          "name": "_pubKey",
          "type": "bytes"
        },
        {
          "internalType": "bytes",
          "name": "_withdrawal_credentials",
          "type": "bytes"
        },
        {
          "internalType": "bytes",
          "name": "_signature",
          "type": "bytes"
        },
        {
          "internalType": "bytes32",
          "name": "_deposit_data_root",
          "type": "bytes32"
        }
      ],
      "name": "setPubKey",
      "outputs": [],
      "stateMutability": "nonpayable",
      "type": "function"
    },
    {
      "inputs": [],
      "name": "signature",
      "outputs": [
        {
          "internalType": "bytes",
          "name": "",
          "type": "bytes"
        }
      ],
      "stateMutability": "view",
      "type": "function"
    },
    {
      "inputs": [],
      "name": "stake",
      "outputs": [],
      "stateMutability": "nonpayable",
      "type": "function"
    },
    {
      "inputs": [
        {
          "internalType": "bytes",
          "name": "_pubKey",
          "type": "bytes"
        },
        {
          "internalType": "bytes",
          "name": "_withdrawal_credentials",
          "type": "bytes"
        },
        {
          "internalType": "bytes",
          "name": "_signature",
          "type": "bytes"
        },
        {
          "internalType": "bytes32",
          "name": "_deposit_data_root",
          "type": "bytes32"
        }
      ],
      "name": "stake",
      "outputs": [],
      "stateMutability": "nonpayable",
      "type": "function"
    },
    {
      "inputs": [],
      "name": "totalClaims",
      "outputs": [
        {
          "internalType": "uint256",
          "name": "",
          "type": "uint256"
        }
      ],
      "stateMutability": "view",
      "type": "function"
    },
    {
      "inputs": [],
      "name": "totalDeposits",
      "outputs": [
        {
          "internalType": "uint256",
          "name": "",
          "type": "uint256"
        }
      ],
      "stateMutability": "view",
      "type": "function"
    },
    {
      "inputs": [],
      "name": "transferLocked",
      "outputs": [
        {
          "internalType": "bool",
          "name": "",
          "type": "bool"
        }
      ],
      "stateMutability": "view",
      "type": "function"
    },
    {
      "inputs": [
        {
          "internalType": "address",
          "name": "newOwner",
          "type": "address"
        }
      ],
      "name": "transferOwnership",
      "outputs": [],
      "stateMutability": "nonpayable",
      "type": "function"
    },
    {
      "inputs": [],
      "name": "validatorLocked",
      "outputs": [
        {
          "internalType": "bool",
          "name": "",
          "type": "bool"
        }
      ],
      "stateMutability": "view",
      "type": "function"
    },
    {
      "inputs": [],
      "name": "validatorSet",
      "outputs": [
        {
          "internalType": "bool",
          "name": "",
          "type": "bool"
        }
      ],
      "stateMutability": "view",
      "type": "function"
    },
    {
      "inputs": [
        {
          "internalType": "uint256",
          "name": "_id",
          "type": "uint256"
        },
        {
          "internalType": "uint256",
          "name": "_amount",
          "type": "uint256"
        }
      ],
      "name": "withdraw",
      "outputs": [],
      "stateMutability": "nonpayable",
      "type": "function"
    },
    {
      "inputs": [],
      "name": "withdrawal_credentials",
      "outputs": [
        {
          "internalType": "bytes",
          "name": "",
          "type": "bytes"
        }
      ],
      "stateMutability": "view",
      "type": "function"
    },
    {
      "stateMutability": "payable",
      "type": "receive"
    }
  ],
  "bytecode": {
    "object": "0x60806040818152346200026057606082620027e1803803809162000024828562000297565b83398101031262000260576200003a82620002bb565b602092838101519081151580920362000260578301516001600160a01b03808216959186900362000260576200007033620002d0565b60018060a01b0319918683600f541617600f5585518181016f636f6e74726163742e6164647265737360801b9182825267119c995b9cd05c9d60c21b603082015260188152620000c08162000265565b5190209087516321f8a72160e01b92838252600482015283816024818d5afa90811562000255578493929186916000916200020c575b5090602492911687600e541617600e5589518481019182526d4672656e73506f6f6c536861726560901b6030820152601e8152620001348162000265565b5190209189519a8b938492835260048301525afa9081156200020157600091620001bd575b50620001969596501690600d541617600d5560ff8019600854169116809117600855600014620001a4576000805460ff60a01b19169055620002d0565b516124c99081620003188239f35b6000805460ff60a01b1916600160a01b179055620002d0565b87813d8311620001f9575b620001d4818362000297565b81010312620001f65750620001ee620001969596620002bb565b869562000159565b80fd5b503d620001c8565b86513d6000823e3d90fd5b85819495969293503d83116200024d575b62000229818362000297565b81010312620001f657508392918562000244602493620002bb565b909192620000f6565b503d6200021d565b89513d6000823e3d90fd5b600080fd5b604081019081106001600160401b038211176200028157604052565b634e487b7160e01b600052604160045260246000fd5b601f909101601f19168101906001600160401b038211908210176200028157604052565b51906001600160a01b03821682036200026057565b600080546001600160a01b039283166001600160a01b03198216811783559216907f8be0079c531659141344cd1fd0a4f28419497f9722a3daafe3b4186f6b6457e09080a356fe6080604081815260048036101561001e575b505050361561001c57005b005b600092833560e01c90816312686aae146113c2575080631865c57d146113915780632cf2cd481461136a5780632daad61d1461134357806330dbf8871461131a578063379607f514610e655780633a4b66f114610e4c57806341c6138314610e2d578063441a3e7014610c6757806345b58fe414610bb45780634b2b4e3614610af757806351ff484714610ad2578063591167c714610aa9578063678e300a14610a89578063715018a614610a2f5780637d88209714610a105780638620891c1461088a578063888e9cf8146108525780638ae578fd146108295780638da5cb5b146108015780639426e226146107da578063ac2a5dfd146107b5578063b45a3c0e14610789578063cfb5a5f8146106e0578063e2d9ae3e146106c1578063e3f05d831461069d578063e4a5027614610657578063e6b1a3ae14610517578063e920eec0146104eb578063f2fde38b14610421578063f9faa104146101cd5763fc03bad20361001157346101c95760203660031901126101c957606092818392358252602052209081549160ff60026001830154920154169082519384526020840152151590820152f35b8280fd5b50826003193601126101c95734156103ea5760ff835460a01c16818110156103d75760016101fb911461176c565b61021b6801bc16d674ec800000610214600554346117b1565b11156117d4565b600d5482516318160ddd60e01b8152602093909290916001600160a01b0390859085908490829085165afa9384156103cd57869461039a575b5083865260018552348387205561026d346005546117b1565b6005556007546801000000000000000081101561038757906102978260018995940160075561171f565b81549060031b9087821b91600019901b19161790558483526002865260018484205560ff60085460081c16600387528484209060ff801983541691151516179055600d5416803b156101c95760248392855194859384926335313c2160e11b845233908401525af1801561037d57610343575b5091606091837fd91527a40417d48f76ba016aaa9157e2ddaca6cb5b660432901659cb075058fc9451923484523390840152820152a180f35b917fd91527a40417d48f76ba016aaa9157e2ddaca6cb5b660432901659cb075058fc9391946103736060946116b7565b949193509161030a565b82513d87823e3d90fd5b634e487b7160e01b875260418352602487fd5b9093508481813d83116103c6575b6103b281836116fd565b810103126103c257519238610254565b8580fd5b503d6103a8565b83513d88823e3d90fd5b634e487b7160e01b845260218252602484fd5b6020606492519162461bcd60e51b8352820152601260248201527136bab9ba103232b837b9b4ba1032ba3432b960711b6044820152fd5b5090346101c95760203660031901126101c9576001600160a01b038235818116939192908490036104e75761045461243b565b831561049557505082546001600160a01b0319811683178455167f8be0079c531659141344cd1fd0a4f28419497f9722a3daafe3b4186f6b6457e08380a380f35b906020608492519162461bcd60e51b8352820152602660248201527f4f776e61626c653a206e6577206f776e657220697320746865207a65726f206160448201526564647265737360d01b6064820152fd5b8480fd5b8334610514576105116104fd36611461565b9561050c95919594929461243b565b611c27565b80f35b80fd5b50346101c9576020806003193601126106535781356001600160a01b03811693908490036104e75761054761243b565b805163516b636d60e11b81526001848201528581602481885afa9081156106495786916105cc575b505115610594575050506bffffffffffffffffffffffff60a01b600e541617600e5580f35b5162461bcd60e51b81529182015260146024820152731a5b9d985b1a5908185c9d0818dbdb9d1c9858dd60621b604482015260649150fd5b90503d8087833e6105dd81836116fd565b81019083818303126106455780519067ffffffffffffffff8211610641570181601f82011215610645578051610612816118b5565b9261061f855194856116fd565b8184528582840101116106415761063b918580850191016113e6565b3861056f565b8780fd5b8680fd5b82513d88823e3d90fd5b8380fd5b5050346106995781600319360112610699578051610695916106838261067c81611630565b03836116fd565b51918291602083526020830190611409565b0390f35b5080fd5b50503461069957816003193601126106995760209060ff6008541690519015158152f35b505034610699578160031936011261069957602090600c549051908152f35b50346101c95760203660031901126101c957600d548251631dc82a7560e01b81528235928101839052906001600160a01b03906020908390602490829085165afa91821561077f579161074491610749949360209792610750575b50163014611851565b6121a2565b9051908152f35b610771919250873d8111610778575b61076981836116fd565b810190611832565b903861073b565b503d61075f565b84513d87823e3d90fd5b50346101c95760203660031901126101c9578160209360ff923581526003855220541690519015158152f35b5050346106995781600319360112610699578051610695916106838261067c81611505565b50503461069957816003193601126106995760209060ff60085460101c1690519015158152f35b505034610699578160031936011261069957905490516001600160a01b039091168152602090f35b505034610699578160031936011261069957600e5490516001600160a01b039091168152602090f35b50346101c95760203660031901126101c9573591600754831015610514575061087c60209261171f565b91905490519160031b1c8152f35b50602090816003193601126106535780359060ff855460a01c16818110156109fd5760016108b8911461176c565b6108d16801bc16d674ec800000610214600554346117b1565b600d548451631dc82a7560e01b8152828101849052906001600160a01b039081168583602481845afa9283156109f3576024938793610919928b926109db5750163014611851565b865192838092634f558e7960e01b825287878301525afa9081156109d15786916109a4575b501561096d57509060019184525281206109593482546117b1565b9055610967346005546117b1565b60055580f35b835162461bcd60e51b815290810183905260116024820152701a5908191bd95cc81b9bdd08195e1a5cdd607a1b6044820152606490fd5b6109c49150843d86116109ca575b6109bc81836116fd565b81019061189d565b3861093e565b503d6109b2565b85513d88823e3d90fd5b610771919250853d87116107785761076981836116fd565b87513d8a823e3d90fd5b634e487b7160e01b865260218252602486fd5b5050346106995781600319360112610699576020906005549051908152f35b8334610514578060031936011261051457610a4861243b565b80546001600160a01b03198116825581906001600160a01b03167f8be0079c531659141344cd1fd0a4f28419497f9722a3daafe3b4186f6b6457e08280a380f35b509134610514576020366003190112610514575061074960209235612215565b505034610699578160031936011261069957600d5490516001600160a01b039091168152602090f35b5050346106995781600319360112610699578051610695916106838261067c816115a9565b50346101c957610b0636611461565b93610b1598969893919361243b565b60085460101c60ff1615610b9f57505050505092610b3691929336916118d1565b602081519101208151610b5381610b4c81611505565b03826116fd565b6020815191012003610b6a5750505b610511611942565b906020606492519162461bcd60e51b8352820152600f60248201526e0e0eac496caf240dad2e6dac2e8c6d608b1b6044820152fd5b92955092955092610baf96611c27565b610b62565b8284346105145780600319360112610514579080519182906007549182855260208095018093600784527fa66cc928b5edb82af9bd49922954155ab7b0942694bea4ce44661d9a8736c68890845b818110610c535750505081610c189103826116fd565b83519485948186019282875251809352850193925b828110610c3c57505050500390f35b835185528695509381019392810192600101610c2d565b825484529288019260019283019201610c02565b5090346101c957806003193601126101c9578135602480359360ff865460a01c1681811015610e1b576001610c9c911461176c565b600d5484516331a9108f60e11b8082528382018690526020949290916001600160a01b0391869082908690829086165afa908115610e11579082918b91610df4575b50163303610dc2578589526001855287878a205410610d8957918493918695938a9897895260018552878920610d158b8254612152565b9055610d238a600554612152565b600555600d54168751968794859384528301525afa928315610d805750610511948493849384938492610d63575b50505af1610d5d61215f565b50611c0a565b610d799250803d106107785761076981836116fd565b3880610d51565b513d85823e3d90fd5b865162461bcd60e51b8152808501869052601481850152731b9bdd08195b9bdd59da0819195c1bdcda5d195960621b6044820152606490fd5b865162461bcd60e51b8152808501869052600d818501526c3737ba103a34329037bbb732b960991b6044820152606490fd5b610e0b9150873d89116107785761076981836116fd565b38610cde565b88513d8c823e3d90fd5b50634e487b7160e01b86526021905284fd5b5050346106995781600319360112610699576020906006549051908152f35b8334610514578060031936011261051457610b6261243b565b5091346105145760209182600319360112610699578335938360018060a01b039586600d5416845196878092631dc82a7560e01b825284878301526024998a915afa9081156109d15790610ec49187916112fd575b5088163014611851565b60ff855460a01c16838110156112eb57600181146112a95760644711156112595760031461124d5786600f541696828551818101906f636f6e74726163742e6164647265737360801b82526a4672656e734f7261636c6560a81b6030820152601b8152610f30816116e1565b519020888751809b81936321f8a72160e01b8352898301525afa9788156109d157818888999a86938a91611230575b50885163404df7b160e11b81523089820152998a938492165af1958615611226578796611207575b5085806111dc575b6111c6575b610f9d826121a2565b9582885260028452858820610fb38882546117b1565b9055610fc1876006546117b1565b60065581600f541690865185810190731c1c9bdd1bd8dbdb0b9999594b9c195c98d95b9d60621b825260148152610ff7816116e1565b5190209087519163bd02d0f560e01b83528783015285828c81865afa918215610e11578a92611193575b50811515908161118a575b5061107b575b50509086978392600d989798541694865195869384926331a9108f60e11b84528301525afa928315610d805750610511948493849384938492610d635750505af1610d5d61215f565b8487989293985181810190751c1c9bdd1bd8dbdb0b9999594b9c9958da5c1a595b9d60521b8252601681526110af816116e1565b5190208b8951809681936321f8a72160e01b83528b8301525afa928315611180578993611158575b506110e48260649261218f565b04916001831161110d575b5097611101849392899a999899612152565b96979192819950611032565b6000198301908382116111465792899a926111388b8080809d9e611101978c9b9a5af1610d5d61215f565b929a509293509796976110ef565b634e487b7160e01b8a52601187528a8afd5b6064919350826111776110e492883d8a116107785761076981836116fd565b949250506110d7565b87513d8b823e3d90fd5b9050153861102c565b9091508581813d83116111bf575b6111ab81836116fd565b810103126111bb57519038611021565b8980fd5b503d6111a1565b865460ff60a01b1916600360a01b178755610f94565b5060ff875460a01c16848110156111f557600214610f8f565b634e487b7160e01b8852602185528888fd5b61121f919650833d85116109ca576109bc81836116fd565b9438610f87565b85513d89823e3d90fd5b6112479150843d86116107785761076981836116fd565b38610f5f565b60019694959694610f94565b845162461bcd60e51b81528085018490526025818901527f6d7573742062652067726561746572207468616e203130302077656920746f20604482015264636c61696d60d81b6064820152608490fd5b845162461bcd60e51b8152808501849052601c818901527f757365207769746864726177207768656e206e6f74207374616b6564000000006044820152606490fd5b634e487b7160e01b8652602184528686fd5b6113149150843d86116107785761076981836116fd565b38610eba565b505034610699578160031936011261069957600f5490516001600160a01b039091168152602090f35b50346101c95760203660031901126101c95760209282913581526001845220549051908152f35b50346101c95760203660031901126101c95760209282913581526002845220549051908152f35b505034610699578160031936011261069957610695906113af612335565b9051918291602083526020830190611409565b84903461069957816003193601126106995760209060ff60085460081c1615158152f35b60005b8381106113f95750506000910152565b81810151838201526020016113e9565b90602091611422815180928185528580860191016113e6565b601f01601f1916010190565b9181601f8401121561145c5782359167ffffffffffffffff831161145c576020838186019501011161145c57565b600080fd5b90608060031983011261145c5767ffffffffffffffff60043581811161145c578361148e9160040161142e565b9390939260243583811161145c57826114a99160040161142e565b9390939260443591821161145c576114c39160040161142e565b909160643590565b90600182811c921680156114fb575b60208310146114e557565b634e487b7160e01b600052602260045260246000fd5b91607f16916114da565b60095460009291611515826114cb565b8082529160019081811690811561158c575060011461153357505050565b9192935060096000527f6e1540171b6c0c960b71a7020d9f60077f6af931a8bbf590da0223dacf75c7af916000925b84841061157457505060209250010190565b80546020858501810191909152909301928101611562565b915050602093945060ff929192191683830152151560051b010190565b600b54600092916115b9826114cb565b8082529160019081811690811561158c57506001146115d757505050565b91929350600b6000527f0175b7a638427703f0dbe7bb9bbf987a2551717b34e79f33b5b1008d1fa01db9916000925b84841061161857505060209250010190565b80546020858501810191909152909301928101611606565b600a5460009291611640826114cb565b8082529160019081811690811561158c575060011461165e57505050565b91929350600a6000527fc65a7bb8d6351c1cf70c95a316cc6a92839c986682d98bc35f958f4883f9d2a8916000925b84841061169f57505060209250010190565b8054602085850181019190915290930192810161168d565b67ffffffffffffffff81116116cb57604052565b634e487b7160e01b600052604160045260246000fd5b6040810190811067ffffffffffffffff8211176116cb57604052565b90601f8019910116810190811067ffffffffffffffff8211176116cb57604052565b6007548110156117565760076000527fa66cc928b5edb82af9bd49922954155ab7b0942694bea4ce44661d9a8736c6880190600090565b634e487b7160e01b600052603260045260246000fd5b1561177357565b60405162461bcd60e51b81526020600482015260166024820152756e6f7420616363657074696e67206465706f7369747360501b6044820152606490fd5b919082018092116117be57565b634e487b7160e01b600052601160045260246000fd5b156117db57565b60405162461bcd60e51b815260206004820152602960248201527f746f74616c206465706f736974732063616e6e6f74206265206d6f72652074686044820152680c2dc406664408ae8d60bb1b6064820152608490fd5b9081602091031261145c57516001600160a01b038116810361145c5790565b1561185857565b60405162461bcd60e51b815260206004820152601960248201527f77726f6e67207374616b696e6720706f6f6c20666f72206964000000000000006044820152606490fd5b9081602091031261145c5751801515810361145c5790565b67ffffffffffffffff81116116cb57601f01601f191660200190565b9291926118dd826118b5565b916118eb60405193846116fd565b82948184528183011161145c578281602093846000960137010152565b1561190f57565b60405162461bcd60e51b815260206004820152600b60248201526a77726f6e6720737461746560a81b6044820152606490fd5b6801bc16d674ec80000090814710611bd4578160055403611b995760009182549060ff8260a01c166004811015611b8557600161197f9114611908565b60ff60085460101c1615611b4c5760018060a01b0380600f541660409384519160208301907f65787465726e616c2e636f6e74726163742e616464726573730000000000000082526e11195c1bdcda5d10dbdb9d1c9858dd608a1b603985015260288452606084019184831067ffffffffffffffff841117611b38576024836020938193828c52885190206321f8a72160e01b835260648901525afa928315611b2e578893611af8575b505060ff60a01b1916600160a11b178655600c54911691908590833b1561069957845192838080936304512a2360e31b825260806004830152611a96611a7160848401611505565b611a876003199182868203016024870152611630565b908482030160448501526115a9565b9060648301520391865af18015611aee577f72b356fd889b9abd3530accd2c9f4aecbce67d70757181f9f862ac91464ce192949550611adf575b508151908152336020820152a1565b611ae8906116b7565b38611ad0565b83513d87823e3d90fd5b611b1e9293506060906020903d8211611b26575b611b1682856116fd565b010190611832565b903880611a29565b3d9150611b0c565b86513d8a823e3d90fd5b634e487b7160e01b8a52604160045260248afd5b60405162461bcd60e51b81526020600482015260116024820152701d985b1a59185d1bdc881b9bdd081cd95d607a1b6044820152606490fd5b634e487b7160e01b85526021600452602485fd5b60405162461bcd60e51b81526020600482015260136024820152726e6f7420656e6f756768206465706f7369747360681b6044820152606490fd5b60405162461bcd60e51b815260206004820152600e60248201526d0dcdee840cadcdeeaced040cae8d60931b6044820152606490fd5b15611c1157565b634e487b7160e01b600052600160045260246000fd5b929094939194600160f81b3001908130116117be57604051602092838201908152838252611c54826116e1565b611c5f36868b6118d1565b848151910120915190200361210d5760085460ff81166120b3575b5060009260ff845460a01c16976004891015611b8557611c9d6001809a14611908565b67ffffffffffffffff9283811161209f5780611cba6009546114cb565b98601f998a8111612032575b5087908a8311600114611faa578892611f9f575b5050600019600383901b1c1916908a1b176009555b828211611f8b578190611d03600a546114cb565b888111611f1e575b508590888311600114611e9f578692611e94575b5050600019600383901b1c191690881b17600a555b8511611e8057611d45600b546114cb565b848111611e1e575b5081938511600114611d9a575091839491849394611d8f575b50501b916000199060031b1c191617600b555b600c556201000062ff0000196008541617600855565b013592503880611d66565b600b82527f0175b7a638427703f0dbe7bb9bbf987a2551717b34e79f33b5b1008d1fa01db993918591601f19831691905b88838310611e045750505010611dea575b505050811b01600b55611d79565b0135600019600384901b60f8161c19169055388080611ddc565b868601358855909601959384019387935090810190611dcb565b600b83527f0175b7a638427703f0dbe7bb9bbf987a2551717b34e79f33b5b1008d1fa01db98580880160051c820192848910611e77575b0160051c019087905b828110611e6c575050611d4d565b848155018790611e5e565b92508192611e55565b634e487b7160e01b82526041600452602482fd5b013590503880611d1f565b600a87528a93507fc65a7bb8d6351c1cf70c95a316cc6a92839c986682d98bc35f958f4883f9d2a891601f198416885b88828210611f085750508411611eee575b505050811b01600a55611d34565b0135600019600384901b60f8161c19169055388080611ee0565b8385013586558e97909501949283019201611ecf565b909150600a86527fc65a7bb8d6351c1cf70c95a316cc6a92839c986682d98bc35f958f4883f9d2a88880850160051c820192878610611f82575b918c91869594930160051c01915b828110611f74575050611d0b565b8881558594508c9101611f66565b92508192611f58565b634e487b7160e01b85526041600452602485fd5b013590503880611cda565b600989528c93507f6e1540171b6c0c960b71a7020d9f60077f6af931a8bbf590da0223dacf75c7af91601f1984168a5b8a8282106120135750508411611ff9575b505050811b01600955611cef565b0135600019600384901b60f8161c19169055388080611feb565b91929596849587849396013581550195019201908e9594939291611fda565b909150600988527f6e1540171b6c0c960b71a7020d9f60077f6af931a8bbf590da0223dacf75c7af8a80850160051c820192898610612096575b918e91869594930160051c01915b828110612088575050611cc6565b8a81558594508e910161207a565b9250819261206c565b634e487b7160e01b86526041600452602486fd5b6000549060ff8260a01c1660048110156120f7576120e1916120d760ff9215611908565b60101c1615611c0a565b60ff60a01b1916600160a01b1760005538611c7a565b634e487b7160e01b600052602160045260246000fd5b60405162461bcd60e51b815260048101839052601e60248201527f7769746864726177616c2063726564656e7469616c206d69736d6174636800006044820152606490fd5b919082039182116117be57565b3d1561218a573d90612170826118b5565b9161217e60405193846116fd565b82523d6000602084013e565b606090565b818102929181159184041417156117be57565b471561220f5760009081526001602052604081205460026020526121d86040832054916121d247600654906117b1565b9061218f565b6005549081156121fb570480156121f6576121f39250612152565b90565b505090565b634e487b7160e01b84526012600452602484fd5b50600090565b600060ff815460a01c1691600483101561232157600183036122375750905090565b612240906121a2565b9160018060a01b03600f5416602060405181810190731c1c9bdd1bd8dbdb0b9999594b9c195c98d95b9d60621b82526014815261227c816116e1565b51902060246040518094819363bd02d0f560e01b835260048301525afa9283156123155780936122df575b505081151590816122d3575b506122bc575090565b9060646122cc826121f39461218f565b0490612152565b600391501415386122b3565b909192506020823d821161230d575b816122fb602093836116fd565b810103126105145750519038806122a7565b3d91506122ee565b604051903d90823e3d90fd5b634e487b7160e01b82526021600452602482fd5b60ff60005460a01c1660048110156120f757801561240157600281146123de57600181146123af5760031461238d57604051612370816116e1565b600d81526c7374617465206661696c75726560981b602082015290565b604051612399816116e1565b6006815265195e1a5d195960d21b602082015290565b506040516123bc816116e1565b6012815271616363657074696e67206465706f7369747360701b602082015290565b506040516123eb816116e1565b60068152651cdd185ad95960d21b602082015290565b5060405161240e816116e1565b601781527f6177616974696e672076616c696461746f7220696e666f000000000000000000602082015290565b6000546001600160a01b0316330361244f57565b606460405162461bcd60e51b815260206004820152602060248201527f4f776e61626c653a2063616c6c6572206973206e6f7420746865206f776e65726044820152fdfea2646970667358221220757814bf191d6e73702bb0fb57cf61175f3e97b7ca83869a6d12f956debafab564736f6c63430008140033",
    "linkReferences": {}
  },
  "methodIdentifiers": {
    "addToDeposit(uint256)": "8620891c",
    "artForPool()": "8ae578fd",
    "claim(uint256)": "379607f5",
    "depositForId(uint256)": "2daad61d",
    "depositToPool()": "f9faa104",
    "deposit_data_root()": "e2d9ae3e",
    "frenPastClaim(uint256)": "2cf2cd48",
    "frensPoolShare()": "591167c7",
    "frensStorage()": "30dbf887",
    "getDistributableShare(uint256)": "678e300a",
    "getIdsInThisPool()": "45b58fe4",
    "getShare(uint256)": "cfb5a5f8",
    "getState()": "1865c57d",
    "idsInPool(uint256)": "888e9cf8",
    "locked(uint256)": "b45a3c0e",
    "owner()": "8da5cb5b",
    "pubKey()": "ac2a5dfd",
    "rageQuitInfo(uint256)": "fc03bad2",
    "renounceOwnership()": "715018a6",
    "setArt(address)": "e6b1a3ae",
    "setPubKey(bytes,bytes,bytes,bytes32)": "e920eec0",
    "signature()": "51ff4847",
    "stake()": "3a4b66f1",
    "stake(bytes,bytes,bytes,bytes32)": "4b2b4e36",
    "totalClaims()": "41c61383",
    "totalDeposits()": "7d882097",
    "transferLocked()": "12686aae",
    "transferOwnership(address)": "f2fde38b",
    "validatorLocked()": "e3f05d83",
    "validatorSet()": "9426e226",
    "withdraw(uint256,uint256)": "441a3e70",
    "withdrawal_credentials()": "e4a50276"
  },
  "id": 8
}