{
  "abi": [
    {
      "inputs": [
        {
          "internalType": "address",
          "name": "owner_",
          "type": "address"
        },
        {
          "internalType": "bool",
          "name": "validatorLocked_",
          "type": "bool"
        },
        {
          "internalType": "contract IFrensStorage",
          "name": "frensStorage_",
          "type": "address"
        }
      ],
      "stateMutability": "nonpayable",
      "type": "constructor"
    },
    {
      "anonymous": false,
      "inputs": [
        {
          "indexed": false,
          "internalType": "uint256",
          "name": "amount",
          "type": "uint256"
        },
        {
          "indexed": false,
          "internalType": "address",
          "name": "depositer",
          "type": "address"
        },
        {
          "indexed": false,
          "internalType": "uint256",
          "name": "id",
          "type": "uint256"
        }
      ],
      "name": "DepositToPool",
      "type": "event"
    },
    {
      "anonymous": false,
      "inputs": [
        {
          "indexed": true,
          "internalType": "address",
          "name": "previousOwner",
          "type": "address"
        },
        {
          "indexed": true,
          "internalType": "address",
          "name": "newOwner",
          "type": "address"
        }
      ],
      "name": "OwnershipTransferred",
      "type": "event"
    },
    {
      "anonymous": false,
      "inputs": [
        {
          "indexed": false,
          "internalType": "address",
          "name": "depositContractAddress",
          "type": "address"
        },
        {
          "indexed": false,
          "internalType": "address",
          "name": "caller",
          "type": "address"
        }
      ],
      "name": "Stake",
      "type": "event"
    },
    {
      "stateMutability": "payable",
      "type": "fallback"
    },
    {
      "inputs": [
        {
          "internalType": "uint256",
          "name": "_id",
          "type": "uint256"
        }
      ],
      "name": "addToDeposit",
      "outputs": [],
      "stateMutability": "payable",
      "type": "function"
    },
    {
      "inputs": [],
      "name": "artForPool",
      "outputs": [
        {
          "internalType": "contract IFrensArt",
          "name": "",
          "type": "address"
        }
      ],
      "stateMutability": "view",
      "type": "function"
    },
    {
      "inputs": [
        {
          "internalType": "uint256",
          "name": "_id",
          "type": "uint256"
        }
      ],
      "name": "claim",
      "outputs": [],
      "stateMutability": "nonpayable",
      "type": "function"
    },
    {
      "inputs": [
        {
          "internalType": "uint256",
          "name": "",
          "type": "uint256"
        }
      ],
      "name": "depositForId",
      "outputs": [
        {
          "internalType": "uint256",
          "name": "",
          "type": "uint256"
        }
      ],
      "stateMutability": "view",
      "type": "function"
    },
    {
      "inputs": [],
      "name": "depositToPool",
      "outputs": [],
      "stateMutability": "payable",
      "type": "function"
    },
    {
      "inputs": [],
      "name": "deposit_data_root",
      "outputs": [
        {
          "internalType": "bytes32",
          "name": "",
          "type": "bytes32"
        }
      ],
      "stateMutability": "view",
      "type": "function"
    },
    {
      "inputs": [],
      "name": "exitPool",
      "outputs": [],
      "stateMutability": "nonpayable",
      "type": "function"
    },
    {
      "inputs": [
        {
          "internalType": "uint256",
          "name": "",
          "type": "uint256"
        }
      ],
      "name": "frenPastClaim",
      "outputs": [
        {
          "internalType": "uint256",
          "name": "",
          "type": "uint256"
        }
      ],
      "stateMutability": "view",
      "type": "function"
    },
    {
      "inputs": [],
      "name": "frensPoolShare",
      "outputs": [
        {
          "internalType": "contract IFrensPoolShare",
          "name": "",
          "type": "address"
        }
      ],
      "stateMutability": "view",
      "type": "function"
    },
    {
      "inputs": [],
      "name": "frensStorage",
      "outputs": [
        {
          "internalType": "contract IFrensStorage",
          "name": "",
          "type": "address"
        }
      ],
      "stateMutability": "view",
      "type": "function"
    },
    {
      "inputs": [
        {
          "internalType": "uint256",
          "name": "_id",
          "type": "uint256"
        }
      ],
      "name": "getDistributableShare",
      "outputs": [
        {
          "internalType": "uint256",
          "name": "",
          "type": "uint256"
        }
      ],
      "stateMutability": "view",
      "type": "function"
    },
    {
      "inputs": [
        {
          "internalType": "uint256",
          "name": "_id",
          "type": "uint256"
        }
      ],
      "name": "getShare",
      "outputs": [
        {
          "internalType": "uint256",
          "name": "",
          "type": "uint256"
        }
      ],
      "stateMutability": "view",
      "type": "function"
    },
    {
      "inputs": [],
      "name": "getState",
      "outputs": [
        {
          "internalType": "string",
          "name": "",
          "type": "string"
        }
      ],
      "stateMutability": "view",
      "type": "function"
    },
    {
      "inputs": [
        {
          "internalType": "uint256",
          "name": "",
          "type": "uint256"
        }
      ],
      "name": "idsInPool",
      "outputs": [
        {
          "internalType": "uint256",
          "name": "",
          "type": "uint256"
        }
      ],
      "stateMutability": "view",
      "type": "function"
    },
    {
      "inputs": [],
      "name": "owner",
      "outputs": [
        {
          "internalType": "address",
          "name": "",
          "type": "address"
        }
      ],
      "stateMutability": "view",
      "type": "function"
    },
    {
      "inputs": [],
      "name": "pubKey",
      "outputs": [
        {
          "internalType": "bytes",
          "name": "",
          "type": "bytes"
        }
      ],
      "stateMutability": "view",
      "type": "function"
    },
    {
      "inputs": [],
      "name": "renounceOwnership",
      "outputs": [],
      "stateMutability": "nonpayable",
      "type": "function"
    },
    {
      "inputs": [
        {
          "internalType": "contract IFrensArt",
          "name": "newArtContract",
          "type": "address"
        }
      ],
      "name": "setArt",
      "outputs": [],
      "stateMutability": "nonpayable",
      "type": "function"
    },
    {
      "inputs": [
        {
          "internalType": "bytes",
          "name": "_pubKey",
          "type": "bytes"
        },
        {
          "internalType": "bytes",
          "name": "_withdrawal_credentials",
          "type": "bytes"
        },
        {
          "internalType": "bytes",
          "name": "_signature",
          "type": "bytes"
        },
        {
          "internalType": "bytes32",
          "name": "_deposit_data_root",
          "type": "bytes32"
        }
      ],
      "name": "setPubKey",
      "outputs": [],
      "stateMutability": "nonpayable",
      "type": "function"
    },
    {
      "inputs": [],
      "name": "signature",
      "outputs": [
        {
          "internalType": "bytes",
          "name": "",
          "type": "bytes"
        }
      ],
      "stateMutability": "view",
      "type": "function"
    },
    {
      "inputs": [],
      "name": "stake",
      "outputs": [],
      "stateMutability": "nonpayable",
      "type": "function"
    },
    {
      "inputs": [
        {
          "internalType": "bytes",
          "name": "_pubKey",
          "type": "bytes"
        },
        {
          "internalType": "bytes",
          "name": "_withdrawal_credentials",
          "type": "bytes"
        },
        {
          "internalType": "bytes",
          "name": "_signature",
          "type": "bytes"
        },
        {
          "internalType": "bytes32",
          "name": "_deposit_data_root",
          "type": "bytes32"
        }
      ],
      "name": "stake",
      "outputs": [],
      "stateMutability": "nonpayable",
      "type": "function"
    },
    {
      "inputs": [],
      "name": "totalClaims",
      "outputs": [
        {
          "internalType": "uint256",
          "name": "",
          "type": "uint256"
        }
      ],
      "stateMutability": "view",
      "type": "function"
    },
    {
      "inputs": [],
      "name": "totalDeposits",
      "outputs": [
        {
          "internalType": "uint256",
          "name": "",
          "type": "uint256"
        }
      ],
      "stateMutability": "view",
      "type": "function"
    },
    {
      "inputs": [],
      "name": "transferLocked",
      "outputs": [
        {
          "internalType": "bool",
          "name": "",
          "type": "bool"
        }
      ],
      "stateMutability": "view",
      "type": "function"
    },
    {
      "inputs": [
        {
          "internalType": "address",
          "name": "newOwner",
          "type": "address"
        }
      ],
      "name": "transferOwnership",
      "outputs": [],
      "stateMutability": "nonpayable",
      "type": "function"
    },
    {
      "inputs": [],
      "name": "validatorLocked",
      "outputs": [
        {
          "internalType": "bool",
          "name": "",
          "type": "bool"
        }
      ],
      "stateMutability": "view",
      "type": "function"
    },
    {
      "inputs": [],
      "name": "validatorSet",
      "outputs": [
        {
          "internalType": "bool",
          "name": "",
          "type": "bool"
        }
      ],
      "stateMutability": "view",
      "type": "function"
    },
    {
      "inputs": [
        {
          "internalType": "uint256",
          "name": "_id",
          "type": "uint256"
        },
        {
          "internalType": "uint256",
          "name": "_amount",
          "type": "uint256"
        }
      ],
      "name": "withdraw",
      "outputs": [],
      "stateMutability": "nonpayable",
      "type": "function"
    },
    {
      "inputs": [],
      "name": "withdrawal_credentials",
      "outputs": [
        {
          "internalType": "bytes",
          "name": "",
          "type": "bytes"
        }
      ],
      "stateMutability": "view",
      "type": "function"
    },
    {
      "stateMutability": "payable",
      "type": "receive"
    }
  ],
  "bytecode": {
    "object": "0x60806040818152346200026057606082620028c2803803809162000024828562000297565b83398101031262000260576200003a82620002bb565b602092838101519081151580920362000260578301516001600160a01b03808216959186900362000260576200007033620002d0565b60018060a01b0319918683600d541617600d5585518181016f636f6e74726163742e6164647265737360801b9182825267119c995b9cd05c9d60c21b603082015260188152620000c08162000265565b5190209087516321f8a72160e01b92838252600482015283816024818d5afa90811562000255578493929186916000916200020c575b5090602492911687600c541617600c5589518481019182526d4672656e73506f6f6c536861726560901b6030820152601e8152620001348162000265565b5190209189519a8b938492835260048301525afa9081156200020157600091620001bd575b50620001969596501690600b541617600b5560ff8019600654169116809117600655600014620001a4576000805460ff60a01b19169055620002d0565b516125aa9081620003188239f35b6000805460ff60a01b1916600160a01b179055620002d0565b87813d8311620001f9575b620001d4818362000297565b81010312620001f65750620001ee620001969596620002bb565b869562000159565b80fd5b503d620001c8565b86513d6000823e3d90fd5b85819495969293503d83116200024d575b62000229818362000297565b81010312620001f657508392918562000244602493620002bb565b909192620000f6565b503d6200021d565b89513d6000823e3d90fd5b600080fd5b604081019081106001600160401b038211176200028157604052565b634e487b7160e01b600052604160045260246000fd5b601f909101601f19168101906001600160401b038211908210176200028157604052565b51906001600160a01b03821682036200026057565b600080546001600160a01b039283166001600160a01b03198216811783559216907f8be0079c531659141344cd1fd0a4f28419497f9722a3daafe3b4186f6b6457e09080a356fe6080604081815260048036101561001e575b505050361561001c57005b005b600092833560e01c90816312686aae146114e5575080631865c57d146114b457806329917954146113a65780632cf2cd481461137f5780632daad61d1461135857806330dbf8871461132f578063379607f514610e7e5780633a4b66f114610e6557806341c6138314610e48578063441a3e7014610ccd5780634b2b4e3614610c1057806351ff484714610b78578063591167c714610b4f578063678e300a14610b2f578063715018a614610ad55780637d88209714610ab65780638620891c14610930578063888e9cf8146108e35780638ae578fd146108ba5780638da5cb5b146108925780639426e2261461086b578063ac2a5dfd146107d3578063cfb5a5f81461072a578063e2d9ae3e1461070b578063e3f05d83146106e7578063e4a502761461060c578063e6b1a3ae146104cc578063e920eec0146104a0578063f2fde38b146103d65763f9faa10403610011578260031936011261032f57341561039f576101a26801bc16d674ec80000061019b6003543461170e565b1115611731565b60ff835460a01c168181101561038c5760016101be911461178f565b600b5482516318160ddd60e01b8152602093909290916001600160a01b0390859085908490829085165afa938415610325578694610359575b508386526001855234838720556102103460035461170e565b600355600554680100000000000000008110156103465760018101806005558110156103335790848793927f036b6384b5eca791c62761152d0c79bb0604c104a5fb6f4eb0703f3154bb3db0015584835260028652600184842055600b5416803b1561032f57829060248551809581936335313c2160e11b835233878401525af18015610325576102d5575b857fd91527a40417d48f76ba016aaa9157e2ddaca6cb5b660432901659cb075058fc60608787878051923484523390840152820152a180f35b67ffffffffffffffff82969396116103125750845292817fd91527a40417d48f76ba016aaa9157e2ddaca6cb5b660432901659cb075058fc61029c565b634e487b7160e01b835260419052602482fd5b83513d88823e3d90fd5b8280fd5b634e487b7160e01b875260328352602487fd5b634e487b7160e01b875260418352602487fd5b9093508481813d8311610385575b61037181836116ec565b81010312610381575192386101f7565b8580fd5b503d610367565b634e487b7160e01b845260218252602484fd5b6020606492519162461bcd60e51b8352820152601260248201527136bab9ba103232b837b9b4ba1032ba3432b960711b6044820152fd5b50903461032f57602036600319011261032f576001600160a01b0382358181169391929084900361049c576104096124bc565b831561044a57505082546001600160a01b0319811683178455167f8be0079c531659141344cd1fd0a4f28419497f9722a3daafe3b4186f6b6457e08380a380f35b906020608492519162461bcd60e51b8352820152602660248201527f4f776e61626c653a206e6577206f776e657220697320746865207a65726f206160448201526564647265737360d01b6064820152fd5b8480fd5b83346104c9576104c66104b236611584565b956104c19591959492946124bc565b611d0b565b80f35b80fd5b503461032f576020806003193601126106085781356001600160a01b038116939084900361049c576104fc6124bc565b805163516b636d60e11b81526001848201528581602481885afa9081156105fe578691610581575b505115610549575050506bffffffffffffffffffffffff60a01b600c541617600c5580f35b5162461bcd60e51b81529182015260146024820152731a5b9d985b1a5908185c9d0818dbdb9d1c9858dd60621b604482015260649150fd5b90503d8087833e61059281836116ec565b81019083818303126105fa5780519067ffffffffffffffff82116105f6570181601f820112156105fa5780516105c781611857565b926105d4855194856116ec565b8184528582840101116105f6576105f091858085019101611509565b38610524565b8780fd5b8680fd5b82513d88823e3d90fd5b8380fd5b5050346106e357816003193601126106e3578051908260085461062e816115ee565b808552916001918083169081156106bb5750600114610670575b50505061065a8261066c9403836116ec565b5191829160208352602083019061152c565b0390f35b9450600885526000805160206125358339815191525b8286106106a35750505061065a82602061066c9582010194610648565b80546020878701810191909152909501948101610686565b61066c97508693506020925061065a94915060ff191682840152151560051b82010194610648565b5080fd5b5050346106e357816003193601126106e35760209060ff6006541690519015158152f35b5050346106e357816003193601126106e357602090600a549051908152f35b503461032f57602036600319011261032f57600b548251631dc82a7560e01b81528235928101839052906001600160a01b03906020908390602490829085165afa9182156107c9579161078e9161079394936020979261079a575b501630146117f3565b61220c565b9051908152f35b6107bb919250873d81116107c2575b6107b381836116ec565b8101906117d4565b9038610785565b503d6107a9565b84513d87823e3d90fd5b5050346106e357816003193601126106e357805190826007546107f5816115ee565b808552916001918083169081156106bb57506001146108205750505061065a8261066c9403836116ec565b9450600785526000805160206125158339815191525b8286106108535750505061065a82602061066c9582010194610648565b80546020878701810191909152909501948101610836565b5050346106e357816003193601126106e35760209060ff60065460101c1690519015158152f35b5050346106e357816003193601126106e357905490516001600160a01b039091168152602090f35b5050346106e357816003193601126106e357600c5490516001600160a01b039091168152602090f35b503461032f57602036600319011261032f573560055481101561032f576005602093527f036b6384b5eca791c62761152d0c79bb0604c104a5fb6f4eb0703f3154bb3db001549051908152f35b50602090816003193601126106085780359061095b6801bc16d674ec80000061019b6003543461170e565b60ff855460a01c1681811015610aa3576001610977911461178f565b600b548451631dc82a7560e01b8152828101849052906001600160a01b039081168583602481845afa928315610a995760249387936109bf928b92610a8157501630146117f3565b865192838092634f558e7960e01b825287878301525afa908115610a77578691610a4a575b5015610a1357509060019184525281206109ff34825461170e565b9055610a0d3460035461170e565b60035580f35b835162461bcd60e51b815290810183905260116024820152701a5908191bd95cc81b9bdd08195e1a5cdd607a1b6044820152606490fd5b610a6a9150843d8611610a70575b610a6281836116ec565b81019061183f565b386109e4565b503d610a58565b85513d88823e3d90fd5b6107bb919250853d87116107c2576107b381836116ec565b87513d8a823e3d90fd5b634e487b7160e01b865260218252602486fd5b5050346106e357816003193601126106e3576020906003549051908152f35b83346104c957806003193601126104c957610aee6124bc565b80546001600160a01b03198116825581906001600160a01b03167f8be0079c531659141344cd1fd0a4f28419497f9722a3daafe3b4186f6b6457e08280a380f35b5091346104c95760203660031901126104c957506107936020923561227f565b5050346106e357816003193601126106e357600b5490516001600160a01b039091168152602090f35b5050346106e357816003193601126106e35780519082600954610b9a816115ee565b808552916001918083169081156106bb5750600114610bc55750505061065a8261066c9403836116ec565b9450600985526000805160206125558339815191525b828610610bf85750505061065a82602061066c9582010194610648565b80546020878701810191909152909501948101610bdb565b503461032f57610c1f36611584565b93610c2e9896989391936124bc565b60065460101c60ff1615610cb857505050505092610c4f9192933691611873565b602081519101208151610c6c81610c6581611628565b03826116ec565b6020815191012003610c835750505b6104c66118e4565b906020606492519162461bcd60e51b8352820152600f60248201526e0e0eac496caf240dad2e6dac2e8c6d608b1b6044820152fd5b92955092955092610cc896611d0b565b610c7b565b503461032f578160031936011261032f578035906024359160ff855460a01c1682811015610e35576001610d01911461178f565b600b5484516331a9108f60e11b8152808401839052602093916001600160a01b03919085908290602490829086165afa908115610a99578891610e18575b50163303610de55781865260018352838587205410610dab5750848093600182948394845252858220610d738282546121ec565b9055610d81816003546121ec565b600355818115610da2575b3390f115610d98575080f35b51903d90823e3d90fd5b506108fc610d8c565b845162461bcd60e51b815290810183905260146024820152731b9bdd08195b9bdd59da0819195c1bdcda5d195960621b6044820152606490fd5b845162461bcd60e51b8152908101839052600d60248201526c3737ba103a34329037bbb732b960991b6044820152606490fd5b610e2f9150853d87116107c2576107b381836116ec565b38610d3f565b634e487b7160e01b865260218352602486fd5b503461032f578260031936011261032f5760209250549051908152f35b83346104c957806003193601126104c957610c7b6124bc565b509190346106e35760208060031936011261032f5783359360018060a01b03918083600b5416855191828092631dc82a7560e01b82528a8783015260249485915afa90811561123f5790610edd918891611312575b50851630146117f3565b60ff865460a01c168381101561130057600181146112be57606447111561126e576003146112665783600d5416828651818101906f636f6e74726163742e6164647265737360801b82526a4672656e734f7261636c6560a81b6030820152601b8152610f48816116ba565b519020838851809481936321f8a72160e01b8352898301525afa90811561123f578583899386938591611249575b50895163404df7b160e11b815230898201529485938492165af190811561123f578791611222575b50905b610faa8861220c565b9188885260028452868820610fc084825461170e565b9055610fcd83865461170e565b855585600d541690875185810190731c1c9bdd1bd8dbdb0b9999594b9c195c98d95b9d60621b825260148152611002816116ba565b5190209088519163bd02d0f560e01b83528783015285828581865afa918215611218578a926111e5575b5081151590816111dc575b506110bf575b50508697839186600b999899541695895196879384926331a9108f60e11b84528301525afa80156110b5578594859485948593611096575b50508391831561108c575b1690f115610d98575080f35b6108fc9250611080565b6110ad929350803d106107c2576107b381836116ec565b903880611075565b86513d87823e3d90fd5b8488949293945181810190751c1c9bdd1bd8dbdb0b9999594b9c9958da5c1a595b9d60521b8252601681526110f3816116ba565b519020858a51809681936321f8a72160e01b83528b8301525afa9283156111d25789936111aa575b50611128826064926121f9565b049160018311611151575b50976111448492899a9998996121ec565b929181995097969761103d565b6000198301999190838b116111985798808080809d819c9d8c8391831561118e575b1690f1156111845790989796611133565b88513d89823e3d90fd5b6108fc9250611173565b634e487b7160e01b8a5260118752848afd5b6064919350826111c961112892883d8a116107c2576107b381836116ec565b9492505061111b565b88513d8b823e3d90fd5b90501538611037565b9091508581813d8311611211575b6111fd81836116ec565b8101031261120d5751903861102c565b8980fd5b503d6111f3565b89513d8c823e3d90fd5b6112399150833d8511610a7057610a6281836116ec565b38610f9e565b86513d89823e3d90fd5b6112609150843d86116107c2576107b381836116ec565b38610f76565b600190610fa1565b855162461bcd60e51b81528085018490526025818401527f6d7573742062652067726561746572207468616e203130302077656920746f20604482015264636c61696d60d81b6064820152608490fd5b855162461bcd60e51b8152808501849052601c818401527f757365207769746864726177207768656e206e6f74207374616b6564000000006044820152606490fd5b50634e487b7160e01b86526021835285fd5b6113299150843d86116107c2576107b381836116ec565b38610ed3565b5050346106e357816003193601126106e357600d5490516001600160a01b039091168152602090f35b503461032f57602036600319011261032f5760209282913581526001845220549051908152f35b503461032f57602036600319011261032f5760209282913581526002845220549051908152f35b50903461032f578260031936011261032f5760018060a01b0380600d541660208351818101906f636f6e74726163742e6164647265737360801b82526a4672656e734f7261636c6560a81b6030820152601b8152611403816116ba565b51902060248551809481936321f8a72160e01b8352898301525afa9081156114aa57859161148c575b5016330361144957825460ff60a01b1916600360a01b1783558280f35b906020606492519162461bcd60e51b8352820152601860248201527f6d7573742062652063616c6c6564206279206f7261636c6500000000000000006044820152fd5b6114a4915060203d81116107c2576107b381836116ec565b3861142c565b83513d87823e3d90fd5b5050346106e357816003193601126106e35761066c906114d26123a0565b905191829160208352602083019061152c565b8490346106e357816003193601126106e35760209060ff60065460081c1615158152f35b60005b83811061151c5750506000910152565b818101518382015260200161150c565b9060209161154581518092818552858086019101611509565b601f01601f1916010190565b9181601f8401121561157f5782359167ffffffffffffffff831161157f576020838186019501011161157f57565b600080fd5b90608060031983011261157f5767ffffffffffffffff60043581811161157f57836115b191600401611551565b9390939260243583811161157f57826115cc91600401611551565b9390939260443591821161157f576115e691600401611551565b909160643590565b90600182811c9216801561161e575b602083101461160857565b634e487b7160e01b600052602260045260246000fd5b91607f16916115fd565b60075460009291611638826115ee565b8082529160019081811690811561169d575060011461165657505050565b919293506007600052600080516020612515833981519152916000925b84841061168557505060209250010190565b80546020858501810191909152909301928101611673565b915050602093945060ff929192191683830152151560051b010190565b6040810190811067ffffffffffffffff8211176116d657604052565b634e487b7160e01b600052604160045260246000fd5b90601f8019910116810190811067ffffffffffffffff8211176116d657604052565b9190820180921161171b57565b634e487b7160e01b600052601160045260246000fd5b1561173857565b60405162461bcd60e51b815260206004820152602960248201527f746f74616c206465706f736974732063616e6e6f74206265206d6f72652074686044820152680c2dc406664408ae8d60bb1b6064820152608490fd5b1561179657565b60405162461bcd60e51b81526020600482015260166024820152756e6f7420616363657074696e67206465706f7369747360501b6044820152606490fd5b9081602091031261157f57516001600160a01b038116810361157f5790565b156117fa57565b60405162461bcd60e51b815260206004820152601960248201527f77726f6e67207374616b696e6720706f6f6c20666f72206964000000000000006044820152606490fd5b9081602091031261157f5751801515810361157f5790565b67ffffffffffffffff81116116d657601f01601f191660200190565b92919261187f82611857565b9161188d60405193846116ec565b82948184528183011161157f578281602093846000960137010152565b156118b157565b60405162461bcd60e51b815260206004820152600b60248201526a77726f6e6720737461746560a81b6044820152606490fd5b6801bc16d674ec80000090814710611cd5578160035403611c9a57600080549260ff8460a01c169360049485811015611c875761192460018092146118aa565b60ff60065460101c1615611c4f5760018060a01b039384600d54166040958651602095868201937f65787465726e616c2e636f6e74726163742e616464726573730000000000000085526e11195c1bdcda5d10dbdb9d1c9858dd608a1b603984015260288352606083019067ffffffffffffffff9584831087841117611c3b57828c52845190206321f8a72160e01b835260648501528890829060249082905afa928315611c31578693611bfc575b505060ff60a01b1916600160a11b178455600a54911695863b156106085787516304512a2360e31b815260808b82015294849286929190611a1660848501611628565b60031985820381016024870152600854879492611a32826115ee565b918282528d8582169182600014611bdd575050600114611b94575b5050858403016044860152859260095491611a67836115ee565b92838352878d8383169283600014611b7357505050600114611b27575b5050508391829160648301520391895af18015611b1d57611ad4575b5050507f72b356fd889b9abd3530accd2c9f4aecbce67d70757181f9f862ac91464ce19293945082519182523390820152a1565b8211611b0a57507f72b356fd889b9abd3530accd2c9f4aecbce67d70757181f9f862ac91464ce192949550835284933880611aa0565b634e487b7160e01b815260418752602490fd5b86513d84823e3d90fd5b918b939450600988526000805160206125558339815191529288935b828510611b5857505050010190808480611a84565b80548486018701528b99508c98508d95909401938101611b43565b60ff19168582015294151560051b9093019093019450839250819050611a84565b8c929550600889526000805160206125358339815191529189925b818410611bc25750500101923880611a4d565b80548385018601528c9a508d99508e94909301928501611baf565b60ff19168382015292151560051b909101909101945038905080611a4d565b611c2192935060609089903d8b11611c29575b611c1982856116ec565b0101906117d4565b9038806119d3565b3d9150611c0f565b8a513d88823e3d90fd5b50634e487b7160e01b875260418d52602487fd5b60405162461bcd60e51b815260208188015260116024820152701d985b1a59185d1bdc881b9bdd081cd95d607a1b6044820152606490fd5b634e487b7160e01b845260218652602484fd5b60405162461bcd60e51b81526020600482015260136024820152726e6f7420656e6f756768206465706f7369747360681b6044820152606490fd5b60405162461bcd60e51b815260206004820152600e60248201526d0dcdee840cadcdeeaced040cae8d60931b6044820152606490fd5b929094939194600160f81b30019081301161171b57604051602092838201908152838252611d38826116ba565b611d4336868b611873565b84815191012091519020036121a75760065460ff811661213f575b5060009260ff845460a01c1697600489101561212b57611d816001809a146118aa565b67ffffffffffffffff928381116121175780611d9e6007546115ee565b98601f998a81116120bc575b5087908a831160011461204657889261203b575b5050600019600383901b1c1916908a1b176007555b828211612027578190611de76008546115ee565b888111611fcc575b508590888311600114611f5f578692611f54575b5050600019600383901b1c191690881b176008555b8511611f4057611e296009546115ee565b848111611ef0575b5081938511600114611e7e575091839491849394611e73575b50501b916000199060031b1c1916176009555b600a556201000062ff0000196006541617600655565b013592503880611e4a565b6009825260008051602061255583398151915293918591601f19831691905b88838310611ed65750505010611ebc575b505050811b01600955611e5d565b0135600019600384901b60f8161c19169055388080611eae565b868601358855909601959384019387935090810190611e9d565b600983526000805160206125558339815191528580880160051c820192848910611f37575b0160051c019087905b828110611f2c575050611e31565b848155018790611f1e565b92508192611f15565b634e487b7160e01b82526041600452602482fd5b013590503880611e03565b600887528a935060008051602061253583398151915291601f198416885b88828210611fb65750508411611f9c575b505050811b01600855611e18565b0135600019600384901b60f8161c19169055388080611f8e565b8385013586558e97909501949283019201611f7d565b909150600886526000805160206125358339815191528880850160051c82019287861061201e575b918c91869594930160051c01915b828110612010575050611def565b8881558594508c9101612002565b92508192611ff4565b634e487b7160e01b85526041600452602485fd5b013590503880611dbe565b600789528c935060008051602061251583398151915291601f1984168a5b8a82821061209d5750508411612083575b505050811b01600755611dd3565b0135600019600384901b60f8161c19169055388080612075565b91929596849587849396013581550195019201908e9594939291612064565b909150600788526000805160206125158339815191528a80850160051c82019289861061210e575b918e91869594930160051c01915b828110612100575050611daa565b8a81558594508e91016120f2565b925081926120e4565b634e487b7160e01b86526041600452602486fd5b634e487b7160e01b85526021600452602485fd5b60009081549060ff8260a01c166004811015612193579061216260ff92156118aa565b60101c1661217f5760ff60a01b1916600160a01b17905538611d5e565b634e487b7160e01b82526001600452602482fd5b634e487b7160e01b84526021600452602484fd5b60405162461bcd60e51b815260048101839052601e60248201527f7769746864726177616c2063726564656e7469616c206d69736d6174636800006044820152606490fd5b9190820391821161171b57565b8181029291811591840414171561171b57565b471561227957600090815260016020526040812054600260205261224260408320549161223c476004549061170e565b906121f9565b600354908115612265570480156122605761225d92506121ec565b90565b505090565b634e487b7160e01b84526012600452602484fd5b50600090565b600060ff815460a01c1691600483101561238c57600183036122a15750905090565b6122aa9061220c565b9160018060a01b03600d5416602060405181810190731c1c9bdd1bd8dbdb0b9999594b9c195c98d95b9d60621b8252601481526122e6816116ba565b51902060246040518094819363bd02d0f560e01b835260048301525afa92831561238057809361234a575b5050811515908161233e575b50612326575090565b90606461233761225d9347906121f9565b04906121ec565b6003915014153861231d565b909192506020823d8211612378575b81612366602093836116ec565b810103126104c9575051903880612311565b3d9150612359565b604051903d90823e3d90fd5b634e487b7160e01b82526021600452602482fd5b60ff60005460a01c1660048110156124a657801561246c5760028114612449576001811461241a576003146123f8576040516123db816116ba565b600d81526c7374617465206661696c75726560981b602082015290565b604051612404816116ba565b6006815265195e1a5d195960d21b602082015290565b50604051612427816116ba565b6012815271616363657074696e67206465706f7369747360701b602082015290565b50604051612456816116ba565b60068152651cdd185ad95960d21b602082015290565b50604051612479816116ba565b601781527f6177616974696e672076616c696461746f7220696e666f000000000000000000602082015290565b634e487b7160e01b600052602160045260246000fd5b6000546001600160a01b031633036124d057565b606460405162461bcd60e51b815260206004820152602060248201527f4f776e61626c653a2063616c6c6572206973206e6f7420746865206f776e65726044820152fdfea66cc928b5edb82af9bd49922954155ab7b0942694bea4ce44661d9a8736c688f3f7a9fe364faab93b216da50a3214154f22a0a2b415b23a84c8169e8b636ee36e1540171b6c0c960b71a7020d9f60077f6af931a8bbf590da0223dacf75c7afa2646970667358221220378eb54f98bc8154c3c0b17669771268d79a678dc321af45fcd7180e1476529864736f6c63430008110033",
    "linkReferences": {}
  },
  "methodIdentifiers": {
    "addToDeposit(uint256)": "8620891c",
    "artForPool()": "8ae578fd",
    "claim(uint256)": "379607f5",
    "depositForId(uint256)": "2daad61d",
    "depositToPool()": "f9faa104",
    "deposit_data_root()": "e2d9ae3e",
    "exitPool()": "29917954",
    "frenPastClaim(uint256)": "2cf2cd48",
    "frensPoolShare()": "591167c7",
    "frensStorage()": "30dbf887",
    "getDistributableShare(uint256)": "678e300a",
    "getShare(uint256)": "cfb5a5f8",
    "getState()": "1865c57d",
    "idsInPool(uint256)": "888e9cf8",
    "owner()": "8da5cb5b",
    "pubKey()": "ac2a5dfd",
    "renounceOwnership()": "715018a6",
    "setArt(address)": "e6b1a3ae",
    "setPubKey(bytes,bytes,bytes,bytes32)": "e920eec0",
    "signature()": "51ff4847",
    "stake()": "3a4b66f1",
    "stake(bytes,bytes,bytes,bytes32)": "4b2b4e36",
    "totalClaims()": "41c61383",
    "totalDeposits()": "7d882097",
    "transferLocked()": "12686aae",
    "transferOwnership(address)": "f2fde38b",
    "validatorLocked()": "e3f05d83",
    "validatorSet()": "9426e226",
    "withdraw(uint256,uint256)": "441a3e70",
    "withdrawal_credentials()": "e4a50276"
  },
  "id": 8
}