{
  "abi": [
    {
      "inputs": [],
      "name": "InvalidInitialization",
      "type": "error"
    },
    {
      "inputs": [],
      "name": "NotInitializing",
      "type": "error"
    },
    {
      "inputs": [
        {
          "internalType": "address",
          "name": "owner",
          "type": "address"
        }
      ],
      "name": "OwnableInvalidOwner",
      "type": "error"
    },
    {
      "inputs": [
        {
          "internalType": "address",
          "name": "account",
          "type": "address"
        }
      ],
      "name": "OwnableUnauthorizedAccount",
      "type": "error"
    },
    {
      "anonymous": false,
      "inputs": [
        {
          "indexed": false,
          "internalType": "uint256",
          "name": "id",
          "type": "uint256"
        },
        {
          "indexed": false,
          "internalType": "uint256",
          "name": "ammount",
          "type": "uint256"
        }
      ],
      "name": "AddToDeposit",
      "type": "event"
    },
    {
      "anonymous": false,
      "inputs": [
        {
          "indexed": false,
          "internalType": "uint256",
          "name": "id",
          "type": "uint256"
        },
        {
          "indexed": false,
          "internalType": "uint256",
          "name": "amount",
          "type": "uint256"
        },
        {
          "indexed": false,
          "internalType": "address",
          "name": "recipient",
          "type": "address"
        }
      ],
      "name": "Claim",
      "type": "event"
    },
    {
      "anonymous": false,
      "inputs": [
        {
          "indexed": false,
          "internalType": "uint256",
          "name": "amount",
          "type": "uint256"
        },
        {
          "indexed": false,
          "internalType": "address",
          "name": "depositer",
          "type": "address"
        },
        {
          "indexed": false,
          "internalType": "uint256",
          "name": "id",
          "type": "uint256"
        }
      ],
      "name": "DepositToPool",
      "type": "event"
    },
    {
      "anonymous": false,
      "inputs": [
        {
          "indexed": false,
          "internalType": "uint64",
          "name": "version",
          "type": "uint64"
        }
      ],
      "name": "Initialized",
      "type": "event"
    },
    {
      "anonymous": false,
      "inputs": [
        {
          "indexed": true,
          "internalType": "address",
          "name": "previousOwner",
          "type": "address"
        },
        {
          "indexed": true,
          "internalType": "address",
          "name": "newOwner",
          "type": "address"
        }
      ],
      "name": "OwnershipTransferred",
      "type": "event"
    },
    {
      "anonymous": false,
      "inputs": [
        {
          "indexed": false,
          "internalType": "bytes",
          "name": "_pubKey",
          "type": "bytes"
        },
        {
          "indexed": false,
          "internalType": "bytes",
          "name": "_withdrawal_credentials",
          "type": "bytes"
        },
        {
          "indexed": false,
          "internalType": "bytes",
          "name": "_signature",
          "type": "bytes"
        },
        {
          "indexed": false,
          "internalType": "bytes32",
          "name": "_deposit_data_root",
          "type": "bytes32"
        }
      ],
      "name": "SetPubKey",
      "type": "event"
    },
    {
      "anonymous": false,
      "inputs": [
        {
          "indexed": false,
          "internalType": "address",
          "name": "depositContractAddress",
          "type": "address"
        },
        {
          "indexed": false,
          "internalType": "address",
          "name": "caller",
          "type": "address"
        }
      ],
      "name": "Stake",
      "type": "event"
    },
    {
      "anonymous": false,
      "inputs": [
        {
          "indexed": false,
          "internalType": "uint256",
          "name": "id",
          "type": "uint256"
        },
        {
          "indexed": false,
          "internalType": "uint256",
          "name": "amount",
          "type": "uint256"
        },
        {
          "indexed": false,
          "internalType": "address",
          "name": "recipient",
          "type": "address"
        }
      ],
      "name": "Withdraw",
      "type": "event"
    },
    {
      "stateMutability": "payable",
      "type": "fallback"
    },
    {
      "inputs": [
        {
          "internalType": "uint256",
          "name": "_id",
          "type": "uint256"
        }
      ],
      "name": "addToDeposit",
      "outputs": [],
      "stateMutability": "payable",
      "type": "function"
    },
    {
      "inputs": [],
      "name": "artForPool",
      "outputs": [
        {
          "internalType": "contract IFrensArt",
          "name": "",
          "type": "address"
        }
      ],
      "stateMutability": "view",
      "type": "function"
    },
    {
      "inputs": [
        {
          "internalType": "bytes",
          "name": "data",
          "type": "bytes"
        }
      ],
      "name": "callSSVNetwork",
      "outputs": [],
      "stateMutability": "nonpayable",
      "type": "function"
    },
    {
      "inputs": [
        {
          "internalType": "uint256",
          "name": "_id",
          "type": "uint256"
        }
      ],
      "name": "claim",
      "outputs": [],
      "stateMutability": "nonpayable",
      "type": "function"
    },
    {
      "inputs": [],
      "name": "currentState",
      "outputs": [
        {
          "internalType": "enum StakingPool.PoolState",
          "name": "",
          "type": "uint8"
        }
      ],
      "stateMutability": "view",
      "type": "function"
    },
    {
      "inputs": [],
      "name": "depositContract",
      "outputs": [
        {
          "internalType": "contract IDepositContract",
          "name": "",
          "type": "address"
        }
      ],
      "stateMutability": "view",
      "type": "function"
    },
    {
      "inputs": [
        {
          "internalType": "uint256",
          "name": "",
          "type": "uint256"
        }
      ],
      "name": "depositForId",
      "outputs": [
        {
          "internalType": "uint256",
          "name": "",
          "type": "uint256"
        }
      ],
      "stateMutability": "view",
      "type": "function"
    },
    {
      "inputs": [],
      "name": "depositToPool",
      "outputs": [],
      "stateMutability": "payable",
      "type": "function"
    },
    {
      "inputs": [],
      "name": "deposit_data_root",
      "outputs": [
        {
          "internalType": "bytes32",
          "name": "",
          "type": "bytes32"
        }
      ],
      "stateMutability": "view",
      "type": "function"
    },
    {
      "inputs": [],
      "name": "feePercent",
      "outputs": [
        {
          "internalType": "uint256",
          "name": "",
          "type": "uint256"
        }
      ],
      "stateMutability": "view",
      "type": "function"
    },
    {
      "inputs": [],
      "name": "feeRecipient",
      "outputs": [
        {
          "internalType": "address",
          "name": "",
          "type": "address"
        }
      ],
      "stateMutability": "view",
      "type": "function"
    },
    {
      "inputs": [
        {
          "internalType": "uint256",
          "name": "",
          "type": "uint256"
        }
      ],
      "name": "frenPastClaim",
      "outputs": [
        {
          "internalType": "uint256",
          "name": "",
          "type": "uint256"
        }
      ],
      "stateMutability": "view",
      "type": "function"
    },
    {
      "inputs": [],
      "name": "frensPoolShare",
      "outputs": [
        {
          "internalType": "contract IFrensPoolShare",
          "name": "",
          "type": "address"
        }
      ],
      "stateMutability": "view",
      "type": "function"
    },
    {
      "inputs": [],
      "name": "frensStorage",
      "outputs": [
        {
          "internalType": "contract IFrensStorage",
          "name": "",
          "type": "address"
        }
      ],
      "stateMutability": "view",
      "type": "function"
    },
    {
      "inputs": [
        {
          "internalType": "uint256",
          "name": "_id",
          "type": "uint256"
        }
      ],
      "name": "getDistributableShare",
      "outputs": [
        {
          "internalType": "uint256",
          "name": "",
          "type": "uint256"
        }
      ],
      "stateMutability": "view",
      "type": "function"
    },
    {
      "inputs": [],
      "name": "getIdsInThisPool",
      "outputs": [
        {
          "internalType": "uint256[]",
          "name": "",
          "type": "uint256[]"
        }
      ],
      "stateMutability": "view",
      "type": "function"
    },
    {
      "inputs": [
        {
          "internalType": "uint256",
          "name": "_id",
          "type": "uint256"
        }
      ],
      "name": "getShare",
      "outputs": [
        {
          "internalType": "uint256",
          "name": "",
          "type": "uint256"
        }
      ],
      "stateMutability": "view",
      "type": "function"
    },
    {
      "inputs": [],
      "name": "getState",
      "outputs": [
        {
          "internalType": "string",
          "name": "",
          "type": "string"
        }
      ],
      "stateMutability": "view",
      "type": "function"
    },
    {
      "inputs": [
        {
          "internalType": "uint256",
          "name": "",
          "type": "uint256"
        }
      ],
      "name": "idsInPool",
      "outputs": [
        {
          "internalType": "uint256",
          "name": "",
          "type": "uint256"
        }
      ],
      "stateMutability": "view",
      "type": "function"
    },
    {
      "inputs": [
        {
          "internalType": "address",
          "name": "owner_",
          "type": "address"
        },
        {
          "internalType": "bool",
          "name": "validatorLocked_",
          "type": "bool"
        },
        {
          "internalType": "contract IFrensStorage",
          "name": "frensStorage_",
          "type": "address"
        }
      ],
      "name": "initialize",
      "outputs": [],
      "stateMutability": "nonpayable",
      "type": "function"
    },
    {
      "inputs": [
        {
          "internalType": "uint256",
          "name": "",
          "type": "uint256"
        }
      ],
      "name": "locked",
      "outputs": [
        {
          "internalType": "bool",
          "name": "",
          "type": "bool"
        }
      ],
      "stateMutability": "view",
      "type": "function"
    },
    {
      "inputs": [],
      "name": "owner",
      "outputs": [
        {
          "internalType": "address",
          "name": "",
          "type": "address"
        }
      ],
      "stateMutability": "view",
      "type": "function"
    },
    {
      "inputs": [],
      "name": "pubKey",
      "outputs": [
        {
          "internalType": "bytes",
          "name": "",
          "type": "bytes"
        }
      ],
      "stateMutability": "view",
      "type": "function"
    },
    {
      "inputs": [
        {
          "internalType": "uint256",
          "name": "",
          "type": "uint256"
        }
      ],
      "name": "rageQuitInfo",
      "outputs": [
        {
          "internalType": "uint256",
          "name": "price",
          "type": "uint256"
        },
        {
          "internalType": "uint256",
          "name": "time",
          "type": "uint256"
        },
        {
          "internalType": "bool",
          "name": "rageQuitting",
          "type": "bool"
        }
      ],
      "stateMutability": "view",
      "type": "function"
    },
    {
      "inputs": [],
      "name": "renounceOwnership",
      "outputs": [],
      "stateMutability": "nonpayable",
      "type": "function"
    },
    {
      "inputs": [
        {
          "internalType": "contract IFrensArt",
          "name": "newArtContract",
          "type": "address"
        }
      ],
      "name": "setArt",
      "outputs": [],
      "stateMutability": "nonpayable",
      "type": "function"
    },
    {
      "inputs": [
        {
          "internalType": "bytes",
          "name": "_pubKey",
          "type": "bytes"
        },
        {
          "internalType": "bytes",
          "name": "_withdrawal_credentials",
          "type": "bytes"
        },
        {
          "internalType": "bytes",
          "name": "_signature",
          "type": "bytes"
        },
        {
          "internalType": "bytes32",
          "name": "_deposit_data_root",
          "type": "bytes32"
        }
      ],
      "name": "setPubKey",
      "outputs": [],
      "stateMutability": "nonpayable",
      "type": "function"
    },
    {
      "inputs": [],
      "name": "signature",
      "outputs": [
        {
          "internalType": "bytes",
          "name": "",
          "type": "bytes"
        }
      ],
      "stateMutability": "view",
      "type": "function"
    },
    {
      "inputs": [],
      "name": "stake",
      "outputs": [],
      "stateMutability": "nonpayable",
      "type": "function"
    },
    {
      "inputs": [
        {
          "internalType": "bytes",
          "name": "_pubKey",
          "type": "bytes"
        },
        {
          "internalType": "bytes",
          "name": "_withdrawal_credentials",
          "type": "bytes"
        },
        {
          "internalType": "bytes",
          "name": "_signature",
          "type": "bytes"
        },
        {
          "internalType": "bytes32",
          "name": "_deposit_data_root",
          "type": "bytes32"
        }
      ],
      "name": "stake",
      "outputs": [],
      "stateMutability": "nonpayable",
      "type": "function"
    },
    {
      "inputs": [],
      "name": "totalClaims",
      "outputs": [
        {
          "internalType": "uint256",
          "name": "",
          "type": "uint256"
        }
      ],
      "stateMutability": "view",
      "type": "function"
    },
    {
      "inputs": [],
      "name": "totalDeposits",
      "outputs": [
        {
          "internalType": "uint256",
          "name": "",
          "type": "uint256"
        }
      ],
      "stateMutability": "view",
      "type": "function"
    },
    {
      "inputs": [],
      "name": "transferLocked",
      "outputs": [
        {
          "internalType": "bool",
          "name": "",
          "type": "bool"
        }
      ],
      "stateMutability": "view",
      "type": "function"
    },
    {
      "inputs": [
        {
          "internalType": "address",
          "name": "newOwner",
          "type": "address"
        }
      ],
      "name": "transferOwnership",
      "outputs": [],
      "stateMutability": "nonpayable",
      "type": "function"
    },
    {
      "inputs": [],
      "name": "validatorLocked",
      "outputs": [
        {
          "internalType": "bool",
          "name": "",
          "type": "bool"
        }
      ],
      "stateMutability": "view",
      "type": "function"
    },
    {
      "inputs": [],
      "name": "validatorSet",
      "outputs": [
        {
          "internalType": "bool",
          "name": "",
          "type": "bool"
        }
      ],
      "stateMutability": "view",
      "type": "function"
    },
    {
      "inputs": [
        {
          "internalType": "uint256",
          "name": "_id",
          "type": "uint256"
        },
        {
          "internalType": "uint256",
          "name": "_amount",
          "type": "uint256"
        }
      ],
      "name": "withdraw",
      "outputs": [],
      "stateMutability": "nonpayable",
      "type": "function"
    },
    {
      "inputs": [],
      "name": "withdrawal_credentials",
      "outputs": [
        {
          "internalType": "bytes",
          "name": "",
          "type": "bytes"
        }
      ],
      "stateMutability": "view",
      "type": "function"
    },
    {
      "stateMutability": "payable",
      "type": "receive"
    }
  ],
  "bytecode": {
    "object": "0x6080806040523461001657612f94908161001c8239f35b600080fdfe608080604052600436101561001a575b50361561001857005b005b600090813560e01c9081630c3f6acf14611e9d5750806312686aae14611e775780631865c57d14611e5b5780632cf2cd4814611e315780632daad61d14611e0757806330dbf88714611dde578063379607f5146119dc5780633a4b66f1146119c357806341c61383146119a5578063441a3e701461179557806345b58fe4146116e157806346904840146116b85780634888a7d114610cfb5780634b2b4e3614610c4a57806351ff484714610c26578063591167c714610bfd578063678e300a14610bde578063715018a614610b74578063735a531314610a325780637d88209714610a145780637fd6f15c146109f65780638620891c14610845578063888e9cf81461080c5780638ae578fd146107e35780638da5cb5b146107ad5780639426e22614610787578063ac2a5dfd14610763578063b45a3c0e14610734578063cfb5a5f814610697578063e2d9ae3e14610679578063e3f05d8314610656578063e4a5027614610613578063e6b1a3ae146104dd578063e920eec0146104b7578063e94ad65b1461048e578063f2fde38b14610461578063f9faa1041461020e5763fc03bad20361000f573461020b57602036600319011261020b576040606091600435815260046020522080549060ff600260018301549201541690604051928352602083015215156040820152f35b80fd5b508060031936011261020b5734156104275760ff815416600481101561041357600161023a911461231b565b61025a6801bc16d674ec80000061025360055434612360565b1115612383565b600f546040516318160ddd60e01b81526020916001600160a01b039083908390600490829085165afa9182156103bd5784926103e0575b50818452600183523460408520556102ab34600554612360565b600555600754680100000000000000008110156103cc57906102d4826001879401600755612297565b81549060031b9085821b91600019901b1916179055828252600284526001604083205560ff60095460081c1660038552604083209060ff801983541691151516179055600f5416803b156103c85781906024604051809481936335313c2160e11b83523360048401525af180156103bd57610385575b507fd91527a40417d48f76ba016aaa9157e2ddaca6cb5b660432901659cb075058fc916060916040519134835233908301526040820152a180f35b91606091936103b47fd91527a40417d48f76ba016aaa9157e2ddaca6cb5b660432901659cb075058fc946121c0565b9391509161034a565b6040513d86823e3d90fd5b5080fd5b634e487b7160e01b85526041600452602485fd5b9091508281813d831161040c575b6103f88183612222565b8101031261040857519038610291565b8380fd5b503d6103ee565b634e487b7160e01b82526021600452602482fd5b60405162461bcd60e51b815260206004820152601260248201527136bab9ba103232b837b9b4ba1032ba3432b960711b6044820152606490fd5b503461020b57602036600319011261020b5761048b61047e611f21565b610486612e60565b612e2d565b80f35b503461020b578060031936011261020b576012546040516001600160a01b039091168152602090f35b503461020b5761048b6104c936611f6a565b956104d8959195949294612e60565b612666565b503461020b576020806003193601126103c8576004356001600160a01b038116919082900361060f5761050e612e60565b60405163516b636d60e11b8152600481018490528381602481865afa9081156103bd578491610591575b50511561055657506001600160601b0360a01b601054161760105580f35b6064906040519062461bcd60e51b8252600482015260146024820152731a5b9d985b1a5908185c9d0818dbdb9d1c9858dd60621b6044820152fd5b90503d8085833e6105a28183612222565b810190828183031261060b5780519067ffffffffffffffff8211610607570181601f8201121561060b5780516105d781612244565b926105e56040519485612222565b8184528482840101116106075761060191848085019101611ed9565b38610538565b8580fd5b8480fd5b8280fd5b503461020b578060031936011261020b5761065260405161063e8161063781612139565b0382612222565b604051918291602083526020830190611efc565b0390f35b503461020b578060031936011261020b57602060ff600954166040519015158152f35b503461020b578060031936011261020b576020600d54604051908152f35b503461020b57602036600319011261020b57600435602460018060a01b03602081600f541660405193848092631dc82a7560e01b82528760048301525afa9182156103bd57916106f8916106fd949360209692610705575b501630146123e1565b612c3e565b604051908152f35b610726919250863d811161072d575b61071e8183612222565b8101906122e4565b90386106ef565b503d610714565b503461020b57602036600319011261020b5760ff60406020926004358152600384522054166040519015158152f35b503461020b578060031936011261020b5761065260405161063e816106378161200e565b503461020b578060031936011261020b57602060ff60095460101c166040519015158152f35b503461020b578060031936011261020b57600080516020612f1f833981519152546040516001600160a01b039091168152602090f35b503461020b578060031936011261020b576010546040516001600160a01b039091168152602090f35b503461020b57602036600319011261020b576004359060075482101561020b57602061083783612297565b90546040519160031b1c8152f35b506020806003193601126103c8576004359060ff83541660048110156109e2576001610871911461231b565b61088a6801bc16d674ec80000061025360055434612360565b600f54604051631dc82a7560e01b815260048101849052906001600160a01b039081168383602481845afa9283156109d75760249385936108d49289926109bf57501630146123e1565b60405192838092634f558e7960e01b82528760048301525afa9081156103bd578491610992575b501561095a57816040917f2e4d11c40e9ddf229c2807835f88a91899498f9e8531757e8489a824b1bdc1199385526001815282852061093b348254612360565b905561094934600554612360565b60055582519182523490820152a180f35b6064906040519062461bcd60e51b8252600482015260116024820152701a5908191bd95cc81b9bdd08195e1a5cdd607a1b6044820152fd5b6109b29150823d84116109b8575b6109aa8183612222565b810190612303565b386108fb565b503d6109a0565b610726919250853d871161072d5761071e8183612222565b6040513d88823e3d90fd5b634e487b7160e01b84526021600452602484fd5b503461020b578060031936011261020b576020600854604051908152f35b503461020b578060031936011261020b576020600554604051908152f35b503461020b576020806003193601126103c8578160043567ffffffffffffffff81116103c857366023820112156103c857610a77903690602481600401359101612260565b610a7f612e60565b60018060a01b03601154169083604051818101907865787465726e616c2e636f6e74726163742e6164647265737360381b8252695353564e6574776f726b60b01b603982015260238152610ad281612206565b5190206024604051809581936321f8a72160e01b835260048301525afa8015610b695783928391610b4c575b50828583519301915af1610b10612bfb565b5015610b1a575080f35b6064906040519062461bcd60e51b82526004820152600b60248201526a10d85b1b0819985a5b195960aa1b6044820152fd5b610b639150853d871161072d5761071e8183612222565b38610afe565b6040513d85823e3d90fd5b503461020b578060031936011261020b57610b8d612e60565b600080516020612f1f83398151915280546001600160a01b0319811690915581906001600160a01b03167f8be0079c531659141344cd1fd0a4f28419497f9722a3daafe3b4186f6b6457e08280a380f35b503461020b57602036600319011261020b5760206106fd600435612cb1565b503461020b578060031936011261020b57600f546040516001600160a01b039091168152602090f35b503461020b578060031936011261020b5761065260405161063e81610637816120b2565b503461020b57610c5936611f6a565b959493610c67939193612e60565b60095460101c60ff1615610ce85750505050610c8592503691612260565b60208151910120604051610c9c816106378161200e565b6020815191012003610cb1575b61048b612467565b60405162461bcd60e51b815260206004820152600f60248201526e0e0eac496caf240dad2e6dac2e8c6d608b1b6044820152606490fd5b90919293610cf69695612666565b610ca9565b503461020b57606036600319011261020b57610d15611f21565b60243580151580910361060f57604435916001600160a01b038316830361040857600080516020612f3f833981519152549167ffffffffffffffff8316801590816116a8575b600114908161169e575b159081611695575b5061168357600167ffffffffffffffff19841617600080516020612f3f8339815191525560ff8360401c1615611656575b6001600160a01b038216156115ff57610db5612eef565b610dbd612eef565b610dc682612e2d565b6001600160a01b038416156115a657601180546001600160a01b0319166001600160a01b0386161790556040516f636f6e74726163742e6164647265737360801b6020820181815267119c995b9cd05c9d60c21b6030840152601883529091610e2e816121ea565b5190206040516321f8a72160e01b815260048101919091526020816024816001600160a01b038a165afa90811561148f578791611587575b506001600160a01b03168015611532576001600160601b0360a01b6010541617601055604051602081019182526d4672656e73506f6f6c536861726560901b6030820152601e8152610eb7816121ea565b5190206040516321f8a72160e01b815260048101919091526020816024816001600160a01b0389165afa9081156109d7578691611513575b5060018060a01b03166001600160601b0360a01b600f541617600f5560405193602085017865787465726e616c2e636f6e74726163742e6164647265737360381b958682526e11195c1bdcda5d10dbdb9d1c9858dd608a1b603982015260288152610f5981612206565b5190206040516321f8a72160e01b815260048101919091526020816024816001600160a01b0386165afa90811561148f5787916114f4575b506001600160a01b0316801561149a576001600160601b0360a01b60125416176012556040516020810190731c1c9bdd1bd8dbdb0b9999594b9c195c98d95b9d60621b825260148152610fe3816121ea565b51902060405163bd02d0f560e01b815260048101919091526020816024816001600160a01b0386165afa801561148f578790611458575b600a9150806008551161140957602060405181810190751c1c9bdd1bd8dbdb0b9999594b9c9958da5c1a595b9d60521b825260168152611059816121ea565b5190206040516321f8a72160e01b8152600481019190915291829060249082906001600160a01b03165afa9081156109d75786916113ea575b50600e80546001600160a01b0319166001600160a01b03929092169182179055156113935760ff199060ff826009541691168091176009556000146113865784541684555b60018060a01b036011541660405160208101908582526729a9ab2a37b5b2b760c11b60398201526021815261110b81612206565b519020604051906321f8a72160e01b82526004820152602081602481855afa9081156109d7578691611367575b506001600160a01b031693841561130b57602090604051828101918252695353564e6574776f726b60b01b60398201526023815261117581612206565b5190206024604051809481936321f8a72160e01b835260048301525afa9081156113005785916112e1575b506001600160a01b031680156112765784936044602092604051968793849263095ea7b360e01b8452600484015260001960248401525af19081156103bd5760ff936111f192611257575b50612e99565b60401c16156111fd5780f35b68ff000000000000000019600080516020612f3f8339815191525416600080516020612f3f833981519152557fc7f505b2f371ae2175ee4913f4499e1f2633a7b5936321eed1cdaeb6115181d2602060405160018152a180f35b61126f9060203d6020116109b8576109aa8183612222565b50386111eb565b60405162461bcd60e51b815260206004820152603860248201527f4652454e5320636f6e7472616374206572726f72206e6f20535356206e65747760448201527f6f726b20636f6e747261637420616464726573732073657400000000000000006064820152608490fd5b6112fa915060203d60201161072d5761071e8183612222565b386111a0565b6040513d87823e3d90fd5b60405162461bcd60e51b815260206004820152602e60248201527f4652454e5320636f6e7472616374206572726f72206e6f2053535620746f6b6560448201526d1b8818dbdb9d1c9858dd081cd95d60921b6064820152608490fd5b611380915060203d60201161072d5761071e8183612222565b38611138565b84541660011784556110d7565b60405162461bcd60e51b815260206004820152602960248201527f4652454e5320636f6e7472616374206572726f72206e6f2066656520726563696044820152681c1a595b9d081cd95d60ba1b6064820152608490fd5b611403915060203d60201161072d5761071e8183612222565b38611092565b60405162461bcd60e51b815260206004820152602160248201527f4652454e5320636f6e7472616374206572726f722066656520746f6f206869676044820152600d60fb1b6064820152608490fd5b506020813d602011611487575b8161147260209383612222565b8101031261148357600a905161101a565b8680fd5b3d9150611465565b6040513d89823e3d90fd5b60405162461bcd60e51b815260206004820152602c60248201527f4652454e5320636f6e7472616374206572726f72206e6f204465706f7369742060448201526b18dbdb9d1c9858dd081cd95d60a21b6064820152608490fd5b61150d915060203d60201161072d5761071e8183612222565b38610f91565b61152c915060203d60201161072d5761071e8183612222565b38610eef565b60405162461bcd60e51b815260206004820152602760248201527f4652454e5320636f6e7472616374206572726f72206e6f206172742061646472604482015266195cdcc81cd95d60ca1b6064820152608490fd5b6115a0915060203d60201161072d5761071e8183612222565b38610e66565b60405162461bcd60e51b815260206004820152602b60248201527f4652454e5320636f6e7472616374206572726f72206e6f2073746f726167652060448201526a1859191c995cdcc81cd95d60aa1b6064820152608490fd5b60405162461bcd60e51b815260206004820152602960248201527f4652454e5320636f6e7472616374206572726f72206e6f206f776e6572206164604482015268191c995cdcc81cd95d60ba1b6064820152608490fd5b68ffffffffffffffffff1983166801000000000000000117600080516020612f3f83398151915255610d9e565b60405163f92ee8a960e01b8152600490fd5b90501538610d6d565b303b159150610d65565b604085901c60ff16159150610d5b565b503461020b578060031936011261020b57600e546040516001600160a01b039091168152602090f35b503461020b578060031936011261020b5760405180916007549081835260208093018092600783527fa66cc928b5edb82af9bd49922954155ab7b0942694bea4ce44661d9a8736c68890835b8181106117815750505084611743910385612222565b60405193838594850191818652518092526040850193925b82811061176a57505050500390f35b83518552869550938101939281019260010161175b565b82548452928601926001928301920161172d565b503461020b57604036600319011261020b57600435602490813560ff84541660048110156119925760016117c9911461231b565b600f546040516331a9108f60e11b808252600482018590526020959290916001600160a01b0391879082908690829086165afa8015611987578291899161196a575b501633036119365784875260018652836040882054106118fb5786918691868452600183526040842061183f878254612bee565b905561184d86600554612bee565b600555600f5416936040518095819382528860048301525afa9485156118ee578180857f71ef96c43343734b1d843bb85d52ef329f5e9143e4d35827771e3b0dd90c5f84986118b196839584926118d1575b50505af16118ab612bfb565b50612628565b604080519283526020830191909152339082015280606081015b0390a180f35b6118e79250803d1061072d5761071e8183612222565b388061189f565b50604051903d90823e3d90fd5b60405162461bcd60e51b815260048101879052601481850152731b9bdd08195b9bdd59da0819195c1bdcda5d195960621b6044820152606490fd5b60405162461bcd60e51b815260048101879052600d818501526c3737ba103a34329037bbb732b960991b6044820152606490fd5b6119819150883d8a1161072d5761071e8183612222565b3861180b565b6040513d8a823e3d90fd5b634e487b7160e01b855260216004528385fd5b503461020b578060031936011261020b576020600654604051908152f35b503461020b578060031936011261020b57610ca9612e60565b503461020b576020806003193601126103c857600f54604051631dc82a7560e01b815260048035908201819052916024916001600160a01b0391859082908590829086165afa80156109d757611a3d918791611dc1575b50821630146123e1565b60ff8554166004811015611dae5760018114611d6a576064471115611d18578593929190600314611d0f57806011541685604051818101906f636f6e74726163742e6164647265737360801b82526a4672656e734f7261636c6560a81b6030820152601b8152611aac816121ea565b51902084604051809481936321f8a72160e01b835260048301525afa80156113005783839188938891611cf2575b5060405163404df7b160e11b81523060048201529788938492165af19384156109d7578694611cd3575b508380611ca9575b611c99575b611b1a83612c3e565b938387526002865260408720611b31868254612360565b9055611b3f85600654612360565b600655600854908115159081611c90575b50611c20575b508481600f5416604051938480926331a9108f60e11b82528760048301525afa868115611c1457856118cb947fd79254e5daba749baa8ba954e77bbbb18efef113a8070d00df9a188d81932426988394611beb575b5050818080928596611bc296165af16118ab612bfb565b6040805193845260208401949094526001600160a01b0316928201929092529081906060820190565b611bc294508392611c0b8493838594903d1061072d5761071e8183612222565b95509250611bab565b604051903d90823e3d90fd5b611c2f85606492969396612c2b565b049060018211611c4b575b90611c4491612bee565b9238611b56565b600e546000198301908616838211611c7d5788808080611c44979695611c75955af16118ab612bfb565b909150611c3a565b634e487b7160e01b895260116004528489fd5b90501538611b50565b855460ff19166003178655611b11565b5060ff8654166004811015611cc057600214611b0c565b634e487b7160e01b875260216004528287fd5b611ceb919450853d87116109b8576109aa8183612222565b9238611b04565b611d099150843d861161072d5761071e8183612222565b38611ada565b60019350611b11565b60405162461bcd60e51b8152600481018690526025818501527f6d7573742062652067726561746572207468616e203130302077656920746f20604482015264636c61696d60d81b6064820152608490fd5b60405162461bcd60e51b815260048101869052601c818501527f757365207769746864726177207768656e206e6f74207374616b6564000000006044820152606490fd5b634e487b7160e01b865260216004528286fd5b611dd89150863d881161072d5761071e8183612222565b38611a33565b503461020b578060031936011261020b576011546040516001600160a01b039091168152602090f35b503461020b57602036600319011261020b5760406020916004358152600183522054604051908152f35b503461020b57602036600319011261020b5760406020916004358152600283522054604051908152f35b503461020b578060031936011261020b5761065261063e612d2a565b503461020b578060031936011261020b57602060ff60095460081c166040519015158152f35b9050346103c857816003193601126103c85760ff8254166004811015611ec557602092508152f35b634e487b7160e01b83526021600452602483fd5b60005b838110611eec5750506000910152565b8181015183820152602001611edc565b90602091611f1581518092818552858086019101611ed9565b601f01601f1916010190565b600435906001600160a01b0382168203611f3757565b600080fd5b9181601f84011215611f375782359167ffffffffffffffff8311611f375760208381860195010111611f3757565b906080600319830112611f375767ffffffffffffffff600435818111611f375783611f9791600401611f3c565b93909392602435838111611f375782611fb291600401611f3c565b93909392604435918211611f3757611fcc91600401611f3c565b909160643590565b90600182811c92168015612004575b6020831014611fee57565b634e487b7160e01b600052602260045260246000fd5b91607f1691611fe3565b600a546000929161201e82611fd4565b80825291600190818116908115612095575060011461203c57505050565b91929350600a6000527fc65a7bb8d6351c1cf70c95a316cc6a92839c986682d98bc35f958f4883f9d2a8916000925b84841061207d57505060209250010190565b8054602085850181019190915290930192810161206b565b915050602093945060ff929192191683830152151560051b010190565b600c54600092916120c282611fd4565b8082529160019081811690811561209557506001146120e057505050565b91929350600c6000527fdf6966c971051c3d54ec59162606531493a51404a002842f56009d7e5cf4a8c7916000925b84841061212157505060209250010190565b8054602085850181019190915290930192810161210f565b600b546000929161214982611fd4565b80825291600190818116908115612095575060011461216757505050565b91929350600b6000527f0175b7a638427703f0dbe7bb9bbf987a2551717b34e79f33b5b1008d1fa01db9916000925b8484106121a857505060209250010190565b80546020858501810191909152909301928101612196565b67ffffffffffffffff81116121d457604052565b634e487b7160e01b600052604160045260246000fd5b6040810190811067ffffffffffffffff8211176121d457604052565b6060810190811067ffffffffffffffff8211176121d457604052565b90601f8019910116810190811067ffffffffffffffff8211176121d457604052565b67ffffffffffffffff81116121d457601f01601f191660200190565b92919261226c82612244565b9161227a6040519384612222565b829481845281830111611f37578281602093846000960137010152565b6007548110156122ce5760076000527fa66cc928b5edb82af9bd49922954155ab7b0942694bea4ce44661d9a8736c6880190600090565b634e487b7160e01b600052603260045260246000fd5b90816020910312611f3757516001600160a01b0381168103611f375790565b90816020910312611f3757518015158103611f375790565b1561232257565b60405162461bcd60e51b81526020600482015260166024820152756e6f7420616363657074696e67206465706f7369747360501b6044820152606490fd5b9190820180921161236d57565b634e487b7160e01b600052601160045260246000fd5b1561238a57565b60405162461bcd60e51b815260206004820152602960248201527f746f74616c206465706f736974732063616e6e6f74206265206d6f72652074686044820152680c2dc406664408ae8d60bb1b6064820152608490fd5b156123e857565b60405162461bcd60e51b815260206004820152601960248201527f77726f6e67207374616b696e6720706f6f6c20666f72206964000000000000006044820152606490fd5b1561243457565b60405162461bcd60e51b815260206004820152600b60248201526a77726f6e6720737461746560a81b6044820152606490fd5b6801bc16d674ec8000008047106125f25780600554036125b757600090815460ff811660048110156109e257600161249f911461242d565b60ff60095460101c161561257e5760ff19166002178255601254600d546001600160a01b0393918416803b1561060f5790829160405180958180946304512a2360e31b82526080600483015261251f6124fa6084840161200e565b6125106003199182868203016024870152612139565b908482030160448501526120b2565b90606483015203925af1908115611c145750916040917f72b356fd889b9abd3530accd2c9f4aecbce67d70757181f9f862ac91464ce1929361256f575b50601254168151908152336020820152a1565b612578906121c0565b3861255c565b60405162461bcd60e51b81526020600482015260116024820152701d985b1a59185d1bdc881b9bdd081cd95d607a1b6044820152606490fd5b60405162461bcd60e51b81526020600482015260136024820152726e6f7420656e6f756768206465706f7369747360681b6044820152606490fd5b60405162461bcd60e51b815260206004820152600e60248201526d0dcdee840cadcdeeaced040cae8d60931b6044820152606490fd5b1561262f57565b634e487b7160e01b600052600160045260246000fd5b908060209392818452848401376000828201840152601f01601f1916010190565b949190939695926040519160209283810190600160f81b82526000918260218301523060601b602c83015285825261269d826121ea565b6126a8368686612260565b8681519101209151902003612ba95760095460ff8116612b6f575b5060ff815416906004821015612b5b576126e0600180931461242d565b67ffffffffffffffff9081891161294a576126fc600a54611fd4565b9189601f93848111612af7575b5082848211600114612a6b578391612a60575b5060001960038c901b1c19168a851b17600a555b808611612a4c57612742600b54611fd4565b8381116129ea575b50858284821160011461296957839161295e575b50600019600388901b1c191686851b17600b555b871161294a57612783600c54611fd4565b8281116128e8575b508091871160011461283e579286807ffd84b86d2e47014cef6e8fc5310d3968b38c5998dd6a57a8b68b350628b8f9f89c9d979461282899979461281a9793612833575b501b906000198760031b1c191617600c555b87600d556201000062ff000019600954161760095561280d6040519a8b9a60808c5260808c0191612645565b92898403908a0152612645565b918583036040870152612645565b9060608301520390a1565b8901359250386127cf565b90601f198716600c83527fdf6966c971051c3d54ec59162606531493a51404a002842f56009d7e5cf4a8c7925b8181106128d357509287959261281a9592612828997ffd84b86d2e47014cef6e8fc5310d3968b38c5998dd6a57a8b68b350628b8f9f89e9f9996106128b9575b505085811b01600c556127e1565b880135600019600389901b60f8161c1916905538806128ab565b8d83013584559284019291870191870161286b565b600c82527fdf6966c971051c3d54ec59162606531493a51404a002842f56009d7e5cf4a8c783808a0160051c820192898b10612941575b0160051c019084905b82811061293657505061278b565b838155018490612928565b9250819261291f565b634e487b7160e01b81526041600452602490fd5b90508501353861275e565b600b84527f0175b7a638427703f0dbe7bb9bbf987a2551717b34e79f33b5b1008d1fa01db9915087601f198116855b8b898383106129d357505050106129b9575b50508386811b01600b55612772565b860135600019600389901b60f8161c1916905538806129aa565b858c0135875590950194938401938b935001612998565b600b83527f0175b7a638427703f0dbe7bb9bbf987a2551717b34e79f33b5b1008d1fa01db98480890160051c8201928a8a10612a43575b0160051c019085905b828110612a3857505061274a565b848155018590612a2a565b92508192612a21565b634e487b7160e01b82526041600452602482fd5b90508b01353861271c565b8c91601f198116600a86527fc65a7bb8d6351c1cf70c95a316cc6a92839c986682d98bc35f958f4883f9d2a8938b8988925b848410612ad7575050505010612abd575b5050838a811b01600a55612730565b8c013560001960038d901b60f8161c191690553880612aae565b8294955095809791929396013581550194019201908d918f898d91612a9d565b600a8452847fc65a7bb8d6351c1cf70c95a316cc6a92839c986682d98bc35f958f4883f9d2a8918a82850160051c84019410612b52575b0160051c019085905b828110612b4757508b9150612709565b848155018590612b37565b92508192612b2e565b634e487b7160e01b81526021600452602490fd5b81549060ff821660048110156109e25760ff60019392612b92612b9c931561242d565b60101c1615612628565b60ff1916178155386126c3565b60405162461bcd60e51b815260048101859052601e60248201527f7769746864726177616c2063726564656e7469616c206d69736d6174636800006044820152606490fd5b9190820391821161236d57565b3d15612c26573d90612c0c82612244565b91612c1a6040519384612222565b82523d6000602084013e565b606090565b8181029291811591840414171561236d57565b4715612cab576000908152600160205260408120546002602052612c74604083205491612c6e4760065490612360565b90612c2b565b600554908115612c9757048015612c9257612c8f9250612bee565b90565b505090565b634e487b7160e01b84526012600452602484fd5b50600090565b60ff60005416906004821015612d145760018203612cd0575050600090565b612cd990612c3e565b90600854908115159081612d08575b50612cf1575090565b906064612d0182612c8f94612c2b565b0490612bee565b60039150141538612ce8565b634e487b7160e01b600052602160045260246000fd5b60ff600054166004811015612d14578015612df35760028114612dd05760018114612da157600314612d7f57604051612d62816121ea565b600d81526c7374617465206661696c75726560981b602082015290565b604051612d8b816121ea565b6006815265195e1a5d195960d21b602082015290565b50604051612dae816121ea565b6012815271616363657074696e67206465706f7369747360701b602082015290565b50604051612ddd816121ea565b60068152651cdd185ad95960d21b602082015290565b50604051612e00816121ea565b601781527f6177616974696e672076616c696461746f7220696e666f000000000000000000602082015290565b6001600160a01b03811615612e4757612e4590612e99565b565b604051631e4fbdf760e01b815260006004820152602490fd5b600080516020612f1f833981519152546001600160a01b03163303612e8157565b60405163118cdaa760e01b8152336004820152602490fd5b600080516020612f1f83398151915280546001600160a01b039283166001600160a01b0319821681179092559091167f8be0079c531659141344cd1fd0a4f28419497f9722a3daafe3b4186f6b6457e0600080a3565b60ff600080516020612f3f8339815191525460401c1615612f0c57565b604051631afcd79f60e31b8152600490fdfe9016d09d72d40fdae2fd8ceac6b6234c7706214fd39c1cd1e609a0528c199300f0c57e16840df040f15088dc2f81fe391c3923bec73e23a9662efc9c229c6a00a264697066735822122047015723b624e6db7bb01fd559f7d058834ca3ab8434ae6937a858121b974a8f64736f6c63430008140033",
    "linkReferences": {}
  },
  "methodIdentifiers": {
    "addToDeposit(uint256)": "8620891c",
    "artForPool()": "8ae578fd",
    "callSSVNetwork(bytes)": "735a5313",
    "claim(uint256)": "379607f5",
    "currentState()": "0c3f6acf",
    "depositContract()": "e94ad65b",
    "depositForId(uint256)": "2daad61d",
    "depositToPool()": "f9faa104",
    "deposit_data_root()": "e2d9ae3e",
    "feePercent()": "7fd6f15c",
    "feeRecipient()": "46904840",
    "frenPastClaim(uint256)": "2cf2cd48",
    "frensPoolShare()": "591167c7",
    "frensStorage()": "30dbf887",
    "getDistributableShare(uint256)": "678e300a",
    "getIdsInThisPool()": "45b58fe4",
    "getShare(uint256)": "cfb5a5f8",
    "getState()": "1865c57d",
    "idsInPool(uint256)": "888e9cf8",
    "initialize(address,bool,address)": "4888a7d1",
    "locked(uint256)": "b45a3c0e",
    "owner()": "8da5cb5b",
    "pubKey()": "ac2a5dfd",
    "rageQuitInfo(uint256)": "fc03bad2",
    "renounceOwnership()": "715018a6",
    "setArt(address)": "e6b1a3ae",
    "setPubKey(bytes,bytes,bytes,bytes32)": "e920eec0",
    "signature()": "51ff4847",
    "stake()": "3a4b66f1",
    "stake(bytes,bytes,bytes,bytes32)": "4b2b4e36",
    "totalClaims()": "41c61383",
    "totalDeposits()": "7d882097",
    "transferLocked()": "12686aae",
    "transferOwnership(address)": "f2fde38b",
    "validatorLocked()": "e3f05d83",
    "validatorSet()": "9426e226",
    "withdraw(uint256,uint256)": "441a3e70",
    "withdrawal_credentials()": "e4a50276"
  },
  "id": 8
}