{
  "abi": [
    {
      "inputs": [
        {
          "internalType": "address",
          "name": "owner_",
          "type": "address"
        },
        {
          "internalType": "bool",
          "name": "validatorLocked_",
          "type": "bool"
        },
        {
          "internalType": "contract IFrensStorage",
          "name": "frensStorage_",
          "type": "address"
        }
      ],
      "stateMutability": "nonpayable",
      "type": "constructor"
    },
    {
      "anonymous": false,
      "inputs": [
        {
          "indexed": false,
          "internalType": "uint256",
          "name": "amount",
          "type": "uint256"
        },
        {
          "indexed": false,
          "internalType": "address",
          "name": "depositer",
          "type": "address"
        },
        {
          "indexed": false,
          "internalType": "uint256",
          "name": "id",
          "type": "uint256"
        }
      ],
      "name": "DepositToPool",
      "type": "event"
    },
    {
      "anonymous": false,
      "inputs": [
        {
          "indexed": true,
          "internalType": "address",
          "name": "previousOwner",
          "type": "address"
        },
        {
          "indexed": true,
          "internalType": "address",
          "name": "newOwner",
          "type": "address"
        }
      ],
      "name": "OwnershipTransferred",
      "type": "event"
    },
    {
      "anonymous": false,
      "inputs": [
        {
          "indexed": false,
          "internalType": "address",
          "name": "depositContractAddress",
          "type": "address"
        },
        {
          "indexed": false,
          "internalType": "address",
          "name": "caller",
          "type": "address"
        }
      ],
      "name": "Stake",
      "type": "event"
    },
    {
      "stateMutability": "payable",
      "type": "fallback"
    },
    {
      "inputs": [
        {
          "internalType": "uint256",
          "name": "_id",
          "type": "uint256"
        }
      ],
      "name": "addToDeposit",
      "outputs": [],
      "stateMutability": "payable",
      "type": "function"
    },
    {
      "inputs": [],
      "name": "artForPool",
      "outputs": [
        {
          "internalType": "contract IFrensArt",
          "name": "",
          "type": "address"
        }
      ],
      "stateMutability": "view",
      "type": "function"
    },
    {
      "inputs": [
        {
          "internalType": "uint256",
          "name": "_id",
          "type": "uint256"
        }
      ],
      "name": "claim",
      "outputs": [],
      "stateMutability": "nonpayable",
      "type": "function"
    },
    {
      "inputs": [],
      "name": "depositContract",
      "outputs": [
        {
          "internalType": "contract IDepositContract",
          "name": "",
          "type": "address"
        }
      ],
      "stateMutability": "view",
      "type": "function"
    },
    {
      "inputs": [
        {
          "internalType": "uint256",
          "name": "",
          "type": "uint256"
        }
      ],
      "name": "depositForId",
      "outputs": [
        {
          "internalType": "uint256",
          "name": "",
          "type": "uint256"
        }
      ],
      "stateMutability": "view",
      "type": "function"
    },
    {
      "inputs": [],
      "name": "depositToPool",
      "outputs": [],
      "stateMutability": "payable",
      "type": "function"
    },
    {
      "inputs": [],
      "name": "deposit_data_root",
      "outputs": [
        {
          "internalType": "bytes32",
          "name": "",
          "type": "bytes32"
        }
      ],
      "stateMutability": "view",
      "type": "function"
    },
    {
      "inputs": [
        {
          "internalType": "uint256",
          "name": "",
          "type": "uint256"
        }
      ],
      "name": "frenPastClaim",
      "outputs": [
        {
          "internalType": "uint256",
          "name": "",
          "type": "uint256"
        }
      ],
      "stateMutability": "view",
      "type": "function"
    },
    {
      "inputs": [],
      "name": "frensPoolShare",
      "outputs": [
        {
          "internalType": "contract IFrensPoolShare",
          "name": "",
          "type": "address"
        }
      ],
      "stateMutability": "view",
      "type": "function"
    },
    {
      "inputs": [],
      "name": "frensStorage",
      "outputs": [
        {
          "internalType": "contract IFrensStorage",
          "name": "",
          "type": "address"
        }
      ],
      "stateMutability": "view",
      "type": "function"
    },
    {
      "inputs": [
        {
          "internalType": "uint256",
          "name": "_id",
          "type": "uint256"
        }
      ],
      "name": "getDistributableShare",
      "outputs": [
        {
          "internalType": "uint256",
          "name": "",
          "type": "uint256"
        }
      ],
      "stateMutability": "view",
      "type": "function"
    },
    {
      "inputs": [],
      "name": "getIdsInThisPool",
      "outputs": [
        {
          "internalType": "uint256[]",
          "name": "",
          "type": "uint256[]"
        }
      ],
      "stateMutability": "view",
      "type": "function"
    },
    {
      "inputs": [
        {
          "internalType": "uint256",
          "name": "_id",
          "type": "uint256"
        }
      ],
      "name": "getShare",
      "outputs": [
        {
          "internalType": "uint256",
          "name": "",
          "type": "uint256"
        }
      ],
      "stateMutability": "view",
      "type": "function"
    },
    {
      "inputs": [],
      "name": "getState",
      "outputs": [
        {
          "internalType": "string",
          "name": "",
          "type": "string"
        }
      ],
      "stateMutability": "view",
      "type": "function"
    },
    {
      "inputs": [
        {
          "internalType": "uint256",
          "name": "",
          "type": "uint256"
        }
      ],
      "name": "idsInPool",
      "outputs": [
        {
          "internalType": "uint256",
          "name": "",
          "type": "uint256"
        }
      ],
      "stateMutability": "view",
      "type": "function"
    },
    {
      "inputs": [
        {
          "internalType": "uint256",
          "name": "",
          "type": "uint256"
        }
      ],
      "name": "locked",
      "outputs": [
        {
          "internalType": "bool",
          "name": "",
          "type": "bool"
        }
      ],
      "stateMutability": "view",
      "type": "function"
    },
    {
      "inputs": [],
      "name": "owner",
      "outputs": [
        {
          "internalType": "address",
          "name": "",
          "type": "address"
        }
      ],
      "stateMutability": "view",
      "type": "function"
    },
    {
      "inputs": [],
      "name": "pubKey",
      "outputs": [
        {
          "internalType": "bytes",
          "name": "",
          "type": "bytes"
        }
      ],
      "stateMutability": "view",
      "type": "function"
    },
    {
      "inputs": [
        {
          "internalType": "uint256",
          "name": "",
          "type": "uint256"
        }
      ],
      "name": "rageQuitInfo",
      "outputs": [
        {
          "internalType": "uint256",
          "name": "price",
          "type": "uint256"
        },
        {
          "internalType": "uint256",
          "name": "time",
          "type": "uint256"
        },
        {
          "internalType": "bool",
          "name": "rageQuitting",
          "type": "bool"
        }
      ],
      "stateMutability": "view",
      "type": "function"
    },
    {
      "inputs": [],
      "name": "renounceOwnership",
      "outputs": [],
      "stateMutability": "nonpayable",
      "type": "function"
    },
    {
      "inputs": [
        {
          "internalType": "contract IFrensArt",
          "name": "newArtContract",
          "type": "address"
        }
      ],
      "name": "setArt",
      "outputs": [],
      "stateMutability": "nonpayable",
      "type": "function"
    },
    {
      "inputs": [
        {
          "internalType": "bytes",
          "name": "_pubKey",
          "type": "bytes"
        },
        {
          "internalType": "bytes",
          "name": "_withdrawal_credentials",
          "type": "bytes"
        },
        {
          "internalType": "bytes",
          "name": "_signature",
          "type": "bytes"
        },
        {
          "internalType": "bytes32",
          "name": "_deposit_data_root",
          "type": "bytes32"
        }
      ],
      "name": "setPubKey",
      "outputs": [],
      "stateMutability": "nonpayable",
      "type": "function"
    },
    {
      "inputs": [],
      "name": "signature",
      "outputs": [
        {
          "internalType": "bytes",
          "name": "",
          "type": "bytes"
        }
      ],
      "stateMutability": "view",
      "type": "function"
    },
    {
      "inputs": [],
      "name": "stake",
      "outputs": [],
      "stateMutability": "nonpayable",
      "type": "function"
    },
    {
      "inputs": [
        {
          "internalType": "bytes",
          "name": "_pubKey",
          "type": "bytes"
        },
        {
          "internalType": "bytes",
          "name": "_withdrawal_credentials",
          "type": "bytes"
        },
        {
          "internalType": "bytes",
          "name": "_signature",
          "type": "bytes"
        },
        {
          "internalType": "bytes32",
          "name": "_deposit_data_root",
          "type": "bytes32"
        }
      ],
      "name": "stake",
      "outputs": [],
      "stateMutability": "nonpayable",
      "type": "function"
    },
    {
      "inputs": [],
      "name": "totalClaims",
      "outputs": [
        {
          "internalType": "uint256",
          "name": "",
          "type": "uint256"
        }
      ],
      "stateMutability": "view",
      "type": "function"
    },
    {
      "inputs": [],
      "name": "totalDeposits",
      "outputs": [
        {
          "internalType": "uint256",
          "name": "",
          "type": "uint256"
        }
      ],
      "stateMutability": "view",
      "type": "function"
    },
    {
      "inputs": [],
      "name": "transferLocked",
      "outputs": [
        {
          "internalType": "bool",
          "name": "",
          "type": "bool"
        }
      ],
      "stateMutability": "view",
      "type": "function"
    },
    {
      "inputs": [
        {
          "internalType": "address",
          "name": "newOwner",
          "type": "address"
        }
      ],
      "name": "transferOwnership",
      "outputs": [],
      "stateMutability": "nonpayable",
      "type": "function"
    },
    {
      "inputs": [],
      "name": "validatorLocked",
      "outputs": [
        {
          "internalType": "bool",
          "name": "",
          "type": "bool"
        }
      ],
      "stateMutability": "view",
      "type": "function"
    },
    {
      "inputs": [],
      "name": "validatorSet",
      "outputs": [
        {
          "internalType": "bool",
          "name": "",
          "type": "bool"
        }
      ],
      "stateMutability": "view",
      "type": "function"
    },
    {
      "inputs": [
        {
          "internalType": "uint256",
          "name": "_id",
          "type": "uint256"
        },
        {
          "internalType": "uint256",
          "name": "_amount",
          "type": "uint256"
        }
      ],
      "name": "withdraw",
      "outputs": [],
      "stateMutability": "nonpayable",
      "type": "function"
    },
    {
      "inputs": [],
      "name": "withdrawal_credentials",
      "outputs": [
        {
          "internalType": "bytes",
          "name": "",
          "type": "bytes"
        }
      ],
      "stateMutability": "view",
      "type": "function"
    },
    {
      "stateMutability": "payable",
      "type": "receive"
    }
  ],
  "bytecode": {
    "object": "0x608060408181523462000346576060826200280f803803809162000024828562000367565b83398101031262000346576200003a826200038b565b602092838101519081151580920362000346578301516001600160a01b038082169182900362000346576200006f33620003a0565b60018060a01b0319918083600f541617600f558551968088016f636f6e74726163742e6164647265737360801b9889825267119c995b9cd05c9d60c21b603082015260188152620000c0816200034b565b5190209787516321f8a72160e01b998a825260048201528281602481875afa9081156200033b57908591600091620002fc575b501685600e541617600e5587518281019182526d4672656e73506f6f6c536861726560901b6030820152601e81526200012c816200034b565b51902087519089825260048201528181602481865afa908115620002f157908491600091620002b2575b501684600d541617600d55865191818301907f65787465726e616c2e636f6e74726163742e616464726573730000000000000082526e11195c1bdcda5d10dbdb9d1c9858dd608a1b6039850152602884526060840199848b1060018060401b038c11176200029c578a80926024928695838e528851902090835260648801525afa91821562000291576000926200024d575b5050620002269596501690601054161760105560ff801960085416911680911760085560001462000234576000805460ff60a01b19169055620003a0565b516124279081620003e88239f35b6000805460ff60a01b1916600160a01b179055620003a0565b813d831162000289575b62000263818b62000367565b810103126200028657506200027d6200022695966200038b565b869538620001e8565b80fd5b503d62000257565b87513d6000823e3d90fd5b634e487b7160e01b600052604160045260246000fd5b91508282813d8311620002e9575b620002cc818362000367565b81010312620002865750620002e284916200038b565b3862000156565b503d620002c0565b88513d6000823e3d90fd5b91508382813d831162000333575b62000316818362000367565b810103126200028657506200032c85916200038b565b38620000f3565b503d6200030a565b89513d6000823e3d90fd5b600080fd5b604081019081106001600160401b038211176200029c57604052565b601f909101601f19168101906001600160401b038211908210176200029c57604052565b51906001600160a01b03821682036200034657565b600080546001600160a01b039283166001600160a01b03198216811783559216907f8be0079c531659141344cd1fd0a4f28419497f9722a3daafe3b4186f6b6457e09080a356fe6080604081815260048036101561001e575b505050361561001c57005b005b600092833560e01c90816312686aae146113f6575080631865c57d146113c55780632cf2cd481461139e5780632daad61d1461137757806330dbf8871461134e578063379607f514610e995780633a4b66f114610e8057806341c6138314610e61578063441a3e7014610c9b57806345b58fe414610be85780634b2b4e3614610b2b57806351ff484714610b06578063591167c714610add578063678e300a14610abd578063715018a614610a635780637d88209714610a445780638620891c146108be578063888e9cf8146108865780638ae578fd1461085d5780638da5cb5b146108355780639426e2261461080e578063ac2a5dfd146107e9578063b45a3c0e146107bd578063cfb5a5f814610714578063e2d9ae3e146106f5578063e3f05d83146106d1578063e4a502761461068f578063e6b1a3ae1461054f578063e920eec014610523578063e94ad65b146104f6578063f2fde38b1461042c578063f9faa104146101d85763fc03bad20361001157346101d45760203660031901126101d457606092818392358252602052209081549160ff60026001830154920154169082519384526020840152151590820152f35b8280fd5b50826003193601126101d45734156103f55760ff835460a01c16818110156103e257600161020691146117a0565b6102266801bc16d674ec80000061021f600554346117e5565b1115611808565b600d5482516318160ddd60e01b8152602093909290916001600160a01b0390859085908490829085165afa9384156103d85786946103a5575b50838652600185523483872055610278346005546117e5565b6005556007546801000000000000000081101561039257906102a282600189959401600755611753565b81549060031b9087821b91600019901b19161790558483526002865260018484205560ff60085460081c16600387528484209060ff801983541691151516179055600d5416803b156101d45760248392855194859384926335313c2160e11b845233908401525af180156103885761034e575b5091606091837fd91527a40417d48f76ba016aaa9157e2ddaca6cb5b660432901659cb075058fc9451923484523390840152820152a180f35b917fd91527a40417d48f76ba016aaa9157e2ddaca6cb5b660432901659cb075058fc93919461037e6060946116eb565b9491935091610315565b82513d87823e3d90fd5b634e487b7160e01b875260418352602487fd5b9093508481813d83116103d1575b6103bd8183611731565b810103126103cd5751923861025f565b8580fd5b503d6103b3565b83513d88823e3d90fd5b634e487b7160e01b845260218252602484fd5b6020606492519162461bcd60e51b8352820152601260248201527136bab9ba103232b837b9b4ba1032ba3432b960711b6044820152fd5b5090346101d45760203660031901126101d4576001600160a01b038235818116939192908490036104f25761045f612399565b83156104a057505082546001600160a01b0319811683178455167f8be0079c531659141344cd1fd0a4f28419497f9722a3daafe3b4186f6b6457e08380a380f35b906020608492519162461bcd60e51b8352820152602660248201527f4f776e61626c653a206e6577206f776e657220697320746865207a65726f206160448201526564647265737360d01b6064820152fd5b8480fd5b50503461051f578160031936011261051f5760105490516001600160a01b039091168152602090f35b5080fd5b833461054c5761054961053536611495565b95610544959195949294612399565b611b7d565b80f35b80fd5b50346101d45760208060031936011261068b5781356001600160a01b03811693908490036104f25761057f612399565b805163516b636d60e11b81526001848201528581602481885afa908115610681578691610604575b5051156105cc575050506bffffffffffffffffffffffff60a01b600e541617600e5580f35b5162461bcd60e51b81529182015260146024820152731a5b9d985b1a5908185c9d0818dbdb9d1c9858dd60621b604482015260649150fd5b90503d8087833e6106158183611731565b810190838183031261067d5780519067ffffffffffffffff8211610679570181601f8201121561067d57805161064a816118e9565b9261065785519485611731565b818452858284010111610679576106739185808501910161141a565b386105a7565b8780fd5b8680fd5b82513d88823e3d90fd5b8380fd5b50503461051f578160031936011261051f5780516106cd916106bb826106b481611664565b0383611731565b5191829160208352602083019061143d565b0390f35b50503461051f578160031936011261051f5760209060ff6008541690519015158152f35b50503461051f578160031936011261051f57602090600c549051908152f35b50346101d45760203660031901126101d457600d548251631dc82a7560e01b81528235928101839052906001600160a01b03906020908390602490829085165afa9182156107b357916107789161077d949360209792610784575b50163014611885565b61210c565b9051908152f35b6107a5919250873d81116107ac575b61079d8183611731565b810190611866565b903861076f565b503d610793565b84513d87823e3d90fd5b50346101d45760203660031901126101d4578160209360ff923581526003855220541690519015158152f35b50503461051f578160031936011261051f5780516106cd916106bb826106b481611539565b50503461051f578160031936011261051f5760209060ff60085460101c1690519015158152f35b50503461051f578160031936011261051f57905490516001600160a01b039091168152602090f35b50503461051f578160031936011261051f57600e5490516001600160a01b039091168152602090f35b50346101d45760203660031901126101d457359160075483101561054c57506108b0602092611753565b91905490519160031b1c8152f35b506020908160031936011261068b5780359060ff855460a01c1681811015610a315760016108ec91146117a0565b6109056801bc16d674ec80000061021f600554346117e5565b600d548451631dc82a7560e01b8152828101849052906001600160a01b039081168583602481845afa928315610a2757602493879361094d928b92610a0f5750163014611885565b865192838092634f558e7960e01b825287878301525afa908115610a055786916109d8575b50156109a1575090600191845252812061098d3482546117e5565b905561099b346005546117e5565b60055580f35b835162461bcd60e51b815290810183905260116024820152701a5908191bd95cc81b9bdd08195e1a5cdd607a1b6044820152606490fd5b6109f89150843d86116109fe575b6109f08183611731565b8101906118d1565b38610972565b503d6109e6565b85513d88823e3d90fd5b6107a5919250853d87116107ac5761079d8183611731565b87513d8a823e3d90fd5b634e487b7160e01b865260218252602486fd5b50503461051f578160031936011261051f576020906005549051908152f35b833461054c578060031936011261054c57610a7c612399565b80546001600160a01b03198116825581906001600160a01b03167f8be0079c531659141344cd1fd0a4f28419497f9722a3daafe3b4186f6b6457e08280a380f35b50913461054c57602036600319011261054c575061077d6020923561217f565b50503461051f578160031936011261051f57600d5490516001600160a01b039091168152602090f35b50503461051f578160031936011261051f5780516106cd916106bb826106b4816115dd565b50346101d457610b3a36611495565b93610b49989698939193612399565b60085460101c60ff1615610bd357505050505092610b6a9192933691611905565b602081519101208151610b8781610b8081611539565b0382611731565b6020815191012003610b9e5750505b610549611976565b906020606492519162461bcd60e51b8352820152600f60248201526e0e0eac496caf240dad2e6dac2e8c6d608b1b6044820152fd5b92955092955092610be396611b7d565b610b96565b82843461054c578060031936011261054c579080519182906007549182855260208095018093600784527fa66cc928b5edb82af9bd49922954155ab7b0942694bea4ce44661d9a8736c68890845b818110610c875750505081610c4c910382611731565b83519485948186019282875251809352850193925b828110610c7057505050500390f35b835185528695509381019392810192600101610c61565b825484529288019260019283019201610c36565b5090346101d457806003193601126101d4578135602480359360ff865460a01c1681811015610e4f576001610cd091146117a0565b600d5484516331a9108f60e11b8082528382018690526020949290916001600160a01b0391869082908690829086165afa908115610e45579082918b91610e28575b50163303610df6578589526001855287878a205410610dbd57918493918695938a9897895260018552878920610d498b82546120bc565b9055610d578a6005546120bc565b600555600d54168751968794859384528301525afa928315610db45750610549948493849384938492610d97575b50505af1610d916120c9565b50611b60565b610dad9250803d106107ac5761079d8183611731565b3880610d85565b513d85823e3d90fd5b865162461bcd60e51b8152808501869052601481850152731b9bdd08195b9bdd59da0819195c1bdcda5d195960621b6044820152606490fd5b865162461bcd60e51b8152808501869052600d818501526c3737ba103a34329037bbb732b960991b6044820152606490fd5b610e3f9150873d89116107ac5761079d8183611731565b38610d12565b88513d8c823e3d90fd5b50634e487b7160e01b86526021905284fd5b50503461051f578160031936011261051f576020906006549051908152f35b833461054c578060031936011261054c57610b96612399565b50913461054c576020918260031936011261051f578335938360018060a01b039586600d5416845196878092631dc82a7560e01b825284878301526024998a915afa908115610a055790610ef8918791611331575b5088163014611885565b60ff855460a01c168381101561131f57600181146112dd57606447111561128d576003146112815786600f541696828551818101906f636f6e74726163742e6164647265737360801b82526a4672656e734f7261636c6560a81b6030820152601b8152610f6481611715565b519020888751809b81936321f8a72160e01b8352898301525afa978815610a0557818888999a86938a91611264575b50885163404df7b160e11b81523089820152998a938492165af195861561125a57879661123b575b508580611210575b6111fa575b610fd18261210c565b9582885260028452858820610fe78882546117e5565b9055610ff5876006546117e5565b60065581600f541690865185810190731c1c9bdd1bd8dbdb0b9999594b9c195c98d95b9d60621b82526014815261102b81611715565b5190209087519163bd02d0f560e01b83528783015285828c81865afa918215610e45578a926111c7575b5081151590816111be575b506110af575b50509086978392600d989798541694865195869384926331a9108f60e11b84528301525afa928315610db45750610549948493849384938492610d975750505af1610d916120c9565b8487989293985181810190751c1c9bdd1bd8dbdb0b9999594b9c9958da5c1a595b9d60521b8252601681526110e381611715565b5190208b8951809681936321f8a72160e01b83528b8301525afa9283156111b457899361118c575b50611118826064926120f9565b049160018311611141575b5097611135849392899a9998996120bc565b96979192819950611066565b60001983019083821161117a5792899a9261116c8b8080809d9e611135978c9b9a5af1610d916120c9565b929a50929350979697611123565b634e487b7160e01b8a52601187528a8afd5b6064919350826111ab61111892883d8a116107ac5761079d8183611731565b9492505061110b565b87513d8b823e3d90fd5b90501538611060565b9091508581813d83116111f3575b6111df8183611731565b810103126111ef57519038611055565b8980fd5b503d6111d5565b865460ff60a01b1916600360a01b178755610fc8565b5060ff875460a01c168481101561122957600214610fc3565b634e487b7160e01b8852602185528888fd5b611253919650833d85116109fe576109f08183611731565b9438610fbb565b85513d89823e3d90fd5b61127b9150843d86116107ac5761079d8183611731565b38610f93565b60019694959694610fc8565b845162461bcd60e51b81528085018490526025818901527f6d7573742062652067726561746572207468616e203130302077656920746f20604482015264636c61696d60d81b6064820152608490fd5b845162461bcd60e51b8152808501849052601c818901527f757365207769746864726177207768656e206e6f74207374616b6564000000006044820152606490fd5b634e487b7160e01b8652602184528686fd5b6113489150843d86116107ac5761079d8183611731565b38610eee565b50503461051f578160031936011261051f57600f5490516001600160a01b039091168152602090f35b50346101d45760203660031901126101d45760209282913581526001845220549051908152f35b50346101d45760203660031901126101d45760209282913581526002845220549051908152f35b50503461051f578160031936011261051f576106cd906113e3612293565b905191829160208352602083019061143d565b84903461051f578160031936011261051f5760209060ff60085460081c1615158152f35b60005b83811061142d5750506000910152565b818101518382015260200161141d565b906020916114568151809281855285808601910161141a565b601f01601f1916010190565b9181601f840112156114905782359167ffffffffffffffff8311611490576020838186019501011161149057565b600080fd5b9060806003198301126114905767ffffffffffffffff60043581811161149057836114c291600401611462565b9390939260243583811161149057826114dd91600401611462565b93909392604435918211611490576114f791600401611462565b909160643590565b90600182811c9216801561152f575b602083101461151957565b634e487b7160e01b600052602260045260246000fd5b91607f169161150e565b60095460009291611549826114ff565b808252916001908181169081156115c0575060011461156757505050565b9192935060096000527f6e1540171b6c0c960b71a7020d9f60077f6af931a8bbf590da0223dacf75c7af916000925b8484106115a857505060209250010190565b80546020858501810191909152909301928101611596565b915050602093945060ff929192191683830152151560051b010190565b600b54600092916115ed826114ff565b808252916001908181169081156115c0575060011461160b57505050565b91929350600b6000527f0175b7a638427703f0dbe7bb9bbf987a2551717b34e79f33b5b1008d1fa01db9916000925b84841061164c57505060209250010190565b8054602085850181019190915290930192810161163a565b600a5460009291611674826114ff565b808252916001908181169081156115c0575060011461169257505050565b91929350600a6000527fc65a7bb8d6351c1cf70c95a316cc6a92839c986682d98bc35f958f4883f9d2a8916000925b8484106116d357505060209250010190565b805460208585018101919091529093019281016116c1565b67ffffffffffffffff81116116ff57604052565b634e487b7160e01b600052604160045260246000fd5b6040810190811067ffffffffffffffff8211176116ff57604052565b90601f8019910116810190811067ffffffffffffffff8211176116ff57604052565b60075481101561178a5760076000527fa66cc928b5edb82af9bd49922954155ab7b0942694bea4ce44661d9a8736c6880190600090565b634e487b7160e01b600052603260045260246000fd5b156117a757565b60405162461bcd60e51b81526020600482015260166024820152756e6f7420616363657074696e67206465706f7369747360501b6044820152606490fd5b919082018092116117f257565b634e487b7160e01b600052601160045260246000fd5b1561180f57565b60405162461bcd60e51b815260206004820152602960248201527f746f74616c206465706f736974732063616e6e6f74206265206d6f72652074686044820152680c2dc406664408ae8d60bb1b6064820152608490fd5b9081602091031261149057516001600160a01b03811681036114905790565b1561188c57565b60405162461bcd60e51b815260206004820152601960248201527f77726f6e67207374616b696e6720706f6f6c20666f72206964000000000000006044820152606490fd5b90816020910312611490575180151581036114905790565b67ffffffffffffffff81116116ff57601f01601f191660200190565b929192611911826118e9565b9161191f6040519384611731565b829481845281830111611490578281602093846000960137010152565b1561194357565b60405162461bcd60e51b815260206004820152600b60248201526a77726f6e6720737461746560a81b6044820152606490fd5b6801bc16d674ec800000804710611b2a578060055403611aef57600090815460ff8160a01c166004811015611adb5760016119b1911461193c565b60ff60085460101c1615611aa25760ff60a01b1916600160a11b178255601054600c546001600160a01b0393918416803b156101d45790829160405180958180946304512a2360e31b825260806004830152611a37611a1260848401611539565b611a286003199182868203016024870152611664565b908482030160448501526115dd565b90606483015203925af1908115611a965750916040917f72b356fd889b9abd3530accd2c9f4aecbce67d70757181f9f862ac91464ce19293611a87575b50601054168151908152336020820152a1565b611a90906116eb565b38611a74565b604051903d90823e3d90fd5b60405162461bcd60e51b81526020600482015260116024820152701d985b1a59185d1bdc881b9bdd081cd95d607a1b6044820152606490fd5b634e487b7160e01b84526021600452602484fd5b60405162461bcd60e51b81526020600482015260136024820152726e6f7420656e6f756768206465706f7369747360681b6044820152606490fd5b60405162461bcd60e51b815260206004820152600e60248201526d0dcdee840cadcdeeaced040cae8d60931b6044820152606490fd5b15611b6757565b634e487b7160e01b600052600160045260246000fd5b929094939194600160f81b3001908130116117f257604051602092838201908152838252611baa82611715565b611bb536868b611905565b84815191012091519020036120775760085460ff811661201d575b5060009260ff845460a01c1697600489101561200957611bf36001809a1461193c565b67ffffffffffffffff92838111611ff55780611c106009546114ff565b98601f998a8111611f88575b5087908a8311600114611f00578892611ef5575b5050600019600383901b1c1916908a1b176009555b828211611ee1578190611c59600a546114ff565b888111611e74575b508590888311600114611df5578692611dea575b5050600019600383901b1c191690881b17600a555b8511611dd657611c9b600b546114ff565b848111611d74575b5081938511600114611cf0575091839491849394611ce5575b50501b916000199060031b1c191617600b555b600c556201000062ff0000196008541617600855565b013592503880611cbc565b600b82527f0175b7a638427703f0dbe7bb9bbf987a2551717b34e79f33b5b1008d1fa01db993918591601f19831691905b88838310611d5a5750505010611d40575b505050811b01600b55611ccf565b0135600019600384901b60f8161c19169055388080611d32565b868601358855909601959384019387935090810190611d21565b600b83527f0175b7a638427703f0dbe7bb9bbf987a2551717b34e79f33b5b1008d1fa01db98580880160051c820192848910611dcd575b0160051c019087905b828110611dc2575050611ca3565b848155018790611db4565b92508192611dab565b634e487b7160e01b82526041600452602482fd5b013590503880611c75565b600a87528a93507fc65a7bb8d6351c1cf70c95a316cc6a92839c986682d98bc35f958f4883f9d2a891601f198416885b88828210611e5e5750508411611e44575b505050811b01600a55611c8a565b0135600019600384901b60f8161c19169055388080611e36565b8385013586558e97909501949283019201611e25565b909150600a86527fc65a7bb8d6351c1cf70c95a316cc6a92839c986682d98bc35f958f4883f9d2a88880850160051c820192878610611ed8575b918c91869594930160051c01915b828110611eca575050611c61565b8881558594508c9101611ebc565b92508192611eae565b634e487b7160e01b85526041600452602485fd5b013590503880611c30565b600989528c93507f6e1540171b6c0c960b71a7020d9f60077f6af931a8bbf590da0223dacf75c7af91601f1984168a5b8a828210611f695750508411611f4f575b505050811b01600955611c45565b0135600019600384901b60f8161c19169055388080611f41565b91929596849587849396013581550195019201908e9594939291611f30565b909150600988527f6e1540171b6c0c960b71a7020d9f60077f6af931a8bbf590da0223dacf75c7af8a80850160051c820192898610611fec575b918e91869594930160051c01915b828110611fde575050611c1c565b8a81558594508e9101611fd0565b92508192611fc2565b634e487b7160e01b86526041600452602486fd5b634e487b7160e01b85526021600452602485fd5b6000549060ff8260a01c1660048110156120615761204b9161204160ff921561193c565b60101c1615611b60565b60ff60a01b1916600160a01b1760005538611bd0565b634e487b7160e01b600052602160045260246000fd5b60405162461bcd60e51b815260048101839052601e60248201527f7769746864726177616c2063726564656e7469616c206d69736d6174636800006044820152606490fd5b919082039182116117f257565b3d156120f4573d906120da826118e9565b916120e86040519384611731565b82523d6000602084013e565b606090565b818102929181159184041417156117f257565b471561217957600090815260016020526040812054600260205261214260408320549161213c47600654906117e5565b906120f9565b600554908115612165570480156121605761215d92506120bc565b90565b505090565b634e487b7160e01b84526012600452602484fd5b50600090565b600060ff815460a01c1691600483101561227f57600183036121a15750905090565b6121aa9061210c565b9160018060a01b03600f5416602060405181810190731c1c9bdd1bd8dbdb0b9999594b9c195c98d95b9d60621b8252601481526121e681611715565b51902060246040518094819363bd02d0f560e01b835260048301525afa928315611a96578093612249575b5050811515908161223d575b50612226575090565b9060646122368261215d946120f9565b04906120bc565b6003915014153861221d565b909192506020823d8211612277575b8161226560209383611731565b8101031261054c575051903880612211565b3d9150612258565b634e487b7160e01b82526021600452602482fd5b60ff60005460a01c16600481101561206157801561235f576002811461233c576001811461230d576003146122eb576040516122ce81611715565b600d81526c7374617465206661696c75726560981b602082015290565b6040516122f781611715565b6006815265195e1a5d195960d21b602082015290565b5060405161231a81611715565b6012815271616363657074696e67206465706f7369747360701b602082015290565b5060405161234981611715565b60068152651cdd185ad95960d21b602082015290565b5060405161236c81611715565b601781527f6177616974696e672076616c696461746f7220696e666f000000000000000000602082015290565b6000546001600160a01b031633036123ad57565b606460405162461bcd60e51b815260206004820152602060248201527f4f776e61626c653a2063616c6c6572206973206e6f7420746865206f776e65726044820152fdfea264697066735822122079ed7def227b6d9b665713a39679e4243ce8a936157c2d77a50c66047bbe867464736f6c63430008140033",
    "linkReferences": {}
  },
  "methodIdentifiers": {
    "addToDeposit(uint256)": "8620891c",
    "artForPool()": "8ae578fd",
    "claim(uint256)": "379607f5",
    "depositContract()": "e94ad65b",
    "depositForId(uint256)": "2daad61d",
    "depositToPool()": "f9faa104",
    "deposit_data_root()": "e2d9ae3e",
    "frenPastClaim(uint256)": "2cf2cd48",
    "frensPoolShare()": "591167c7",
    "frensStorage()": "30dbf887",
    "getDistributableShare(uint256)": "678e300a",
    "getIdsInThisPool()": "45b58fe4",
    "getShare(uint256)": "cfb5a5f8",
    "getState()": "1865c57d",
    "idsInPool(uint256)": "888e9cf8",
    "locked(uint256)": "b45a3c0e",
    "owner()": "8da5cb5b",
    "pubKey()": "ac2a5dfd",
    "rageQuitInfo(uint256)": "fc03bad2",
    "renounceOwnership()": "715018a6",
    "setArt(address)": "e6b1a3ae",
    "setPubKey(bytes,bytes,bytes,bytes32)": "e920eec0",
    "signature()": "51ff4847",
    "stake()": "3a4b66f1",
    "stake(bytes,bytes,bytes,bytes32)": "4b2b4e36",
    "totalClaims()": "41c61383",
    "totalDeposits()": "7d882097",
    "transferLocked()": "12686aae",
    "transferOwnership(address)": "f2fde38b",
    "validatorLocked()": "e3f05d83",
    "validatorSet()": "9426e226",
    "withdraw(uint256,uint256)": "441a3e70",
    "withdrawal_credentials()": "e4a50276"
  },
  "id": 6
}