{
  "abi": [
    {
      "inputs": [
        {
          "internalType": "address",
          "name": "owner_",
          "type": "address"
        },
        {
          "internalType": "bool",
          "name": "validatorLocked_",
          "type": "bool"
        },
        {
          "internalType": "contract IFrensStorage",
          "name": "frensStorage_",
          "type": "address"
        }
      ],
      "stateMutability": "nonpayable",
      "type": "constructor"
    },
    {
      "anonymous": false,
      "inputs": [
        {
          "indexed": false,
          "internalType": "uint256",
          "name": "amount",
          "type": "uint256"
        },
        {
          "indexed": false,
          "internalType": "address",
          "name": "depositer",
          "type": "address"
        },
        {
          "indexed": false,
          "internalType": "uint256",
          "name": "id",
          "type": "uint256"
        }
      ],
      "name": "DepositToPool",
      "type": "event"
    },
    {
      "anonymous": false,
      "inputs": [
        {
          "indexed": true,
          "internalType": "address",
          "name": "previousOwner",
          "type": "address"
        },
        {
          "indexed": true,
          "internalType": "address",
          "name": "newOwner",
          "type": "address"
        }
      ],
      "name": "OwnershipTransferred",
      "type": "event"
    },
    {
      "anonymous": false,
      "inputs": [
        {
          "indexed": false,
          "internalType": "address",
          "name": "depositContractAddress",
          "type": "address"
        },
        {
          "indexed": false,
          "internalType": "address",
          "name": "caller",
          "type": "address"
        }
      ],
      "name": "Stake",
      "type": "event"
    },
    {
      "stateMutability": "payable",
      "type": "fallback"
    },
    {
      "inputs": [
        {
          "internalType": "uint256",
          "name": "_id",
          "type": "uint256"
        }
      ],
      "name": "addToDeposit",
      "outputs": [],
      "stateMutability": "payable",
      "type": "function"
    },
    {
      "inputs": [],
      "name": "artForPool",
      "outputs": [
        {
          "internalType": "contract IFrensArt",
          "name": "",
          "type": "address"
        }
      ],
      "stateMutability": "view",
      "type": "function"
    },
    {
      "inputs": [
        {
          "internalType": "uint256",
          "name": "_id",
          "type": "uint256"
        }
      ],
      "name": "claim",
      "outputs": [],
      "stateMutability": "nonpayable",
      "type": "function"
    },
    {
      "inputs": [
        {
          "internalType": "uint256",
          "name": "",
          "type": "uint256"
        }
      ],
      "name": "depositForId",
      "outputs": [
        {
          "internalType": "uint256",
          "name": "",
          "type": "uint256"
        }
      ],
      "stateMutability": "view",
      "type": "function"
    },
    {
      "inputs": [],
      "name": "depositToPool",
      "outputs": [],
      "stateMutability": "payable",
      "type": "function"
    },
    {
      "inputs": [],
      "name": "deposit_data_root",
      "outputs": [
        {
          "internalType": "bytes32",
          "name": "",
          "type": "bytes32"
        }
      ],
      "stateMutability": "view",
      "type": "function"
    },
    {
      "inputs": [],
      "name": "exitPool",
      "outputs": [],
      "stateMutability": "nonpayable",
      "type": "function"
    },
    {
      "inputs": [
        {
          "internalType": "uint256",
          "name": "",
          "type": "uint256"
        }
      ],
      "name": "frenPastClaim",
      "outputs": [
        {
          "internalType": "uint256",
          "name": "",
          "type": "uint256"
        }
      ],
      "stateMutability": "view",
      "type": "function"
    },
    {
      "inputs": [],
      "name": "frensPoolShare",
      "outputs": [
        {
          "internalType": "contract IFrensPoolShare",
          "name": "",
          "type": "address"
        }
      ],
      "stateMutability": "view",
      "type": "function"
    },
    {
      "inputs": [],
      "name": "frensStorage",
      "outputs": [
        {
          "internalType": "contract IFrensStorage",
          "name": "",
          "type": "address"
        }
      ],
      "stateMutability": "view",
      "type": "function"
    },
    {
      "inputs": [
        {
          "internalType": "uint256",
          "name": "_id",
          "type": "uint256"
        }
      ],
      "name": "getDistributableShare",
      "outputs": [
        {
          "internalType": "uint256",
          "name": "",
          "type": "uint256"
        }
      ],
      "stateMutability": "view",
      "type": "function"
    },
    {
      "inputs": [],
      "name": "getIdsInThisPool",
      "outputs": [
        {
          "internalType": "uint256[]",
          "name": "",
          "type": "uint256[]"
        }
      ],
      "stateMutability": "view",
      "type": "function"
    },
    {
      "inputs": [
        {
          "internalType": "uint256",
          "name": "_id",
          "type": "uint256"
        }
      ],
      "name": "getShare",
      "outputs": [
        {
          "internalType": "uint256",
          "name": "",
          "type": "uint256"
        }
      ],
      "stateMutability": "view",
      "type": "function"
    },
    {
      "inputs": [],
      "name": "getState",
      "outputs": [
        {
          "internalType": "string",
          "name": "",
          "type": "string"
        }
      ],
      "stateMutability": "view",
      "type": "function"
    },
    {
      "inputs": [
        {
          "internalType": "uint256",
          "name": "",
          "type": "uint256"
        }
      ],
      "name": "idsInPool",
      "outputs": [
        {
          "internalType": "uint256",
          "name": "",
          "type": "uint256"
        }
      ],
      "stateMutability": "view",
      "type": "function"
    },
    {
      "inputs": [
        {
          "internalType": "uint256",
          "name": "",
          "type": "uint256"
        }
      ],
      "name": "locked",
      "outputs": [
        {
          "internalType": "bool",
          "name": "",
          "type": "bool"
        }
      ],
      "stateMutability": "view",
      "type": "function"
    },
    {
      "inputs": [],
      "name": "owner",
      "outputs": [
        {
          "internalType": "address",
          "name": "",
          "type": "address"
        }
      ],
      "stateMutability": "view",
      "type": "function"
    },
    {
      "inputs": [],
      "name": "pubKey",
      "outputs": [
        {
          "internalType": "bytes",
          "name": "",
          "type": "bytes"
        }
      ],
      "stateMutability": "view",
      "type": "function"
    },
    {
      "inputs": [
        {
          "internalType": "uint256",
          "name": "",
          "type": "uint256"
        }
      ],
      "name": "rageQuitInfo",
      "outputs": [
        {
          "internalType": "uint256",
          "name": "price",
          "type": "uint256"
        },
        {
          "internalType": "uint256",
          "name": "time",
          "type": "uint256"
        },
        {
          "internalType": "bool",
          "name": "rageQuitting",
          "type": "bool"
        }
      ],
      "stateMutability": "view",
      "type": "function"
    },
    {
      "inputs": [],
      "name": "renounceOwnership",
      "outputs": [],
      "stateMutability": "nonpayable",
      "type": "function"
    },
    {
      "inputs": [
        {
          "internalType": "contract IFrensArt",
          "name": "newArtContract",
          "type": "address"
        }
      ],
      "name": "setArt",
      "outputs": [],
      "stateMutability": "nonpayable",
      "type": "function"
    },
    {
      "inputs": [
        {
          "internalType": "bytes",
          "name": "_pubKey",
          "type": "bytes"
        },
        {
          "internalType": "bytes",
          "name": "_withdrawal_credentials",
          "type": "bytes"
        },
        {
          "internalType": "bytes",
          "name": "_signature",
          "type": "bytes"
        },
        {
          "internalType": "bytes32",
          "name": "_deposit_data_root",
          "type": "bytes32"
        }
      ],
      "name": "setPubKey",
      "outputs": [],
      "stateMutability": "nonpayable",
      "type": "function"
    },
    {
      "inputs": [],
      "name": "signature",
      "outputs": [
        {
          "internalType": "bytes",
          "name": "",
          "type": "bytes"
        }
      ],
      "stateMutability": "view",
      "type": "function"
    },
    {
      "inputs": [],
      "name": "stake",
      "outputs": [],
      "stateMutability": "nonpayable",
      "type": "function"
    },
    {
      "inputs": [
        {
          "internalType": "bytes",
          "name": "_pubKey",
          "type": "bytes"
        },
        {
          "internalType": "bytes",
          "name": "_withdrawal_credentials",
          "type": "bytes"
        },
        {
          "internalType": "bytes",
          "name": "_signature",
          "type": "bytes"
        },
        {
          "internalType": "bytes32",
          "name": "_deposit_data_root",
          "type": "bytes32"
        }
      ],
      "name": "stake",
      "outputs": [],
      "stateMutability": "nonpayable",
      "type": "function"
    },
    {
      "inputs": [],
      "name": "totalClaims",
      "outputs": [
        {
          "internalType": "uint256",
          "name": "",
          "type": "uint256"
        }
      ],
      "stateMutability": "view",
      "type": "function"
    },
    {
      "inputs": [],
      "name": "totalDeposits",
      "outputs": [
        {
          "internalType": "uint256",
          "name": "",
          "type": "uint256"
        }
      ],
      "stateMutability": "view",
      "type": "function"
    },
    {
      "inputs": [],
      "name": "transferLocked",
      "outputs": [
        {
          "internalType": "bool",
          "name": "",
          "type": "bool"
        }
      ],
      "stateMutability": "view",
      "type": "function"
    },
    {
      "inputs": [
        {
          "internalType": "address",
          "name": "newOwner",
          "type": "address"
        }
      ],
      "name": "transferOwnership",
      "outputs": [],
      "stateMutability": "nonpayable",
      "type": "function"
    },
    {
      "inputs": [],
      "name": "validatorLocked",
      "outputs": [
        {
          "internalType": "bool",
          "name": "",
          "type": "bool"
        }
      ],
      "stateMutability": "view",
      "type": "function"
    },
    {
      "inputs": [],
      "name": "validatorSet",
      "outputs": [
        {
          "internalType": "bool",
          "name": "",
          "type": "bool"
        }
      ],
      "stateMutability": "view",
      "type": "function"
    },
    {
      "inputs": [
        {
          "internalType": "uint256",
          "name": "_id",
          "type": "uint256"
        },
        {
          "internalType": "uint256",
          "name": "_amount",
          "type": "uint256"
        }
      ],
      "name": "withdraw",
      "outputs": [],
      "stateMutability": "nonpayable",
      "type": "function"
    },
    {
      "inputs": [],
      "name": "withdrawal_credentials",
      "outputs": [
        {
          "internalType": "bytes",
          "name": "",
          "type": "bytes"
        }
      ],
      "stateMutability": "view",
      "type": "function"
    },
    {
      "stateMutability": "payable",
      "type": "receive"
    }
  ],
  "bytecode": {
    "object": "0x6080604081815234620002605760608262002a6e803803809162000024828562000297565b83398101031262000260576200003a82620002bb565b602092838101519081151580920362000260578301516001600160a01b03808216959186900362000260576200007033620002d0565b60018060a01b0319918683600f541617600f5585518181016f636f6e74726163742e6164647265737360801b9182825267119c995b9cd05c9d60c21b603082015260188152620000c08162000265565b5190209087516321f8a72160e01b92838252600482015283816024818d5afa90811562000255578493929186916000916200020c575b5090602492911687600e541617600e5589518481019182526d4672656e73506f6f6c536861726560901b6030820152601e8152620001348162000265565b5190209189519a8b938492835260048301525afa9081156200020157600091620001bd575b50620001969596501690600d541617600d5560ff8019600854169116809117600855600014620001a4576000805460ff60a01b19169055620002d0565b516127569081620003188239f35b6000805460ff60a01b1916600160a01b179055620002d0565b87813d8311620001f9575b620001d4818362000297565b81010312620001f65750620001ee620001969596620002bb565b869562000159565b80fd5b503d620001c8565b86513d6000823e3d90fd5b85819495969293503d83116200024d575b62000229818362000297565b81010312620001f657508392918562000244602493620002bb565b909192620000f6565b503d6200021d565b89513d6000823e3d90fd5b600080fd5b604081019081106001600160401b038211176200028157604052565b634e487b7160e01b600052604160045260246000fd5b601f909101601f19168101906001600160401b038211908210176200028157604052565b51906001600160a01b03821682036200026057565b600080546001600160a01b039283166001600160a01b03198216811783559216907f8be0079c531659141344cd1fd0a4f28419497f9722a3daafe3b4186f6b6457e09080a356fe6080604081815260048036101561001e575b505050361561001c57005b005b600092833560e01c90816312686aae14611669575080631865c57d14611638578063299179541461152a5780632cf2cd48146115035780632daad61d146114dc57806330dbf887146114b3578063379607f51461102d5780633a4b66f11461101457806341c6138314610ff5578063441a3e7014610e2f57806345b58fe414610d7c5780634b2b4e3614610cbf57806351ff484714610c27578063591167c714610bfe578063678e300a14610bde578063715018a614610b845780637d88209714610b655780638620891c146109df578063888e9cf8146109925780638ae578fd146109695780638da5cb5b146109415780639426e2261461091a578063ac2a5dfd14610882578063b45a3c0e14610856578063cfb5a5f8146107ad578063e2d9ae3e1461078e578063e3f05d831461076a578063e4a502761461068f578063e6b1a3ae1461054f578063e920eec014610523578063f2fde38b14610459578063f9faa104146101d85763fc03bad20361001157346101d45760203660031901126101d457606092818392358252602052209081549160ff60026001830154920154169082519384526020840152151590820152f35b8280fd5b50826003193601126101d45734156104225760ff835460a01c168181101561040f5760016102069114611892565b6102266801bc16d674ec80000061021f600554346118d7565b11156118fa565b600d5482516318160ddd60e01b8152602093909290916001600160a01b0390859085908490829085165afa9384156103ac5786946103dc575b50838652600185523483872055610278346005546118d7565b600555600754680100000000000000008110156103c95760018101806007558110156103b65790848793927fa66cc928b5edb82af9bd49922954155ab7b0942694bea4ce44661d9a8736c68801558483526002865260018484205560ff60085460081c16600387528484209060ff801983541691151516179055600d5416803b156101d457829060248551809581936335313c2160e11b835233878401525af180156103ac5761035c575b857fd91527a40417d48f76ba016aaa9157e2ddaca6cb5b660432901659cb075058fc60608787878051923484523390840152820152a180f35b67ffffffffffffffff82969396116103995750845292817fd91527a40417d48f76ba016aaa9157e2ddaca6cb5b660432901659cb075058fc610323565b634e487b7160e01b835260419052602482fd5b83513d88823e3d90fd5b634e487b7160e01b875260328352602487fd5b634e487b7160e01b875260418352602487fd5b9093508481813d8311610408575b6103f48183611870565b810103126104045751923861025f565b8580fd5b503d6103ea565b634e487b7160e01b845260218252602484fd5b6020606492519162461bcd60e51b8352820152601260248201527136bab9ba103232b837b9b4ba1032ba3432b960711b6044820152fd5b5090346101d45760203660031901126101d4576001600160a01b0382358181169391929084900361051f5761048c612668565b83156104cd57505082546001600160a01b0319811683178455167f8be0079c531659141344cd1fd0a4f28419497f9722a3daafe3b4186f6b6457e08380a380f35b906020608492519162461bcd60e51b8352820152602660248201527f4f776e61626c653a206e6577206f776e657220697320746865207a65726f206160448201526564647265737360d01b6064820152fd5b8480fd5b833461054c5761054961053536611708565b95610544959195949294612668565b611eac565b80f35b80fd5b50346101d45760208060031936011261068b5781356001600160a01b038116939084900361051f5761057f612668565b805163516b636d60e11b81526001848201528581602481885afa908115610681578691610604575b5051156105cc575050506bffffffffffffffffffffffff60a01b600e541617600e5580f35b5162461bcd60e51b81529182015260146024820152731a5b9d985b1a5908185c9d0818dbdb9d1c9858dd60621b604482015260649150fd5b90503d8087833e6106158183611870565b810190838183031261067d5780519067ffffffffffffffff8211610679570181601f8201121561067d57805161064a816119db565b9261065785519485611870565b818452858284010111610679576106739185808501910161168d565b386105a7565b8780fd5b8680fd5b82513d88823e3d90fd5b8380fd5b50503461076657816003193601126107665780519082600a546106b181611772565b8085529160019180831690811561073e57506001146106f3575b5050506106dd826106ef940383611870565b519182916020835260208301906116b0565b0390f35b9450600a85526000805160206126c18339815191525b828610610726575050506106dd8260206106ef95820101946106cb565b80546020878701810191909152909501948101610709565b6106ef9750869350602092506106dd94915060ff191682840152151560051b820101946106cb565b5080fd5b50503461076657816003193601126107665760209060ff6008541690519015158152f35b505034610766578160031936011261076657602090600c549051908152f35b50346101d45760203660031901126101d457600d548251631dc82a7560e01b81528235928101839052906001600160a01b03906020908390602490829085165afa91821561084c57916108119161081694936020979261081d575b50163014611977565b6123cf565b9051908152f35b61083e919250873d8111610845575b6108368183611870565b810190611958565b9038610808565b503d61082c565b84513d87823e3d90fd5b50346101d45760203660031901126101d4578160209360ff923581526003855220541690519015158152f35b505034610766578160031936011261076657805190826009546108a481611772565b8085529160019180831690811561073e57506001146108cf575050506106dd826106ef940383611870565b9450600985526000805160206126e18339815191525b828610610902575050506106dd8260206106ef95820101946106cb565b805460208787018101919091529095019481016108e5565b50503461076657816003193601126107665760209060ff60085460101c1690519015158152f35b505034610766578160031936011261076657905490516001600160a01b039091168152602090f35b505034610766578160031936011261076657600e5490516001600160a01b039091168152602090f35b50346101d45760203660031901126101d457356007548110156101d4576007602093527fa66cc928b5edb82af9bd49922954155ab7b0942694bea4ce44661d9a8736c68801549051908152f35b506020908160031936011261068b5780359060ff855460a01c1681811015610b52576001610a0d9114611892565b610a266801bc16d674ec80000061021f600554346118d7565b600d548451631dc82a7560e01b8152828101849052906001600160a01b039081168583602481845afa928315610b48576024938793610a6e928b92610b305750163014611977565b865192838092634f558e7960e01b825287878301525afa908115610b26578691610af9575b5015610ac25750906001918452528120610aae3482546118d7565b9055610abc346005546118d7565b60055580f35b835162461bcd60e51b815290810183905260116024820152701a5908191bd95cc81b9bdd08195e1a5cdd607a1b6044820152606490fd5b610b199150843d8611610b1f575b610b118183611870565b8101906119c3565b38610a93565b503d610b07565b85513d88823e3d90fd5b61083e919250853d8711610845576108368183611870565b87513d8a823e3d90fd5b634e487b7160e01b865260218252602486fd5b5050346107665781600319360112610766576020906005549051908152f35b833461054c578060031936011261054c57610b9d612668565b80546001600160a01b03198116825581906001600160a01b03167f8be0079c531659141344cd1fd0a4f28419497f9722a3daafe3b4186f6b6457e08280a380f35b50913461054c57602036600319011261054c575061081660209235612442565b505034610766578160031936011261076657600d5490516001600160a01b039091168152602090f35b50503461076657816003193601126107665780519082600b54610c4981611772565b8085529160019180831690811561073e5750600114610c74575050506106dd826106ef940383611870565b9450600b85526000805160206127018339815191525b828610610ca7575050506106dd8260206106ef95820101946106cb565b80546020878701810191909152909501948101610c8a565b50346101d457610cce36611708565b93610cdd989698939193612668565b60085460101c60ff1615610d6757505050505092610cfe91929336916119f7565b602081519101208151610d1b81610d14816117ac565b0382611870565b6020815191012003610d325750505b610549611a68565b906020606492519162461bcd60e51b8352820152600f60248201526e0e0eac496caf240dad2e6dac2e8c6d608b1b6044820152fd5b92955092955092610d7796611eac565b610d2a565b82843461054c578060031936011261054c579080519182906007549182855260208095018093600784527fa66cc928b5edb82af9bd49922954155ab7b0942694bea4ce44661d9a8736c68890845b818110610e1b5750505081610de0910382611870565b83519485948186019282875251809352850193925b828110610e0457505050500390f35b835185528695509381019392810192600101610df5565b825484529288019260019283019201610dca565b5090346101d457806003193601126101d4578135602480359360ff865460a01c1681811015610fe3576001610e649114611892565b600d5484516331a9108f60e11b8082528382018690526020949290916001600160a01b0391869082908690829086165afa908115610fd9579082918b91610fbc575b50163303610f8a578589526001855287878a205410610f5157918493918695938a9897895260018552878920610edd8b825461237f565b9055610eeb8a60055461237f565b600555600d54168751968794859384528301525afa928315610f485750610549948493849384938492610f2b575b50505af1610f2561238c565b50611e8f565b610f419250803d10610845576108368183611870565b3880610f19565b513d85823e3d90fd5b865162461bcd60e51b8152808501869052601481850152731b9bdd08195b9bdd59da0819195c1bdcda5d195960621b6044820152606490fd5b865162461bcd60e51b8152808501869052600d818501526c3737ba103a34329037bbb732b960991b6044820152606490fd5b610fd39150873d8911610845576108368183611870565b38610ea6565b88513d8c823e3d90fd5b50634e487b7160e01b86526021905284fd5b5050346107665781600319360112610766576020906006549051908152f35b833461054c578060031936011261054c57610d2a612668565b5082903461076657602092836003193601126101d457600d548151631dc82a7560e01b815283358185018190526024966001600160a01b039593909290839082908a9082908a165afa9081156113c35790611093918891611496575b5086163014611977565b60ff865460a01c168381101561148457600181146114425760644711156113f2576003146113ea5784600f5416828551818101906f636f6e74726163742e6164647265737360801b82526a4672656e734f7261636c6560a81b6030820152601b81526110fe8161183e565b519020898751809481936321f8a72160e01b8352898301525afa9081156113c35786898993869385916113cd575b50885163404df7b160e11b815230898201529485938492165af19081156113c35787916113a6575b50945b611160826123cf565b95828852600284528588206111768882546118d7565b9055611184876006546118d7565b60065581600f541690865185810190731c1c9bdd1bd8dbdb0b9999594b9c195c98d95b9d60621b8252601481526111ba8161183e565b5190209087519163bd02d0f560e01b83528783015285828c81865afa918215610fd9578a92611373575b50811515908161136a575b5061125b575b50509086978392600d989798541694865195869384926331a9108f60e11b84528301525afa928315610f48575061054994849384938493849261123e5750505af1610f2561238c565b6112549250803d10610845576108368183611870565b8880610f19565b8487989293985181810190751c1c9bdd1bd8dbdb0b9999594b9c9958da5c1a595b9d60521b82526016815261128f8161183e565b5190208b8951809681936321f8a72160e01b83528b8301525afa928315611360578993611338575b506112c4826064926123bc565b0491600183116112ed575b50976112e1849392899a99989961237f565b969791928199506111f5565b6000198301908382116113265792899a926113188b8080809d9e6112e1978c9b9a5af1610f2561238c565b929a509293509796976112cf565b634e487b7160e01b8a52601187528a8afd5b6064919350826113576112c492883d8a11610845576108368183611870565b949250506112b7565b87513d8b823e3d90fd5b9050158b6111ef565b9091508581813d831161139f575b61138b8183611870565b8101031261139b5751908b6111e4565b8980fd5b503d611381565b6113bd9150833d8511610b1f57610b118183611870565b88611154565b85513d89823e3d90fd5b6113e49150843d8611610845576108368183611870565b8c61112c565b600194611157565b845162461bcd60e51b81528085018490526025818a01527f6d7573742062652067726561746572207468616e203130302077656920746f20604482015264636c61696d60d81b6064820152608490fd5b845162461bcd60e51b8152808501849052601c818a01527f757365207769746864726177207768656e206e6f74207374616b6564000000006044820152606490fd5b634e487b7160e01b8752602184528787fd5b6114ad9150843d8611610845576108368183611870565b89611089565b505034610766578160031936011261076657600f5490516001600160a01b039091168152602090f35b50346101d45760203660031901126101d45760209282913581526001845220549051908152f35b50346101d45760203660031901126101d45760209282913581526002845220549051908152f35b5090346101d457826003193601126101d45760018060a01b0380600f541660208351818101906f636f6e74726163742e6164647265737360801b82526a4672656e734f7261636c6560a81b6030820152601b81526115878161183e565b51902060248551809481936321f8a72160e01b8352898301525afa90811561162e578591611610575b501633036115cd57825460ff60a01b1916600360a01b1783558280f35b906020606492519162461bcd60e51b8352820152601860248201527f6d7573742062652063616c6c6564206279206f7261636c6500000000000000006044820152fd5b611628915060203d8111610845576108368183611870565b386115b0565b83513d87823e3d90fd5b5050346107665781600319360112610766576106ef90611656612562565b90519182916020835260208301906116b0565b84903461076657816003193601126107665760209060ff60085460081c1615158152f35b60005b8381106116a05750506000910152565b8181015183820152602001611690565b906020916116c98151809281855285808601910161168d565b601f01601f1916010190565b9181601f840112156117035782359167ffffffffffffffff8311611703576020838186019501011161170357565b600080fd5b9060806003198301126117035767ffffffffffffffff6004358181116117035783611735916004016116d5565b939093926024358381116117035782611750916004016116d5565b939093926044359182116117035761176a916004016116d5565b909160643590565b90600182811c921680156117a2575b602083101461178c57565b634e487b7160e01b600052602260045260246000fd5b91607f1691611781565b600954600092916117bc82611772565b8082529160019081811690811561182157506001146117da57505050565b9192935060096000526000805160206126e1833981519152916000925b84841061180957505060209250010190565b805460208585018101919091529093019281016117f7565b915050602093945060ff929192191683830152151560051b010190565b6040810190811067ffffffffffffffff82111761185a57604052565b634e487b7160e01b600052604160045260246000fd5b90601f8019910116810190811067ffffffffffffffff82111761185a57604052565b1561189957565b60405162461bcd60e51b81526020600482015260166024820152756e6f7420616363657074696e67206465706f7369747360501b6044820152606490fd5b919082018092116118e457565b634e487b7160e01b600052601160045260246000fd5b1561190157565b60405162461bcd60e51b815260206004820152602960248201527f746f74616c206465706f736974732063616e6e6f74206265206d6f72652074686044820152680c2dc406664408ae8d60bb1b6064820152608490fd5b9081602091031261170357516001600160a01b03811681036117035790565b1561197e57565b60405162461bcd60e51b815260206004820152601960248201527f77726f6e67207374616b696e6720706f6f6c20666f72206964000000000000006044820152606490fd5b90816020910312611703575180151581036117035790565b67ffffffffffffffff811161185a57601f01601f191660200190565b929192611a03826119db565b91611a116040519384611870565b829481845281830111611703578281602093846000960137010152565b15611a3557565b60405162461bcd60e51b815260206004820152600b60248201526a77726f6e6720737461746560a81b6044820152606490fd5b6801bc16d674ec80000090814710611e59578160055403611e1e57600080549260ff8460a01c169360049485811015611e0b57611aa86001809214611a2e565b60ff60085460101c1615611dd35760018060a01b039384600f54166040958651602095868201937f65787465726e616c2e636f6e74726163742e616464726573730000000000000085526e11195c1bdcda5d10dbdb9d1c9858dd608a1b603984015260288352606083019067ffffffffffffffff9584831087841117611dbf57828c52845190206321f8a72160e01b835260648501528890829060249082905afa928315611db5578693611d80575b505060ff60a01b1916600160a11b178455600c54911695863b1561068b5787516304512a2360e31b815260808b82015294849286929190611b9a608485016117ac565b60031985820381016024870152600a54879492611bb682611772565b918282528d8582169182600014611d61575050600114611d18575b50508584030160448601528592600b5491611beb83611772565b92838352878d8383169283600014611cf757505050600114611cab575b5050508391829160648301520391895af18015611ca157611c58575b5050507f72b356fd889b9abd3530accd2c9f4aecbce67d70757181f9f862ac91464ce19293945082519182523390820152a1565b8211611c8e57507f72b356fd889b9abd3530accd2c9f4aecbce67d70757181f9f862ac91464ce192949550835284933880611c24565b634e487b7160e01b815260418752602490fd5b86513d84823e3d90fd5b918b939450600b88526000805160206127018339815191529288935b828510611cdc57505050010190808480611c08565b80548486018701528b99508c98508d95909401938101611cc7565b60ff19168582015294151560051b9093019093019450839250819050611c08565b8c929550600a89526000805160206126c18339815191529189925b818410611d465750500101923880611bd1565b80548385018601528c9a508d99508e94909301928501611d33565b60ff19168382015292151560051b909101909101945038905080611bd1565b611da592935060609089903d8b11611dad575b611d9d8285611870565b010190611958565b903880611b57565b3d9150611d93565b8a513d88823e3d90fd5b50634e487b7160e01b875260418d52602487fd5b60405162461bcd60e51b815260208188015260116024820152701d985b1a59185d1bdc881b9bdd081cd95d607a1b6044820152606490fd5b634e487b7160e01b845260218652602484fd5b60405162461bcd60e51b81526020600482015260136024820152726e6f7420656e6f756768206465706f7369747360681b6044820152606490fd5b60405162461bcd60e51b815260206004820152600e60248201526d0dcdee840cadcdeeaced040cae8d60931b6044820152606490fd5b15611e9657565b634e487b7160e01b600052600160045260246000fd5b929094939194600160f81b3001908130116118e457604051602092838201908152838252611ed98261183e565b611ee436868b6119f7565b848151910120915190200361233a5760085460ff81166122e0575b5060009260ff845460a01c169760048910156122cc57611f226001809a14611a2e565b67ffffffffffffffff928381116122b85780611f3f600954611772565b98601f998a811161225d575b5087908a83116001146121e75788926121dc575b5050600019600383901b1c1916908a1b176009555b8282116121c8578190611f88600a54611772565b88811161216d575b5085908883116001146121005786926120f5575b5050600019600383901b1c191690881b17600a555b85116120e157611fca600b54611772565b848111612091575b508193851160011461201f575091839491849394612014575b50501b916000199060031b1c191617600b555b600c556201000062ff0000196008541617600855565b013592503880611feb565b600b825260008051602061270183398151915293918591601f19831691905b88838310612077575050501061205d575b505050811b01600b55611ffe565b0135600019600384901b60f8161c1916905538808061204f565b86860135885590960195938401938793509081019061203e565b600b83526000805160206127018339815191528580880160051c8201928489106120d8575b0160051c019087905b8281106120cd575050611fd2565b8481550187906120bf565b925081926120b6565b634e487b7160e01b82526041600452602482fd5b013590503880611fa4565b600a87528a93506000805160206126c183398151915291601f198416885b88828210612157575050841161213d575b505050811b01600a55611fb9565b0135600019600384901b60f8161c1916905538808061212f565b8385013586558e9790950194928301920161211e565b909150600a86526000805160206126c18339815191528880850160051c8201928786106121bf575b918c91869594930160051c01915b8281106121b1575050611f90565b8881558594508c91016121a3565b92508192612195565b634e487b7160e01b85526041600452602485fd5b013590503880611f5f565b600989528c93506000805160206126e183398151915291601f1984168a5b8a82821061223e5750508411612224575b505050811b01600955611f74565b0135600019600384901b60f8161c19169055388080612216565b91929596849587849396013581550195019201908e9594939291612205565b909150600988526000805160206126e18339815191528a80850160051c8201928986106122af575b918e91869594930160051c01915b8281106122a1575050611f4b565b8a81558594508e9101612293565b92508192612285565b634e487b7160e01b86526041600452602486fd5b634e487b7160e01b85526021600452602485fd5b6000549060ff8260a01c1660048110156123245761230e9161230460ff9215611a2e565b60101c1615611e8f565b60ff60a01b1916600160a01b1760005538611eff565b634e487b7160e01b600052602160045260246000fd5b60405162461bcd60e51b815260048101839052601e60248201527f7769746864726177616c2063726564656e7469616c206d69736d6174636800006044820152606490fd5b919082039182116118e457565b3d156123b7573d9061239d826119db565b916123ab6040519384611870565b82523d6000602084013e565b606090565b818102929181159184041417156118e457565b471561243c5760009081526001602052604081205460026020526124056040832054916123ff47600654906118d7565b906123bc565b6005549081156124285704801561242357612420925061237f565b90565b505090565b634e487b7160e01b84526012600452602484fd5b50600090565b600060ff815460a01c1691600483101561254e57600183036124645750905090565b61246d906123cf565b9160018060a01b03600f5416602060405181810190731c1c9bdd1bd8dbdb0b9999594b9c195c98d95b9d60621b8252601481526124a98161183e565b51902060246040518094819363bd02d0f560e01b835260048301525afa92831561254257809361250c575b50508115159081612500575b506124e9575090565b9060646124f982612420946123bc565b049061237f565b600391501415386124e0565b909192506020823d821161253a575b8161252860209383611870565b8101031261054c5750519038806124d4565b3d915061251b565b604051903d90823e3d90fd5b634e487b7160e01b82526021600452602482fd5b60ff60005460a01c16600481101561232457801561262e576002811461260b57600181146125dc576003146125ba5760405161259d8161183e565b600d81526c7374617465206661696c75726560981b602082015290565b6040516125c68161183e565b6006815265195e1a5d195960d21b602082015290565b506040516125e98161183e565b6012815271616363657074696e67206465706f7369747360701b602082015290565b506040516126188161183e565b60068152651cdd185ad95960d21b602082015290565b5060405161263b8161183e565b601781527f6177616974696e672076616c696461746f7220696e666f000000000000000000602082015290565b6000546001600160a01b0316330361267c57565b606460405162461bcd60e51b815260206004820152602060248201527f4f776e61626c653a2063616c6c6572206973206e6f7420746865206f776e65726044820152fdfec65a7bb8d6351c1cf70c95a316cc6a92839c986682d98bc35f958f4883f9d2a86e1540171b6c0c960b71a7020d9f60077f6af931a8bbf590da0223dacf75c7af0175b7a638427703f0dbe7bb9bbf987a2551717b34e79f33b5b1008d1fa01db9a26469706673582212200c7387857b330d1a544edf4a2d51850f06bc6a18edb655f4c8d0e4d02d1e360964736f6c63430008110033",
    "linkReferences": {}
  },
  "methodIdentifiers": {
    "addToDeposit(uint256)": "8620891c",
    "artForPool()": "8ae578fd",
    "claim(uint256)": "379607f5",
    "depositForId(uint256)": "2daad61d",
    "depositToPool()": "f9faa104",
    "deposit_data_root()": "e2d9ae3e",
    "exitPool()": "29917954",
    "frenPastClaim(uint256)": "2cf2cd48",
    "frensPoolShare()": "591167c7",
    "frensStorage()": "30dbf887",
    "getDistributableShare(uint256)": "678e300a",
    "getIdsInThisPool()": "45b58fe4",
    "getShare(uint256)": "cfb5a5f8",
    "getState()": "1865c57d",
    "idsInPool(uint256)": "888e9cf8",
    "locked(uint256)": "b45a3c0e",
    "owner()": "8da5cb5b",
    "pubKey()": "ac2a5dfd",
    "rageQuitInfo(uint256)": "fc03bad2",
    "renounceOwnership()": "715018a6",
    "setArt(address)": "e6b1a3ae",
    "setPubKey(bytes,bytes,bytes,bytes32)": "e920eec0",
    "signature()": "51ff4847",
    "stake()": "3a4b66f1",
    "stake(bytes,bytes,bytes,bytes32)": "4b2b4e36",
    "totalClaims()": "41c61383",
    "totalDeposits()": "7d882097",
    "transferLocked()": "12686aae",
    "transferOwnership(address)": "f2fde38b",
    "validatorLocked()": "e3f05d83",
    "validatorSet()": "9426e226",
    "withdraw(uint256,uint256)": "441a3e70",
    "withdrawal_credentials()": "e4a50276"
  },
  "id": 8
}