{
  "abi": [
    {
      "inputs": [
        {
          "internalType": "address",
          "name": "owner_",
          "type": "address"
        },
        {
          "internalType": "bool",
          "name": "validatorLocked_",
          "type": "bool"
        },
        {
          "internalType": "contract IFrensStorage",
          "name": "frensStorage_",
          "type": "address"
        }
      ],
      "stateMutability": "nonpayable",
      "type": "constructor"
    },
    {
      "anonymous": false,
      "inputs": [
        {
          "indexed": false,
          "internalType": "uint256",
          "name": "id",
          "type": "uint256"
        },
        {
          "indexed": false,
          "internalType": "uint256",
          "name": "ammount",
          "type": "uint256"
        }
      ],
      "name": "AddToDeposit",
      "type": "event"
    },
    {
      "anonymous": false,
      "inputs": [
        {
          "indexed": false,
          "internalType": "uint256",
          "name": "id",
          "type": "uint256"
        },
        {
          "indexed": false,
          "internalType": "uint256",
          "name": "amount",
          "type": "uint256"
        },
        {
          "indexed": false,
          "internalType": "address",
          "name": "recipient",
          "type": "address"
        }
      ],
      "name": "Claim",
      "type": "event"
    },
    {
      "anonymous": false,
      "inputs": [
        {
          "indexed": false,
          "internalType": "uint256",
          "name": "amount",
          "type": "uint256"
        },
        {
          "indexed": false,
          "internalType": "address",
          "name": "depositer",
          "type": "address"
        },
        {
          "indexed": false,
          "internalType": "uint256",
          "name": "id",
          "type": "uint256"
        }
      ],
      "name": "DepositToPool",
      "type": "event"
    },
    {
      "anonymous": false,
      "inputs": [
        {
          "indexed": true,
          "internalType": "address",
          "name": "previousOwner",
          "type": "address"
        },
        {
          "indexed": true,
          "internalType": "address",
          "name": "newOwner",
          "type": "address"
        }
      ],
      "name": "OwnershipTransferred",
      "type": "event"
    },
    {
      "anonymous": false,
      "inputs": [
        {
          "indexed": false,
          "internalType": "bytes",
          "name": "_pubKey",
          "type": "bytes"
        },
        {
          "indexed": false,
          "internalType": "bytes",
          "name": "_withdrawal_credentials",
          "type": "bytes"
        },
        {
          "indexed": false,
          "internalType": "bytes",
          "name": "_signature",
          "type": "bytes"
        },
        {
          "indexed": false,
          "internalType": "bytes32",
          "name": "_deposit_data_root",
          "type": "bytes32"
        }
      ],
      "name": "SetPubKey",
      "type": "event"
    },
    {
      "anonymous": false,
      "inputs": [
        {
          "indexed": false,
          "internalType": "address",
          "name": "depositContractAddress",
          "type": "address"
        },
        {
          "indexed": false,
          "internalType": "address",
          "name": "caller",
          "type": "address"
        }
      ],
      "name": "Stake",
      "type": "event"
    },
    {
      "anonymous": false,
      "inputs": [
        {
          "indexed": false,
          "internalType": "uint256",
          "name": "id",
          "type": "uint256"
        },
        {
          "indexed": false,
          "internalType": "uint256",
          "name": "amount",
          "type": "uint256"
        },
        {
          "indexed": false,
          "internalType": "address",
          "name": "recipient",
          "type": "address"
        }
      ],
      "name": "Withdraw",
      "type": "event"
    },
    {
      "stateMutability": "payable",
      "type": "fallback"
    },
    {
      "inputs": [
        {
          "internalType": "uint256",
          "name": "_id",
          "type": "uint256"
        }
      ],
      "name": "addToDeposit",
      "outputs": [],
      "stateMutability": "payable",
      "type": "function"
    },
    {
      "inputs": [],
      "name": "artForPool",
      "outputs": [
        {
          "internalType": "contract IFrensArt",
          "name": "",
          "type": "address"
        }
      ],
      "stateMutability": "view",
      "type": "function"
    },
    {
      "inputs": [
        {
          "internalType": "bytes",
          "name": "data",
          "type": "bytes"
        }
      ],
      "name": "callSSVNetwork",
      "outputs": [],
      "stateMutability": "nonpayable",
      "type": "function"
    },
    {
      "inputs": [
        {
          "internalType": "uint256",
          "name": "_id",
          "type": "uint256"
        }
      ],
      "name": "claim",
      "outputs": [],
      "stateMutability": "nonpayable",
      "type": "function"
    },
    {
      "inputs": [],
      "name": "currentState",
      "outputs": [
        {
          "internalType": "enum StakingPool.PoolState",
          "name": "",
          "type": "uint8"
        }
      ],
      "stateMutability": "view",
      "type": "function"
    },
    {
      "inputs": [],
      "name": "depositContract",
      "outputs": [
        {
          "internalType": "contract IDepositContract",
          "name": "",
          "type": "address"
        }
      ],
      "stateMutability": "view",
      "type": "function"
    },
    {
      "inputs": [
        {
          "internalType": "uint256",
          "name": "",
          "type": "uint256"
        }
      ],
      "name": "depositForId",
      "outputs": [
        {
          "internalType": "uint256",
          "name": "",
          "type": "uint256"
        }
      ],
      "stateMutability": "view",
      "type": "function"
    },
    {
      "inputs": [],
      "name": "depositToPool",
      "outputs": [],
      "stateMutability": "payable",
      "type": "function"
    },
    {
      "inputs": [],
      "name": "deposit_data_root",
      "outputs": [
        {
          "internalType": "bytes32",
          "name": "",
          "type": "bytes32"
        }
      ],
      "stateMutability": "view",
      "type": "function"
    },
    {
      "inputs": [],
      "name": "feePercent",
      "outputs": [
        {
          "internalType": "uint256",
          "name": "",
          "type": "uint256"
        }
      ],
      "stateMutability": "view",
      "type": "function"
    },
    {
      "inputs": [],
      "name": "feeRecipient",
      "outputs": [
        {
          "internalType": "address",
          "name": "",
          "type": "address"
        }
      ],
      "stateMutability": "view",
      "type": "function"
    },
    {
      "inputs": [
        {
          "internalType": "uint256",
          "name": "",
          "type": "uint256"
        }
      ],
      "name": "frenPastClaim",
      "outputs": [
        {
          "internalType": "uint256",
          "name": "",
          "type": "uint256"
        }
      ],
      "stateMutability": "view",
      "type": "function"
    },
    {
      "inputs": [],
      "name": "frensPoolShare",
      "outputs": [
        {
          "internalType": "contract IFrensPoolShare",
          "name": "",
          "type": "address"
        }
      ],
      "stateMutability": "view",
      "type": "function"
    },
    {
      "inputs": [],
      "name": "frensStorage",
      "outputs": [
        {
          "internalType": "contract IFrensStorage",
          "name": "",
          "type": "address"
        }
      ],
      "stateMutability": "view",
      "type": "function"
    },
    {
      "inputs": [
        {
          "internalType": "uint256",
          "name": "_id",
          "type": "uint256"
        }
      ],
      "name": "getDistributableShare",
      "outputs": [
        {
          "internalType": "uint256",
          "name": "",
          "type": "uint256"
        }
      ],
      "stateMutability": "view",
      "type": "function"
    },
    {
      "inputs": [],
      "name": "getIdsInThisPool",
      "outputs": [
        {
          "internalType": "uint256[]",
          "name": "",
          "type": "uint256[]"
        }
      ],
      "stateMutability": "view",
      "type": "function"
    },
    {
      "inputs": [
        {
          "internalType": "uint256",
          "name": "_id",
          "type": "uint256"
        }
      ],
      "name": "getShare",
      "outputs": [
        {
          "internalType": "uint256",
          "name": "",
          "type": "uint256"
        }
      ],
      "stateMutability": "view",
      "type": "function"
    },
    {
      "inputs": [],
      "name": "getState",
      "outputs": [
        {
          "internalType": "string",
          "name": "",
          "type": "string"
        }
      ],
      "stateMutability": "view",
      "type": "function"
    },
    {
      "inputs": [
        {
          "internalType": "uint256",
          "name": "",
          "type": "uint256"
        }
      ],
      "name": "idsInPool",
      "outputs": [
        {
          "internalType": "uint256",
          "name": "",
          "type": "uint256"
        }
      ],
      "stateMutability": "view",
      "type": "function"
    },
    {
      "inputs": [
        {
          "internalType": "uint256",
          "name": "",
          "type": "uint256"
        }
      ],
      "name": "locked",
      "outputs": [
        {
          "internalType": "bool",
          "name": "",
          "type": "bool"
        }
      ],
      "stateMutability": "view",
      "type": "function"
    },
    {
      "inputs": [],
      "name": "owner",
      "outputs": [
        {
          "internalType": "address",
          "name": "",
          "type": "address"
        }
      ],
      "stateMutability": "view",
      "type": "function"
    },
    {
      "inputs": [],
      "name": "pubKey",
      "outputs": [
        {
          "internalType": "bytes",
          "name": "",
          "type": "bytes"
        }
      ],
      "stateMutability": "view",
      "type": "function"
    },
    {
      "inputs": [
        {
          "internalType": "uint256",
          "name": "",
          "type": "uint256"
        }
      ],
      "name": "rageQuitInfo",
      "outputs": [
        {
          "internalType": "uint256",
          "name": "price",
          "type": "uint256"
        },
        {
          "internalType": "uint256",
          "name": "time",
          "type": "uint256"
        },
        {
          "internalType": "bool",
          "name": "rageQuitting",
          "type": "bool"
        }
      ],
      "stateMutability": "view",
      "type": "function"
    },
    {
      "inputs": [],
      "name": "renounceOwnership",
      "outputs": [],
      "stateMutability": "nonpayable",
      "type": "function"
    },
    {
      "inputs": [
        {
          "internalType": "contract IFrensArt",
          "name": "newArtContract",
          "type": "address"
        }
      ],
      "name": "setArt",
      "outputs": [],
      "stateMutability": "nonpayable",
      "type": "function"
    },
    {
      "inputs": [
        {
          "internalType": "bytes",
          "name": "_pubKey",
          "type": "bytes"
        },
        {
          "internalType": "bytes",
          "name": "_withdrawal_credentials",
          "type": "bytes"
        },
        {
          "internalType": "bytes",
          "name": "_signature",
          "type": "bytes"
        },
        {
          "internalType": "bytes32",
          "name": "_deposit_data_root",
          "type": "bytes32"
        }
      ],
      "name": "setPubKey",
      "outputs": [],
      "stateMutability": "nonpayable",
      "type": "function"
    },
    {
      "inputs": [],
      "name": "signature",
      "outputs": [
        {
          "internalType": "bytes",
          "name": "",
          "type": "bytes"
        }
      ],
      "stateMutability": "view",
      "type": "function"
    },
    {
      "inputs": [],
      "name": "stake",
      "outputs": [],
      "stateMutability": "nonpayable",
      "type": "function"
    },
    {
      "inputs": [
        {
          "internalType": "bytes",
          "name": "_pubKey",
          "type": "bytes"
        },
        {
          "internalType": "bytes",
          "name": "_withdrawal_credentials",
          "type": "bytes"
        },
        {
          "internalType": "bytes",
          "name": "_signature",
          "type": "bytes"
        },
        {
          "internalType": "bytes32",
          "name": "_deposit_data_root",
          "type": "bytes32"
        }
      ],
      "name": "stake",
      "outputs": [],
      "stateMutability": "nonpayable",
      "type": "function"
    },
    {
      "inputs": [],
      "name": "totalClaims",
      "outputs": [
        {
          "internalType": "uint256",
          "name": "",
          "type": "uint256"
        }
      ],
      "stateMutability": "view",
      "type": "function"
    },
    {
      "inputs": [],
      "name": "totalDeposits",
      "outputs": [
        {
          "internalType": "uint256",
          "name": "",
          "type": "uint256"
        }
      ],
      "stateMutability": "view",
      "type": "function"
    },
    {
      "inputs": [],
      "name": "transferLocked",
      "outputs": [
        {
          "internalType": "bool",
          "name": "",
          "type": "bool"
        }
      ],
      "stateMutability": "view",
      "type": "function"
    },
    {
      "inputs": [
        {
          "internalType": "address",
          "name": "newOwner",
          "type": "address"
        }
      ],
      "name": "transferOwnership",
      "outputs": [],
      "stateMutability": "nonpayable",
      "type": "function"
    },
    {
      "inputs": [],
      "name": "validatorLocked",
      "outputs": [
        {
          "internalType": "bool",
          "name": "",
          "type": "bool"
        }
      ],
      "stateMutability": "view",
      "type": "function"
    },
    {
      "inputs": [],
      "name": "validatorSet",
      "outputs": [
        {
          "internalType": "bool",
          "name": "",
          "type": "bool"
        }
      ],
      "stateMutability": "view",
      "type": "function"
    },
    {
      "inputs": [
        {
          "internalType": "uint256",
          "name": "_id",
          "type": "uint256"
        },
        {
          "internalType": "uint256",
          "name": "_amount",
          "type": "uint256"
        }
      ],
      "name": "withdraw",
      "outputs": [],
      "stateMutability": "nonpayable",
      "type": "function"
    },
    {
      "inputs": [],
      "name": "withdrawal_credentials",
      "outputs": [
        {
          "internalType": "bytes",
          "name": "",
          "type": "bytes"
        }
      ],
      "stateMutability": "view",
      "type": "function"
    },
    {
      "stateMutability": "payable",
      "type": "receive"
    }
  ],
  "bytecode": {
    "object": "0x60806040908082523462000445576060816200300a803803809162000025828562000959565b83398101031262000445576200003b816200097d565b6020836200004b82850162000992565b9301516001600160a01b03938482169182900362000445576200006e33620009a0565b84841615620008b55781156200085d5760018060a01b0319948286601154161760115586518481016f636f6e74726163742e6164647265737360801b9182825267119c995b9cd05c9d60c21b603082015260188152620000ce816200090b565b519020928851976321f8a72160e01b92838a52600495868b015260249988818c818b5afa8015620006ea5786916000916200081e575b50168015620007cb578260105416176010558a518881019182526d4672656e73506f6f6c536861726560901b6030820152601e815262000144816200090b565b5190208a51908482528682015287818b818a5afa80156200065f5785916000916200078c575b501681600f541617600f558951958787017f65787465726e616c2e636f6e74726163742e6164647265737300000000000000978882526e11195c1bdcda5d10dbdb9d1c9858dd608a1b603982015260288152620001c7816200093d565b5190208b51908582528782015288818c81855afa8015620006ea5786916000916200074d575b50168015620006f5578260125416176012558a51888101907f70726f746f636f6c2e6665652e70657263656e7400000000000000000000000082526014815262000237816200090b565b5190208b519063bd02d0f560e01b82528782015288818c81855afa8015620006ea57600090620006b6575b600a915080600855116200066a57878b51818101907f70726f746f636f6c2e6665652e726563697069656e7400000000000000000000825260168152620002a9816200090b565b5190208b8d51809481938983528b8301525afa80156200065f57859160009162000620575b50168091600e541617600e5515620005cc5760ff80196009541691151516809117600955600014620005b3576000805460ff60a01b191690555b8160115416908851868101908682526729a9ab2a37b5b2b760c11b60398201526021815262000337816200093d565b5190208951908282528582015286818a81865afa8015620005a857849160009162000569575b50169485156200051057908887928b51848101918252695353564e6574776f726b60b01b60398201526023815262000395816200093d565b519020918b5194859384928352888301525afa9081156200050557600091620004c5575b50169182156200045d5783929160006044928951988995869463095ea7b360e01b86528501528219908401525af1801562000452576200040e575b836200040083620009a0565b516126229081620009e88239f35b82813d83116200044a575b62000425818362000959565b8101031262000445576200043d620004009262000992565b5038620003f4565b600080fd5b503d62000419565b84513d6000823e3d90fd5b865162461bcd60e51b81528083018590526038818801527f4652454e5320636f6e7472616374206572726f72206e6f20535356206e65747760448201527f6f726b20636f6e747261637420616464726573732073657400000000000000006064820152608490fd5b908582813d8311620004fd575b620004de818362000959565b81010312620004fa5750620004f3906200097d565b38620003b9565b80fd5b503d620004d2565b88513d6000823e3d90fd5b895162461bcd60e51b8152808601889052602e818b01527f4652454e5320636f6e7472616374206572726f72206e6f2053535620746f6b6560448201526d1b8818dbdb9d1c9858dd081cd95d60921b6064820152608490fd5b91508782813d8311620005a0575b62000583818362000959565b81010312620004fa57506200059984916200097d565b386200035d565b503d62000577565b8a513d6000823e3d90fd5b6000805460ff60a01b1916600160a01b17905562000308565b885162461bcd60e51b81528085018790526029818a01527f4652454e5320636f6e7472616374206572726f72206e6f2066656520726563696044820152681c1a595b9d081cd95d60ba1b6064820152608490fd5b91508882813d831162000657575b6200063a818362000959565b81010312620004fa57506200065085916200097d565b38620002ce565b503d6200062e565b8b513d6000823e3d90fd5b8a5162461bcd60e51b81528087018990526021818c01527f4652454e5320636f6e7472616374206572726f722066656520746f6f206869676044820152600d60fb1b6064820152608490fd5b8982813d8311620006e2575b620006ce818362000959565b81010312620004fa5750600a905162000262565b503d620006c2565b8c513d6000823e3d90fd5b508a5162461bcd60e51b8152808701899052602c818c01527f4652454e5320636f6e7472616374206572726f72206e6f204465706f7369742060448201526b18dbdb9d1c9858dd081cd95d60a21b6064820152608490fd5b91508982813d831162000784575b62000767818362000959565b81010312620004fa57506200077d86916200097d565b38620001ed565b503d6200075b565b91508882813d8311620007c3575b620007a6818362000959565b81010312620004fa5750620007bc85916200097d565b386200016a565b503d6200079a565b508a5162461bcd60e51b81528087018990526027818c01527f4652454e5320636f6e7472616374206572726f72206e6f206172742061646472604482015266195cdcc81cd95d60ca1b6064820152608490fd5b91508982813d831162000855575b62000838818362000959565b81010312620004fa57506200084e86916200097d565b3862000104565b503d6200082c565b855162461bcd60e51b815260048101849052602b60248201527f4652454e5320636f6e7472616374206572726f72206e6f2073746f726167652060448201526a1859191c995cdcc81cd95d60aa1b6064820152608490fd5b855162461bcd60e51b815260048101849052602960248201527f4652454e5320636f6e7472616374206572726f72206e6f206f776e6572206164604482015268191c995cdcc81cd95d60ba1b6064820152608490fd5b604081019081106001600160401b038211176200092757604052565b634e487b7160e01b600052604160045260246000fd5b606081019081106001600160401b038211176200092757604052565b601f909101601f19168101906001600160401b038211908210176200092757604052565b51906001600160a01b03821682036200044557565b519081151582036200044557565b600080546001600160a01b039283166001600160a01b03198216811783559216907f8be0079c531659141344cd1fd0a4f28419497f9722a3daafe3b4186f6b6457e09080a356fe6080604081815260048036101561001e575b505050361561001c57005b005b600092833560e01c9081630c3f6acf146115f95750806312686aae146115d25780631865c57d146115a15780632cf2cd481461157a5780632daad61d1461155357806330dbf8871461152a578063379607f5146110f95780633a4b66f1146110e057806341c61383146110c1578063441a3e7014610eb657806345b58fe414610e035780634690484014610dda5780634b2b4e3614610d1d57806351ff484714610cf8578063591167c714610ccf578063678e300a14610caf578063715018a614610c55578063735a531314610ad65780637d88209714610ab75780637fd6f15c14610a985780638620891c146108ea578063888e9cf8146108b25780638ae578fd146108895780638da5cb5b146108615780639426e2261461083a578063ac2a5dfd14610815578063b45a3c0e146107e9578063cfb5a5f814610740578063e2d9ae3e14610721578063e3f05d83146106fd578063e4a50276146106bb578063e6b1a3ae1461057b578063e920eec01461054f578063e94ad65b14610522578063f2fde38b14610458578063f9faa104146102045763fc03bad203610011573461020057602036600319011261020057606092818392358252602052209081549160ff60026001830154920154169082519384526020840152151590820152f35b8280fd5b50826003193601126102005734156104215760ff835460a01c168181101561040e5760016102329114611a11565b6102526801bc16d674ec80000061024b60055434611a56565b1115611a79565b600f5482516318160ddd60e01b8152602093909290916001600160a01b0390859085908490829085165afa9384156104045786946103d1575b508386526001855234838720556102a434600554611a56565b600555600754680100000000000000008110156103be57906102ce826001899594016007556119c4565b81549060031b9087821b91600019901b19161790558483526002865260018484205560ff60095460081c16600387528484209060ff801983541691151516179055600f5416803b156102005760248392855194859384926335313c2160e11b845233908401525af180156103b45761037a575b5091606091837fd91527a40417d48f76ba016aaa9157e2ddaca6cb5b660432901659cb075058fc9451923484523390840152820152a180f35b917fd91527a40417d48f76ba016aaa9157e2ddaca6cb5b660432901659cb075058fc9391946103aa606094611909565b9491935091610341565b82513d87823e3d90fd5b634e487b7160e01b875260418352602487fd5b9093508481813d83116103fd575b6103e9818361194f565b810103126103f95751923861028b565b8580fd5b503d6103df565b83513d88823e3d90fd5b634e487b7160e01b845260218252602484fd5b6020606492519162461bcd60e51b8352820152601260248201527136bab9ba103232b837b9b4ba1032ba3432b960711b6044820152fd5b509034610200576020366003190112610200576001600160a01b0382358181169391929084900361051e5761048b612594565b83156104cc57505082546001600160a01b0319811683178455167f8be0079c531659141344cd1fd0a4f28419497f9722a3daafe3b4186f6b6457e08380a380f35b906020608492519162461bcd60e51b8352820152602660248201527f4f776e61626c653a206e6577206f776e657220697320746865207a65726f206160448201526564647265737360d01b6064820152fd5b8480fd5b50503461054b578160031936011261054b5760125490516001600160a01b039091168152602090f35b5080fd5b833461057857610575610561366116b3565b95610570959195949294612594565b611dbc565b80f35b80fd5b5034610200576020806003193601126106b75781356001600160a01b038116939084900361051e576105ab612594565b805163516b636d60e11b81528381018690528581602481885afa9081156106ad578691610630575b5051156105f8575050506bffffffffffffffffffffffff60a01b601054161760105580f35b5162461bcd60e51b81529182015260146024820152731a5b9d985b1a5908185c9d0818dbdb9d1c9858dd60621b604482015260649150fd5b90503d8087833e610641818361194f565b81019083818303126106a95780519067ffffffffffffffff82116106a5570181601f820112156106a957805161067681611971565b926106838551948561194f565b8184528582840101116106a55761069f91858085019101611638565b386105d3565b8780fd5b8680fd5b82513d88823e3d90fd5b8380fd5b50503461054b578160031936011261054b5780516106f9916106e7826106e081611882565b038361194f565b5191829160208352602083019061165b565b0390f35b50503461054b578160031936011261054b5760209060ff6009541690519015158152f35b50503461054b578160031936011261054b57602090600d549051908152f35b503461020057602036600319011261020057600f548251631dc82a7560e01b81528235928101839052906001600160a01b03906020908390602490829085165afa9182156107df57916107a4916107a99493602097926107b0575b50163014611af6565b61239f565b9051908152f35b6107d1919250873d81116107d8575b6107c9818361194f565b810190611ad7565b903861079b565b503d6107bf565b84513d87823e3d90fd5b5034610200576020366003190112610200578160209360ff923581526003855220541690519015158152f35b50503461054b578160031936011261054b5780516106f9916106e7826106e081611757565b50503461054b578160031936011261054b5760209060ff60095460101c1690519015158152f35b50503461054b578160031936011261054b57905490516001600160a01b039091168152602090f35b50503461054b578160031936011261054b5760105490516001600160a01b039091168152602090f35b503461020057602036600319011261020057359160075483101561057857506108dc6020926119c4565b91905490519160031b1c8152f35b509190602092836003193601126102005780359060ff845460a01c1681811015610a8557600161091a9114611a11565b6109336801bc16d674ec80000061024b60055434611a56565b600f548351631dc82a7560e01b81528281018490526001600160a01b03918216918782602481865afa918215610a7b5788926024949261097c928a92610a635750163014611af6565b855192838092634f558e7960e01b825287878301525afa9081156107df578591610a36575b50156109ff57508293817f2e4d11c40e9ddf229c2807835f88a91899498f9e8531757e8489a824b1bdc1199452600181528285206109e0348254611a56565b90556109ee34600554611a56565b60055582519182523490820152a180f35b825162461bcd60e51b815290810185905260116024820152701a5908191bd95cc81b9bdd08195e1a5cdd607a1b6044820152606490fd5b610a569150863d8811610a5c575b610a4e818361194f565b810190611b42565b386109a1565b503d610a44565b6107d1919250853d87116107d8576107c9818361194f565b86513d89823e3d90fd5b634e487b7160e01b855260218252602485fd5b50503461054b578160031936011261054b576020906008549051908152f35b50503461054b578160031936011261054b576020906005549051908152f35b50903461020057602090816003193601126106b75767ffffffffffffffff83358181116103f957366023820112156103f957610b1b903690602481880135910161198d565b90610b24612594565b60115483517f65787465726e616c2e636f6e74726163742e6164647265737300000000000000868201908152695353564e6574776f726b60b01b603983015260238252909260608401926001600160a01b03169190831184841017610c42578260248180948a948d9998978b52875190206321f8a72160e01b835260648801525afa918215610c385790849392918492610c05575b5050828683519301915af1610bcc61235c565b5015610bd6578380f35b5162461bcd60e51b815291820152600b60248201526a10d85b1b0819985a5b195960aa1b604482015260649150fd5b610c29925060609088903d8a11610c30575b610c21828561194f565b010190611ad7565b3880610bb9565b3d9150610c17565b85513d86823e3d90fd5b634e487b7160e01b895260418852602489fd5b8334610578578060031936011261057857610c6e612594565b80546001600160a01b03198116825581906001600160a01b03167f8be0079c531659141344cd1fd0a4f28419497f9722a3daafe3b4186f6b6457e08280a380f35b50913461057857602036600319011261057857506107a960209235612412565b50503461054b578160031936011261054b57600f5490516001600160a01b039091168152602090f35b50503461054b578160031936011261054b5780516106f9916106e7826106e0816117fb565b503461020057610d2c366116b3565b93610d3b989698939193612594565b60095460101c60ff1615610dc557505050505092610d5c919293369161198d565b602081519101208151610d7981610d7281611757565b038261194f565b6020815191012003610d905750505b610575611b94565b906020606492519162461bcd60e51b8352820152600f60248201526e0e0eac496caf240dad2e6dac2e8c6d608b1b6044820152fd5b92955092955092610dd596611dbc565b610d88565b50503461054b578160031936011261054b57600e5490516001600160a01b039091168152602090f35b8284346105785780600319360112610578579080519182906007549182855260208095018093600784527fa66cc928b5edb82af9bd49922954155ab7b0942694bea4ce44661d9a8736c68890845b818110610ea25750505081610e6791038261194f565b83519485948186019282875251809352850193925b828110610e8b57505050500390f35b835185528695509381019392810192600101610e7c565b825484529288019260019283019201610e51565b5034610200578160031936011261020057803590602480359160ff865460a01c16818110156110af576001610eeb9114611a11565b600f5485516331a9108f60e11b8082528382018790526020949290916001600160a01b0391869082908690829086165afa80156110a55782918b91611088575b50163303611056578689526001855285888a20541061101d579286928594928a9693858852600185528a8820610f628a825461234f565b9055610f708960055461234f565b600555600f54168a51958694859384528301525afa9182156110135792808080877f71ef96c43343734b1d843bb85d52ef329f5e9143e4d35827771e3b0dd90c5f849a96610fd596610ff0998492610ff6575b50505af1610fcf61235c565b50611d7e565b51928352602083019190915233604083015281906060820190565b0390a180f35b61100c9250803d106107d8576107c9818361194f565b3880610fc3565b86513d85823e3d90fd5b875162461bcd60e51b8152808501869052601481850152731b9bdd08195b9bdd59da0819195c1bdcda5d195960621b6044820152606490fd5b875162461bcd60e51b8152808501869052600d818501526c3737ba103a34329037bbb732b960991b6044820152606490fd5b61109f9150873d89116107d8576107c9818361194f565b38610f2b565b89513d8c823e3d90fd5b50634e487b7160e01b86526021905284fd5b50503461054b578160031936011261054b576020906006549051908152f35b8334610578578060031936011261057857610d88612594565b5091903461054b5760208060031936011261020057600f548251631dc82a7560e01b8152853581870181905292916024916001600160a01b0391849082908590829086165afa908115610a7b579061115c91889161150d575b5082163014611af6565b60ff865460a01c1696808810156114fb57600188146114b95760644711156114695795969495879560031461146057816011541692848851818101906f636f6e74726163742e6164647265737360801b82526a4672656e734f7261636c6560a81b6030820152601b81526111cf81611933565b519020828a51809781936321f8a72160e01b8352878301525afa938415611456578382899688938891611439575b508b5163404df7b160e11b815230878201529a8b938492165af196871561142f578497611410575b5086806113dd575b6113c7575b61123b8661239f565b9686855260028652888520611251898254611a56565b905561125f88600654611a56565b6006556008549081151590816113be575b50611341575b50600f5488516331a9108f60e11b815292830187905285918391829086165afa938415611337577fd79254e5daba749baa8ba954e77bbbb18efef113a8070d00df9a188d81932426979284928892610ff09761130a575b505091808080936112e49588165af1610fcf61235c565b5192835260208301939093526001600160a01b0390921660408201529081906060820190565b84938493975061132c8493836112e49894903d106107d8576107c9818361194f565b9793509394506112cd565b87513d85823e3d90fd5b87606461135188949a8a9461238c565b04906001821161136e575b906113669161234f565b979150611276565b9250929394505083600e54166000198301908382116113ac578a95949387936113a4888080808e98611366985af1610fcf61235c565b90915061135c565b634e487b7160e01b8b5260118552888bfd5b90501538611270565b835460ff60a01b1916600360a01b178455611232565b5090919260ff905460a01c16828110156113fe57906002899493921461122d565b50634e487b7160e01b88526021825287fd5b611428919750853d8711610a5c57610a4e818361194f565b9538611225565b88513d86823e3d90fd5b6114509150843d86116107d8576107c9818361194f565b386111fd565b88513d89823e3d90fd5b60019592611232565b855162461bcd60e51b81529081018490526025818401527f6d7573742062652067726561746572207468616e203130302077656920746f20604482015264636c61696d60d81b6064820152608490fd5b855162461bcd60e51b8152908101849052601c818401527f757365207769746864726177207768656e206e6f74207374616b6564000000006044820152606490fd5b634e487b7160e01b8752602190528186fd5b6115249150853d87116107d8576107c9818361194f565b38611152565b50503461054b578160031936011261054b5760115490516001600160a01b039091168152602090f35b50346102005760203660031901126102005760209282913581526001845220549051908152f35b50346102005760203660031901126102005760209282913581526002845220549051908152f35b50503461054b578160031936011261054b576106f9906115bf61248e565b905191829160208352602083019061165b565b50503461054b578160031936011261054b5760209060ff60095460081c1690519015158152f35b9050833461057857806003193601126105785760ff815460a01c16908382101561162557602083838152f35b634e487b7160e01b815260218452602490fd5b60005b83811061164b5750506000910152565b818101518382015260200161163b565b9060209161167481518092818552858086019101611638565b601f01601f1916010190565b9181601f840112156116ae5782359167ffffffffffffffff83116116ae57602083818601950101116116ae57565b600080fd5b9060806003198301126116ae5767ffffffffffffffff6004358181116116ae57836116e091600401611680565b939093926024358381116116ae57826116fb91600401611680565b939093926044359182116116ae5761171591600401611680565b909160643590565b90600182811c9216801561174d575b602083101461173757565b634e487b7160e01b600052602260045260246000fd5b91607f169161172c565b600a54600092916117678261171d565b808252916001908181169081156117de575060011461178557505050565b91929350600a6000527fc65a7bb8d6351c1cf70c95a316cc6a92839c986682d98bc35f958f4883f9d2a8916000925b8484106117c657505060209250010190565b805460208585018101919091529093019281016117b4565b915050602093945060ff929192191683830152151560051b010190565b600c546000929161180b8261171d565b808252916001908181169081156117de575060011461182957505050565b91929350600c6000527fdf6966c971051c3d54ec59162606531493a51404a002842f56009d7e5cf4a8c7916000925b84841061186a57505060209250010190565b80546020858501810191909152909301928101611858565b600b54600092916118928261171d565b808252916001908181169081156117de57506001146118b057505050565b91929350600b6000527f0175b7a638427703f0dbe7bb9bbf987a2551717b34e79f33b5b1008d1fa01db9916000925b8484106118f157505060209250010190565b805460208585018101919091529093019281016118df565b67ffffffffffffffff811161191d57604052565b634e487b7160e01b600052604160045260246000fd5b6040810190811067ffffffffffffffff82111761191d57604052565b90601f8019910116810190811067ffffffffffffffff82111761191d57604052565b67ffffffffffffffff811161191d57601f01601f191660200190565b92919261199982611971565b916119a7604051938461194f565b8294818452818301116116ae578281602093846000960137010152565b6007548110156119fb5760076000527fa66cc928b5edb82af9bd49922954155ab7b0942694bea4ce44661d9a8736c6880190600090565b634e487b7160e01b600052603260045260246000fd5b15611a1857565b60405162461bcd60e51b81526020600482015260166024820152756e6f7420616363657074696e67206465706f7369747360501b6044820152606490fd5b91908201809211611a6357565b634e487b7160e01b600052601160045260246000fd5b15611a8057565b60405162461bcd60e51b815260206004820152602960248201527f746f74616c206465706f736974732063616e6e6f74206265206d6f72652074686044820152680c2dc406664408ae8d60bb1b6064820152608490fd5b908160209103126116ae57516001600160a01b03811681036116ae5790565b15611afd57565b60405162461bcd60e51b815260206004820152601960248201527f77726f6e67207374616b696e6720706f6f6c20666f72206964000000000000006044820152606490fd5b908160209103126116ae575180151581036116ae5790565b15611b6157565b60405162461bcd60e51b815260206004820152600b60248201526a77726f6e6720737461746560a81b6044820152606490fd5b6801bc16d674ec800000804710611d48578060055403611d0d57600090815460ff8160a01c166004811015611cf9576001611bcf9114611b5a565b60ff60095460101c1615611cc05760ff60a01b1916600160a11b178255601254600d546001600160a01b0393918416803b156102005790829160405180958180946304512a2360e31b825260806004830152611c55611c3060848401611757565b611c466003199182868203016024870152611882565b908482030160448501526117fb565b90606483015203925af1908115611cb45750916040917f72b356fd889b9abd3530accd2c9f4aecbce67d70757181f9f862ac91464ce19293611ca5575b50601254168151908152336020820152a1565b611cae90611909565b38611c92565b604051903d90823e3d90fd5b60405162461bcd60e51b81526020600482015260116024820152701d985b1a59185d1bdc881b9bdd081cd95d607a1b6044820152606490fd5b634e487b7160e01b84526021600452602484fd5b60405162461bcd60e51b81526020600482015260136024820152726e6f7420656e6f756768206465706f7369747360681b6044820152606490fd5b60405162461bcd60e51b815260206004820152600e60248201526d0dcdee840cadcdeeaced040cae8d60931b6044820152606490fd5b15611d8557565b634e487b7160e01b600052600160045260246000fd5b908060209392818452848401376000828201840152601f01601f1916010190565b949190939695926040519160209283810190600160f81b82526000918260218301523060601b602c830152858252611df382611933565b611dfe36868661198d565b868151910120915190200361230a5760095460ff81166122c8575b5060ff815460a01c169060048210156122b457611e396001809314611b5a565b67ffffffffffffffff908189116120a357611e55600a5461171d565b9189601f93848111612250575b50828482116001146121c45783916121b9575b5060001960038c901b1c19168a851b17600a555b8086116121a557611e9b600b5461171d565b838111612143575b5085828482116001146120c25783916120b7575b50600019600388901b1c191686851b17600b555b87116120a357611edc600c5461171d565b828111612041575b5080918711600114611f97579286807ffd84b86d2e47014cef6e8fc5310d3968b38c5998dd6a57a8b68b350628b8f9f89c9d9794611f81999794611f739793611f8c575b501b906000198760031b1c191617600c555b87600d556201000062ff0000196009541617600955611f666040519a8b9a60808c5260808c0191611d9b565b92898403908a0152611d9b565b918583036040870152611d9b565b9060608301520390a1565b890135925038611f28565b90601f198716600c83527fdf6966c971051c3d54ec59162606531493a51404a002842f56009d7e5cf4a8c7925b81811061202c575092879592611f739592611f81997ffd84b86d2e47014cef6e8fc5310d3968b38c5998dd6a57a8b68b350628b8f9f89e9f999610612012575b505085811b01600c55611f3a565b880135600019600389901b60f8161c191690553880612004565b8d830135845592840192918701918701611fc4565b600c82527fdf6966c971051c3d54ec59162606531493a51404a002842f56009d7e5cf4a8c783808a0160051c820192898b1061209a575b0160051c019084905b82811061208f575050611ee4565b838155018490612081565b92508192612078565b634e487b7160e01b81526041600452602490fd5b905085013538611eb7565b600b84527f0175b7a638427703f0dbe7bb9bbf987a2551717b34e79f33b5b1008d1fa01db9915087601f198116855b8b8983831061212c5750505010612112575b50508386811b01600b55611ecb565b860135600019600389901b60f8161c191690553880612103565b858c0135875590950194938401938b9350016120f1565b600b83527f0175b7a638427703f0dbe7bb9bbf987a2551717b34e79f33b5b1008d1fa01db98480890160051c8201928a8a1061219c575b0160051c019085905b828110612191575050611ea3565b848155018590612183565b9250819261217a565b634e487b7160e01b82526041600452602482fd5b90508b013538611e75565b8c91601f198116600a86527fc65a7bb8d6351c1cf70c95a316cc6a92839c986682d98bc35f958f4883f9d2a8938b8988925b848410612230575050505010612216575b5050838a811b01600a55611e89565b8c013560001960038d901b60f8161c191690553880612207565b8294955095809791929396013581550194019201908d918f898d916121f6565b600a8452847fc65a7bb8d6351c1cf70c95a316cc6a92839c986682d98bc35f958f4883f9d2a8918a82850160051c840194106122ab575b0160051c019085905b8281106122a057508b9150611e62565b848155018590612290565b92508192612287565b634e487b7160e01b81526021600452602490fd5b81549060ff8260a01c166004811015611cf9576122f5916122eb60ff9215611b5a565b60101c1615611d7e565b60ff60a01b1916600160a01b17815538611e19565b60405162461bcd60e51b815260048101859052601e60248201527f7769746864726177616c2063726564656e7469616c206d69736d6174636800006044820152606490fd5b91908203918211611a6357565b3d15612387573d9061236d82611971565b9161237b604051938461194f565b82523d6000602084013e565b606090565b81810292918115918404141715611a6357565b471561240c5760009081526001602052604081205460026020526123d56040832054916123cf4760065490611a56565b9061238c565b6005549081156123f8570480156123f3576123f0925061234f565b90565b505090565b634e487b7160e01b84526012600452602484fd5b50600090565b60ff60005460a01c169060048210156124785760018203612434575050600090565b61243d9061239f565b9060085490811515908161246c575b50612455575090565b906064612465826123f09461238c565b049061234f565b6003915014153861244c565b634e487b7160e01b600052602160045260246000fd5b60ff60005460a01c16600481101561247857801561255a57600281146125375760018114612508576003146124e6576040516124c981611933565b600d81526c7374617465206661696c75726560981b602082015290565b6040516124f281611933565b6006815265195e1a5d195960d21b602082015290565b5060405161251581611933565b6012815271616363657074696e67206465706f7369747360701b602082015290565b5060405161254481611933565b60068152651cdd185ad95960d21b602082015290565b5060405161256781611933565b601781527f6177616974696e672076616c696461746f7220696e666f000000000000000000602082015290565b6000546001600160a01b031633036125a857565b606460405162461bcd60e51b815260206004820152602060248201527f4f776e61626c653a2063616c6c6572206973206e6f7420746865206f776e65726044820152fdfea26469706673582212208bf12640cde857aa9716fd4b8b0e3fbefe372a44670047db52ebe21c9f7ce01a64736f6c63430008140033",
    "linkReferences": {}
  },
  "methodIdentifiers": {
    "addToDeposit(uint256)": "8620891c",
    "artForPool()": "8ae578fd",
    "callSSVNetwork(bytes)": "735a5313",
    "claim(uint256)": "379607f5",
    "currentState()": "0c3f6acf",
    "depositContract()": "e94ad65b",
    "depositForId(uint256)": "2daad61d",
    "depositToPool()": "f9faa104",
    "deposit_data_root()": "e2d9ae3e",
    "feePercent()": "7fd6f15c",
    "feeRecipient()": "46904840",
    "frenPastClaim(uint256)": "2cf2cd48",
    "frensPoolShare()": "591167c7",
    "frensStorage()": "30dbf887",
    "getDistributableShare(uint256)": "678e300a",
    "getIdsInThisPool()": "45b58fe4",
    "getShare(uint256)": "cfb5a5f8",
    "getState()": "1865c57d",
    "idsInPool(uint256)": "888e9cf8",
    "locked(uint256)": "b45a3c0e",
    "owner()": "8da5cb5b",
    "pubKey()": "ac2a5dfd",
    "rageQuitInfo(uint256)": "fc03bad2",
    "renounceOwnership()": "715018a6",
    "setArt(address)": "e6b1a3ae",
    "setPubKey(bytes,bytes,bytes,bytes32)": "e920eec0",
    "signature()": "51ff4847",
    "stake()": "3a4b66f1",
    "stake(bytes,bytes,bytes,bytes32)": "4b2b4e36",
    "totalClaims()": "41c61383",
    "totalDeposits()": "7d882097",
    "transferLocked()": "12686aae",
    "transferOwnership(address)": "f2fde38b",
    "validatorLocked()": "e3f05d83",
    "validatorSet()": "9426e226",
    "withdraw(uint256,uint256)": "441a3e70",
    "withdrawal_credentials()": "e4a50276"
  },
  "id": 8
}