{
  "abi": [
    {
      "inputs": [],
      "stateMutability": "nonpayable",
      "type": "constructor"
    },
    {
      "anonymous": false,
      "inputs": [
        {
          "indexed": false,
          "internalType": "address",
          "name": "oldGuardian",
          "type": "address"
        },
        {
          "indexed": false,
          "internalType": "address",
          "name": "newGuardian",
          "type": "address"
        }
      ],
      "name": "GuardianChanged",
      "type": "event"
    },
    {
      "inputs": [
        {
          "internalType": "bytes32",
          "name": "_key",
          "type": "bytes32"
        },
        {
          "internalType": "uint256",
          "name": "_amount",
          "type": "uint256"
        }
      ],
      "name": "addUint",
      "outputs": [],
      "stateMutability": "nonpayable",
      "type": "function"
    },
    {
      "inputs": [],
      "name": "confirmGuardian",
      "outputs": [],
      "stateMutability": "nonpayable",
      "type": "function"
    },
    {
      "inputs": [
        {
          "internalType": "bytes32",
          "name": "_key",
          "type": "bytes32"
        }
      ],
      "name": "deleteAddress",
      "outputs": [],
      "stateMutability": "nonpayable",
      "type": "function"
    },
    {
      "inputs": [
        {
          "internalType": "bytes32",
          "name": "_key",
          "type": "bytes32"
        }
      ],
      "name": "deleteBool",
      "outputs": [],
      "stateMutability": "nonpayable",
      "type": "function"
    },
    {
      "inputs": [
        {
          "internalType": "bytes32",
          "name": "_key",
          "type": "bytes32"
        }
      ],
      "name": "deleteUint",
      "outputs": [],
      "stateMutability": "nonpayable",
      "type": "function"
    },
    {
      "inputs": [
        {
          "internalType": "bytes32",
          "name": "_key",
          "type": "bytes32"
        }
      ],
      "name": "getAddress",
      "outputs": [
        {
          "internalType": "address",
          "name": "r",
          "type": "address"
        }
      ],
      "stateMutability": "view",
      "type": "function"
    },
    {
      "inputs": [
        {
          "internalType": "bytes32",
          "name": "_key",
          "type": "bytes32"
        }
      ],
      "name": "getBool",
      "outputs": [
        {
          "internalType": "bool",
          "name": "r",
          "type": "bool"
        }
      ],
      "stateMutability": "view",
      "type": "function"
    },
    {
      "inputs": [],
      "name": "getGuardian",
      "outputs": [
        {
          "internalType": "address",
          "name": "",
          "type": "address"
        }
      ],
      "stateMutability": "view",
      "type": "function"
    },
    {
      "inputs": [
        {
          "internalType": "bytes32",
          "name": "_key",
          "type": "bytes32"
        }
      ],
      "name": "getUint",
      "outputs": [
        {
          "internalType": "uint256",
          "name": "r",
          "type": "uint256"
        }
      ],
      "stateMutability": "view",
      "type": "function"
    },
    {
      "inputs": [
        {
          "internalType": "bytes32",
          "name": "_key",
          "type": "bytes32"
        },
        {
          "internalType": "address",
          "name": "_value",
          "type": "address"
        }
      ],
      "name": "setAddress",
      "outputs": [],
      "stateMutability": "nonpayable",
      "type": "function"
    },
    {
      "inputs": [
        {
          "internalType": "bytes32",
          "name": "_key",
          "type": "bytes32"
        },
        {
          "internalType": "bool",
          "name": "_value",
          "type": "bool"
        }
      ],
      "name": "setBool",
      "outputs": [],
      "stateMutability": "nonpayable",
      "type": "function"
    },
    {
      "inputs": [
        {
          "internalType": "address",
          "name": "_newAddress",
          "type": "address"
        }
      ],
      "name": "setGuardian",
      "outputs": [],
      "stateMutability": "nonpayable",
      "type": "function"
    },
    {
      "inputs": [
        {
          "internalType": "bytes32",
          "name": "_key",
          "type": "bytes32"
        },
        {
          "internalType": "uint256",
          "name": "_value",
          "type": "uint256"
        }
      ],
      "name": "setUint",
      "outputs": [],
      "stateMutability": "nonpayable",
      "type": "function"
    },
    {
      "inputs": [
        {
          "internalType": "bytes32",
          "name": "_key",
          "type": "bytes32"
        },
        {
          "internalType": "uint256",
          "name": "_amount",
          "type": "uint256"
        }
      ],
      "name": "subUint",
      "outputs": [],
      "stateMutability": "nonpayable",
      "type": "function"
    }
  ],
  "bytecode": {
    "object": "0x6080806040523461002857600380546001600160a01b03191633179055610559908161002e8239f35b600080fdfe6040608081526004908136101561001557600080fd5b600091823560e01c80630e14a3761461047a5780631e0ea61e146103a357806321f8a721146103715780632c62ff2d146103355780637ae1cfca146103095780638a0dac4a146102c0578063a75b87d214610297578063abfdcced14610244578063adb353dc14610204578063bd02d0f5146101de578063ca446dd914610184578063e2a4853a1461014d57838163e2b202bf14610113575063ebb9d8c9146100bd57600080fd5b3461010f576100cb366104bc565b92906100e260018060a01b036003541633146104d7565b84528360205283209081549283039283116100fc57505580f35b634e487b7160e01b845260119052602483fd5b8280fd5b808484346101495760203660031901126101495761013c60018060a01b036003541633146104d7565b3582528160205281205580f35b5050fd5b5050346101805761015d366104bc565b919061017460018060a01b036003541633146104d7565b83528260205282205580f35b5080fd5b50903461010f578060031936011261010f576024356001600160a01b0381811693918490036101da576101bc906003541633146104d7565b3583526001602052822080546001600160a01b031916909117905580f35b8480fd5b503461010f57602036600319011261010f57602092829135815280845220549051908152f35b503461010f57610213366104bc565b929061022a60018060a01b036003541633146104d7565b84528360205283209081549283018093116100fc57505580f35b50903461010f578060031936011261010f57602435918215158093036102935761027960018060a01b036003541633146104d7565b358352600260205282209060ff8019835416911617905580f35b8380fd5b50503461018057816003193601126101805760035490516001600160a01b039091168152602090f35b8382346101805760203660031901126101805780356001600160a01b0381811691829003610293576102f7906003541633146104d7565b81546001600160a01b03191617905580f35b503461010f57602036600319011261010f578160209360ff923581526002855220541690519015158152f35b503461010f57602036600319011261010f5761035c60018060a01b036003541633146104d7565b35825260026020528120805460ff1916905580f35b503461010f57602036600319011261010f5735825260016020908152918190205490516001600160a01b039091168152f35b5091903461018057816003193601126101805782546001600160a01b03808216903382900361041e577fa14fc14d8620a708a896fd11392a235647d99385500a295f0d7da2a258b2e9679495600354936bffffffffffffffffffffffff60a01b9084828716176003551690558351921682526020820152a180f35b835162461bcd60e51b8152602081880152603060248201527f436f6e6669726d6174696f6e206d75737420636f6d652066726f6d206e65772060448201526f677561726469616e206164647265737360801b6064820152608490fd5b503461010f57602036600319011261010f576104a160018060a01b036003541633146104d7565b3582526001602052812080546001600160a01b031916905580f35b60409060031901126104d2576004359060243590565b600080fd5b156104de57565b60405162461bcd60e51b815260206004820152601960248201527f4163636f756e74206973206e6f74206120677561726469616e000000000000006044820152606490fdfea26469706673582212200806db0e8f084c6e506f27cd040f52c98fc06a654b836f140ac9f27b0a3f826664736f6c63430008110033",
    "linkReferences": {}
  },
  "methodIdentifiers": {
    "addUint(bytes32,uint256)": "adb353dc",
    "confirmGuardian()": "1e0ea61e",
    "deleteAddress(bytes32)": "0e14a376",
    "deleteBool(bytes32)": "2c62ff2d",
    "deleteUint(bytes32)": "e2b202bf",
    "getAddress(bytes32)": "21f8a721",
    "getBool(bytes32)": "7ae1cfca",
    "getGuardian()": "a75b87d2",
    "getUint(bytes32)": "bd02d0f5",
    "setAddress(bytes32,address)": "ca446dd9",
    "setBool(bytes32,bool)": "abfdcced",
    "setGuardian(address)": "8a0dac4a",
    "setUint(bytes32,uint256)": "e2a4853a",
    "subUint(bytes32,uint256)": "ebb9d8c9"
  },
  "id": 6
}