{
  "abi": [
    {
      "inputs": [],
      "name": "arithmeticError",
      "outputs": [
        {
          "internalType": "bytes",
          "name": "",
          "type": "bytes"
        }
      ],
      "stateMutability": "view",
      "type": "function"
    },
    {
      "inputs": [],
      "name": "assertionError",
      "outputs": [
        {
          "internalType": "bytes",
          "name": "",
          "type": "bytes"
        }
      ],
      "stateMutability": "view",
      "type": "function"
    },
    {
      "inputs": [],
      "name": "divisionError",
      "outputs": [
        {
          "internalType": "bytes",
          "name": "",
          "type": "bytes"
        }
      ],
      "stateMutability": "view",
      "type": "function"
    },
    {
      "inputs": [],
      "name": "encodeStorageError",
      "outputs": [
        {
          "internalType": "bytes",
          "name": "",
          "type": "bytes"
        }
      ],
      "stateMutability": "view",
      "type": "function"
    },
    {
      "inputs": [],
      "name": "enumConversionError",
      "outputs": [
        {
          "internalType": "bytes",
          "name": "",
          "type": "bytes"
        }
      ],
      "stateMutability": "view",
      "type": "function"
    },
    {
      "inputs": [],
      "name": "indexOOBError",
      "outputs": [
        {
          "internalType": "bytes",
          "name": "",
          "type": "bytes"
        }
      ],
      "stateMutability": "view",
      "type": "function"
    },
    {
      "inputs": [],
      "name": "lowLevelError",
      "outputs": [
        {
          "internalType": "bytes",
          "name": "",
          "type": "bytes"
        }
      ],
      "stateMutability": "view",
      "type": "function"
    },
    {
      "inputs": [],
      "name": "memOverflowError",
      "outputs": [
        {
          "internalType": "bytes",
          "name": "",
          "type": "bytes"
        }
      ],
      "stateMutability": "view",
      "type": "function"
    },
    {
      "inputs": [],
      "name": "popError",
      "outputs": [
        {
          "internalType": "bytes",
          "name": "",
          "type": "bytes"
        }
      ],
      "stateMutability": "view",
      "type": "function"
    },
    {
      "inputs": [],
      "name": "zeroVarError",
      "outputs": [
        {
          "internalType": "bytes",
          "name": "",
          "type": "bytes"
        }
      ],
      "stateMutability": "view",
      "type": "function"
    }
  ],
  "bytecode": {
    "object": "0x6080806040523461001a576103779081610020823930815050f35b600080fdfe60806040818152600436101561001457600080fd5b600091823560e01c90816305ee86121461028e57508063103329771461025a5780631de45560146102265780638995290f146101f2578063986c5f68146101be578063ac3d92c614610171578063b22dc54d1461013d578063b67689da14610109578063d160e4de146100d55763fa784a441461009057600080fd5b816003193601126100d157806100cd915190634e487b7160e01b602083015260126024830152602482526100c3826102c6565b51918291826102f8565b0390f35b5080fd5b50816003193601126100d157806100cd915190634e487b7160e01b602083015260226024830152602482526100c3826102c6565b50816003193601126100d157806100cd915190634e487b7160e01b602083015260516024830152602482526100c3826102c6565b50816003193601126100d157806100cd915190634e487b7160e01b602083015260316024830152602482526100c3826102c6565b50816003193601126100d1578051906020820182811067ffffffffffffffff8211176101aa57926100cd938252825251918291826102f8565b634e487b7160e01b84526041600452602484fd5b50816003193601126100d157806100cd915190634e487b7160e01b602083015260416024830152602482526100c3826102c6565b50816003193601126100d157806100cd915190634e487b7160e01b602083015260116024830152602482526100c3826102c6565b50816003193601126100d157806100cd915190634e487b7160e01b602083015260216024830152602482526100c3826102c6565b50816003193601126100d157806100cd915190634e487b7160e01b602083015260016024830152602482526100c3826102c6565b919050826003193601126102c2576100cd9250634e487b7160e01b602083015260326024830152602482526100c3826102c6565b8280fd5b6060810190811067ffffffffffffffff8211176102e257604052565b634e487b7160e01b600052604160045260246000fd5b6020808252825181830181905290939260005b82811061032d57505060409293506000838284010152601f8019910116010190565b81810186015184820160400152850161030b56fea264697066735822122095fe7a70168c49a6a317568773c58ed0e9fac8e2aebecf81ac3cfedd145b145264736f6c63430008110033",
    "linkReferences": {}
  },
  "methodIdentifiers": {
    "arithmeticError()": "8995290f",
    "assertionError()": "10332977",
    "divisionError()": "fa784a44",
    "encodeStorageError()": "d160e4de",
    "enumConversionError()": "1de45560",
    "indexOOBError()": "05ee8612",
    "lowLevelError()": "ac3d92c6",
    "memOverflowError()": "986c5f68",
    "popError()": "b22dc54d",
    "zeroVarError()": "b67689da"
  },
  "id": 28
}