{
  "abi": [
    {
      "inputs": [
        {
          "internalType": "contract IFrensStorage",
          "name": "frensStorage_",
          "type": "address"
        }
      ],
      "stateMutability": "nonpayable",
      "type": "constructor"
    },
    {
      "inputs": [
        {
          "internalType": "address",
          "name": "poolAddress",
          "type": "address"
        }
      ],
      "name": "checkValidatorState",
      "outputs": [
        {
          "internalType": "bool",
          "name": "",
          "type": "bool"
        }
      ],
      "stateMutability": "nonpayable",
      "type": "function"
    },
    {
      "inputs": [
        {
          "internalType": "bytes",
          "name": "",
          "type": "bytes"
        }
      ],
      "name": "isExiting",
      "outputs": [
        {
          "internalType": "bool",
          "name": "",
          "type": "bool"
        }
      ],
      "stateMutability": "view",
      "type": "function"
    },
    {
      "inputs": [
        {
          "internalType": "bytes",
          "name": "pubKey",
          "type": "bytes"
        },
        {
          "internalType": "bool",
          "name": "_isExiting",
          "type": "bool"
        }
      ],
      "name": "setExiting",
      "outputs": [],
      "stateMutability": "nonpayable",
      "type": "function"
    }
  ],
  "bytecode": {
    "object": "0x60803461007457601f6104f338819003918201601f19168301916001600160401b038311848410176100795780849260209460405283398101031261007457516001600160a01b0381169081900361007457600180546001600160a01b03191691909117905560405161046390816100908239f35b600080fd5b634e487b7160e01b600052604160045260246000fdfe6080604081815260048036101561001557600080fd5b600092833560e01c908163809bef62146101d457508063d3b150e6146100ab5763d6e65cb91461004457600080fd5b346100a75760203660031901126100a757803567ffffffffffffffff81116100a3576020809461007c60ff9461008f943691016103be565b908286519483868095519384920161040a565b820190815203019020541690519015158152f35b8380fd5b8280fd5b50346100a757816003193601126100a757803567ffffffffffffffff81116100a3576100da90369083016103be565b602435928315158094036101d05760015481516353adc3e960e11b8152602094916001600160a01b039190869082908590829086165afa9081156101c657889161018c575b501633036101585750908261013f9392519382858094519384920161040a565b8101858152030190209060ff8019835416911617905580f35b83606492519162461bcd60e51b8352820152601060248201526f36bab9ba1031329033bab0b93234b0b760811b6044820152fd5b90508581813d83116101bf575b6101a3818361036a565b810103126101bb575181811681036101bb573861011f565b8780fd5b503d610199565b84513d8a823e3d90fd5b8480fd5b9390503461036757602093846003193601126103635782356001600160a01b03811693908490036100a75763ac2a5dfd60e01b825282828281875afa91821561035957908392918794926102da575b5085519460ff83519686818187019961023d81838d61040a565b8101888152030190205416610268575b50509261008f929160ff94865194859384925192839161040a565b8091929394503b156100a3579083809282885180958193630a645e5560e21b83525af180156102d0579087949392911561024d579091935067ffffffffffffffff82116102bd5750845284918061008f61024d565b634e487b7160e01b835260419052602482fd5b86513d86823e3d90fd5b91509192503d8084833e6102ee818361036a565b81019086818303126100a35780519067ffffffffffffffff82116101d0570181601f820112156100a357805190610324826103a2565b926103318851948561036a565b8284528883830101116101d05782916103529189808098979601910161040a565b9038610223565b85513d85823e3d90fd5b5080fd5b80fd5b90601f8019910116810190811067ffffffffffffffff82111761038c57604052565b634e487b7160e01b600052604160045260246000fd5b67ffffffffffffffff811161038c57601f01601f191660200190565b81601f82011215610405578035906103d5826103a2565b926103e3604051948561036a565b8284526020838301011161040557816000926020809301838601378301015290565b600080fd5b60005b83811061041d5750506000910152565b818101518382015260200161040d56fea2646970667358221220b13f982a5836057d5a175600be902f000de28e95d6fc74f36e0940a7b5786d2564736f6c63430008110033",
    "linkReferences": {}
  },
  "methodIdentifiers": {
    "checkValidatorState(address)": "809bef62",
    "isExiting(bytes)": "d6e65cb9",
    "setExiting(bytes,bool)": "d3b150e6"
  },
  "id": 3
}