{
  "abi": [
    {
      "inputs": [
        {
          "internalType": "contract IFrensStorage",
          "name": "frensStorage_",
          "type": "address"
        }
      ],
      "stateMutability": "nonpayable",
      "type": "constructor"
    },
    {
      "inputs": [
        {
          "internalType": "uint256",
          "name": "id",
          "type": "uint256"
        }
      ],
      "name": "renderTokenById",
      "outputs": [
        {
          "internalType": "string",
          "name": "",
          "type": "string"
        }
      ],
      "stateMutability": "view",
      "type": "function"
    }
  ],
  "bytecode": {
    "object": "0x60803461007457601f610acf38819003918201601f19168301916001600160401b038311848410176100795780849260209460405283398101031261007457516001600160a01b0381169081900361007457600080546001600160a01b031916919091179055604051610a3f90816100908239f35b600080fd5b634e487b7160e01b600052604160045260246000fdfe608060408181526004918236101561001657600080fd5b6000803560e01c63a2d6c6da1461002c57600080fd5b346108ff57602093846003193601126108fb5781546f636f6e74726163742e6164647265737360801b8685018181526e233932b739a6b2ba30a432b63832b960891b6030870152601f86526001600160a01b039584359493871693919061009281610925565b519020928751936321f8a72160e01b90818652838601526024948a818781865afa90811561088c5790899189916108de575b50169589518b81019086825265141b519bdb9d60d21b6030820152601681526100ec81610925565b519020918a5192818452858401528b838881875afa9283156108535789936108bf575b508a518c81019087825264576176657360d81b60308201526015815261013481610925565b519020958b5196828852868801528c878981885afa9687156108b5578d929189918c99610896575b508d51848101918252684672656e734c6f676f60b81b60308201526019815261018481610925565b519020918d5196879384928352898301525afa92831561088c57889361085d575b50895163ef21184f60e01b815284810182905295888782818b5afa96871561085357908992918398610837575b508b51809981936324a8b96b60e21b8352888301525afa9586156107ed578895949392918891829861081b575b50838b51809b81936378bf42b960e11b8352165afa9788156107ed5787986107f7575b509086859392828b51809881936305b3806b60e11b8352165afa9485156107ed579087929183966107d1575b5089516354ea17bf60e11b81529384928391165afa9485156107c65792887f3c7465787420666f6e742d73697a653d2231352e352220783d2232303022207997969361076c9693866103829796610796575b50506401022aa24160dd1b908a51998a968488019a651e3232b3399f60d11b8c527f3c6c696e6561724772616469656e742069643d226772616431222078313d223060268a01527f25222079313d223025222078323d2231303025222079323d2231303025223e0060468a01527f3c73746f70206f66667365743d22302522207374796c653d2273746f702d636f60658a01527f6c6f723a233366313965653b73746f702d6f7061636974793a3122202f3e000060858a01527f3c73746f70206f66667365743d223130302522207374796c653d2273746f702d60a38a01527f636f6c6f723a233534646165303b73746f702d6f7061636974793a3122202f3e60c38a0152701e17b634b732b0b923b930b234b2b73a1f60791b60e38a01526103d2815180928860f48d019101610902565b88017f3c72656374206865696768743d22343030222077696474683d2234303022206660f48201527334b6361e913ab9361411b3b930b218949110179f60611b61011482015286519061042e8261012899898b85019101610902565b0161044182518093888a85019101610902565b01948501527f3d223136332220746578742d616e63686f723d226d6964646c652220666f6e746101488501527f2d66616d696c793d2253616e732c417269616c22206c65747465722d737061636101688501527434b7339e911b11103334b6361e913bb434ba32911f60591b6101888501526611115413d4d25560ca1b61019d850152661e17ba32bc3a1f60c91b93846101a48201527f3c7465787420666f6e742d73697a653d2234352220783d223230302220793d226101ab8201527f3231322220746578742d616e63686f723d226d6964646c65222020666f6e742d6101cb8201527f7765696768743d223931302220666f6e742d66616d696c793d2253616e732c416101eb8201527f7269616c22206c65747465722d73706163696e673d222d31222066696c6c3d2261020b820152663bb434ba32911f60c91b61022b82015261059982518093610232968785019101610902565b0191820152816102378201527f3c7465787420666f6e742d73697a653d2231382e372220783d2232303022207961023e8201527f3d223234332220746578742d616e63686f723d226d6964646c652220666f6e7461025e8201527f2d66616d696c793d225065726d616e656e74204d61726b6572222066696c6c3d61027e82015267113bb434ba32911f60c11b61029e8201526f4652454e5320504f4f4c205354414b4560801b6102a6820152816102b68201527f3c7265637420783d2232372220793d2233343522206865696768743d223330226102bd8201527f2077696474683d22333436222066696c6c3d222334353534454122206f7061636102dd8201526a34ba3c9e91171a1110179f60a91b6102fd8201527f3c7465787420666f6e742d73697a653d2231302220783d223230302220793d226103088201527f3336352220746578742d616e63686f723d226d6964646c652220666f6e742d776103288201527f65696768743d22626f6c642220666f6e742d66616d696c793d2253616e732c41610348820152723934b0b611103334b6361e913bb434ba32911f60691b6103688201528251906107588261037b958d8785019101610902565b019182015203610362810185520183610957565b6107888351948593818552519283809286015285850190610902565b601f01601f19168101030190f35b6401022aa24160dd1b929650906107be913d8091833e6107b68183610957565b81019061099d565b9490386102a0565b8751903d90823e3d90fd5b6107e69196503d8085833e6107b68183610957565b943861024e565b89513d89823e3d90fd5b85939291985061081188913d8084833e6107b68183610957565b9891929350610222565b6108309198503d8084833e6107b68183610957565b96386101ff565b61084c9198503d8085833e6107b68183610957565b96386101d2565b8b513d8b823e3d90fd5b61087e9193508b3d8d11610885575b6108768183610957565b810190610979565b91386101a5565b503d61086c565b8a513d8a823e3d90fd5b6108ae919950843d8611610885576108768183610957565b973861015c565b8c513d8c823e3d90fd5b6108d79193508c8d3d10610885576108768183610957565b913861010f565b6108f591508c8d3d10610885576108768183610957565b386100c4565b5080fd5b80fd5b60005b8381106109155750506000910152565b8181015183820152602001610905565b6040810190811067ffffffffffffffff82111761094157604052565b634e487b7160e01b600052604160045260246000fd5b90601f8019910116810190811067ffffffffffffffff82111761094157604052565b9081602091031261099857516001600160a01b03811681036109985790565b600080fd5b60208183031261099857805167ffffffffffffffff9182821161099857019082601f8301121561099857815190811161094157604051926109e8601f8301601f191660200185610957565b8184526020828401011161099857610a069160208085019101610902565b9056fea26469706673582212203fd81d9bb20f7e1abde5dfba47fb59f61ba2ac0b60d2bf0dbf89df0c4d13590364736f6c63430008110033",
    "linkReferences": {}
  },
  "methodIdentifiers": {
    "renderTokenById(uint256)": "a2d6c6da"
  },
  "id": 0
}