{
  "address": "0xA8cE2f4279Dc47325EF8CD0b3fB1d6F50DC7bd96",
  "abi": [
    {
      "inputs": [
        {
          "internalType": "contract IFrensStorage",
          "name": "frensStorage_",
          "type": "address"
        }
      ],
      "stateMutability": "nonpayable",
      "type": "constructor"
    },
    {
      "inputs": [
        {
          "internalType": "uint256",
          "name": "id",
          "type": "uint256"
        }
      ],
      "name": "getDepositStringForId",
      "outputs": [
        {
          "internalType": "string",
          "name": "",
          "type": "string"
        }
      ],
      "stateMutability": "view",
      "type": "function"
    },
    {
      "inputs": [
        {
          "internalType": "address",
          "name": "addr",
          "type": "address"
        }
      ],
      "name": "getEns",
      "outputs": [
        {
          "internalType": "bool",
          "name": "",
          "type": "bool"
        },
        {
          "internalType": "string",
          "name": "",
          "type": "string"
        }
      ],
      "stateMutability": "view",
      "type": "function"
    },
    {
      "inputs": [
        {
          "internalType": "uint256",
          "name": "amountInWei",
          "type": "uint256"
        }
      ],
      "name": "getEthDecimalString",
      "outputs": [
        {
          "internalType": "string",
          "name": "",
          "type": "string"
        }
      ],
      "stateMutability": "pure",
      "type": "function"
    },
    {
      "inputs": [
        {
          "internalType": "uint256",
          "name": "id",
          "type": "uint256"
        }
      ],
      "name": "getPoolString",
      "outputs": [
        {
          "internalType": "string",
          "name": "",
          "type": "string"
        }
      ],
      "stateMutability": "view",
      "type": "function"
    }
  ],
  "transactionHash": "0x5e428915f6b07c4279940e836fd9339d870d337020ad4cdbe3182b93bda44749",
  "args": [
    "0x5ABbB94D1305E1cD73A1f976b54b548fBAE6f401"
  ],
  "solcInputHash": "0094c53acd56707fe5afb6d6a907a1e6",
  "bytecode": "0x60806040908082523461014d5780610c25803803809161001f8285610151565b833960209283918101031261014d57516001600160a01b0380821692909183900361014d57600180546001600160a01b0319908116851790915584516f636f6e74726163742e6164647265737360801b8382019081526d4672656e73506f6f6c536861726560901b6030830152601e825291949092838701929091906001600160401b038411858510176101395760248484938193828c52885190206321f8a72160e01b835260448901525afa92831561012f575f936100f2575b50505016905f5416175f5551610ab090816101758239f35b813d8311610128575b6101058185610151565b81010312610124575190828216820361012157505f80806100da565b80fd5b5080fd5b503d6100fb565b86513d5f823e3d90fd5b634e487b7160e01b5f52604160045260245ffd5b5f80fd5b601f909101601f19168101906001600160401b038211908210176101395760405256fe60806040526004361015610011575f80fd5b5f3560e01c806392a2e5ac14610054578063de1c7f701461004f578063edd148a21461004a5763ef21184f14610045575f80fd5b6101d3565b6101a6565b610162565b346100e157610062366100e5565b6020608060248160018060a01b0394855f541690630178b36760e31b83526084525afa80156100dc576100ac916100a0915f906100b0575b166106de565b6040519182918261013d565b0390f35b5060203d81116100d5575b806100c86100d0926102eb565b608001610335565b61009a565b503d6100bb565b610362565b5f80fd5b60209060031901126100e15760043590565b5f5b8381106101085750505f910152565b81810151838201526020016100f9565b90602091610131815180928185528580860191016100f7565b601f01601f1916010190565b90602061014e928181520190610118565b90565b6001600160a01b038116036100e157565b346100e15760203660031901126100e15761018760043561018281610151565b6107db565b906100ac60405192839215158352604060208401526040830190610118565b346100e1576100ac6101bf6101ba366100e5565b6103b6565b604051918291602083526020830190610118565b346100e1576101e1366100e5565b5f546101fd906001600160a01b03165b6001600160a01b031690565b604051630178b36760e31b8152600481018390526020918290829060249082905afa9283156100dc576102549383925f916102aa575b506040518080968194632daad61d60e01b8352600483019190602083019252565b03916001600160a01b03165afa80156100dc576100ac926100a0925f9261027d575b50506103b6565b61029c9250803d106102a3575b6102948183610313565b81019061036d565b5f80610276565b503d61028a565b6102ca9150833d85116102d0575b6102c28183610313565b81019061034d565b5f610233565b503d6102b8565b634e487b7160e01b5f52604160045260245ffd5b601f80199101166080016080811067ffffffffffffffff82111761030e57604052565b6102d7565b90601f8019910116810190811067ffffffffffffffff82111761030e57604052565b602090607f1901126100e15760805161014e81610151565b908160209103126100e1575161014e81610151565b6040513d5f823e3d90fd5b908160209103126100e1575190565b906103b460216040518094600360fc1b60208301526103a481518092602086860191016100f7565b8101036001810185520183610313565b565b66038d7ea4c68000670de0b6b3a76400006103d2818404610508565b920604906103df82610508565b9160648110610456575b600a1161043e575b602161014e9160405193816104108693518092602080870191016100f7565b8201601760f91b602082015261042f82518093602087850191016100f7565b01036001810184520182610313565b90602161044d61014e9261037c565b929150506103f1565b91610462600a9161037c565b9290506103e9565b67ffffffffffffffff811161030e57601f01601f191660200190565b604051906020820182811067ffffffffffffffff82111761030e576040525f8252565b604051906060820182811067ffffffffffffffff82111761030e57604052602a8252604082602036910137565b906104e08261046a565b6104ed6040519182610313565b82815280926104fe601f199161046a565b0190602036910137565b805f917a184f03e93ff9f4daa797ed6e38ed64bf6a1f0100000000000000008082101561063b575b506d04ee2d6d415b85acef81000000008083101561062c575b50662386f26fc100008083101561061d575b506305f5e1008083101561060e575b50612710808310156105ff575b5060648210156105ef575b600a809210156105e5575b60019081602161059e8287016104d6565b95860101905b6105b0575b5050505090565b5f19019083906f181899199a1a9b1b9c1cb0b131b232b360811b8282061a8353049182156105e0579190826105a4565b6105a9565b916001019161058d565b9190606460029104910191610582565b6004919392049101915f610577565b6008919392049101915f61056a565b6010919392049101915f61055b565b6020919392049101915f610549565b60409350810491505f610530565b634e487b7160e01b5f52603260045260245ffd5b90815181101561066e570160200190565b610649565b801561067f575f190190565b634e487b7160e01b5f52601160045260245ffd5b1561069a57565b606460405162461bcd60e51b815260206004820152602060248201527f537472696e67733a20686578206c656e67746820696e73756666696369656e746044820152fd5b6106e66104a9565b9081511561066e5760306020830153815160019081101561066e5790607860218401536029915b808311610720575061014e915015610693565b90600f811690601082101561066e5761075d916f181899199a1a9b1b9c1cb0b131b232b360811b901a610753858761065d565b5360041c92610673565b919061070d565b908160209103126100e1575180151581036100e15790565b6020818303126100e15780519067ffffffffffffffff82116100e1570181601f820112156100e15780516107af8161046a565b926107bd6040519485610313565b818452602082840101116100e15761014e91602080850191016100f7565b60015490919061087a906107f7906001600160a01b03166101f1565b9260405160209481868093019061085681610848610839856019907f65787465726e616c2e636f6e74726163742e616464726573730000000000000081520190565b62454e5360e81b815260030190565b03601f198101835282610313565b5190209060405180809681946321f8a72160e01b8352600483019190602083019252565b03915afa9182156100dc575f926109be575b506001600160a01b03918216906108a2906109dd565b604051630178b8bf60e01b8152600481018290529092908581602481865afa9081156100dc575f916109a1575b501691821561099257604051631ef3fca760e31b815260048101829052918590839060249082905afa9182156100dc5761092f955f93610961575b50505f9192604051808097819463691f343160e01b8352600483019190602083019252565b03915afa9283156100dc575f9361094557509190565b61014e91933d8091833e6109598183610313565b81019061077c565b5f9350908161098492903d1061098b575b61097c8183610313565b810190610764565b915f61090a565b503d610972565b50505090505f9061014e610486565b6109b89150863d88116102d0576102c28183610313565b5f6108cf565b6109d6919250843d86116102d0576102c28183610313565b905f61088c565b6028805b610a3f57505060285f2060405160208101917f91d1777781884d03a6757a803996e38de2a42967fb37eeaca72729271025a9e283526040820152604081526060810181811067ffffffffffffffff82111761030e5760405251902090565b6f181899199a1a9b1b9c1cb0b131b232b360811b91600f9182821684901a5f19820153600119019283928260041c161a825360081c916109e156fea2646970667358221220f52b74fe5b5d7c950519715a76d646defad7d91f779be3702ecc9a907b4ddd4364736f6c63430008140033",
  "devdoc": {
    "kind": "dev",
    "methods": {
      "getDepositStringForId(uint256)": {
        "returns": {
          "_0": "the deposit for an NFT ID in string format"
        }
      },
      "getEns(address)": {
        "returns": {
          "_0": "does the address have an ENS set?",
          "_1": "string of the ENS for the address"
        }
      },
      "getEthDecimalString(uint256)": {
        "returns": {
          "_0": "an amount in wei formated as Eth with 3 decimal places, as a string"
        }
      },
      "getPoolString(uint256)": {
        "returns": {
          "_0": "string version of pool address for an NFT ID"
        }
      }
    },
    "version": 1
  },
  "userdoc": {
    "kind": "user",
    "methods": {},
    "version": 1
  },
  "storageLayout": {
    "storage": [
      {
        "astId": 3715,
        "contract": "contracts/FrensMetaHelper.sol:FrensMetaHelper",
        "label": "frensPoolShare",
        "offset": 0,
        "slot": "0",
        "type": "t_contract(IFrensPoolShare)6526"
      },
      {
        "astId": 3718,
        "contract": "contracts/FrensMetaHelper.sol:FrensMetaHelper",
        "label": "frensStorage",
        "offset": 0,
        "slot": "1",
        "type": "t_contract(IFrensStorage)6626"
      }
    ],
    "types": {
      "t_contract(IFrensPoolShare)6526": {
        "encoding": "inplace",
        "label": "contract IFrensPoolShare",
        "numberOfBytes": "20"
      },
      "t_contract(IFrensStorage)6626": {
        "encoding": "inplace",
        "label": "contract IFrensStorage",
        "numberOfBytes": "20"
      }
    }
  }
}