{
  "address": "0x33944F95979D857E8F6FE58B93D90E22348dC066",
  "abi": [
    {
      "inputs": [
        {
          "internalType": "contract IFrensStorage",
          "name": "frensStorage_",
          "type": "address"
        }
      ],
      "stateMutability": "nonpayable",
      "type": "constructor"
    },
    {
      "inputs": [
        {
          "internalType": "address",
          "name": "poolAddress",
          "type": "address"
        }
      ],
      "name": "checkValidatorState",
      "outputs": [
        {
          "internalType": "bool",
          "name": "",
          "type": "bool"
        }
      ],
      "stateMutability": "view",
      "type": "function"
    },
    {
      "inputs": [
        {
          "internalType": "bytes",
          "name": "",
          "type": "bytes"
        }
      ],
      "name": "isExiting",
      "outputs": [
        {
          "internalType": "bool",
          "name": "",
          "type": "bool"
        }
      ],
      "stateMutability": "view",
      "type": "function"
    },
    {
      "inputs": [
        {
          "internalType": "bytes",
          "name": "pubKey",
          "type": "bytes"
        },
        {
          "internalType": "bool",
          "name": "_isExiting",
          "type": "bool"
        }
      ],
      "name": "setExiting",
      "outputs": [],
      "stateMutability": "nonpayable",
      "type": "function"
    }
  ],
  "transactionHash": "0x8a0ca058096bd9eb76912be58a87f7dd793281c6adc568e6dac633dae65cd246",
  "args": [
    "0x5ABbB94D1305E1cD73A1f976b54b548fBAE6f401"
  ],
  "solcInputHash": "0094c53acd56707fe5afb6d6a907a1e6",
  "bytecode": "0x60803461007457601f61044b38819003918201601f19168301916001600160401b038311848410176100785780849260209460405283398101031261007457516001600160a01b0381169081900361007457600180546001600160a01b0319169190911790556040516103be908161008d8239f35b5f80fd5b634e487b7160e01b5f52604160045260245ffdfe60806040818152600480361015610014575f80fd5b5f92833560e01c908163809bef62146101d157508063d3b150e6146100a85763d6e65cb914610041575f80fd5b346100a45760203660031901126100a457803567ffffffffffffffff81116100a0576020809461007960ff9461008c9436910161031d565b9082865194838680955193849201610367565b820190815203019020541690519015158152f35b8380fd5b8280fd5b50346100a457816003193601126100a457803567ffffffffffffffff81116100a0576100d7903690830161031d565b602435928315158094036101cd5760015481516353adc3e960e11b8152602094916001600160a01b039190869082908590829086165afa9081156101c3578891610189575b501633036101555750908261013c93925193828580945193849201610367565b8101858152030190209060ff8019835416911617905580f35b83606492519162461bcd60e51b8352820152601060248201526f36bab9ba1031329033bab0b93234b0b760811b6044820152fd5b90508581813d83116101bc575b6101a081836102cb565b810103126101b8575181811681036101b8575f61011c565b8780fd5b503d610196565b84513d8a823e3d90fd5b8480fd5b83858492346102c757602093846003193601126100a45780356001600160a01b038116908190036100a05763ac2a5dfd60e01b83528391839182905afa9081156102bd57908491839161023a575b509061008c9160ff9382865194838680955193849201610367565b9150503d8083833e61024c81836102cb565b81019084818303126100a45780519067ffffffffffffffff82116100a0570181601f820112156100a45780519061028282610301565b9261028f865194856102cb565b8284528683830101116100a05792826102b4879360ff96858061008c98019101610367565b9192509261021f565b83513d84823e3d90fd5b5080fd5b90601f8019910116810190811067ffffffffffffffff8211176102ed57604052565b634e487b7160e01b5f52604160045260245ffd5b67ffffffffffffffff81116102ed57601f01601f191660200190565b81601f820112156103635780359061033482610301565b9261034260405194856102cb565b8284526020838301011161036357815f926020809301838601378301015290565b5f80fd5b5f5b8381106103785750505f910152565b818101518382015260200161036956fea264697066735822122009e4e98487d4c58edc64a360da7c1e624e1b8f14de54947f3717ecafeed502ba64736f6c63430008140033",
  "devdoc": {
    "kind": "dev",
    "methods": {
      "checkValidatorState(address)": {
        "details": "called by the staking pool to check if the validator is exiting"
      },
      "setExiting(bytes,bool)": {
        "details": "allows multisig (guardian) to set a pool as exiting. "
      }
    },
    "version": 1
  },
  "userdoc": {
    "kind": "user",
    "methods": {},
    "version": 1
  },
  "storageLayout": {
    "storage": [
      {
        "astId": 3988,
        "contract": "contracts/FrensOracle.sol:FrensOracle",
        "label": "isExiting",
        "offset": 0,
        "slot": "0",
        "type": "t_mapping(t_bytes_memory_ptr,t_bool)"
      },
      {
        "astId": 3991,
        "contract": "contracts/FrensOracle.sol:FrensOracle",
        "label": "frensStorage",
        "offset": 0,
        "slot": "1",
        "type": "t_contract(IFrensStorage)6626"
      }
    ],
    "types": {
      "t_bool": {
        "encoding": "inplace",
        "label": "bool",
        "numberOfBytes": "1"
      },
      "t_bytes_memory_ptr": {
        "encoding": "bytes",
        "label": "bytes",
        "numberOfBytes": "32"
      },
      "t_contract(IFrensStorage)6626": {
        "encoding": "inplace",
        "label": "contract IFrensStorage",
        "numberOfBytes": "20"
      },
      "t_mapping(t_bytes_memory_ptr,t_bool)": {
        "encoding": "mapping",
        "key": "t_bytes_memory_ptr",
        "label": "mapping(bytes => bool)",
        "numberOfBytes": "32",
        "value": "t_bool"
      }
    }
  }
}