{
  "address": "0x8E8A5207dc6F1b44165420e4C25a1cE101520ab6",
  "abi": [
    {
      "inputs": [
        {
          "internalType": "contract IFrensStorage",
          "name": "frensStorage_",
          "type": "address"
        }
      ],
      "stateMutability": "nonpayable",
      "type": "constructor"
    },
    {
      "anonymous": false,
      "inputs": [
        {
          "indexed": true,
          "internalType": "address",
          "name": "owner",
          "type": "address"
        },
        {
          "indexed": true,
          "internalType": "address",
          "name": "approved",
          "type": "address"
        },
        {
          "indexed": true,
          "internalType": "uint256",
          "name": "tokenId",
          "type": "uint256"
        }
      ],
      "name": "Approval",
      "type": "event"
    },
    {
      "anonymous": false,
      "inputs": [
        {
          "indexed": true,
          "internalType": "address",
          "name": "owner",
          "type": "address"
        },
        {
          "indexed": true,
          "internalType": "address",
          "name": "operator",
          "type": "address"
        },
        {
          "indexed": false,
          "internalType": "bool",
          "name": "approved",
          "type": "bool"
        }
      ],
      "name": "ApprovalForAll",
      "type": "event"
    },
    {
      "anonymous": false,
      "inputs": [
        {
          "indexed": true,
          "internalType": "address",
          "name": "previousOwner",
          "type": "address"
        },
        {
          "indexed": true,
          "internalType": "address",
          "name": "newOwner",
          "type": "address"
        }
      ],
      "name": "OwnershipTransferred",
      "type": "event"
    },
    {
      "anonymous": false,
      "inputs": [
        {
          "indexed": true,
          "internalType": "bytes32",
          "name": "role",
          "type": "bytes32"
        },
        {
          "indexed": true,
          "internalType": "bytes32",
          "name": "previousAdminRole",
          "type": "bytes32"
        },
        {
          "indexed": true,
          "internalType": "bytes32",
          "name": "newAdminRole",
          "type": "bytes32"
        }
      ],
      "name": "RoleAdminChanged",
      "type": "event"
    },
    {
      "anonymous": false,
      "inputs": [
        {
          "indexed": true,
          "internalType": "bytes32",
          "name": "role",
          "type": "bytes32"
        },
        {
          "indexed": true,
          "internalType": "address",
          "name": "account",
          "type": "address"
        },
        {
          "indexed": true,
          "internalType": "address",
          "name": "sender",
          "type": "address"
        }
      ],
      "name": "RoleGranted",
      "type": "event"
    },
    {
      "anonymous": false,
      "inputs": [
        {
          "indexed": true,
          "internalType": "bytes32",
          "name": "role",
          "type": "bytes32"
        },
        {
          "indexed": true,
          "internalType": "address",
          "name": "account",
          "type": "address"
        },
        {
          "indexed": true,
          "internalType": "address",
          "name": "sender",
          "type": "address"
        }
      ],
      "name": "RoleRevoked",
      "type": "event"
    },
    {
      "anonymous": false,
      "inputs": [
        {
          "indexed": true,
          "internalType": "address",
          "name": "from",
          "type": "address"
        },
        {
          "indexed": true,
          "internalType": "address",
          "name": "to",
          "type": "address"
        },
        {
          "indexed": true,
          "internalType": "uint256",
          "name": "tokenId",
          "type": "uint256"
        }
      ],
      "name": "Transfer",
      "type": "event"
    },
    {
      "inputs": [],
      "name": "DEFAULT_ADMIN_ROLE",
      "outputs": [
        {
          "internalType": "bytes32",
          "name": "",
          "type": "bytes32"
        }
      ],
      "stateMutability": "view",
      "type": "function"
    },
    {
      "inputs": [],
      "name": "MINTER_ROLE",
      "outputs": [
        {
          "internalType": "bytes32",
          "name": "",
          "type": "bytes32"
        }
      ],
      "stateMutability": "view",
      "type": "function"
    },
    {
      "inputs": [
        {
          "internalType": "address",
          "name": "to",
          "type": "address"
        },
        {
          "internalType": "uint256",
          "name": "tokenId",
          "type": "uint256"
        }
      ],
      "name": "approve",
      "outputs": [],
      "stateMutability": "nonpayable",
      "type": "function"
    },
    {
      "inputs": [
        {
          "internalType": "address",
          "name": "owner",
          "type": "address"
        }
      ],
      "name": "balanceOf",
      "outputs": [
        {
          "internalType": "uint256",
          "name": "",
          "type": "uint256"
        }
      ],
      "stateMutability": "view",
      "type": "function"
    },
    {
      "inputs": [
        {
          "internalType": "uint256",
          "name": "tokenId",
          "type": "uint256"
        }
      ],
      "name": "burn",
      "outputs": [],
      "stateMutability": "nonpayable",
      "type": "function"
    },
    {
      "inputs": [
        {
          "internalType": "uint256",
          "name": "_id",
          "type": "uint256"
        }
      ],
      "name": "exists",
      "outputs": [
        {
          "internalType": "bool",
          "name": "",
          "type": "bool"
        }
      ],
      "stateMutability": "view",
      "type": "function"
    },
    {
      "inputs": [],
      "name": "frensStorage",
      "outputs": [
        {
          "internalType": "contract IFrensStorage",
          "name": "",
          "type": "address"
        }
      ],
      "stateMutability": "view",
      "type": "function"
    },
    {
      "inputs": [
        {
          "internalType": "uint256",
          "name": "tokenId",
          "type": "uint256"
        }
      ],
      "name": "getApproved",
      "outputs": [
        {
          "internalType": "address",
          "name": "",
          "type": "address"
        }
      ],
      "stateMutability": "view",
      "type": "function"
    },
    {
      "inputs": [
        {
          "internalType": "uint256",
          "name": "_id",
          "type": "uint256"
        }
      ],
      "name": "getPoolById",
      "outputs": [
        {
          "internalType": "address",
          "name": "",
          "type": "address"
        }
      ],
      "stateMutability": "view",
      "type": "function"
    },
    {
      "inputs": [
        {
          "internalType": "bytes32",
          "name": "role",
          "type": "bytes32"
        }
      ],
      "name": "getRoleAdmin",
      "outputs": [
        {
          "internalType": "bytes32",
          "name": "",
          "type": "bytes32"
        }
      ],
      "stateMutability": "view",
      "type": "function"
    },
    {
      "inputs": [
        {
          "internalType": "bytes32",
          "name": "role",
          "type": "bytes32"
        },
        {
          "internalType": "address",
          "name": "account",
          "type": "address"
        }
      ],
      "name": "grantRole",
      "outputs": [],
      "stateMutability": "nonpayable",
      "type": "function"
    },
    {
      "inputs": [
        {
          "internalType": "bytes32",
          "name": "role",
          "type": "bytes32"
        },
        {
          "internalType": "address",
          "name": "account",
          "type": "address"
        }
      ],
      "name": "hasRole",
      "outputs": [
        {
          "internalType": "bool",
          "name": "",
          "type": "bool"
        }
      ],
      "stateMutability": "view",
      "type": "function"
    },
    {
      "inputs": [
        {
          "internalType": "address",
          "name": "owner",
          "type": "address"
        },
        {
          "internalType": "address",
          "name": "operator",
          "type": "address"
        }
      ],
      "name": "isApprovedForAll",
      "outputs": [
        {
          "internalType": "bool",
          "name": "",
          "type": "bool"
        }
      ],
      "stateMutability": "view",
      "type": "function"
    },
    {
      "inputs": [
        {
          "internalType": "address",
          "name": "userAddress",
          "type": "address"
        }
      ],
      "name": "mint",
      "outputs": [],
      "stateMutability": "nonpayable",
      "type": "function"
    },
    {
      "inputs": [],
      "name": "name",
      "outputs": [
        {
          "internalType": "string",
          "name": "",
          "type": "string"
        }
      ],
      "stateMutability": "view",
      "type": "function"
    },
    {
      "inputs": [],
      "name": "owner",
      "outputs": [
        {
          "internalType": "address",
          "name": "",
          "type": "address"
        }
      ],
      "stateMutability": "view",
      "type": "function"
    },
    {
      "inputs": [
        {
          "internalType": "uint256",
          "name": "tokenId",
          "type": "uint256"
        }
      ],
      "name": "ownerOf",
      "outputs": [
        {
          "internalType": "address",
          "name": "",
          "type": "address"
        }
      ],
      "stateMutability": "view",
      "type": "function"
    },
    {
      "inputs": [
        {
          "internalType": "uint256",
          "name": "",
          "type": "uint256"
        }
      ],
      "name": "poolByIds",
      "outputs": [
        {
          "internalType": "address",
          "name": "",
          "type": "address"
        }
      ],
      "stateMutability": "view",
      "type": "function"
    },
    {
      "inputs": [
        {
          "internalType": "uint256",
          "name": "id",
          "type": "uint256"
        }
      ],
      "name": "renderTokenById",
      "outputs": [
        {
          "internalType": "string",
          "name": "",
          "type": "string"
        }
      ],
      "stateMutability": "view",
      "type": "function"
    },
    {
      "inputs": [],
      "name": "renounceOwnership",
      "outputs": [],
      "stateMutability": "nonpayable",
      "type": "function"
    },
    {
      "inputs": [
        {
          "internalType": "bytes32",
          "name": "role",
          "type": "bytes32"
        },
        {
          "internalType": "address",
          "name": "account",
          "type": "address"
        }
      ],
      "name": "renounceRole",
      "outputs": [],
      "stateMutability": "nonpayable",
      "type": "function"
    },
    {
      "inputs": [
        {
          "internalType": "bytes32",
          "name": "role",
          "type": "bytes32"
        },
        {
          "internalType": "address",
          "name": "account",
          "type": "address"
        }
      ],
      "name": "revokeRole",
      "outputs": [],
      "stateMutability": "nonpayable",
      "type": "function"
    },
    {
      "inputs": [
        {
          "internalType": "address",
          "name": "from",
          "type": "address"
        },
        {
          "internalType": "address",
          "name": "to",
          "type": "address"
        },
        {
          "internalType": "uint256",
          "name": "tokenId",
          "type": "uint256"
        }
      ],
      "name": "safeTransferFrom",
      "outputs": [],
      "stateMutability": "nonpayable",
      "type": "function"
    },
    {
      "inputs": [
        {
          "internalType": "address",
          "name": "from",
          "type": "address"
        },
        {
          "internalType": "address",
          "name": "to",
          "type": "address"
        },
        {
          "internalType": "uint256",
          "name": "tokenId",
          "type": "uint256"
        },
        {
          "internalType": "bytes",
          "name": "data",
          "type": "bytes"
        }
      ],
      "name": "safeTransferFrom",
      "outputs": [],
      "stateMutability": "nonpayable",
      "type": "function"
    },
    {
      "inputs": [
        {
          "internalType": "address",
          "name": "operator",
          "type": "address"
        },
        {
          "internalType": "bool",
          "name": "approved",
          "type": "bool"
        }
      ],
      "name": "setApprovalForAll",
      "outputs": [],
      "stateMutability": "nonpayable",
      "type": "function"
    },
    {
      "inputs": [
        {
          "internalType": "bytes4",
          "name": "interfaceId",
          "type": "bytes4"
        }
      ],
      "name": "supportsInterface",
      "outputs": [
        {
          "internalType": "bool",
          "name": "",
          "type": "bool"
        }
      ],
      "stateMutability": "view",
      "type": "function"
    },
    {
      "inputs": [],
      "name": "symbol",
      "outputs": [
        {
          "internalType": "string",
          "name": "",
          "type": "string"
        }
      ],
      "stateMutability": "view",
      "type": "function"
    },
    {
      "inputs": [
        {
          "internalType": "uint256",
          "name": "index",
          "type": "uint256"
        }
      ],
      "name": "tokenByIndex",
      "outputs": [
        {
          "internalType": "uint256",
          "name": "",
          "type": "uint256"
        }
      ],
      "stateMutability": "view",
      "type": "function"
    },
    {
      "inputs": [
        {
          "internalType": "address",
          "name": "owner",
          "type": "address"
        },
        {
          "internalType": "uint256",
          "name": "index",
          "type": "uint256"
        }
      ],
      "name": "tokenOfOwnerByIndex",
      "outputs": [
        {
          "internalType": "uint256",
          "name": "",
          "type": "uint256"
        }
      ],
      "stateMutability": "view",
      "type": "function"
    },
    {
      "inputs": [
        {
          "internalType": "uint256",
          "name": "id",
          "type": "uint256"
        }
      ],
      "name": "tokenURI",
      "outputs": [
        {
          "internalType": "string",
          "name": "",
          "type": "string"
        }
      ],
      "stateMutability": "view",
      "type": "function"
    },
    {
      "inputs": [],
      "name": "totalSupply",
      "outputs": [
        {
          "internalType": "uint256",
          "name": "",
          "type": "uint256"
        }
      ],
      "stateMutability": "view",
      "type": "function"
    },
    {
      "inputs": [
        {
          "internalType": "address",
          "name": "from",
          "type": "address"
        },
        {
          "internalType": "address",
          "name": "to",
          "type": "address"
        },
        {
          "internalType": "uint256",
          "name": "tokenId",
          "type": "uint256"
        }
      ],
      "name": "transferFrom",
      "outputs": [],
      "stateMutability": "nonpayable",
      "type": "function"
    },
    {
      "inputs": [
        {
          "internalType": "address",
          "name": "newOwner",
          "type": "address"
        }
      ],
      "name": "transferOwnership",
      "outputs": [],
      "stateMutability": "nonpayable",
      "type": "function"
    }
  ],
  "transactionHash": "0x94696b4a3b424e3a29d050178626ebab3ad5b1a71e0fbe1a1d5e1887fb380423",
  "args": [
    "0x5ABbB94D1305E1cD73A1f976b54b548fBAE6f401"
  ],
  "solcInputHash": "0094c53acd56707fe5afb6d6a907a1e6",
  "bytecode": "0x6080346200045f576200288290813803601f1991601f91838382011682019460018060401b0391838710838811176200044b57808492604098895283396020938491810103126200045f57516001600160a01b038082169290918390036200045f576200006b62000463565b94600b86526a4652454e5320536861726560a81b858701526200008d62000463565b60058152644652454e5360d81b868201528651978389116200044b575f988954986001998a81811c9116801562000440575b8a8210146200042c57908186849311620003d9575b50899086831160011462000379578c926200036d575b50505f19600383901b1c191690891b1789555b8151938411620003595787548881811c911680156200034e575b888210146200033a579081848695949311620002e3575b5087928411600114620002835750889262000277575b50505f19600383901b1c191690851b1784555b600b8054336001600160a01b03198083168217909355885192939091167f8be0079c531659141344cd1fd0a4f28419497f9722a3daafe3b4186f6b6457e08880a38215620002215750600c541617600c55828052600a8152838320338452815260ff848420541615620001d4575b83516123fe9081620004848239f35b828052600a815283832090338452528282209060ff19825416179055339033907f2f8788117e7eff1d82e926ec794901d17c78024a50270940304540a733656f0d8180a45f8080620001c5565b62461bcd60e51b815260048101849052602b60248201527f4652454e5320636f6e7472616374206572726f72206e6f2073746f726167652060448201526a1859191c995cdcc81cd95d60aa1b6064820152608490fd5b015190505f8062000144565b888a52878a20899590939291168a5b89828210620002cc5750508411620002b3575b505050811b01845562000157565b01515f1960f88460031b161c191690555f8080620002a5565b8385015186558b9790950194938401930162000292565b9091929350888a52878a208480870160051c8201928a881062000330575b9187968c92969594930160051c01915b828110620003215750506200012e565b8c81558796508b910162000311565b9250819262000301565b634e487b7160e01b8a52602260045260248afd5b90607f169062000117565b634e487b7160e01b89526041600452602489fd5b015190505f80620000ea565b908c91858d95168380528c8420935b8d828210620003c25750508411620003a9575b505050811b018955620000fd565b01515f1960f88460031b161c191690555f80806200039b565b8385015186558f9790950194938401930162000388565b9091508b8052898c208680850160051c8201928c861062000422575b918d91869594930160051c01915b82811062000413575050620000d4565b8e81558594508d910162000403565b92508192620003f5565b634e487b7160e01b8c52602260045260248cfd5b90607f1690620000bf565b634e487b7160e01b5f52604160045260245ffd5b5f80fd5b60408051919082016001600160401b038111838210176200044b5760405256fe60806040818152600480361015610014575f80fd5b5f92833560e01c90816301ffc9a7146114e35750806306fdde0314611419578063081812fc146113f9578063095ea7b31461128c5780630bc59b381461123b57806318160ddd1461126d5780631dc82a751461123b57806323b872dd14611216578063248a9ca3146111ec5780632f2ff15d146111405780632f745c591461109457806330dbf8871461106b57806336568abe14610fd957806342842e0e14610fa557806342966c6814610c625780634f558e7914610c255780634f6ccce714610b925780636352211e14610b615780636a6278421461091a57806370a08231146108ed578063715018a6146108905780638da5cb5b1461086757806391d148541461082157806395d89b411461070c578063a217fddf146106f1578063a22cb46514610622578063a2d6c6da1461055b578063b88d4fde146104a8578063c87b56dd1461031f578063d5391393146102e4578063d547741f146102a6578063e985e9c5146102545763f2fde38b1461018b575f80fd5b34610250576020366003190112610250576101a46115c9565b906101ad611a44565b6001600160a01b039182169283156101fe575050600b54826001600160601b0360a01b821617600b55167f8be0079c531659141344cd1fd0a4f28419497f9722a3daafe3b4186f6b6457e08380a380f35b906020608492519162461bcd60e51b8352820152602660248201527f4f776e61626c653a206e6577206f776e657220697320746865207a65726f206160448201526564647265737360d01b6064820152fd5b8280fd5b5050346102a257806003193601126102a25760ff816020936102746115c9565b61027c6115e3565b6001600160a01b0391821683526005875283832091168252855220549151911615158152f35b5080fd5b5090346102505780600319360112610250576102e191356102dc60016102ca6115e3565b93838752600a6020528620015461169c565b6119cf565b80f35b5050346102a257816003193601126102a257602090517f9f2df0fed2c77648de5860a4cc508cd0818c85b8b8a1ab4ceeef8d981c8956a68152f35b50903461025057602091826003193601126104a457600c5482516f636f6e74726163742e6164647265737360801b858201908152754672656e73506f6f6c5368617265546f6b656e55524960501b6030830152602682526001600160a01b0393919260608401919085169067ffffffffffffffff831185841017610491578260248180948b948d9998978c52885190206321f8a72160e01b835260648901525afa928315610487578790859461044c575b5050506024908551948593849263c87b56dd60e01b8452803590840152165afa938415610441578094610417575b505061041390519282849384528301906115a4565b0390f35b61041392945090610439913d8091833e610431818361165e565b810190612369565b92905f6103fe565b8251903d90823e3d90fd5b9080929394503d8311610480575b610464818561165e565b810103126102505751838116810361025057906024865f6103d0565b503d61045a565b86513d86823e3d90fd5b634e487b7160e01b895260418452602489fd5b8380fd5b509034610250576080366003190112610250576104c36115c9565b906104cc6115e3565b604435906064359467ffffffffffffffff8611610557573660238701121561055757850135936105076104fe86611680565b9451948561165e565b8484528636602487890101116105545760208661054f9760246102e19a01838901378601015261053f61053a8433611c57565b611b82565b61054a838383611d1b565b612144565b611c37565b80fd5b8680fd5b50903461025057602091826003193601126104a457838135808252600d85528260018060a01b0386818786205416875196878092638ae578fd60e01b82525afa9485156104875784956105e7575b50906024918651958694859363516b636d60e11b8552840152165afa93841561044157809461041757505061041390519282849384528301906115a4565b9094508681813d831161061b575b6105ff818361165e565b810103126104a457519084821682036104a457909360246105a9565b503d6105f5565b50903461025057806003193601126102505761063c6115c9565b90602435918215158093036106ed576001600160a01b0316923384146106ab5750338452600560205280842083855260205280842060ff1981541660ff8416179055519081527f17307eab39ab6107e8899845ad3d59bd9653f200f220920489ca2b5937696c3160203392a380f35b6020606492519162461bcd60e51b8352820152601960248201527f4552433732313a20617070726f766520746f2063616c6c6572000000000000006044820152fd5b8480fd5b5050346102a257816003193601126102a25751908152602090f35b5091346105545780600319360112610554578151918160019283549384811c91818616958615610817575b6020968785108114610804578899509688969785829a5291825f146107dd575050600114610782575b505050610413929161077391038561165e565b519282849384528301906115a4565b91908693508083527fb10e2d527612073b26eecdfd717e6a320cf44b4afac2b0732d9fcbe2b7fa0cf65b8284106107c55750505082010181610773610413610760565b8054848a0186015288955087949093019281016107ac565b60ff19168782015293151560051b8601909301935084925061077391506104139050610760565b634e487b7160e01b835260228a52602483fd5b92607f1692610737565b50346102505781600319360112610250578160209360ff926108416115e3565b90358252600a86528282206001600160a01b039091168252855220549151911615158152f35b5050346102a257816003193601126102a257600b5490516001600160a01b039091168152602090f35b83346105545780600319360112610554576108a9611a44565b600b80546001600160a01b0319811690915581906001600160a01b03167f8be0079c531659141344cd1fd0a4f28419497f9722a3daafe3b4186f6b6457e08280a380f35b5050346102a25760203660031901126102a25760209061091361090e6115c9565b611a9c565b9051908152f35b508290346102a25760209081600319360112610250576109386115c9565b7f9f2df0fed2c77648de5860a4cc508cd0818c85b8b8a1ab4ceeef8d981c8956a68452600a8352848420338552835260ff858520541615610b1f5760085491828552600d84528585206001600160601b0360a01b9033828254161790558651946109a18661162e565b8686526001600160a01b038416928315610adf575f868152600260205260409020546109d9906001600160a01b031615155b15612223565b6008549086895260098352818a8a2055600160401b821015610acc575091836102e19899600288979694610a3489610a1c89600161054f9f9e9b016008556121c9565b90919082549060031b91821b915f19901b1916179055565b8c83610a3f8a611a9c565b8683526006845281832081845284528183208a905589835260078452912055600d81525f87815260026020526040902054610a84906001600160a01b031615156109d3565b838d5260038152828d2060018154019055868d52528a2091825416179055877fddf252ad1be2c89b69c2b068fc378daa952ba7f163c4a11628f55a4df523b3ef8180a461202c565b634e487b7160e01b895260419052602488fd5b816064928a519262461bcd60e51b845283015260248201527f4552433732313a206d696e7420746f20746865207a65726f20616464726573736044820152fd5b5060649184519162461bcd60e51b8352820152601b60248201527f796f7520617265206e6f7420616c6c6f77656420746f206d696e7400000000006044820152fd5b5091346105545760203660031901126105545750610b8160209235611b5d565b90516001600160a01b039091168152f35b5082346105545760203660031901126105545750803590600854821015610bcd57602083610bbf846121c9565b91905490519160031b1c8152f35b608490602084519162461bcd60e51b8352820152602c60248201527f455243373231456e756d657261626c653a20676c6f62616c20696e646578206f60448201526b7574206f6620626f756e647360a01b6064820152fd5b5091346105545760203660031901126105545750610c59602092355f52600260205260018060a01b0360405f205416151590565b90519015158152f35b508290346102a25760209283600319360112610250578135808452600d85528184205490926001600160a01b0392909183163303610f5757610ca384611b5d565b838116801597918815610ed7575050600854858752600982528083882055600160401b811015610ec45785610a1c826001610ce194016008556121c9565b6008545f199490858101908111610eb15786885260098352610d0684892054916121c9565b90549060031b1c610d1a81610a1c846121c9565b885260098352838820558587528683812055600854978815610e9e5785889998979801610d46816121c9565b8882549160031b1b19169055600855878752600d8352818488205416901580610e97575b610dde575b5090600291610d7d88611b5d565b948888528252838720946001600160601b0360a01b958681541690551694858752600382528387209081540190558686525283209081541690557fddf252ad1be2c89b69c2b068fc378daa952ba7f163c4a11628f55a4df523b3ef8280a480f35b8394959650916024919281945192838092635a2d1e0760e11b82528b8a8301525afa908115610e8d578891610e54575b50610e1f5790869493929188610d6f565b50905162461bcd60e51b815291820152601060248201526f6e6f74207472616e7366657261626c6560801b6044820152606490fd5b90508281813d8311610e86575b610e6b818361165e565b81010312610e8257610e7c9061226f565b88610e0e565b8780fd5b503d610e61565b84513d8a823e3d90fd5b5086610d6a565b634e487b7160e01b885260318552602488fd5b634e487b7160e01b885260118552602488fd5b634e487b7160e01b875260418452602487fd5b610ee090611a9c565b5f19810191908211610eb1578688526007835283882054828103610f20575b50868852878481205587526006825282872090875281528582812055610ce1565b81895260068452848920838a52845284892054828a5260068552858a20828b52855280868b20558952600784528489205589610eff565b5162461bcd60e51b8152908101859052602360248201527f63616e6e6f74206275726e207368617265732066726f6d206f7468657220706f6044820152626f6c7360e81b6064820152608490fd5b5050346102a25761054f6102e191610fbc366115f9565b91925192610fc98461162e565b86845261053f61053a8433611c57565b508290346102a257826003193601126102a257610ff46115e3565b90336001600160a01b0383160361101057906102e191356119cf565b608490602085519162461bcd60e51b8352820152602f60248201527f416363657373436f6e74726f6c3a2063616e206f6e6c792072656e6f756e636560448201526e103937b632b9903337b91039b2b63360891b6064820152fd5b5050346102a257816003193601126102a257600c5490516001600160a01b039091168152602090f35b5091346105545781600319360112610554576110ae6115c9565b602435906110bb81611a9c565b8210156110e9576001600160a01b031682526006602090815283832091835290815290829020548251908152f35b835162461bcd60e51b8152602081870152602b60248201527f455243373231456e756d657261626c653a206f776e657220696e646578206f7560448201526a74206f6620626f756e647360a81b6064820152608490fd5b5034610250578160031936011261025057359061115b6115e3565b90828452600a6020526111736001828620015461169c565b828452600a60209081528185206001600160a01b039093168086529290528084205460ff16156111a1578380f35b828452600a6020528084208285526020528320600160ff1982541617905533917f2f8788117e7eff1d82e926ec794901d17c78024a50270940304540a733656f0d8480a45f80808380f35b50346102505760203660031901126102505781602093600192358152600a85522001549051908152f35b8334610554576102e1611228366115f9565b9161123661053a8433611c57565b611d1b565b503461025057602036600319011261025057358252600d6020908152918190205490516001600160a01b039091168152f35b5050346102a257816003193601126102a2576020906008549051908152f35b50346102505781600319360112610250576112a56115c9565b6024359290916001600160a01b03919082806112c087611b5d565b169416938085146113ac5780331490811561138d575b501561132557848652602052842080546001600160a01b031916831790556112fd83611b5d565b167f8c5be1e5ebec7d5bd14f71427d1e84f3dd0314c0f7b2291e5b200ac8c7c3b9258480a480f35b6020608492519162461bcd60e51b8352820152603d60248201527f4552433732313a20617070726f76652063616c6c6572206973206e6f7420746f60448201527f6b656e206f776e6572206f7220617070726f76656420666f7220616c6c0000006064820152fd5b90508652600560205281862033875260205260ff82872054165f6112d6565b506020608492519162461bcd60e51b8352820152602160248201527f4552433732313a20617070726f76616c20746f2063757272656e74206f776e656044820152603960f91b6064820152fd5b5091346105545760203660031901126105545750610b816020923561227c565b50913461055457806003193601126105545781519181825492600184811c918186169586156114d9575b6020968785108114610804578899509688969785829a5291825f146107dd57505060011461147e57505050610413929161077391038561165e565b91908693508280527f290decd9548b62a8d60345a988386fc84ba6bc95484008f6362f93160ef3e5635b8284106114c15750505082010181610773610413610760565b8054848a0186015288955087949093019281016114a8565b92607f1692611443565b92505034610250576020366003190112610250573563ffffffff60e01b81168091036102505760209250637965db0b60e01b8114908115611526575b5015158152f35b63780e9d6360e01b811491508115611540575b505f61151f565b6380ac58cd60e01b811491508115611572575b8115611561575b505f611539565b6301ffc9a760e01b1490505f61155a565b635b5e139f60e01b81149150611553565b5f5b8381106115945750505f910152565b8181015183820152602001611585565b906020916115bd81518092818552858086019101611583565b601f01601f1916010190565b600435906001600160a01b03821682036115df57565b5f80fd5b602435906001600160a01b03821682036115df57565b60609060031901126115df576001600160a01b039060043582811681036115df579160243590811681036115df579060443590565b6020810190811067ffffffffffffffff82111761164a57604052565b634e487b7160e01b5f52604160045260245ffd5b90601f8019910116810190811067ffffffffffffffff82111761164a57604052565b67ffffffffffffffff811161164a57601f01601f191660200190565b5f90808252602090600a8252604092838120338252835260ff8482205416156116c55750505050565b83519167ffffffffffffffff903360608501838111868210176119bb578752602a855285850191873684378551156119a75760308353855191600192831015611993576078602188015360295b83811161192a57506118e857908751936080850190858210908211176118d4578852604284528684019460603687378451156118c0576030865384518210156118c05790607860218601536041915b818311611853575050506118115761180d9386936117f1936117e26048946117b99a519a8b957f416363657373436f6e74726f6c3a206163636f756e74200000000000000000008c8801525180926037880190611583565b8401917001034b99036b4b9b9b4b733903937b6329607d1b603784015251809386840190611583565b0103602881018752018561165e565b5192839262461bcd60e51b8452600484015260248301906115a4565b0390fd5b60648587519062461bcd60e51b825280600483015260248201527f537472696e67733a20686578206c656e67746820696e73756666696369656e746044820152fd5b909192600f811660108110156118ac576f181899199a1a9b1b9c1cb0b131b232b360811b901a6118838588612212565b5360041c928015611898575f19019190611761565b634e487b7160e01b82526011600452602482fd5b634e487b7160e01b83526032600452602483fd5b634e487b7160e01b81526032600452602490fd5b634e487b7160e01b86526041600452602486fd5b60648789519062461bcd60e51b825280600483015260248201527f537472696e67733a20686578206c656e67746820696e73756666696369656e746044820152fd5b90600f8116601081101561197f576f181899199a1a9b1b9c1cb0b131b232b360811b901a611958838a612212565b5360041c90801561196b575f1901611712565b634e487b7160e01b87526011600452602487fd5b634e487b7160e01b88526032600452602488fd5b634e487b7160e01b86526032600452602486fd5b634e487b7160e01b85526032600452602485fd5b634e487b7160e01b85526041600452602485fd5b905f91808352600a602052604083209160018060a01b03169182845260205260ff6040842054166119ff57505050565b808352600a602052604083208284526020526040832060ff1981541690557ff6391f5c32d9c69d2a47ea670b442974b53935d1edc7fd64eb21e047a839171b339380a4565b600b546001600160a01b03163303611a5857565b606460405162461bcd60e51b815260206004820152602060248201527f4f776e61626c653a2063616c6c6572206973206e6f7420746865206f776e65726044820152fd5b6001600160a01b03168015611aba575f52600360205260405f205490565b60405162461bcd60e51b815260206004820152602960248201527f4552433732313a2061646472657373207a65726f206973206e6f7420612076616044820152683634b21037bbb732b960b91b6064820152608490fd5b15611b1857565b60405162461bcd60e51b815260206004820152601860248201527f4552433732313a20696e76616c696420746f6b656e20494400000000000000006044820152606490fd5b5f908152600260205260409020546001600160a01b0316611b7f811515611b11565b90565b15611b8957565b60405162461bcd60e51b815260206004820152602d60248201527f4552433732313a2063616c6c6572206973206e6f7420746f6b656e206f776e6560448201526c1c881bdc88185c1c1c9bdd9959609a1b6064820152608490fd5b60809060208152603260208201527f4552433732313a207472616e7366657220746f206e6f6e20455243373231526560408201527131b2b4bb32b91034b6b83632b6b2b73a32b960711b60608201520190565b15611c3e57565b60405162461bcd60e51b81528061180d60048201611be4565b906001600160a01b038080611c6b84611b5d565b16931691838314938415611c9e575b508315611c88575b50505090565b611c949192935061227c565b16145f8080611c82565b9093505f52600560205260405f20825f5260205260ff60405f205416925f611c7a565b15611cc857565b60405162461bcd60e51b815260206004820152602560248201527f4552433732313a207472616e736665722066726f6d20696e636f72726563742060448201526437bbb732b960d91b6064820152608490fd5b611d3f91611d2884611b5d565b6001600160a01b0393848416939185168414611cc1565b838216938415611fdb5783801592835f14611f2c57505060085492865f5260096020528360405f2055600160401b84101561164a57611d8987610a1c8660018998016008556121c9565b838603611efa575b50845f92878452602092600d8452604091818387205416901580611ef2575b611e3a575b507fddf252ad1be2c89b69c2b068fc378daa952ba7f163c4a11628f55a4df523b3ef95611dec91611de58b611b5d565b1614611cc1565b878452600483526002818520936001600160601b0360a01b94858154169055878652600381528286205f198154019055838652828620600181540190558986525283209182541617905580a4565b8495965082602493959294505192838092635a2d1e0760e11b82528c60048301525afa908115611ee8578591611eb3575b50611e7c578493929186915f611db5565b815162461bcd60e51b815260048101849052601060248201526f6e6f74207472616e7366657261626c6560801b6044820152606490fd5b90508381813d8311611ee1575b611eca818361165e565b810103126106ed57611edb9061226f565b5f611e6b565b503d611ec0565b83513d87823e3d90fd5b506001611db0565b611f0390611a9c565b60405f87815260066020528181208382526020528882822055888152600760205220555f611d91565b8682959203611f3c575b50611d89565b611f47919450611a9c565b5f19810193908411611fc75784935f908882526020906007825260409182842054828103611f90575b508a8452838381205587845260068152828420918452528120555f611f36565b888552600682528385208386528252838520548986526006835284862082875283528085872055855260078252838520555f611f70565b634e487b7160e01b5f52601160045260245ffd5b60405162461bcd60e51b8152602060048201526024808201527f4552433732313a207472616e7366657220746f20746865207a65726f206164646044820152637265737360e01b6064820152608490fd5b91929091803b1561213b57612078936040519081630a85bd0160e11b938482523360048301525f9687602484015260448301526080606483015281878160209a8b9660848301906115a4565b03926001600160a01b03165af18491816120fb575b506120ea575050503d5f146120e2573d6120a681611680565b906120b4604051928361165e565b81528091833d92013e5b805191826120df5760405162461bcd60e51b81528061180d60048201611be4565b01fd5b5060606120be565b6001600160e01b0319161492509050565b9091508581813d8311612134575b612113818361165e565b810103126106ed57516001600160e01b0319811681036106ed57905f61208d565b503d612109565b50915050600190565b92939190803b156121bf57612196946040518092630a85bd0160e11b9485835233600484015260018060a01b03809816602484015260448301526080606483015281806020998a9560848301906115a4565b03915f988991165af18491816120fb57506120ea575050503d5f146120e2573d6120a681611680565b5050915050600190565b6008548110156121fe5760085f527ff3f7a9fe364faab93b216da50a3214154f22a0a2b415b23a84c8169e8b636ee301905f90565b634e487b7160e01b5f52603260045260245ffd5b9081518110156121fe570160200190565b1561222a57565b60405162461bcd60e51b815260206004820152601c60248201527f4552433732313a20746f6b656e20616c7265616479206d696e746564000000006044820152606490fd5b519081151582036115df57565b5f8181526002602052604090205461229e906001600160a01b03161515611b11565b5f818152600d60205260018060a01b03908160408220541692604051637e01dd6960e11b8152816004820152606081602481885afa90811561235e578391612322575b50156122ed5750505090565b5f81815260026020526040908190205493945092612315906001600160a01b03161515611b11565b8152600460205220541690565b90506060813d8211612356575b8161233c6060938361165e565b81010312610250576040612350910161226f565b5f6122e1565b3d915061232f565b6040513d85823e3d90fd5b6020818303126115df5780519067ffffffffffffffff82116115df570181601f820112156115df57805161239c81611680565b926123aa604051948561165e565b818452602082840101116115df57611b7f916020808501910161158356fea26469706673582212200617a4a4e0402496b282f0b43791e98fdc8c46f462ca242fe9247e7dd690e99e64736f6c63430008140033",
  "devdoc": {
    "events": {
      "Approval(address,address,uint256)": {
        "details": "Emitted when `owner` enables `approved` to manage the `tokenId` token."
      },
      "ApprovalForAll(address,address,bool)": {
        "details": "Emitted when `owner` enables or disables (`approved`) `operator` to manage all of its assets."
      },
      "RoleAdminChanged(bytes32,bytes32,bytes32)": {
        "details": "Emitted when `newAdminRole` is set as ``role``'s admin role, replacing `previousAdminRole` `DEFAULT_ADMIN_ROLE` is the starting admin for all roles, despite {RoleAdminChanged} not being emitted signaling this. _Available since v3.1._"
      },
      "RoleGranted(bytes32,address,address)": {
        "details": "Emitted when `account` is granted `role`. `sender` is the account that originated the contract call, an admin role bearer except when using {AccessControl-_setupRole}."
      },
      "RoleRevoked(bytes32,address,address)": {
        "details": "Emitted when `account` is revoked `role`. `sender` is the account that originated the contract call:   - if using `revokeRole`, it is the admin role bearer   - if using `renounceRole`, it is the role bearer (i.e. `account`)"
      },
      "Transfer(address,address,uint256)": {
        "details": "Emitted when `tokenId` token is transferred from `from` to `to`."
      }
    },
    "kind": "dev",
    "methods": {
      "approve(address,uint256)": {
        "details": "See {IERC721-approve}."
      },
      "balanceOf(address)": {
        "details": "See {IERC721-balanceOf}."
      },
      "constructor": {
        "details": "sets the storage contract and the token name/symbol"
      },
      "getApproved(uint256)": {
        "details": "stakingPool is allowed during rageQuit, so the user cannot block the sale of the NFT by changing the allow"
      },
      "getRoleAdmin(bytes32)": {
        "details": "Returns the admin role that controls `role`. See {grantRole} and {revokeRole}. To change a role's admin, use {_setRoleAdmin}."
      },
      "grantRole(bytes32,address)": {
        "details": "Grants `role` to `account`. If `account` had not been already granted `role`, emits a {RoleGranted} event. Requirements: - the caller must have ``role``'s admin role. May emit a {RoleGranted} event."
      },
      "hasRole(bytes32,address)": {
        "details": "Returns `true` if `account` has been granted `role`."
      },
      "isApprovedForAll(address,address)": {
        "details": "See {IERC721-isApprovedForAll}."
      },
      "mint(address)": {
        "details": "callable by the staking pools only"
      },
      "name()": {
        "details": "See {IERC721Metadata-name}."
      },
      "owner()": {
        "details": "Returns the address of the current owner."
      },
      "ownerOf(uint256)": {
        "details": "See {IERC721-ownerOf}."
      },
      "renounceOwnership()": {
        "details": "Leaves the contract without owner. It will not be possible to call `onlyOwner` functions anymore. Can only be called by the current owner. NOTE: Renouncing ownership will leave the contract without an owner, thereby removing any functionality that is only available to the owner."
      },
      "renounceRole(bytes32,address)": {
        "details": "Revokes `role` from the calling account. Roles are often managed via {grantRole} and {revokeRole}: this function's purpose is to provide a mechanism for accounts to lose their privileges if they are compromised (such as when a trusted device is misplaced). If the calling account had been revoked `role`, emits a {RoleRevoked} event. Requirements: - the caller must be `account`. May emit a {RoleRevoked} event."
      },
      "revokeRole(bytes32,address)": {
        "details": "Revokes `role` from `account`. If `account` had been granted `role`, emits a {RoleRevoked} event. Requirements: - the caller must have ``role``'s admin role. May emit a {RoleRevoked} event."
      },
      "safeTransferFrom(address,address,uint256)": {
        "details": "See {IERC721-safeTransferFrom}."
      },
      "safeTransferFrom(address,address,uint256,bytes)": {
        "details": "See {IERC721-safeTransferFrom}."
      },
      "setApprovalForAll(address,bool)": {
        "details": "See {IERC721-setApprovalForAll}."
      },
      "symbol()": {
        "details": "See {IERC721Metadata-symbol}."
      },
      "tokenByIndex(uint256)": {
        "details": "See {IERC721Enumerable-tokenByIndex}."
      },
      "tokenOfOwnerByIndex(address,uint256)": {
        "details": "See {IERC721Enumerable-tokenOfOwnerByIndex}."
      },
      "totalSupply()": {
        "details": "See {IERC721Enumerable-totalSupply}."
      },
      "transferFrom(address,address,uint256)": {
        "details": "See {IERC721-transferFrom}."
      },
      "transferOwnership(address)": {
        "details": "Transfers ownership of the contract to a new account (`newOwner`). Can only be called by the current owner."
      }
    },
    "version": 1
  },
  "userdoc": {
    "kind": "user",
    "methods": {},
    "version": 1
  },
  "storageLayout": {
    "storage": [
      {
        "astId": 530,
        "contract": "contracts/FrensPoolShare.sol:FrensPoolShare",
        "label": "_name",
        "offset": 0,
        "slot": "0",
        "type": "t_string_storage"
      },
      {
        "astId": 532,
        "contract": "contracts/FrensPoolShare.sol:FrensPoolShare",
        "label": "_symbol",
        "offset": 0,
        "slot": "1",
        "type": "t_string_storage"
      },
      {
        "astId": 536,
        "contract": "contracts/FrensPoolShare.sol:FrensPoolShare",
        "label": "_owners",
        "offset": 0,
        "slot": "2",
        "type": "t_mapping(t_uint256,t_address)"
      },
      {
        "astId": 540,
        "contract": "contracts/FrensPoolShare.sol:FrensPoolShare",
        "label": "_balances",
        "offset": 0,
        "slot": "3",
        "type": "t_mapping(t_address,t_uint256)"
      },
      {
        "astId": 544,
        "contract": "contracts/FrensPoolShare.sol:FrensPoolShare",
        "label": "_tokenApprovals",
        "offset": 0,
        "slot": "4",
        "type": "t_mapping(t_uint256,t_address)"
      },
      {
        "astId": 550,
        "contract": "contracts/FrensPoolShare.sol:FrensPoolShare",
        "label": "_operatorApprovals",
        "offset": 0,
        "slot": "5",
        "type": "t_mapping(t_address,t_mapping(t_address,t_bool))"
      },
      {
        "astId": 1598,
        "contract": "contracts/FrensPoolShare.sol:FrensPoolShare",
        "label": "_ownedTokens",
        "offset": 0,
        "slot": "6",
        "type": "t_mapping(t_address,t_mapping(t_uint256,t_uint256))"
      },
      {
        "astId": 1602,
        "contract": "contracts/FrensPoolShare.sol:FrensPoolShare",
        "label": "_ownedTokensIndex",
        "offset": 0,
        "slot": "7",
        "type": "t_mapping(t_uint256,t_uint256)"
      },
      {
        "astId": 1605,
        "contract": "contracts/FrensPoolShare.sol:FrensPoolShare",
        "label": "_allTokens",
        "offset": 0,
        "slot": "8",
        "type": "t_array(t_uint256)dyn_storage"
      },
      {
        "astId": 1609,
        "contract": "contracts/FrensPoolShare.sol:FrensPoolShare",
        "label": "_allTokensIndex",
        "offset": 0,
        "slot": "9",
        "type": "t_mapping(t_uint256,t_uint256)"
      },
      {
        "astId": 24,
        "contract": "contracts/FrensPoolShare.sol:FrensPoolShare",
        "label": "_roles",
        "offset": 0,
        "slot": "10",
        "type": "t_mapping(t_bytes32,t_struct(RoleData)19_storage)"
      },
      {
        "astId": 396,
        "contract": "contracts/FrensPoolShare.sol:FrensPoolShare",
        "label": "_owner",
        "offset": 0,
        "slot": "11",
        "type": "t_address"
      },
      {
        "astId": 4080,
        "contract": "contracts/FrensPoolShare.sol:FrensPoolShare",
        "label": "frensStorage",
        "offset": 0,
        "slot": "12",
        "type": "t_contract(IFrensStorage)6626"
      },
      {
        "astId": 4084,
        "contract": "contracts/FrensPoolShare.sol:FrensPoolShare",
        "label": "poolByIds",
        "offset": 0,
        "slot": "13",
        "type": "t_mapping(t_uint256,t_address)"
      }
    ],
    "types": {
      "t_address": {
        "encoding": "inplace",
        "label": "address",
        "numberOfBytes": "20"
      },
      "t_array(t_uint256)dyn_storage": {
        "base": "t_uint256",
        "encoding": "dynamic_array",
        "label": "uint256[]",
        "numberOfBytes": "32"
      },
      "t_bool": {
        "encoding": "inplace",
        "label": "bool",
        "numberOfBytes": "1"
      },
      "t_bytes32": {
        "encoding": "inplace",
        "label": "bytes32",
        "numberOfBytes": "32"
      },
      "t_contract(IFrensStorage)6626": {
        "encoding": "inplace",
        "label": "contract IFrensStorage",
        "numberOfBytes": "20"
      },
      "t_mapping(t_address,t_bool)": {
        "encoding": "mapping",
        "key": "t_address",
        "label": "mapping(address => bool)",
        "numberOfBytes": "32",
        "value": "t_bool"
      },
      "t_mapping(t_address,t_mapping(t_address,t_bool))": {
        "encoding": "mapping",
        "key": "t_address",
        "label": "mapping(address => mapping(address => bool))",
        "numberOfBytes": "32",
        "value": "t_mapping(t_address,t_bool)"
      },
      "t_mapping(t_address,t_mapping(t_uint256,t_uint256))": {
        "encoding": "mapping",
        "key": "t_address",
        "label": "mapping(address => mapping(uint256 => uint256))",
        "numberOfBytes": "32",
        "value": "t_mapping(t_uint256,t_uint256)"
      },
      "t_mapping(t_address,t_uint256)": {
        "encoding": "mapping",
        "key": "t_address",
        "label": "mapping(address => uint256)",
        "numberOfBytes": "32",
        "value": "t_uint256"
      },
      "t_mapping(t_bytes32,t_struct(RoleData)19_storage)": {
        "encoding": "mapping",
        "key": "t_bytes32",
        "label": "mapping(bytes32 => struct AccessControl.RoleData)",
        "numberOfBytes": "32",
        "value": "t_struct(RoleData)19_storage"
      },
      "t_mapping(t_uint256,t_address)": {
        "encoding": "mapping",
        "key": "t_uint256",
        "label": "mapping(uint256 => address)",
        "numberOfBytes": "32",
        "value": "t_address"
      },
      "t_mapping(t_uint256,t_uint256)": {
        "encoding": "mapping",
        "key": "t_uint256",
        "label": "mapping(uint256 => uint256)",
        "numberOfBytes": "32",
        "value": "t_uint256"
      },
      "t_string_storage": {
        "encoding": "bytes",
        "label": "string",
        "numberOfBytes": "32"
      },
      "t_struct(RoleData)19_storage": {
        "encoding": "inplace",
        "label": "struct AccessControl.RoleData",
        "members": [
          {
            "astId": 16,
            "contract": "contracts/FrensPoolShare.sol:FrensPoolShare",
            "label": "members",
            "offset": 0,
            "slot": "0",
            "type": "t_mapping(t_address,t_bool)"
          },
          {
            "astId": 18,
            "contract": "contracts/FrensPoolShare.sol:FrensPoolShare",
            "label": "adminRole",
            "offset": 0,
            "slot": "1",
            "type": "t_bytes32"
          }
        ],
        "numberOfBytes": "64"
      },
      "t_uint256": {
        "encoding": "inplace",
        "label": "uint256",
        "numberOfBytes": "32"
      }
    }
  }
}