{
  "address": "0xE84f5e81B9E78cF75bfFef579351d5aEc18B099C",
  "abi": [
    {
      "inputs": [],
      "name": "getWaves",
      "outputs": [
        {
          "internalType": "bytes",
          "name": "",
          "type": "bytes"
        }
      ],
      "stateMutability": "pure",
      "type": "function"
    }
  ],
  "transactionHash": "0xf7e0ffc5bab92c1d82f57b80d209773f55fe30b2d3d3dcd78878edda539af6ad",
  "args": [],
  "solcInputHash": "b5ef2aea799510315d4542b3eb1a92f6",
  "bytecode": "0x60808060405234610016576134f2908161001b8239f35b5f80fdfe6080600436101561000e575f80fd5b5f803560e01c63a9d42f7e14610022575f80fd5b346134b957806003193601126134b9577f3c672066696c6c3d222336423744373722206f7061636974793d22302e3222206020838101919091527f7472616e73666f726d3d226d6174726978282e34302c302c302c2e34302c302c6040840152631814911f60e11b60608401527f3c706174682020643d224d3133332e352c3730352e33632d32332e322d32342e60648401527f362d34362e382d34382e372d37302e352d37322e38632d31382e382d31392e3160848401527f2d34302e352d33312e332d36332d33372e347631322e35206331342e392c342e60a48401527f352c32392e322c31322e352c34322e362c32342e376333302e352c32372e392c60c48401527f35382e312c35382e382c38372e372c38372e366336352e332c36332e362c313360e48401527f362e382c36342c3230362e312c31322e3363392e312d362e382c31372e352d31610104840152740342e342c32352e352d32322e356c2d372e382d313605c1b6101248401527f433239352c3736332e342c3230352e382c3738322c3133332e352c3730352e33610139840152633d11179f60e11b6101598401819052751e3830ba341010321e91269c9a18971c961b1b1a171b60511b61015d8501527f632d31352e322c31372e362d33312e342c33342e342d34372e342c35312e34636101738501527f2d35362e342c36302e322d3134332e332c34372e362d3139302e382c302e34636101938501527f2d31302e372d31302e372d32312e332d32312e362d33312e372d33322e356c2d6101b385015266382e322c392e3960c81b6101d38501527f6331332e392c31342e392c32382e312c32392e342c34332e392c34312e3963356101da8501527f362e342c34352e312c3133392c34382e312c3139342e382d392e366332372e316101fa8501527f2d32382c35332e322d35372e312c38312e332d38342e3163342e372d342e352c61021a850152720e4b8d8b4e0b8d4b0c4d0b8dcb4c4c9d8b4c4d606a1b61023a8501527f433937372e362c3632382e342c3935382e392c3634342e392c3934312e392c3661024d850152671b1a171b3d11179f60c11b61026d850152743c7061746820643d224d3334362e382c3736342e3160581b6102758501527f632d35322e352c35342e332d3133352e382c37312e322d3139392e332c31312e61028a8501527f31632d32372d32352e362d35322e392d35322e362d37382e332d37392e3843346102aa8501527f382e332c3637332e312c32342e352c3635392e372c302c3635332e337631322e6102ca8501527f346331392c352e352c33372e312c31362c35332e312c33322e350000000000006102ea8501527f6332342e332c32352e322c34382e332c35302e362c37332e312c37352e3263326103048501527f342e372c32342e362c35322e372c34352e372c38372e382c35302e356334372c6103248501527f362e342c39302e392d352e312c3132362e352d33372e336331362d31342e342c6103448501527f33312e312d32392e392c34352e372d34352e386c2d382e312d31302e330000006103648501527f433336372e382c3734312e372c3335372e342c3735332e312c3334362e382c37610381850152671b1a1718bd11179f60c11b6103a1850152741e3830ba3410321e91269c981c971c161b9a9b971b60591b6103a98501527f632d32322e342c32342e322d34352e392c34362e342d37392e372c35332e32636103be8501527f2d35382e372c31312e382d3130342e352d31322d3134332e392d35322e38632d6103de8501527f31332e362d31342e312d32372e312d32382e322d34302e332d34322e356c2d376103fe850152652e372c392e3360d01b61041e8501527f6331392e312c32312e342c33392c34322e332c36302e332c36312e336335382e6104248501527f352c35322e322c3135312c35362e362c3230382e372d372e326332332e382d326104448501527f362e332c34372e332d35332e322c37332e352d37372e3163352e352d352c3131610464850152752e352d392e372c31372e382d31332e39762d31342e3760501b6104848501527f433936322e322c3639332e352c3933372e362c3732372e362c3930392e382c3761049a850152671a9b971b3d11179f60c11b6104ba850152750f1c185d1a0808190f48934ccd0e0b8c8b0e0c8c0b8d60521b6104c28501527f632d35342e372c35372e372d3134342e312c37322e332d3230372e332c362e316104d88501527f632d32322e392d32342d34362e332d34372e352d36392e322d37312e34632d326104f88501527f322d32322e392d34352e392d33372e372d37312e372d34342e347631322e39636105188501527f32342c372e312c34372e352c32312e392c36382e352c34362e320000000000006105388501527f6332302e322c32332e332c34312e392c34352e332c36342c36362e376332312e6105528501527f352c32302e382c34362c33392c37362e332c34332e346336312e352c392c31316105728501527f332e322d31302e372c3135342e382d35372e356331352e332d31372e322c33306105928501527f2e362d33342e362c34362e372d35316c2d382e332d31302e36000000000000006105b28501527f433338332e382c3738302e352c3336362e362c3830312c3334382e322c3832306105cb85015265171a3d11179f60d11b6105eb8501819052751e3830ba341010321e91269c9b98171a961b9a99171960511b6105f18601527f632d32352e322c32332e322d34382e342c34382e372d37312e342c37342e31636106078601527f2d35392e392c36362e322d3134372e352c35332e332d3139382e372c322e31636106278601527f2d32332e312d32332d34342e362d34372e362d36372e312d37312e32632d332e6106478601527f392d342e312d382d382d31322e322d31312e366c2d382e382c31302e370000006106678601527f6332352e372c32332e372c34382c35312e322c37332e312c37352e376334372e6106848601527f342c34362e342c3130332e362c36342e352c3136372e332c34312e346332302e6106a48601527f342d372e342c33382e362d32332e352c35342e392d33382e376332352e392d326106c48601527f342e312c34382e312d35322e322c37342e322d37362e310000000000000000006106e48601527f63352e312d342e372c31302e372d392e312c31362e372d31332e31762d31342e6106fb8601527f35433938382e372c3733372c3937392e332c3734342e312c3937302e352c373561071b8601527f322e327a222f3e3c706174682020643d224d3334382e362c373931000000000061073b8601527f632d33392c34302e342d38352e382c35392e372d3134312e392c34372e31632d6107568601527f33332e372d372e352d35372e392d33312e342d38312e332d35352e31632d32316107768601527f2e332d32312e352d34312e362d34342d36332e352d36342e394334332e372c376107968601527f30302e382c32332e352c3638372e362c302c3638312e347631332e35000000006107b68601527f6332322e362c362e352c34342e312c31392e352c36322e342c34302e356332336107d28601527f2e332c32362e372c34392e342c35302e392c37342e362c37352e386337312c376107f28601527f302e342c3136342e322c34342e372c3231322e382d342e346331362e342d31366108128601527f2e362c33322d33342e322c34382e322d35312e316c2d372e332d392e340000006108328601527f433337362e362c3736312e322c3336322e382c3737362e332c3334382e362c3761084f860152651c98bd11179f60d11b61086f860152753c706174682020643d224d3936382e372c3732342e3760501b6108758601527f632d32362e392c32362e362d35312e392c35352e312d37382e382c38312e366361088b8601527f2d32332e312c32322e382d35312e312c33352e382d38342e342c33362e33632d6108ab8601527f34322e362c302e362d37382e332d31352e332d3130372e382d3435632d32312e6108cb8601527f392d32312e392d34322e362d34342e392d36332e382d36372e350000000000006108eb8601527f6c2d372e362c392e3263302c302c302c302c302e312c302e316332332e342c326109058601527f362e372c34372e312c35332e352c37332e382c37362e376333362e382c33322e6109258601527f312c38312c34352e312c3132392e392c33362e346333382e322d362e382c36346109458601526e2e382d33322c39302e372d35382e3760881b6109658601527f6332352e322d32352e392c34392e342d35332e362c37372e382d37352e35762d6109748601527f31362e38433938372e392c3730372e392c3937372e392c3731352e352c3936386109948601526b171b961b991a171bbd11179f60a11b6109b4860152730f1c185d1a0808190f48934d0c0dcb0e0c4ccb8d60621b6109c08601527f632d32322e312c32332e322d34332e312c34372e352d36352e352c37302e33636109d48601527f2d34362e392c34372e352d3133322e322c36362e342d3139322e392c362e38636109f48601527f2d32372d32362e352d35322e372d35342e322d37392e392d38302e35632d3139610a148601527f2e382d31392e312d34312e352d33362d36382e362d34322e327631322e380000610a348601527f63352e352c322c31312c342e342c31362e352c372e336332342e352c31332e32610a528601527f2c34342e382c33342e372c36352e362c35332e396332302e392c31392e332c33610a728601527f392e322c34312e342c36302e332c36302e366335382e342c35332c3133352c34610a928601526c372e362c3139302e332c342e3560981b610ab28601527f6332392d32322e362c35322e382d35322e322c37372e372d37392e3763372e39610abf8601527f2d382e382c31362e342d31362e342c32352e342d32336c2d372e352d392e3643610adf8601527f3432302e382c3830302c3431332e372c3830362e332c3430372c3831332e347a610aff8601526211179f60e91b610b1f8601819052731e3830ba341010321e91269c9b1b161c1899171b60611b610b228701527f632d32322e392c32312e342d34332e362c34352e322d36342e362c36382e3663610b368701527f2d35332e352c35392e372d3132362e372c36332e322d3138352e382c31362e35610b568701527f632d33312e372d32352d35372e372d35372e332d38362e322d38362e33632d31610b768701527f312e382d31322d32342e372d32312e372d33382e342d32392e32000000000000610b968701527f6c2d372e352c392e316331322e362c362e382c32342e352c31352e392c33352e610bb08701527f322c32372e336331372e322c31382e322c33342c33362e372c35302e392c3535610bd08701527f2e336333342e352c33372e392c37342e362c36342e342c3132372e392c36362e610bf08701527f326333332e342c312e322c36342e332d352e372c38382e382d32382e36000000610c108701527f6333332e352d33312e342c36332e362d36362e342c39372e382d393763342e35610c2d8701527f2d342e312c392e342d372e392c31342e352d31312e35762d31352e3343393837610c4d8701527f2e332c3739342e352c3937362e342c3830322e382c3936362c3831322e367a22610c6d87015261179f60f11b610c8d870152753c706174682020643d224d3335382e312c3833382e3560501b610c8f8701527f632d36322e312c37312e312d3135352e342c38382e312d3232382c362e36632d610ca58701527f31362e362d31382e372d33342e322d33362e352d35312e382d35342e34632d32610cc58701527f362e382d32372e332d35312e352d34352d37382e342d35322e357631332e3863610ce58701527f32322e352c362e382c34342c32302e322c36322e392c34312e34000000000000610d058701527f6332352e382c32392c35332e352c35362e382c38322e352c38322e366336322c610d1f8701527f35352e322c3134312e372c34322e392c3139352e342d342e346332372e382d32610d3f8701527f342e352c35312e342d35332e382c37372e352d38302e3163312e342d312e342c610d5f8701527f322e382d322e382c342e322d342e316c2d372e352d392e360000000000000000610d7f8701527f433339342e372c3739362e342c3337362e332c3831372e362c3335382e312c38610d9787015267199c171abd11179f60c11b610db78701819052753c706174682020643d224d3936342e382c3738352e3360501b610dbf8801527f632d32372e372c32352e382d35312e392c35352e322d37392e322c38312e3463610dd58801527f2d32322e392c32322d35302e362c33332e372d38332e362c33332e32632d3439610df58801527f2e382d302e382d38372e322d32342e362d3131392e342d35392e36632d31392e610e158801527f332d32302e392d33372e342d34332e312d35372e382d36322e39000000000000610e358801527f632d352e362d352e352d31312e362d31302e342d31372e382d31342e396c2d38610e4f8801527f2e322c31306331332e332c392e352c32352e352c32312e322c33372e322c3334610e6f8801527f2e326331372e392c32302c33342e362c34312e332c35342e352c35382e396334610e8f8801527f382e322c34322e372c3130332e352c36302c3136362e312c33352e3500000000610eaf8801527f6332392e342d31312e352c34392e332d33362e312c37312e312d35372e386332610ecb8801527f332d32322e392c34352e332d34372e352c37302e382d36372e32762d31362e36610eeb8801527f433938362e372c3736362e382c3937352e342c3737352e352c3936342e382c37610f0b880152671c1a9719bd11179f60c11b610f2b88015275078e0c2e8d04040c87a449a666e6c5c7258706e665c760531b610f338801527f632d31352e332c31362e372d32392e372c33342e392d34372e342c34382e3663610f498801527f2d34342e332c33342e332d39342e352c34382e322d3134352e392c32302e3163610f698801527f2d32372e332d31342e392d34392e352d33392e372d37332e312d36302e39632d610f898801527f32352e352d32322e392d34372e372d35302e332d37352e362d36392e36000000610fa98801527f632d31302e352d372e332d32322e342d31322e352d33342e392d31352e397631610fc68801527f322e376332302c352e382c33392e332c31372e312c35362e312c33352e356332610fe68801527f362e332c32382e372c35342e322c35362e312c38322e342c38336335382e372c6110068801527f35362e312c3133342e312c35332e372c3139332e392c382e33000000000000006110268801527f6333312e362d32342c35372e342d35362c38342e352d38352e356331302d313061103f8801527f2e392c32312e342d31392e392c33332e372d32372e316c2d372e372d392e394361105f8801527f3431372e312c3832382e372c3339372e322c3835312e362c3337362e392c383761107f8801526619971c3d11179f60c91b61109f880152753c706174682020643d224d3936392e372c3833382e3160501b6110a68801527f632d32342e322c32332e362d34362e332c34392e322d36392e382c37332e34636110bc8801527f2d32362e382c32372e362d35382c34362e322d39382e332c34352e38632d34306110dc8801527f2e312d302e342d37332e382d31362e332d3130312e392d34332e32632d32342e6110fc8801527f372d32332e372d34362e362d35302e332d37302e332d37352e3100000000000061111c8801527f632d31362e372d31372e352d33352e352d32392e362d35342e392d33372e316c6111368801527f2d382e332c31306331392e372c372e322c33382e342c31392e342c35342e372c6111568801527f33376332342e312c32362e312c34372e362c35322e392c37332e352c373763356111768801527f362e372c35322e382c3135302e342c36342c3231322e362d34000000000000006111968801527f6332342e332d32362e372c34382e382d35332e342c37352e322d373863342e396111af8801527f2d342e362c31302e342d382e392c31362e332d31322e39762d31352e344339386111cf8801527f382e342c3832312e392c3937382e382c3832392e332c3936392e372c3833382e6111ef8801526418bd11179f60d91b61120f880152753c706174682020643d224d3430352e382c3837312e3760501b6112148801527f632d32312c32312e382d34302e342c34352e312d36312e362c36362e37632d3561122a8801527f342e342c35352e342d3134312e352c36372e392d3230362e322c302e35632d3261124a8801527f352d32362d34392e382d35322e332d37352e382d37372e33632d31372e372d3161126a8801527f372d33372e362d33312e362d36322e322d33362e377631322e3800000000000061128a8801527f6332302c352e372c33392e312c31362e382c35352e342c33342e356332372e336112a48801527f2c32392e342c35352e352c35382e312c38342e382c38352e366333342e382c336112c48801527f322e362c37352e382c34352e312c3132332e392c33362e376335302e362d382e6112e488015273392c38352e382d33392e332c3131372d37362e3560601b6113048801527f6332322e392d32372e332c34352e352d35352e382c37382e342d37302e3863326113188801527f2e342d312e312c342e382d322e312c372e322d332e316c2d382e312d31302e346113388801527f433434302c3834312e382c3432322e332c3835342e342c3430352e382c38373161135888015265171bbd11179f60d11b611378880152731e3830ba341010321e91269c9b99961c1b1a171b60611b61137e8801527f632d32382e382c32372d35352e322c35362e362d38332c38342e37632d33372e6113928801527f352c33382d39352c34372e322d3134332e372c3235632d33382e352d31372e366113b28801527f2d36342e382d34382e372d39312e382d37392e32632d32322e312d32352d34346113d2880152702e312d35312e322d37362e312d36322e3560781b6113f28801527f632d372e392d322e382d31352e382d352e312d32332e352d362e386c2d372e396114038801527f2c392e356332352e312c342e392c34392e382c31372e362c37312e372c34302e6114238801527f336332362e372c32372e362c35322e312c35362e372c38302e312c38322e39636114438801527f33322e312c33302e322c37322e382c34322e322c3131352e382c33392e3600006114638801527f6334302e382d322e342c37322e352d32352e332c3130302d35342e396332352e6114818801527f332d32372e332c34392e372d35362e332c37382e392d37382e3963312e362d316114a18801527f2e332c332e332d322e352c352d332e37762d31352e35433938392e332c3835306114c18801527f2e382c3938302e372c3835372e332c3937332c3836342e367a222f3e000000006114e18801527403c706174682020643d224d3931342e332c3130303605c1b6114fd8801527f6332312e352d32332c34322e362d34362e342c36352e342d36372e3963352e376115128801527f2d352e332c31312e392d31302e342c31382e372d3135762d31352e33632d31316115328801527f2e332c362e392d32322e312c31352e332d33322e322c32352e32632d32322e346115528801527f2c32322d34332e372c34352e332d36342e352c36382e390000000000000000006115728801527f632d312e332c312e342d322e362c322e382d332e392c342e32483931342e337a6115898801526115a9870191909152713c706174682020643d224d302c3839352e3160701b6115ac8701527f6331392e312c352e362c33372e362c31362c35332e362c33322e376332332e346115be8701527f2c32342e342c34362e392c34382e372c37312e322c37322e326831382e38632d6115de8701527f32322e322d31392e322d34322e372d34302e372d36312e382d36322e394335376115fe8701527f2e332c3930382e342c32392c3839312e312c302c3838332e340000000000000061161e870152692b1c1c9a9718bd11179f60b11b6116378701527f3c706174682020643d224d3939382e352c31303030762d31312e3500000000006116418701527f632d352e372c332e352d31312e322c372e342d31362e332c31312e354839393861165c87015265171abd11179f60d11b61167c8701527f3c706174682020643d224d302c3938302e396331332e322c332e392c32362e316116828701526e2c31302e322c33382e312c31392e3160881b6116a28701527f6831392e374333392e372c3938342e382c32302e332c3937342e332c302c39366116b18701526c1c171b2b1c9c18171cbd11179f60991b6116d18701527403c706174682020643d224d3434322e362c3130303605c1b6116de8701527f6334352e342d33302e392c3130372e322d33322e372c3135342e342c306832306116f38701527f2e39632d35382e352d34382e352d3134332e312d34372e312d3139332e312d316117138701527f2e32632d302e342c302e342d302e392c302e382d312e332c312e32483434322e611733870152641b3d11179f60d91b611753870152751e3830ba341010321e91269c9a981719961c9899971b60511b6117588701527f632d32312e352c32332d34322c34372d36352e312c36382e33632d372e392c3761176e8701527f2e332d31362e312c31332e332d32342e352c31382e316832332e3163382e332d61178e8701527f362c31362e342d31332e312c32342e312d32312e336332312e392d32332e342c6117ae87015270034322e352d34382e312c36352e382d373607c1b6117ce8701527f63382d372e352c31362e332d31342e332c32342e392d32302e32762d31342e336117df8701527f433938312c3838342e352c3936352e312c3839372e382c3935302e332c3931336117ff87015265171b3d11179f60d11b61181f870181905274078e0c2e8d04040c87a449a6c725c6c5870726c5c7605b1b6118258801527f4334372e392c3837342e322c32342e322c3836302e322c302c3835332e34763161183a8801527f322e346331352e382c342e372c33302e382c31332c34342c32352e346332312e61185a8801527f352c32302e342c34312e322c34322e382c36332e312c36322e366331372e322c61187a8801527f31352e352c33332e392c33322e372c35322e362c34362e326832312e3300000061189a8801527f632d392e342d352d31382e362d31312e342d32372e332d31392e35433132342e6118b78801527f362c3935332e372c39372c3932352e322c36392e362c3839362e387a222f3e006118d7880152733c706174682020643d224d3432312c3838372e3360601b6118f68801527f632d32372e382c32352e362d35322c35352d37382e362c38312e39632d31322e61190a8801527f312c31322e332d32372e322c32322e392d34342c33302e384833323363372e3361192a8801527f2d342e392c31342e342d31302e342c32312e342d31362e346332392e382d323561194a880152730b8dcb0d4d0b4d4dcb8e4b0e0c8b8d0b4e0d4b8d60621b61196a8801527f6331362e322d31352e382c33362d32362e382c35362e392d33322e366c2d382d61197e8801527f31302e33433435352e392c3836312e372c3433372e312c3837322e342c34323161199e88015269161c1c1b9719bd11179f60b11b6119be880152751e3830ba341010321e91269a9c9b1719161c1c1b171b60511b6119c88801527f6333312e362c32352c35372e392c35362e392c38362e332c38366331302e322c6119de8801527f31302e352c32312e342c31392e362c33332e332c32372e346832342e35632d336119fe8801527f322e312d31352e312d35342e352d34322e332d37382e362d36372e38632d3231611a1e8801527f2e342d32322e372d34332e312d34362e392d36392e312d36332e320000000000611a3e8801527f632d31372e382d31312e312d33372e322d31372e362d35372d31392e396c2d39611a598801527f2e362c31312e36433535312e312c3836312e392c3537352e362c3837302e342c611a798801526e1a9c9b1719161c1c1b171b3d11179f60891b611a998801527f3c706174682020643d224d3934352e322c313030306331322e372d31352e312c611aa88801527032352d33302e372c33392e372d34332e3560781b611ac88801527f63342e332d332e372c382e382d372e332c31332e362d31302e36762d31342e37611ad98801527f632d31302e312c362e332d32302c31332e372d32392e352c32322e33632d3136611af98801527f2e332c31342e362d33312e352c33302e352d34362e342c34362e36483934352e611b1988015264193d11179f60d91b611b3988018190527f3c706174682020643d224d3338332e352c3130303063332e372d342e312c372e611b3e8901526c06a5a705862625c6a5a62625c7609b1b611b5e8901527f6332302e362d31392e342c34302e352d34312e352c36342e382d35342e384335611b6b8901527f31352e372c3930332c3538302c3931382e342c3632362c3936372e3963392e38611b8b8901527f2c31302e362c31392e352c32312e342c32392e322c33322e316831352e39632d611bab8901527f392e382d31312d31392e332d32322e322d32392e312d33332e32000000000000611bcb8901527f632d36392e332d37372e382d3136332e322d38312e362d3233362e382d38632d611be58901527f31332e332c31332e332d32352e382c32372e342d33382e362c34312e32483338611c058901526619971abd11179f60c91b611c258901527f3c706174682020643d224d302c3932332e336331362c342e372c33312e352c31611c2c8901526a332e312c34352c32362e3160a81b611c4c8901527f6331372e332c31362e352c33342c33332e352c35302e372c35302e366831392e611c578901527f36632d31372e332d31372e352d33342e372d33342e392d35322e352d35312e39611c778901527f632d31382e312d31372e332d33382e322d33322d36322e382d33372e37563932611c9789015266199719bd11179f60c91b611cb78901527f3c706174682020643d224d3431322e342c3130303063362e352d362e372c3133611cbe8901526e05a62665c665862725c6a5a62725c7608b1b611cde8901527f6334322e362d34322e362c3133362e392d34332e332c3138312e342c342e3963611ced8901527f342e362c352c392e322c392e392c31332e392c31342e396831382e35632d352e611d0d8901527f372d362e322d31312e352d31322e342d31372e332d31382e35632d35332e362d611d2d8901527f35362e332d3134332d36322e372d3230322e312d31322e310000000000000000611d4d8901527f632d31312e322c392e362d32312e382c32302d33322e312c33302e3648343132611d65890152611d858801939093527f3c706174682020643d224d3937302e312c3130303063382e342d372e392c3137611d8b8801526e2d31352e352c32352e392d32322e3760881b611dab8801527f63302e382d302e372c312e362d312e332c322e352d312e39762d31352e35632d611dba8801527f372e312c342e332d31342c392e312d32302e342c31342e34632d31302e322c38611dda8801527f2e342d32302e312c31372e312d33302e312c32352e38483937302e317a222f3e611dfa8801527f3c706174682020643d224d302c3935332e3263352e312c312e372c31302e322c611e1a8801526919971b16189a971a161b60b11b611e3a8801527f6331392e332c392c33352e362c32342e392c35312e362c34302e386831392e31611e448801527f632d352e362d352e382d31312e312d31312e362d31362e362d31372e34433438611e648801527f2e362c3936302e332c32342e372c3934362e352c302c3933392e39563935332e611e84880152611ea487019290925275078e0c2e8d04040c87a449a626a645c72586c666e5c760531b611ea98701527f632d32392e352d32362e392d35372e322d35352e392d38352d38342e37632d32611ebf8701527f302e352d32312e332d34332e322d33342e382d36382d34312e327631302e3263611edf8701527f31392e382c362c33392e332c31372e352c35372c33366332312e372c32322e37611eff870152732c34332e382c34352e312c36352e322c36382e3160601b611f1f8701527f6336322e372c36372e312c3133382e312c36392e372c3139392c33312e346c2d611f338701527f362e392d382e38433236372e372c3637382e342c3230322e382c3638332e322c611f538701526e189a99171c961b199b971c3d11179f60891b611f73870152751e3830ba341010321e91269c9b9b9719161b1b18171b60511b611f828701527f632d32362e362c32342e332d35312c35312d37352e352c37372e34632d35372e611f988701527f332c36312e372d3133322e352c36322e382d3139322e382c31312e31632d3137611fb88701527f2e372d31352e322d33342e312d33322d34392e392d34392e346c2d382e342c31611fd88701526218171960e91b611ff88701527f6331332e382c31342e392c32372e372c32392e372c34322e362c34332e354337611ffb8701527f34392c3830352c3834302e362c3832302c3930342e372c3735322e366331372e61201b8701527f372d31382e352c33342e392d33372e352c35322e312d35362e346331332d313461203b8701527f2e342c32372d32362e362c34312e362d33362e35762d31352e3500000000000061205b8701527f433939312e312c3634382e392c3938342c3635342e332c3937372e322c363630612075870152612095860191909152753c706174682020643d224d3334332e332c3733382e3560501b61209b8601527f632d34342e382c34372e362d3133312e332c36382e392d3139322e372c31302e6120b18601527f34632d32352e322d32342e312d34392e342d34392e332d37332e372d37342e326120d18601527f4335342e382c3635322c33302e382c3633302e342c302c3632332e387631332e6120f18601527f376331382e322c352c33352e352c31342e362c35302e352c32392e38000000006121118601527f4337372e382c3639352c3130352c3732332c3133322e362c3735302e3763373061212d8601527f2c37302e312c3136312e362c35342c3231382e322d322e3263372e382d372e3761214d8601527f2c31352e342d31352e372c32322e392d32332e376c2d382e312d31302e34000061216d8601527f433335382e322c3732322e352c3335302e382c3733302e352c3334332e332c3761218b8601526121ab85015275078e0c2e8d04040c87a449a726a6c5c68586a6c6a5c760531b6121b38501527f632d32322e372c32342e392d34352e382c34392e372d37302e332c37322e39636121c98501527f2d33382e352c33362e352d39362e332c34322e372d3134342e372c31392e35636121e98501527f2d31312e362d352e362d32322d31322e342d33312e362d32302e316c2d362e39612209850152632c382e3360e01b6122298501527f6334342e332c33362e312c39352e352c34372e322c3135312e332c32362e376361222d8501527f33312e372d31312e362c35322e332d33372e392c37352e312d36316332312e3661224d8501527f2d32312e392c34312e322d34362e382c36352e392d36342e3563312e312d302e61226d8501527f382c322e322d312e352c332e332d322e33762d31342e3400000000000000000061228d8501527f433938332e352c3533392e392c3936392e352c3535312e352c3935362e342c356122a4850152671b1a971c3d11179f60c11b6122c4850152753c706174682020643d224d3637362e322c3637382e3760501b6122cc8501527f63382e322c382e332c31362e372c31362e332c32352e352c32332e396335302e6122e28501527f352c34332e392c3133352c35372e332c3139322e342c312e376332362e332d326123028501527f352e352c35312e322d35322e352c37362e362d37392e3163382e322d382e362c6123228501527f31372e362d31362e342c32372e382d32332e32762d31350000000000000000006123428501527f632d31332e382c382e312d32362e362c31382d33382e312c32392e35632d32346123598501527f2e322c32342e332d34362e342c35302e362d37302e362c37342e39632d35342e6123798501527f392c35352e322d3133382e332c34322e392d3138352e392d33632d362e362d36612399850152752e342d31332e322d31322e392d31392e372d31392e3560501b6123b98501527f6c2d312e322c312e344c3637362e322c3637382e377a222f3e000000000000006123cf850152753c706174682020643d224d3230372e312c3732322e3560501b6123e88501527f632d32312e352d352e352d34322e342d31392e332d35392e352d3334632d32386123fe8501527f2e312d32342e332d35332e382d35312e352d37382e382d37392e314334382e3861241e8501527f2c3538372e332c32352c3537332e392c302c3536372e367631322e376332322e61243e8501527f312c362e362c34312e392c31392e362c36302e322c33382e330000000000000061245e8501527f6332382e352c32392e312c35362e322c35392e332c38362e362c38362e3363366124778501527f322e352c35352e352c3134372e392c34302e312c3230302e362d31302e3763306124978501527f2e352d302e352c312d312c312e352d312e346c2d372e362d392e3700000000006124b78501527f433330332e382c3731392e372c3235382e352c3733352e382c3230372e312c376124d2850152671919171abd11179f60c11b6124f2850152753c706174682020643d224d3834332e382c3730352e3360501b6124fa8501527f6333362e332d31302e322c36302e322d33372e392c38352e362d36332e3963326125108501527f322e322d32322e382c34332e362d34382e332c36392e312d36362e34762d31366125308501527f2e34632d32372e312c31362e332d34382e312c34302d36392e372c3633632d326125508501527f302e332c32312e352d34302e352c34342e332d36342e382c36302e35000000006125708501527f632d34382e382c33322e352d3131382e382c31392e352d3136352e382d32372e61258c8501527f34632d302e342d302e342d302e382d302e382d312e312d312e326c2d382c392e6125ac8501527f376c2d302e342c302e35433733322e312c3730332e392c3738332c3732322e336125cc8501526f161c1a19971c161b981a9719bd11179f60811b6125ec850152730f1c185d1a0808190f48934c4d8d4b8d8b0d8dcd60621b6125fc8501527f632d32382d32322e352d35312e372d35302e312d37382e362d3734632d32322d6126108501527f31392e362d34332e352d34322d36392e342d35342e35632d352e372d322e382d6126308501527f31312e362d352d31372e372d362e38563535316331392e332c352e382c33362e6126508501526f392c31362e372c35322e392c33322e3360801b6126708501527f6332362e372c32362c35312e392c35332e352c37382e322c38306336392e342c6126808501527f37302c3135312e312c35342e362c3230342e382c31336c2d372e392d31302e316126a08501527f433238342c3730312e312c3231372e352c3731352e372c3136352e362c3637346126c08501526126e0840152751e3830ba341010321e91269b191b171c961c9919971960511b6126e48401527f632d32392e312d33322d37332d34362e372d3131352e362d34342e346c2d392e6126fa8401527f322c31312e326c2d372e332d392e34632d32392e352c342e372d35372e352c3161271a8401527f372e382d37382e332c33392e32632d32352e382c32362e352d35302e392c353361273a84015270171b969b9b171b161c181719b4189b971960791b61275a8401527f6332312e312d32302e392c33392e382d34342e342c36312d36352e326336332d61276b8401527f36322e312c3134382e342d35392e322c3230382e332c352e376331382e342c3161278b8401527f392e392c33362e322c34302e362c35352e362c35392e356831372e39632d302e6127ab840152740665a605c665a605c6c5a605c6a5a605c705a605c7605b1b6127cb840152917f433637342e332c3937342e352c3635302e342c3934392c3632362e392c3932336127e08201526517193d11179f60d11b612800820152631e17b39f60e11b6128068201526127ea815261282081019167ffffffffffffffff8311828410176134a5578260405283835281519081612840840152805b82811061349057508282016128600152601f01601f19168101036040019150f35b8086918501612860838201519101520161346f565b634e487b7160e01b81526041600452602490fd5b80fdfea2646970667358221220bc7f5b2e606498996054ec7db81a8b5539129f27c284ddd1b484d06fd735ca4264736f6c63430008140033",
  "devdoc": {
    "author": "0xWildhare and Frens Team",
    "details": "returns the wavey lines in the artwork svg data as bytes",
    "kind": "dev",
    "methods": {},
    "title": "Waves",
    "version": 1
  },
  "userdoc": {
    "kind": "user",
    "methods": {},
    "version": 1
  },
  "storageLayout": {
    "storage": [],
    "types": null
  }
}