{
  "abi": [
    {
      "inputs": [
        {
          "internalType": "contract IFrensStorage",
          "name": "frensStorage_",
          "type": "address"
        }
      ],
      "stateMutability": "nonpayable",
      "type": "constructor"
    },
    {
      "inputs": [
        {
          "internalType": "uint256",
          "name": "id",
          "type": "uint256"
        }
      ],
      "name": "tokenURI",
      "outputs": [
        {
          "internalType": "string",
          "name": "",
          "type": "string"
        }
      ],
      "stateMutability": "view",
      "type": "function"
    }
  ],
  "bytecode": {
    "object": "0x60806040908082523462000164578062001105803803809162000023828562000169565b83396020928391810103126200016457516001600160a01b038082169290918390036200016457600180546001600160a01b0319908116851790915584516f636f6e74726163742e6164647265737360801b8382019081526d4672656e73506f6f6c536861726560901b6030830152601e825291949092838701929091906001600160401b038411858510176200014e5760248484938193828c52885190206321f8a72160e01b835260448901525afa9283156200014357600093620000ff575b5050501690600054161760005551610f7790816200018e8239f35b813d83116200013b575b62000115818562000169565b81010312620001375751908282168203620001345750388080620000e4565b80fd5b5080fd5b503d62000109565b86513d6000823e3d90fd5b634e487b7160e01b600052604160045260246000fd5b600080fd5b601f909101601f19168101906001600160401b038211908210176200014e5760405256fe6040608081526004908136101561001557600080fd5b600091823560e01c63c87b56dd1461002c57600080fd5b3461077657602092836003193601126107735780548235929061005f906001600160a01b03165b6001600160a01b031690565b91634f558e7960e01b608052856080607f1961007e879060a491608452565b0181865afa8015610677578190610743575b61009990610855565b600154610131906100b2906001600160a01b0316610053565b9487875196818801886100fa6100df836010906f636f6e74726163742e6164647265737360801b81520190565b6e233932b739a6b2ba30a432b63832b960891b8152600f0190565b039861010e601f199a8b8101835282610807565b51902089516321f8a72160e01b8152878101918252948592918391829160200190565b03915afa918215610677578392610724575b508651630178b36760e31b81528481018281526001600160a01b03938416968a918391908290819060200103915afa80156106775783918591610707575b501691875191631865c57d60e01b835284838781875afa9283156106775785936106eb575b5088519063ef21184f60e01b82528582806101c8848b83019190602083019252565b03818b5afa9182156106775786926106cf575b5089516333c7180560e11b81528781018281528c90829081906020010381895afa8015610677576102319988928e84936106a0575b50508c516376e8a45160e11b81528a81019283529a8b928391829160200190565b03915afa928315610677578b98879461067c575b5061024f86610d62565b9661025983610b4c565b988c51809a8c820161028390601190706672656e20706f6f6c207368617265202360781b81520190565b61028c91610941565b038c81018b5261029c908b610807565b8c51809b81016102d090601b907f74686973206672656e206861732061206465706f736974206f6620000000000081520190565b6102da9087610941565b6c01022ba341034b7103837b7b61609d1b8152600d016102fa908b610941565b7f2c207769746820636c61696d61626c652062616c616e6365206f6620000000008152601c0161032a9088610941565b630408ae8d60e31b8152600401038c81018c52610347908c610807565b8d8d518092638da5cb5b60e01b8252818b5afa918215610677579161064a575b501661037290610d62565b9461037c91610958565b61038590610e58565b9489519788978c89016103a890600990683d913730b6b2911d1160b91b81520190565b6103b191610941565b71111610113232b9b1b934b83a34b7b7111d1160711b81526012016103d591610941565b7f222c202265787465726e616c5f75726c223a2268747470733a2f2f6170702e6681526d72656e732e66756e2f706f6f6c2f60901b6020820152602e0161041c9082610941565b7f222c202261747472696275746573223a205b7b2274726169745f74797065223a81527110113837b7b6111610113b30b63ab2911d1160711b602082015260320161046691610941565b7f227d2c7b2274726169745f74797065223a20226465706f736974222c20227661815266363ab2911d101160c91b60208201526027016104a591610941565b630408ae8d60e31b81526004017f227d2c7b2274726169745f74797065223a2022636c61696d61626c65222c20228152683b30b63ab2911d101160b91b60208201526029016104f391610941565b630408ae8d60e31b81526004017f227d2c7b2274726169745f74797065223a2022706f6f6c207374617465222c20815269113b30b63ab2911d101160b11b6020820152602a0161054291610941565b7f227d2c7b2274726169745f74797065223a2022706f6f6c2063726561746f722281526b1610113b30b63ab2911d101160a11b6020820152602c0161058691610941565b6e113eae96101134b6b0b3b2911d101160891b8152600f017f646174613a696d6167652f7376672b786d6c3b6261736536342c0000000000008152601a016105cd91610941565b61227d60f01b81526002010382810182526105e89082610807565b6105f190610e58565b82517f646174613a6170706c69636174696f6e2f6a736f6e3b6261736536342c00000094810194855293849190601d0161062a91610941565b03908101835261063a9083610807565b5161064681928261079d565b0390f35b61066a91508d803d10610670575b6106628183610807565b810190610895565b38610367565b503d610658565b610849565b6106999194503d8089833e6106918183610807565b8101906108d0565b9238610245565b6106c0929350803d106106c8575b6106b88183610807565b810190610932565b90388e610210565b503d6106ae565b6106e49192503d8088833e6106918183610807565b90386101db565b6107009193503d8087833e6106918183610807565b91386101a6565b61071e91508a3d8c11610670576106628183610807565b38610181565b61073c919250883d8a11610670576106628183610807565b9038610143565b50853d871161076c575b6107658161075d610099936107df565b608001610829565b9050610090565b503d61074d565b80fd5b8280fd5b60005b83811061078d5750506000910152565b818101518382015260200161077d565b604091602082526107bd815180928160208601526020868601910161077a565b601f01601f1916010190565b634e487b7160e01b600052604160045260246000fd5b601f80199101166080016080811067ffffffffffffffff82111761080257604052565b6107c9565b90601f8019910116810190811067ffffffffffffffff82111761080257604052565b602090607f1901126108445760805180151581036108445790565b600080fd5b6040513d6000823e3d90fd5b1561085c57565b60405162461bcd60e51b81526020600482015260116024820152701a5908191bd95cc81b9bdd08195e1a5cdd607a1b6044820152606490fd5b9081602091031261084457516001600160a01b03811681036108445790565b67ffffffffffffffff811161080257601f01601f191660200190565b6020818303126108445780519067ffffffffffffffff8211610844570181601f82011215610844578051610903816108b4565b926109116040519485610807565b818452602082840101116108445761092f916020808501910161077a565b90565b90816020910312610844575190565b906109546020928281519485920161077a565b0190565b604051638ae578fd60e01b81526001600160a01b03926020908290600490829087165afa8015610677576000926109b2928492610aa9575b5060405194858094819363516b636d60e11b8352600483019190602083019252565b0392165afa90811561067757610a709161092f91600091610a90575b50610a82604051938492610a6a60208501606c907f3c7376672077696474683d2234303022206865696768743d223430302220786d81527f6c6e733d22687474703a2f2f7777772e77332e6f72672f323030302f7376672260208201527f20786d6c6e733a786c696e6b3d22687474703a2f2f7777772e77332e6f72672f60408201526b189c9c9c97bc3634b735911f60a11b60608201520190565b90610941565b651e17b9bb339f60d11b815260060190565b03601f198101835282610807565b610aa3913d8091833e6106918183610807565b386109ce565b610ac291925060203d8111610670576106628183610807565b9038610990565b604051906020820182811067ffffffffffffffff8211176108025760405260008252565b604051906060820182811067ffffffffffffffff82111761080257604052602a8252604082602036910137565b90610b24826108b4565b610b316040519182610807565b8281528092610b42601f19916108b4565b0190602036910137565b806000917a184f03e93ff9f4daa797ed6e38ed64bf6a1f01000000000000000080821015610c81575b506d04ee2d6d415b85acef810000000080831015610c72575b50662386f26fc1000080831015610c63575b506305f5e10080831015610c54575b5061271080831015610c45575b506064821015610c35575b600a80921015610c2b575b600190816021610be3828701610b1a565b95860101905b610bf5575b5050505090565b600019019083906f181899199a1a9b1b9c1cb0b131b232b360811b8282061a835304918215610c2657919082610be9565b610bee565b9160010191610bd2565b9190606460029104910191610bc7565b60049193920491019138610bbc565b60089193920491019138610baf565b60109193920491019138610ba0565b60209193920491019138610b8e565b604093508104915038610b75565b634e487b7160e01b600052601160045260246000fd5b600281901b91906001600160fe1b03811603610cbd57565b610c8f565b9060028201809211610cbd57565b9060208201809211610cbd57565b634e487b7160e01b600052603260045260246000fd5b908151811015610d05570160200190565b610cde565b8015610cbd576000190190565b15610d1e57565b606460405162461bcd60e51b815260206004820152602060248201527f537472696e67733a20686578206c656e67746820696e73756666696369656e746044820152fd5b610d6a610aed565b90815115610d0557603060208301538151600190811015610d055790607860218401536029915b808311610da4575061092f915015610d17565b90600f8116906010821015610d0557610de1916f181899199a1a9b1b9c1cb0b131b232b360811b901a610dd78587610cf4565b5360041c92610d0a565b9190610d91565b604051906060820182811067ffffffffffffffff82111761080257604052604082527f6768696a6b6c6d6e6f707172737475767778797a303132333435363738392b2f6040837f4142434445464748494a4b4c4d4e4f505152535455565758595a61626364656660208201520152565b805115610f3857610e67610de8565b610e83610e7e610e778451610cc2565b6003900490565b610ca5565b91610e95610e9084610cd0565b610b1a565b92835280815182019060208501935b828210610ee657505050600390510680600114610ed557600214610ec6575090565b603d60f81b6000199091015290565b50613d3d60f01b6001199091015290565b9091936004906003809401938451600190603f9082828260121c16880101518553828282600c1c16880101518386015382828260061c1688010151600286015316850101519082015301939190610ea4565b5061092f610ac956fea26469706673582212203576a5be1cd53b636a024be407150afcd68d750d5c29e2502587679cb117529264736f6c63430008140033",
    "linkReferences": {}
  },
  "methodIdentifiers": {
    "tokenURI(uint256)": "c87b56dd"
  },
  "id": 4
}