{
  "address": "0x16CfC074aFc53E9E3E8848231b34e17060025bb3",
  "abi": [
    {
      "inputs": [
        {
          "internalType": "contract IFrensStorage",
          "name": "frensStorage_",
          "type": "address"
        }
      ],
      "stateMutability": "nonpayable",
      "type": "constructor"
    },
    {
      "anonymous": false,
      "inputs": [
        {
          "indexed": true,
          "internalType": "address",
          "name": "owner",
          "type": "address"
        },
        {
          "indexed": true,
          "internalType": "address",
          "name": "approved",
          "type": "address"
        },
        {
          "indexed": true,
          "internalType": "uint256",
          "name": "tokenId",
          "type": "uint256"
        }
      ],
      "name": "Approval",
      "type": "event"
    },
    {
      "anonymous": false,
      "inputs": [
        {
          "indexed": true,
          "internalType": "address",
          "name": "owner",
          "type": "address"
        },
        {
          "indexed": true,
          "internalType": "address",
          "name": "operator",
          "type": "address"
        },
        {
          "indexed": false,
          "internalType": "bool",
          "name": "approved",
          "type": "bool"
        }
      ],
      "name": "ApprovalForAll",
      "type": "event"
    },
    {
      "anonymous": false,
      "inputs": [
        {
          "indexed": true,
          "internalType": "address",
          "name": "previousOwner",
          "type": "address"
        },
        {
          "indexed": true,
          "internalType": "address",
          "name": "newOwner",
          "type": "address"
        }
      ],
      "name": "OwnershipTransferred",
      "type": "event"
    },
    {
      "anonymous": false,
      "inputs": [
        {
          "indexed": true,
          "internalType": "bytes32",
          "name": "role",
          "type": "bytes32"
        },
        {
          "indexed": true,
          "internalType": "bytes32",
          "name": "previousAdminRole",
          "type": "bytes32"
        },
        {
          "indexed": true,
          "internalType": "bytes32",
          "name": "newAdminRole",
          "type": "bytes32"
        }
      ],
      "name": "RoleAdminChanged",
      "type": "event"
    },
    {
      "anonymous": false,
      "inputs": [
        {
          "indexed": true,
          "internalType": "bytes32",
          "name": "role",
          "type": "bytes32"
        },
        {
          "indexed": true,
          "internalType": "address",
          "name": "account",
          "type": "address"
        },
        {
          "indexed": true,
          "internalType": "address",
          "name": "sender",
          "type": "address"
        }
      ],
      "name": "RoleGranted",
      "type": "event"
    },
    {
      "anonymous": false,
      "inputs": [
        {
          "indexed": true,
          "internalType": "bytes32",
          "name": "role",
          "type": "bytes32"
        },
        {
          "indexed": true,
          "internalType": "address",
          "name": "account",
          "type": "address"
        },
        {
          "indexed": true,
          "internalType": "address",
          "name": "sender",
          "type": "address"
        }
      ],
      "name": "RoleRevoked",
      "type": "event"
    },
    {
      "anonymous": false,
      "inputs": [
        {
          "indexed": true,
          "internalType": "address",
          "name": "from",
          "type": "address"
        },
        {
          "indexed": true,
          "internalType": "address",
          "name": "to",
          "type": "address"
        },
        {
          "indexed": true,
          "internalType": "uint256",
          "name": "tokenId",
          "type": "uint256"
        }
      ],
      "name": "Transfer",
      "type": "event"
    },
    {
      "inputs": [],
      "name": "DEFAULT_ADMIN_ROLE",
      "outputs": [
        {
          "internalType": "bytes32",
          "name": "",
          "type": "bytes32"
        }
      ],
      "stateMutability": "view",
      "type": "function"
    },
    {
      "inputs": [],
      "name": "MINTER_ROLE",
      "outputs": [
        {
          "internalType": "bytes32",
          "name": "",
          "type": "bytes32"
        }
      ],
      "stateMutability": "view",
      "type": "function"
    },
    {
      "inputs": [
        {
          "internalType": "address",
          "name": "to",
          "type": "address"
        },
        {
          "internalType": "uint256",
          "name": "tokenId",
          "type": "uint256"
        }
      ],
      "name": "approve",
      "outputs": [],
      "stateMutability": "nonpayable",
      "type": "function"
    },
    {
      "inputs": [
        {
          "internalType": "address",
          "name": "owner",
          "type": "address"
        }
      ],
      "name": "balanceOf",
      "outputs": [
        {
          "internalType": "uint256",
          "name": "",
          "type": "uint256"
        }
      ],
      "stateMutability": "view",
      "type": "function"
    },
    {
      "inputs": [
        {
          "internalType": "uint256",
          "name": "tokenId",
          "type": "uint256"
        }
      ],
      "name": "burn",
      "outputs": [],
      "stateMutability": "nonpayable",
      "type": "function"
    },
    {
      "inputs": [
        {
          "internalType": "uint256",
          "name": "_id",
          "type": "uint256"
        }
      ],
      "name": "exists",
      "outputs": [
        {
          "internalType": "bool",
          "name": "",
          "type": "bool"
        }
      ],
      "stateMutability": "view",
      "type": "function"
    },
    {
      "inputs": [
        {
          "internalType": "uint256",
          "name": "tokenId",
          "type": "uint256"
        }
      ],
      "name": "getApproved",
      "outputs": [
        {
          "internalType": "address",
          "name": "",
          "type": "address"
        }
      ],
      "stateMutability": "view",
      "type": "function"
    },
    {
      "inputs": [
        {
          "internalType": "uint256",
          "name": "_id",
          "type": "uint256"
        }
      ],
      "name": "getPoolById",
      "outputs": [
        {
          "internalType": "address",
          "name": "",
          "type": "address"
        }
      ],
      "stateMutability": "view",
      "type": "function"
    },
    {
      "inputs": [
        {
          "internalType": "bytes32",
          "name": "role",
          "type": "bytes32"
        }
      ],
      "name": "getRoleAdmin",
      "outputs": [
        {
          "internalType": "bytes32",
          "name": "",
          "type": "bytes32"
        }
      ],
      "stateMutability": "view",
      "type": "function"
    },
    {
      "inputs": [
        {
          "internalType": "bytes32",
          "name": "role",
          "type": "bytes32"
        },
        {
          "internalType": "address",
          "name": "account",
          "type": "address"
        }
      ],
      "name": "grantRole",
      "outputs": [],
      "stateMutability": "nonpayable",
      "type": "function"
    },
    {
      "inputs": [
        {
          "internalType": "bytes32",
          "name": "role",
          "type": "bytes32"
        },
        {
          "internalType": "address",
          "name": "account",
          "type": "address"
        }
      ],
      "name": "hasRole",
      "outputs": [
        {
          "internalType": "bool",
          "name": "",
          "type": "bool"
        }
      ],
      "stateMutability": "view",
      "type": "function"
    },
    {
      "inputs": [
        {
          "internalType": "address",
          "name": "owner",
          "type": "address"
        },
        {
          "internalType": "address",
          "name": "operator",
          "type": "address"
        }
      ],
      "name": "isApprovedForAll",
      "outputs": [
        {
          "internalType": "bool",
          "name": "",
          "type": "bool"
        }
      ],
      "stateMutability": "view",
      "type": "function"
    },
    {
      "inputs": [
        {
          "internalType": "address",
          "name": "userAddress",
          "type": "address"
        }
      ],
      "name": "mint",
      "outputs": [],
      "stateMutability": "nonpayable",
      "type": "function"
    },
    {
      "inputs": [],
      "name": "name",
      "outputs": [
        {
          "internalType": "string",
          "name": "",
          "type": "string"
        }
      ],
      "stateMutability": "view",
      "type": "function"
    },
    {
      "inputs": [],
      "name": "owner",
      "outputs": [
        {
          "internalType": "address",
          "name": "",
          "type": "address"
        }
      ],
      "stateMutability": "view",
      "type": "function"
    },
    {
      "inputs": [
        {
          "internalType": "uint256",
          "name": "tokenId",
          "type": "uint256"
        }
      ],
      "name": "ownerOf",
      "outputs": [
        {
          "internalType": "address",
          "name": "",
          "type": "address"
        }
      ],
      "stateMutability": "view",
      "type": "function"
    },
    {
      "inputs": [
        {
          "internalType": "uint256",
          "name": "",
          "type": "uint256"
        }
      ],
      "name": "poolByIds",
      "outputs": [
        {
          "internalType": "address",
          "name": "",
          "type": "address"
        }
      ],
      "stateMutability": "view",
      "type": "function"
    },
    {
      "inputs": [
        {
          "internalType": "uint256",
          "name": "id",
          "type": "uint256"
        }
      ],
      "name": "renderTokenById",
      "outputs": [
        {
          "internalType": "string",
          "name": "",
          "type": "string"
        }
      ],
      "stateMutability": "view",
      "type": "function"
    },
    {
      "inputs": [],
      "name": "renounceOwnership",
      "outputs": [],
      "stateMutability": "nonpayable",
      "type": "function"
    },
    {
      "inputs": [
        {
          "internalType": "bytes32",
          "name": "role",
          "type": "bytes32"
        },
        {
          "internalType": "address",
          "name": "account",
          "type": "address"
        }
      ],
      "name": "renounceRole",
      "outputs": [],
      "stateMutability": "nonpayable",
      "type": "function"
    },
    {
      "inputs": [
        {
          "internalType": "bytes32",
          "name": "role",
          "type": "bytes32"
        },
        {
          "internalType": "address",
          "name": "account",
          "type": "address"
        }
      ],
      "name": "revokeRole",
      "outputs": [],
      "stateMutability": "nonpayable",
      "type": "function"
    },
    {
      "inputs": [
        {
          "internalType": "address",
          "name": "from",
          "type": "address"
        },
        {
          "internalType": "address",
          "name": "to",
          "type": "address"
        },
        {
          "internalType": "uint256",
          "name": "tokenId",
          "type": "uint256"
        }
      ],
      "name": "safeTransferFrom",
      "outputs": [],
      "stateMutability": "nonpayable",
      "type": "function"
    },
    {
      "inputs": [
        {
          "internalType": "address",
          "name": "from",
          "type": "address"
        },
        {
          "internalType": "address",
          "name": "to",
          "type": "address"
        },
        {
          "internalType": "uint256",
          "name": "tokenId",
          "type": "uint256"
        },
        {
          "internalType": "bytes",
          "name": "data",
          "type": "bytes"
        }
      ],
      "name": "safeTransferFrom",
      "outputs": [],
      "stateMutability": "nonpayable",
      "type": "function"
    },
    {
      "inputs": [
        {
          "internalType": "address",
          "name": "operator",
          "type": "address"
        },
        {
          "internalType": "bool",
          "name": "approved",
          "type": "bool"
        }
      ],
      "name": "setApprovalForAll",
      "outputs": [],
      "stateMutability": "nonpayable",
      "type": "function"
    },
    {
      "inputs": [
        {
          "internalType": "bytes4",
          "name": "interfaceId",
          "type": "bytes4"
        }
      ],
      "name": "supportsInterface",
      "outputs": [
        {
          "internalType": "bool",
          "name": "",
          "type": "bool"
        }
      ],
      "stateMutability": "view",
      "type": "function"
    },
    {
      "inputs": [],
      "name": "symbol",
      "outputs": [
        {
          "internalType": "string",
          "name": "",
          "type": "string"
        }
      ],
      "stateMutability": "view",
      "type": "function"
    },
    {
      "inputs": [
        {
          "internalType": "uint256",
          "name": "index",
          "type": "uint256"
        }
      ],
      "name": "tokenByIndex",
      "outputs": [
        {
          "internalType": "uint256",
          "name": "",
          "type": "uint256"
        }
      ],
      "stateMutability": "view",
      "type": "function"
    },
    {
      "inputs": [
        {
          "internalType": "address",
          "name": "owner",
          "type": "address"
        },
        {
          "internalType": "uint256",
          "name": "index",
          "type": "uint256"
        }
      ],
      "name": "tokenOfOwnerByIndex",
      "outputs": [
        {
          "internalType": "uint256",
          "name": "",
          "type": "uint256"
        }
      ],
      "stateMutability": "view",
      "type": "function"
    },
    {
      "inputs": [
        {
          "internalType": "uint256",
          "name": "id",
          "type": "uint256"
        }
      ],
      "name": "tokenURI",
      "outputs": [
        {
          "internalType": "string",
          "name": "",
          "type": "string"
        }
      ],
      "stateMutability": "view",
      "type": "function"
    },
    {
      "inputs": [],
      "name": "totalSupply",
      "outputs": [
        {
          "internalType": "uint256",
          "name": "",
          "type": "uint256"
        }
      ],
      "stateMutability": "view",
      "type": "function"
    },
    {
      "inputs": [
        {
          "internalType": "address",
          "name": "from",
          "type": "address"
        },
        {
          "internalType": "address",
          "name": "to",
          "type": "address"
        },
        {
          "internalType": "uint256",
          "name": "tokenId",
          "type": "uint256"
        }
      ],
      "name": "transferFrom",
      "outputs": [],
      "stateMutability": "nonpayable",
      "type": "function"
    },
    {
      "inputs": [
        {
          "internalType": "address",
          "name": "newOwner",
          "type": "address"
        }
      ],
      "name": "transferOwnership",
      "outputs": [],
      "stateMutability": "nonpayable",
      "type": "function"
    }
  ],
  "transactionHash": "0xa08b2b39ea2b0d779776119daf5dec2e922ceebb822784481aa46bad7ff7f861",
  "args": [
    "0xE4804B47a28B3692A68B9e88b3e5aE839B24f3a4"
  ],
  "solcInputHash": "cdf68d564db34a5a556608fd16d4355f",
  "bytecode": "0x60803462000407576001600160401b0390601f1990601f9062002791388190038381018516830192919086841183851017620003f157808392604095865283396020928391810103126200040757516001600160a01b03958682169182900362000407576200006d6200040c565b94600b86526a4652454e5320536861726560a81b848701526200008f6200040c565b60058152644652454e5360d81b85820152865197838911620003f1576000988954986001998a81811c91168015620003e6575b89821014620003d2579081868493116200037f575b5088908683116001146200031e578c9262000312575b5050600019600383901b1c191690891b1789555b8151938411620002fe5787548881811c91168015620002f3575b87821014620002df57908184869594931162000288575b508692841160011462000227575088926200021b575b5050600019600383901b1c191690851b1784555b600b8054336001600160a01b031980831682179093558551989091167f8be0079c531659141344cd1fd0a4f28419497f9722a3daafe3b4186f6b6457e0888aa3600c541617600c55838052600a8152818420338552815260ff828520541615620001ce575b61236485816200042d8239f35b838052600a8152818420903385525282209060ff19825416179055339033907f2f8788117e7eff1d82e926ec794901d17c78024a50270940304540a733656f0d8185a438808080620001c1565b01519050388062000148565b888a52868a20899590939291168a5b8882821062000271575050841162000257575b505050811b0184556200015c565b015160001960f88460031b161c1916905538808062000249565b8385015186558b9790950194938401930162000236565b9091929350888a52868a208480870160051c820192898810620002d5575b9187968c92969594930160051c01915b828110620002c657505062000132565b8c81558796508b9101620002b6565b92508192620002a6565b634e487b7160e01b8a52602260045260248afd5b90607f16906200011b565b634e487b7160e01b89526041600452602489fd5b015190503880620000ed565b908c91858d95168380528b8420935b8c8282106200036857505084116200034e575b505050811b01895562000101565b015160001960f88460031b161c1916905538808062000340565b8385015186558f979095019493840193016200032d565b9091508b8052888c208680850160051c8201928b8610620003c8575b918d91869594930160051c01915b828110620003b9575050620000d7565b8e81558594508d9101620003a9565b925081926200039b565b634e487b7160e01b8c52602260045260248cfd5b90607f1690620000c2565b634e487b7160e01b600052604160045260246000fd5b600080fd5b60408051919082016001600160401b03811183821017620003f15760405256fe6080604081815260048036101561001557600080fd5b600092833560e01c90816301ffc9a7146115065750806306fdde031461143b578063081812fc1461141b578063095ea7b3146112ad5780630bc59b381461125c57806318160ddd1461128e5780631dc82a751461125c57806323b872dd14611236578063248a9ca31461120c5780632f2ff15d146111635780632f745c59146110b757806336568abe1461102757806342842e0e14610fcb57806342966c6814610c865780634f558e7914610c475780634f6ccce714610bb45780636352211e14610b835780636a6278421461091557806370a08231146108e8578063715018a6146108885780638da5cb5b1461085f57806391d148541461081957806395d89b4114610703578063a217fddf146106e8578063a22cb46514610619578063a2d6c6da14610552578063b88d4fde146104a0578063c87b56dd14610317578063d5391393146102dc578063d547741f1461029e578063e985e9c51461024c5763f2fde38b1461018357600080fd5b346102485760203660031901126102485761019c6115ee565b6101a4611a56565b6001600160a01b039081169182156101f65750600b5492826001600160601b0360a01b851617600b555192167f8be0079c531659141344cd1fd0a4f28419497f9722a3daafe3b4186f6b6457e08484a3f35b608490602085519162461bcd60e51b8352820152602660248201527f4f776e61626c653a206e6577206f776e657220697320746865207a65726f206160448201526564647265737360d01b6064820152fd5b8280fd5b50503461029a578060031936011261029a5760ff8160209361026c6115ee565b610274611609565b6001600160a01b0391821683526005875283832091168252855220549151911615158152f35b5080fd5b50346102485781600319360112610248576102d990356102bc611609565b90808552600a6020526102d4600185872001546116a8565b6119de565b51f35b50503461029a578160031936011261029a57602090517f9f2df0fed2c77648de5860a4cc508cd0818c85b8b8a1ab4ceeef8d981c8956a68152f35b509034610248576020918260031936011261049c57600c5482516f636f6e74726163742e6164647265737360801b858201908152754672656e73506f6f6c5368617265546f6b656e55524960501b6030830152602682526001600160a01b0393919260608401919085169067ffffffffffffffff831185841017610489578260248180948b948d9998978c52885190206321f8a72160e01b835260648901525afa92831561047f5787908594610444575b5050506024908551948593849263c87b56dd60e01b8452803590840152165afa93841561043957809461040f575b505061040b90519282849384528301906115c9565b0390f35b61040b92945090610431913d8091833e6104298183611654565b8101906122cf565b9290386103f6565b8251903d90823e3d90fd5b9080929394503d8311610478575b61045c8185611654565b81010312610248575183811681036102485790602486386103c8565b503d610452565b86513d86823e3d90fd5b634e487b7160e01b895260418452602489fd5b8380fd5b5034610248576080366003190112610248576104ba6115ee565b6104c2611609565b906044356064359367ffffffffffffffff851161054e573660238601121561054e57840135926104f18461168c565b926104fe87519485611654565b84845287366024878901011161054b576020866105469760246102d99a0183890137860101526105366105318433611caa565b611bd5565b610541838383611d72565b61219a565b611c8a565b80fd5b8680fd5b509034610248576020918260031936011261049c57838135808252600d85528260018060a01b0386818786205416875196878092638ae578fd60e01b82525afa94851561047f5784956105de575b50906024918651958694859363516b636d60e11b8552840152165afa93841561043957809461040f57505061040b90519282849384528301906115c9565b9094508681813d8311610612575b6105f68183611654565b8101031261049c575190848216820361049c57909360246105a0565b503d6105ec565b50346102485781600319360112610248576106326115ee565b602435908115158092036106e4576001600160a01b0316913383146106a15750338452600560205282842082855260205282842060ff1981541660ff831617905582519081527f17307eab39ab6107e8899845ad3d59bd9653f200f220920489ca2b5937696c3160203392a351f35b606490602085519162461bcd60e51b8352820152601960248201527f4552433732313a20617070726f766520746f2063616c6c6572000000000000006044820152fd5b8480fd5b50503461029a578160031936011261029a5751908152602090f35b50913461054b578060031936011261054b578151918160019283549384811c9181861695861561080f575b60209687851081146107fc578899509688969785829a5291826000146107d557505060011461077a575b50505061040b929161076b910385611654565b519282849384528301906115c9565b91908693508083527fb10e2d527612073b26eecdfd717e6a320cf44b4afac2b0732d9fcbe2b7fa0cf65b8284106107bd575050508201018161076b61040b610758565b8054848a0186015288955087949093019281016107a4565b60ff19168782015293151560051b8601909301935084925061076b915061040b9050610758565b634e487b7160e01b835260228a52602483fd5b92607f169261072e565b50346102485781600319360112610248578160209360ff92610839611609565b90358252600a86528282206001600160a01b039091168252855220549151911615158152f35b50503461029a578160031936011261029a57600b5490516001600160a01b039091168152602090f35b50503461029a578160031936011261029a576108a2611a56565b600b80546001600160a01b0319811690915590519082906001600160a01b03167f8be0079c531659141344cd1fd0a4f28419497f9722a3daafe3b4186f6b6457e08284a3f35b50503461029a57602036600319011261029a5760209061090e6109096115ee565b611aae565b9051908152f35b5091903461029a57602080600319360112610248576109326115ee565b7f9f2df0fed2c77648de5860a4cc508cd0818c85b8b8a1ab4ceeef8d981c8956a68452600a8252828420338552825260ff838520541615610b405760085490818552600d8352838520926001600160601b0360a01b93338582541617905584519381850185811067ffffffffffffffff821117610b2d5786528685526001600160a01b038316918215610aec576000858152600260205260409020546109e4906001600160a01b031615155b15612283565b6008548589526009825280888a2055600160401b811015610ad957926102d99694926002879593610a3e87610a238760016105469d9901600855612225565b90919082549060031b600019811b9283911b16911916179055565b8b858c610a4a89611aae565b878452600685528184208185528552922055858d52600782528b8d2055600d8152600085815260026020526040902054610a8e906001600160a01b031615156109de565b838c52600381528a8c2060018154019055848c525281898b2091825416179055887fddf252ad1be2c89b69c2b068fc378daa952ba7f163c4a11628f55a4df523b3ef818a51a461207e565b634e487b7160e01b895260418a52602489fd5b888160649289519262461bcd60e51b845283015260248201527f4552433732313a206d696e7420746f20746865207a65726f20616464726573736044820152fd5b634e487b7160e01b885260418952602488fd5b825162461bcd60e51b8152808601839052601b60248201527f796f7520617265206e6f7420616c6c6f77656420746f206d696e7400000000006044820152606490fd5b50913461054b57602036600319011261054b5750610ba360209235611b71565b90516001600160a01b039091168152f35b50823461054b57602036600319011261054b5750803590600854821015610bef57602083610be184612225565b91905490519160031b1c8152f35b608490602084519162461bcd60e51b8352820152602c60248201527f455243373231456e756d657261626c653a20676c6f62616c20696e646578206f60448201526b7574206f6620626f756e647360a01b6064820152fd5b50913461054b57602036600319011261054b5750610c7d60209235600052600260205260018060a01b0360406000205416151590565b90519015158152f35b5082903461029a5760209283600319360112610248578135808452600d8552818420546001600160a01b03939192919084163303610f7e57610cc783611b71565b848116801597918815610efd575050600854848752600982528084882055600160401b811015610eea5784610a23826001610d059401600855612225565b6008546000199590868101908111610ed75785885260098352610d2b8589205491612225565b90549060031b1c610d3f81610a2384612225565b885260098352848820558487528684812055600854978815610ec4578688999896979801610d6c81612225565b8a82549160031b1b19169055600855868652600d8352818587205416901580610ebd575b610e06575b5090600291610da387611b71565b938787528252848620936001600160601b0360a01b948581541690551696878652600382528486209081540190558585525281832090815416905551927fddf252ad1be2c89b69c2b068fc378daa952ba7f163c4a11628f55a4df523b3ef8285a4f35b84955091602491928194955192838092635a2d1e0760e11b82528a898301525afa908115610eb3578891610e79575b50610e4557908693929188610d95565b50606492519162461bcd60e51b8352820152601060248201526f6e6f74207472616e7366657261626c6560801b6044820152fd5b90508281813d8311610eac575b610e908183611654565b81010312610ea857518015158103610ea85788610e35565b8780fd5b503d610e86565b85513d8a823e3d90fd5b5085610d90565b634e487b7160e01b885260318452602488fd5b634e487b7160e01b885260118452602488fd5b634e487b7160e01b875260418352602487fd5b610f0690611aae565b600019810191908211610ed7578588526007835284882054828103610f47575b50858852878581205587526006825283872090875281528583812055610d05565b81895260068452858920838a52845285892054828a5260068552868a20828b52855280878b20558952600784528589205589610f26565b85608492519162461bcd60e51b8352820152602360248201527f63616e6e6f74206275726e207368617265732066726f6d206f7468657220706f6044820152626f6c7360e81b6064820152fd5b503461024857610fda3661161f565b91845193602085019085821067ffffffffffffffff83111761101457509161054693916102d9959387528784526105366105318433611caa565b634e487b7160e01b885260419052602487fd5b5034610248578160031936011261024857611040611609565b90336001600160a01b0383160361105c57906102d991356119de565b608490602084519162461bcd60e51b8352820152602f60248201527f416363657373436f6e74726f6c3a2063616e206f6e6c792072656e6f756e636560448201526e103937b632b9903337b91039b2b63360891b6064820152fd5b50913461054b578160031936011261054b576110d16115ee565b602435906110de81611aae565b82101561110c576001600160a01b031682526006602090815283832091835290815290829020548251908152f35b835162461bcd60e51b8152602081870152602b60248201527f455243373231456e756d657261626c653a206f776e657220696e646578206f7560448201526a74206f6620626f756e647360a81b6064820152608490fd5b50346102485781600319360112610248573561117d611609565b818452600a602052611194600184862001546116a8565b818452600a60209081528385206001600160a01b039092168086529190528284205460ff16156111c357505051f35b818452600a602052828420818552602052828420600160ff1982541617905533917f2f8788117e7eff1d82e926ec794901d17c78024a50270940304540a733656f0d858551a451f35b50346102485760203660031901126102485781602093600192358152600a85522001549051908152f35b50503461029a576102d96112493661161f565b916112576105318433611caa565b611d72565b503461024857602036600319011261024857358252600d6020908152918190205490516001600160a01b039091168152f35b50503461029a578160031936011261029a576020906008549051908152f35b50346102485781600319360112610248576112c66115ee565b602435916001600160a01b039081806112de86611b71565b169316928084146113ce578033149081156113af575b50156113465783865260205283852080546001600160a01b0319168317905561131c83611b71565b169251927f8c5be1e5ebec7d5bd14f71427d1e84f3dd0314c0f7b2291e5b200ac8c7c3b9258585a4f35b608490602086519162461bcd60e51b8352820152603d60248201527f4552433732313a20617070726f76652063616c6c6572206973206e6f7420746f60448201527f6b656e206f776e6572206f7220617070726f76656420666f7220616c6c0000006064820152fd5b90508652600560205284862033875260205260ff8587205416386112f4565b855162461bcd60e51b8152602081840152602160248201527f4552433732313a20617070726f76616c20746f2063757272656e74206f776e656044820152603960f91b6064820152608490fd5b50913461054b57602036600319011261054b5750610ba360209235611b97565b50913461054b578060031936011261054b5781519181825492600184811c918186169586156114fc575b60209687851081146107fc578899509688969785829a5291826000146107d55750506001146114a15750505061040b929161076b910385611654565b91908693508280527f290decd9548b62a8d60345a988386fc84ba6bc95484008f6362f93160ef3e5635b8284106114e4575050508201018161076b61040b610758565b8054848a0186015288955087949093019281016114cb565b92607f1692611465565b92505034610248576020366003190112610248573563ffffffff60e01b81168091036102485760209250637965db0b60e01b8114908115611549575b5015158152f35b63780e9d6360e01b811491508115611563575b5038611542565b6380ac58cd60e01b811491508115611595575b8115611584575b503861155c565b6301ffc9a760e01b1490503861157d565b635b5e139f60e01b81149150611576565b60005b8381106115b95750506000910152565b81810151838201526020016115a9565b906020916115e2815180928185528580860191016115a6565b601f01601f1916010190565b600435906001600160a01b038216820361160457565b600080fd5b602435906001600160a01b038216820361160457565b6060906003190112611604576001600160a01b0390600435828116810361160457916024359081168103611604579060443590565b90601f8019910116810190811067ffffffffffffffff82111761167657604052565b634e487b7160e01b600052604160045260246000fd5b67ffffffffffffffff811161167657601f01601f191660200190565b600090808252602090600a8252604092838120338252835260ff8482205416156116d25750505050565b83519167ffffffffffffffff903360608501838111868210176119ca578752602a855285850191873684378551156119b657603083538551916001928310156119a2576078602188015360295b83811161193857506118f657908751936080850190858210908211176118e2578852604284528684019460603687378451156118ce576030865384518210156118ce5790607860218601536041915b8183116118605750505061181e5761181a9386936117fe936117ef6048946117c69a519a8b957f416363657373436f6e74726f6c3a206163636f756e74200000000000000000008c88015251809260378801906115a6565b8401917001034b99036b4b9b9b4b733903937b6329607d1b6037840152518093868401906115a6565b01036028810187520185611654565b5192839262461bcd60e51b8452600484015260248301906115c9565b0390fd5b60648587519062461bcd60e51b825280600483015260248201527f537472696e67733a20686578206c656e67746820696e73756666696369656e746044820152fd5b909192600f811660108110156118ba576f181899199a1a9b1b9c1cb0b131b232b360811b901a6118908588612272565b5360041c9280156118a65760001901919061176e565b634e487b7160e01b82526011600452602482fd5b634e487b7160e01b83526032600452602483fd5b634e487b7160e01b81526032600452602490fd5b634e487b7160e01b86526041600452602486fd5b60648789519062461bcd60e51b825280600483015260248201527f537472696e67733a20686578206c656e67746820696e73756666696369656e746044820152fd5b90600f8116601081101561198e576f181899199a1a9b1b9c1cb0b131b232b360811b901a611966838a612272565b5360041c90801561197a576000190161171f565b634e487b7160e01b87526011600452602487fd5b634e487b7160e01b88526032600452602488fd5b634e487b7160e01b86526032600452602486fd5b634e487b7160e01b85526032600452602485fd5b634e487b7160e01b85526041600452602485fd5b90600091808352600a602052604083209160018060a01b03169182845260205260ff604084205416611a0f57505050565b808352600a602052604083208284526020526040832060ff1981541690557ff6391f5c32d9c69d2a47ea670b442974b53935d1edc7fd64eb21e047a839171b3393604051a4565b600b546001600160a01b03163303611a6a57565b606460405162461bcd60e51b815260206004820152602060248201527f4f776e61626c653a2063616c6c6572206973206e6f7420746865206f776e65726044820152fd5b6001600160a01b03168015611ace57600052600360205260406000205490565b60405162461bcd60e51b815260206004820152602960248201527f4552433732313a2061646472657373207a65726f206973206e6f7420612076616044820152683634b21037bbb732b960b91b6064820152608490fd5b15611b2c57565b60405162461bcd60e51b815260206004820152601860248201527f4552433732313a20696e76616c696420746f6b656e20494400000000000000006044820152606490fd5b6000908152600260205260409020546001600160a01b0316611b94811515611b25565b90565b600081815260026020526040902054611bba906001600160a01b03161515611b25565b6000908152600460205260409020546001600160a01b031690565b15611bdc57565b60405162461bcd60e51b815260206004820152602d60248201527f4552433732313a2063616c6c6572206973206e6f7420746f6b656e206f776e6560448201526c1c881bdc88185c1c1c9bdd9959609a1b6064820152608490fd5b60809060208152603260208201527f4552433732313a207472616e7366657220746f206e6f6e20455243373231526560408201527131b2b4bb32b91034b6b83632b6b2b73a32b960711b60608201520190565b15611c9157565b60405162461bcd60e51b81528061181a60048201611c37565b906001600160a01b038080611cbe84611b71565b16931691838314938415611cf1575b508315611cdb575b50505090565b611ce791929350611b97565b1614388080611cd5565b909350600052600560205260406000208260005260205260ff604060002054169238611ccd565b15611d1f57565b60405162461bcd60e51b815260206004820152602560248201527f4552433732313a207472616e736665722066726f6d20696e636f72726563742060448201526437bbb732b960d91b6064820152608490fd5b611d9790611d7f84611b71565b6001600160a01b038083169390929183168414611d18565b81841693841561202d578315918215611f81575060085486600052600960205280604060002055600160401b8110156116765786610a23826001611dde9401600855612225565b838503611f4e575b5060009185835283602091600d8352604093818587205416901580611f46575b611e96575b507fddf252ad1be2c89b69c2b068fc378daa952ba7f163c4a11628f55a4df523b3ef94939291611e4591611e3e8a611b71565b1614611d18565b868352600481526002828420916001600160601b0360a01b928381541690558685526003815283852060001981540190558785528385206001815401905588855252858284209182541617905551a4565b60249192508390855192838092635a2d1e0760e11b82528c60048301525afa908115611f3c578591611f06575b50611ed057849038611e0b565b50606491519062461bcd60e51b82526004820152601060248201526f6e6f74207472616e7366657261626c6560801b6044820152fd5b90508281813d8311611f35575b611f1d8183611654565b810103126106e4575180151581036106e45738611ec3565b503d611f13565b84513d87823e3d90fd5b506001611e06565b611f5790611aae565b60406000868152600660205281812083825260205287828220558781526007602052205538611de6565b858503611f8f575b50611dde565b611f9890611aae565b6000198101908111612017576000908782526020906007825260409182842054828103611fe0575b508984528383812055878452600681528284209184525281205538611f89565b8885526006825283852083865282528385205489865260068352848620828752835280858720558552600782528385205538611fc0565b634e487b7160e01b600052601160045260246000fd5b60405162461bcd60e51b8152602060048201526024808201527f4552433732313a207472616e7366657220746f20746865207a65726f206164646044820152637265737360e01b6064820152608490fd5b9192600092909190803b15612190576120cc946040518092630a85bd0160e11b9485835233600484015287602484015260448301526080606483015281878160209a8b9660848301906115c9565b03926001600160a01b03165af1849181612150575b5061213f575050503d600014612137573d6120fb8161168c565b906121096040519283611654565b81528091833d92013e5b805191826121345760405162461bcd60e51b81528061181a60048201611c37565b01fd5b506060612113565b6001600160e01b0319161492509050565b9091508581813d8311612189575b6121688183611654565b810103126106e457516001600160e01b0319811681036106e45790386120e1565b503d61215e565b5050915050600190565b9293600093909291803b1561221a579484916121f49660405180948193630a85bd0160e11b9788845233600485015260018060a01b0380921660248501526044840152608060648401528260209b8c9760848301906115c9565b0393165af1849181612150575061213f575050503d600014612137573d6120fb8161168c565b505050915050600190565b60085481101561225c5760086000527ff3f7a9fe364faab93b216da50a3214154f22a0a2b415b23a84c8169e8b636ee30190600090565b634e487b7160e01b600052603260045260246000fd5b90815181101561225c570160200190565b1561228a57565b60405162461bcd60e51b815260206004820152601c60248201527f4552433732313a20746f6b656e20616c7265616479206d696e746564000000006044820152606490fd5b6020818303126116045780519067ffffffffffffffff8211611604570181601f820112156116045780516123028161168c565b926123106040519485611654565b8184526020828401011161160457611b9491602080850191016115a656fea264697066735822122004151afca336c5e7d59d308f2a37a0aaf992f01046cccdf2629dabb2551c6da064736f6c63430008100033",
  "devdoc": {
    "kind": "dev",
    "methods": {
      "approve(address,uint256)": {
        "details": "See {IERC721-approve}."
      },
      "balanceOf(address)": {
        "details": "See {IERC721-balanceOf}."
      },
      "getApproved(uint256)": {
        "details": "See {IERC721-getApproved}."
      },
      "getRoleAdmin(bytes32)": {
        "details": "Returns the admin role that controls `role`. See {grantRole} and {revokeRole}. To change a role's admin, use {_setRoleAdmin}."
      },
      "grantRole(bytes32,address)": {
        "details": "Grants `role` to `account`. If `account` had not been already granted `role`, emits a {RoleGranted} event. Requirements: - the caller must have ``role``'s admin role. May emit a {RoleGranted} event."
      },
      "hasRole(bytes32,address)": {
        "details": "Returns `true` if `account` has been granted `role`."
      },
      "isApprovedForAll(address,address)": {
        "details": "See {IERC721-isApprovedForAll}."
      },
      "name()": {
        "details": "See {IERC721Metadata-name}."
      },
      "owner()": {
        "details": "Returns the address of the current owner."
      },
      "ownerOf(uint256)": {
        "details": "See {IERC721-ownerOf}."
      },
      "renounceOwnership()": {
        "details": "Leaves the contract without owner. It will not be possible to call `onlyOwner` functions anymore. Can only be called by the current owner. NOTE: Renouncing ownership will leave the contract without an owner, thereby removing any functionality that is only available to the owner."
      },
      "renounceRole(bytes32,address)": {
        "details": "Revokes `role` from the calling account. Roles are often managed via {grantRole} and {revokeRole}: this function's purpose is to provide a mechanism for accounts to lose their privileges if they are compromised (such as when a trusted device is misplaced). If the calling account had been revoked `role`, emits a {RoleRevoked} event. Requirements: - the caller must be `account`. May emit a {RoleRevoked} event."
      },
      "revokeRole(bytes32,address)": {
        "details": "Revokes `role` from `account`. If `account` had been granted `role`, emits a {RoleRevoked} event. Requirements: - the caller must have ``role``'s admin role. May emit a {RoleRevoked} event."
      },
      "safeTransferFrom(address,address,uint256)": {
        "details": "See {IERC721-safeTransferFrom}."
      },
      "safeTransferFrom(address,address,uint256,bytes)": {
        "details": "See {IERC721-safeTransferFrom}."
      },
      "setApprovalForAll(address,bool)": {
        "details": "See {IERC721-setApprovalForAll}."
      },
      "symbol()": {
        "details": "See {IERC721Metadata-symbol}."
      },
      "tokenByIndex(uint256)": {
        "details": "See {IERC721Enumerable-tokenByIndex}."
      },
      "tokenOfOwnerByIndex(address,uint256)": {
        "details": "See {IERC721Enumerable-tokenOfOwnerByIndex}."
      },
      "totalSupply()": {
        "details": "See {IERC721Enumerable-totalSupply}."
      },
      "transferFrom(address,address,uint256)": {
        "details": "See {IERC721-transferFrom}."
      },
      "transferOwnership(address)": {
        "details": "Transfers ownership of the contract to a new account (`newOwner`). Can only be called by the current owner."
      }
    },
    "version": 1
  },
  "userdoc": {
    "kind": "user",
    "methods": {},
    "version": 1
  },
  "storageLayout": {
    "storage": [
      {
        "astId": 530,
        "contract": "contracts/FrensPoolShare.sol:FrensPoolShare",
        "label": "_name",
        "offset": 0,
        "slot": "0",
        "type": "t_string_storage"
      },
      {
        "astId": 532,
        "contract": "contracts/FrensPoolShare.sol:FrensPoolShare",
        "label": "_symbol",
        "offset": 0,
        "slot": "1",
        "type": "t_string_storage"
      },
      {
        "astId": 536,
        "contract": "contracts/FrensPoolShare.sol:FrensPoolShare",
        "label": "_owners",
        "offset": 0,
        "slot": "2",
        "type": "t_mapping(t_uint256,t_address)"
      },
      {
        "astId": 540,
        "contract": "contracts/FrensPoolShare.sol:FrensPoolShare",
        "label": "_balances",
        "offset": 0,
        "slot": "3",
        "type": "t_mapping(t_address,t_uint256)"
      },
      {
        "astId": 544,
        "contract": "contracts/FrensPoolShare.sol:FrensPoolShare",
        "label": "_tokenApprovals",
        "offset": 0,
        "slot": "4",
        "type": "t_mapping(t_uint256,t_address)"
      },
      {
        "astId": 550,
        "contract": "contracts/FrensPoolShare.sol:FrensPoolShare",
        "label": "_operatorApprovals",
        "offset": 0,
        "slot": "5",
        "type": "t_mapping(t_address,t_mapping(t_address,t_bool))"
      },
      {
        "astId": 1598,
        "contract": "contracts/FrensPoolShare.sol:FrensPoolShare",
        "label": "_ownedTokens",
        "offset": 0,
        "slot": "6",
        "type": "t_mapping(t_address,t_mapping(t_uint256,t_uint256))"
      },
      {
        "astId": 1602,
        "contract": "contracts/FrensPoolShare.sol:FrensPoolShare",
        "label": "_ownedTokensIndex",
        "offset": 0,
        "slot": "7",
        "type": "t_mapping(t_uint256,t_uint256)"
      },
      {
        "astId": 1605,
        "contract": "contracts/FrensPoolShare.sol:FrensPoolShare",
        "label": "_allTokens",
        "offset": 0,
        "slot": "8",
        "type": "t_array(t_uint256)dyn_storage"
      },
      {
        "astId": 1609,
        "contract": "contracts/FrensPoolShare.sol:FrensPoolShare",
        "label": "_allTokensIndex",
        "offset": 0,
        "slot": "9",
        "type": "t_mapping(t_uint256,t_uint256)"
      },
      {
        "astId": 24,
        "contract": "contracts/FrensPoolShare.sol:FrensPoolShare",
        "label": "_roles",
        "offset": 0,
        "slot": "10",
        "type": "t_mapping(t_bytes32,t_struct(RoleData)19_storage)"
      },
      {
        "astId": 396,
        "contract": "contracts/FrensPoolShare.sol:FrensPoolShare",
        "label": "_owner",
        "offset": 0,
        "slot": "11",
        "type": "t_address"
      },
      {
        "astId": 4166,
        "contract": "contracts/FrensPoolShare.sol:FrensPoolShare",
        "label": "frensStorage",
        "offset": 0,
        "slot": "12",
        "type": "t_contract(IFrensStorage)6452"
      },
      {
        "astId": 4170,
        "contract": "contracts/FrensPoolShare.sol:FrensPoolShare",
        "label": "poolByIds",
        "offset": 0,
        "slot": "13",
        "type": "t_mapping(t_uint256,t_address)"
      }
    ],
    "types": {
      "t_address": {
        "encoding": "inplace",
        "label": "address",
        "numberOfBytes": "20"
      },
      "t_array(t_uint256)dyn_storage": {
        "base": "t_uint256",
        "encoding": "dynamic_array",
        "label": "uint256[]",
        "numberOfBytes": "32"
      },
      "t_bool": {
        "encoding": "inplace",
        "label": "bool",
        "numberOfBytes": "1"
      },
      "t_bytes32": {
        "encoding": "inplace",
        "label": "bytes32",
        "numberOfBytes": "32"
      },
      "t_contract(IFrensStorage)6452": {
        "encoding": "inplace",
        "label": "contract IFrensStorage",
        "numberOfBytes": "20"
      },
      "t_mapping(t_address,t_bool)": {
        "encoding": "mapping",
        "key": "t_address",
        "label": "mapping(address => bool)",
        "numberOfBytes": "32",
        "value": "t_bool"
      },
      "t_mapping(t_address,t_mapping(t_address,t_bool))": {
        "encoding": "mapping",
        "key": "t_address",
        "label": "mapping(address => mapping(address => bool))",
        "numberOfBytes": "32",
        "value": "t_mapping(t_address,t_bool)"
      },
      "t_mapping(t_address,t_mapping(t_uint256,t_uint256))": {
        "encoding": "mapping",
        "key": "t_address",
        "label": "mapping(address => mapping(uint256 => uint256))",
        "numberOfBytes": "32",
        "value": "t_mapping(t_uint256,t_uint256)"
      },
      "t_mapping(t_address,t_uint256)": {
        "encoding": "mapping",
        "key": "t_address",
        "label": "mapping(address => uint256)",
        "numberOfBytes": "32",
        "value": "t_uint256"
      },
      "t_mapping(t_bytes32,t_struct(RoleData)19_storage)": {
        "encoding": "mapping",
        "key": "t_bytes32",
        "label": "mapping(bytes32 => struct AccessControl.RoleData)",
        "numberOfBytes": "32",
        "value": "t_struct(RoleData)19_storage"
      },
      "t_mapping(t_uint256,t_address)": {
        "encoding": "mapping",
        "key": "t_uint256",
        "label": "mapping(uint256 => address)",
        "numberOfBytes": "32",
        "value": "t_address"
      },
      "t_mapping(t_uint256,t_uint256)": {
        "encoding": "mapping",
        "key": "t_uint256",
        "label": "mapping(uint256 => uint256)",
        "numberOfBytes": "32",
        "value": "t_uint256"
      },
      "t_string_storage": {
        "encoding": "bytes",
        "label": "string",
        "numberOfBytes": "32"
      },
      "t_struct(RoleData)19_storage": {
        "encoding": "inplace",
        "label": "struct AccessControl.RoleData",
        "members": [
          {
            "astId": 16,
            "contract": "contracts/FrensPoolShare.sol:FrensPoolShare",
            "label": "members",
            "offset": 0,
            "slot": "0",
            "type": "t_mapping(t_address,t_bool)"
          },
          {
            "astId": 18,
            "contract": "contracts/FrensPoolShare.sol:FrensPoolShare",
            "label": "adminRole",
            "offset": 0,
            "slot": "1",
            "type": "t_bytes32"
          }
        ],
        "numberOfBytes": "64"
      },
      "t_uint256": {
        "encoding": "inplace",
        "label": "uint256",
        "numberOfBytes": "32"
      }
    }
  }
}