{
  "address": "0xf3Ab1Fead9C0505E3b15a85197bd37d81F078850",
  "abi": [
    {
      "inputs": [],
      "name": "getLogo",
      "outputs": [
        {
          "internalType": "bytes",
          "name": "",
          "type": "bytes"
        }
      ],
      "stateMutability": "pure",
      "type": "function"
    }
  ],
  "transactionHash": "0x8b0041f15619d93a106da364dc6b98f60c15ab245fd9598b6403903f5140b344",
  "args": [],
  "solcInputHash": "254d7cc22683fd4aa275a6f298a3ef34",
  "bytecode": "0x6080806040523461001657612533908161001c8239f35b600080fdfe6080600436101561000f57600080fd5b6000803560e01c630b6700d61461002557600080fd5b346124fa57806003193601126124fa576020917f3c696d61676520207472616e73666f726d3d226d6174726978282e34302c302c838201527f302c2e34302c302c302922202020786c696e6b3a687265663d22646174613a6960408201527f6d6167652f706e673b6261736536342c6956424f5277304b47676f414141414e60608201527f5355684555674141412b6b414141507041514d4141414254382f34384141414160808201527f426c424d56455541414141412f2f38625161737741414141416e5253546c4d4160a08201527f50726679304a4d41414257365355524256486a61374e6578626355774445565260c08201527f436935556167526e4534336d6e38312b4e6e453263446f48634d6859634b465760e08201527f33514f456578613433534e6f41414141414141414141414141414141414141416101008201527f4141414141414141414141414141414141414141414141416d4e53485356306d6101208201527f3561615574506b6c54476d4a6c776c6c626237453234524b3743613061764d316101408201527f446873335733364c303451694c6873335754354675416e30664a6a4f6f73336e6101608201527f434f586f3533446c364a632f61583739395730336c5a6176776e7a39385871596101808201527f7a50627436326d6a5a7376486c35664c56466f2b75366d6b2b46546d6c3067756101a08201527f6554523650756c47503773305836376b4e6a7a36732b585838383772626b34396101c08201527f37767a77364d2b57332f59374c786e396e74654e667279562b5253764f79385a6101e08201527f2f5a35586a58344c4b2f505a573335303947664c6c36766c5a614f2f6e69302f6102008201527f4f76717a3565765238704c5237336e5a36472b374e422f766c74654d6673396e6102208201527f5454374636386d374b5378684c5438342b72506c737a39353065695836386b506102408201527f6a76356b2b665638386f725237336e56364e64446d742f324a36385a2f5a34766102608201527f2f397a5873616c4549525345345630324d4c51455337453058326d5759676d476102808201527f42714b504338496f7770364e35734370344d762b595654346d5266503352776b6102a08201527f662f452f526438592f36542b345a5769373862696634752b4d643733786574456102c08201527f333766463630512f36504b784c7034632f5a7350436e777134425769502f50696102e08201527f6634712b4d6635707a654b7030556679462f395439493378626f4258694c37726103008201527f3442576937335835304d427a6f332f7a6b633748436c3568633149424c3066666103208201527f476a387a65474c306b587a776376534e38552f6d77644f6a2f786e6746614c766103408201527f64486e6677524f694c2f434a7a496347586d467a59675650694c3741427a4b666103608201527f436e6946364d384d586f362b4d66377044486861394d472f77504f6a2f39486c6103808201527f33514250694c374576376938372b41564e6963303849546f6933796b387247436103a08201527f56396963564d444c306266477a7778654966727a447a772f2b6d386c48736b486103c08201527f5434332b7a664f6a37345971377a74345276526c50684835304d4172624536736103e08201527f344f586f572b4e54416138512f5a54424b30522f3676426f4448687139472b656104008201527f474831516d72776247382b4e2f7333546a34627647382f666e4e4132586f362b6104208201527f4d5437576a6564485035614e3530632f3666497a627a77312b6a66506a5434436104408201527f782b6552642f426939446e386d385737736650307a6646393538586f472b4e446104608201527f32336c3639455064655872306f793666797335546f332f7a394f6a50724d536a6104808201527f4c2b436c364c5034443446483873467a4e38654e6735656962347a332f65445a6104a08201527f30512f74344b586f472b4e6a5058687139472b654866315556506d5a443136496104c08201527f506f39334242353141632f61484b516476424239593777624a302b4f7675386e6104e08201527f4c30546647422f6179564f6a662f4f6b364d4e5135564d3565534836524e34546105008201527f2b4a6c506e72673561417634373945337869507334496e52642b5069763058666105208201527f47502f507264336a5741314455514447697342434947554a626c6b436e646b456105408201527f4e567567707342764279774a53327a454853576d776b4c4242347a762b4e67596105608201527f55643042695251776b78664e35352f63342f793838397034686444583465382f6105808201527f3946333570377a50473638512b6a71387533632b7049332f6d32734f3473622f6105a08201527f4966542f4d35374a517636766854356a6e667766512f382f34323364654958516105c08201527f312b4876502f545036352f79726d79385175687238663665655a393366762f596105e08201527f7646466d4f626f377677394f41412f372b2f7742334e506167376a78653247636106008201527f514e566c6d5373627638654342336a63332b63446f42344144505756337a38336106208201527f414c5450765666416935312f5170366a637a512b712b6f6e674c70462f6747556106408201527f6e62654e4c37707a33726134526a375073625579546e582b524e7375386d78556106608201527f3372354736667178696c734130487136527237646e5a44366d4b43716a7a32516106808201527f6c386876446b65666f522b302b565034612b58377a766862486f7138673277686106a08201527f37574f536677313961504d42774e3556432f41635a2b6762414b71706130422b6106c08201527f483550364333396f387766353233626d4157766f74365078535a4d2f6638397a6106e08201527f33784c36466969483570726a6470355449684435733630336d72776e6e376a586107008201527f6a6e336d35527a364a7842562b55432b37464f43354b666f773830424e3137746107208201527f36664a304f43576635776c41644b675056486c77712f7555724e6b546b6965766107408201527f562f5a66487a7a45576d5759747a727a5632746230697a37656a665a6b5931616107608201527f4e6f5a2b5146486e3031312f30354a462b6647763165644b5146626c4c5942786107808201527f73755635622b58356e7761507a6d6446766f774f6c376e754d7565676a4e41486107a08201527f6b6d72767a39473375664b636a4868594b394c326b58444969767874314671646107c08201527f3632355a393868484e5634414e675254466c317a2b50474d564f6672394c64766107e08201527f4c5073386f702f3754662f52612f4c5846445752544a496d62627879377774486108008201527f5848674f684d46612b47306556486c503367467043514f4762394c6d616561706108208201527f43504c67723458505934437164752f7a6d6b44536b434c65796e74316e676c6d6108408201527f5270396442386d586366536c7a664e504464344469614d64794c7637347356696108608201527f4466426a433179734532322b384f6337486b7a69316737796e727832374443416108808201527f4456434864354e5234566a70687936586e343258555a465a30656578386364386108a08201527f7269334836504e434368735a414f545077514e4a6c7a38374f586865677043336108c08201527f57486d7679532b356b3771353873666443426b673676626559767062354f4d666108e08201527f6550314c7a5a58336e52753857586a7436337757666b4357304f4f5a535657476109008201527f516133337248476d43734f582f4c696a74734c72337550647942637550622f6e6109208201527f48366a79764d4c6a696d4932506f683336764d425343742f73426732766d712f6109408201527f5450495464754c36492b2f30655165556c6263636a34322f74506c7a6d6d6d4c6109608201527f363563633973746b652b4835755562753149322f7366666b57526c61504738706109808201527f794d7369654853777a6c646b515a3833552b556471413144362f4b6a7a6d506d6109a08201527f67557865752f4c4974332b66547231334b382f685571733838704b357a3364656109c08201527f466d5244587133797945766d767535444d2f5048777574586e68472b4e53662f6109e08201527f6c6f2f71764155773877594e4d326e6e626563504f563676386e626578733566610a008201527f35435551794f7456486e6d5a34625076677643464378353576636f6a4c305073610a208201527f6269762f6a4e66376c72787535526e676a766439447839776c62486732663666610a408201527f5a755778397a4c4462345576636b546236615578354c55716a377a4d6342664d610a608201527f6d505132515546344f56787a7a535076476d387538744c373867447947336e64610a808201527f796a4f417a5042525a45636576612f3650433932522b2f37444e73694c63756a610aa08201527f392b69427743635369705558795966476e316c3439683466674b544e38306b53610ac08201527f2b565a6a66596564652f395244677649717277444d6e6b3033742f786962332f610ae08201527f416b52746e6b385279656366524a78357437786d68544a7667577677426f3145610b008201527f6c495a4639703538557555506f4171502b4a4d3348524b65765a654464486b44610b208201527f506c47374469434f4c7a4335746665564e2f6d61322f7a342f73504b33396837610b408201527f6d614a446e666441764f4f2f744b6259657666427a6c74707133726838347368610b608201527f352b2f356f73377a52514c3548393746577a7a7949774c56594b373435437635610b808201527f3846752b3676505877767369664a585076356b41534161703833376d32343942610ba08201527f654e525266796541794c74737a5330416465475268622b45353533772f664279610bc08201527f4353336e39316742752b5178585255454647582b4c73364e38456234677a7766610be08201527f4e6b4b624e336750784e48375446346b4c7a652b776d64742f7033637577702f610c008201527f6a4d6549776f4e7a627454354132666e44336c6a6167656632587333496a3870610c208201527f382f554138734c4c65697438364879356e7858484e7237386245666e7a38456e610c408201527f34646b57713836666c774775753246412f69464a477136385850667038772b41610c608201527f32766972783738622f485358623956356667553033504548634133656934544f610c808201527f5237376f306478386c6d6435522b6e6c37636537334e764d4a39364f4b2f4d4f610ca08201527f754858654152502f34432f7749636e4c712b4d37625765505a44554d4247474d610cc08201527f4b42534b69465463784e79456931436c70516734426c637878514867434b5949610ce08201527f534532457168427577433352466b2f3842474d462b2b4e3974642f4f3836686e610d008201527f4e4e4a344e79597a44592b4b3537516750706d4c37672b79723369577a5a4c53610d208201527f666e342b34514555637a78722b48356c756678432f4c676e67374c6e566c6250610d408201527f4b384368334f416e344d74756a4663786a2b714772506f366c396e4555334d2f610d608201527f77685476694d38563735485238486d456632754c393374625a586f574c596c58610d808201527f7850455133674e766347654e6a3854544537395666477a346176645743367532610da08201527f7168744b537a59665567612b4556736a6a76417238635a396754457a30466538610dc08201527f644732752b434438495970704e63594834682f30745a625546526d496e374772610de08201527f4c394177346d6a684749546e70566a78477a4d2b745131615362344f355a3133610e008201527f4d594747763676574d7944476249763377467349722f5675432f76434137697a610e208201527f78574f4a77436d426256383637455038476f6f702f693668544d4a50742f6837610e408201527f44543842794e36324b2b6b46734a3158447858766f56552b3866564575536e65610e608201527f346468416750434a2b4942756d653072336c6a3048655a577975337838586638610e808201527f55672f75666a6264783975427a4549324239564f473865547243662b6d2f4575610ea08201527f4a6c5a56446154317156766c302f6f41734d7868696c664a356f545859534868610ec08201527f492b417338597931505437386a7339562b666b7177315a5542626767764f3833610ee08201527f717233776c4878674d38557a785950774737583331376645337848765466454a610f008201527f7532716c7975323057526b6766454a6d586d67326745796d384c6f62386b5447610f208201527f506331524f2f77712f436d766a79676a2f4761386b61666a7163735a4c786d63610f408201527f73524450614d52595a444e554f707875385a76696259652f5a34725075676e36610f608201527f6978704a4f64654d5832395273734c54464f4631715a4b307a425a2b73722f33610f808201527f31617345394c7775664e726252572b4756337a5476616263526d317237384a62610fa08201527f393262776c776e6676745335634166684132423757464a763559777350457474610fc08201527f336339524b4558475a37596d34486638334f7236696a6a45522b795730313572610fe08201527f7155374c34686b664f6e7a52325131623378766a6456794e625a445a31764e6b6110008201527f5868412b3950693177317365315a52726a2f463663787a4a75666d4b746641456110208201527f37454d386a57555554746873525563414c37776e766c4e466a34334333467a526110408201527f556e6a49484f456e4e50784b7645544856486a63434b2f4c41537544736b54486110608201527f546e6a2b68743872666a6e776c714b6a454e5068336275473134534946532f506110808201527f7378576543636f3133343778447269543646674b5434396667494c634e57764f6110a08201527f4c447a62696f364570386650574e477732792b384234784652355072684a2b576110c08201527f4364784230546f334d514f79396a774a443554714c7471375635587455435a7a6110e08201527f30586c4534526e6a395a3777484f564f30586c696833394f34626e4270334a656111008201527f2f457a454633357275635a72777050513432736368484c2f6947395571474c6e6111208201527f646763552f654d30476c3556423063383244356875637a594b447733654a77506111408201527f696e686b5053416857692b79416e4b506237584d684b77617734784c466c6b556111608201527f6e766d4d7038366f6c4241612f7335386b55584d445a3578534273724233376e6111808201527f504447564848366b76424c66674c3744632f2f574e4e3952612b384a2f3552586111a08201527f744c48433979495a74344971762f636f766657386e72714e6c6570357747714a6111c08201527f423330766e71316e356a756834564878746d644631584542765034646a7a56416111e08201527f455963744d2b5a6e563379376f656a7848687862317a5369786d576a345943736112008201527f42676a6848656e6157476e7665724c476c3272734e734a764c52647630512f6d6112208201527f6a5448383146732f43632b705876454f74676c5045334c694e633734575046716112408201527f3554416269596a344f7a344a543658786746356e682f2f5366432f66506744736112608201527f472f474a4372786663484a6d2f6f70644d364454492b417a4c374a527172702f6112808201527f32697a784d566550466c36722f4466497265424c7645657833623850685458726112a08201527f7563647a3572314162676c6e4b79787457457a786536692b312b4d6e4e754e556112c08201527f55576842614d59485737794852786d4563546f5a646f6166397663424c3230586112e08201527f2b4134544d4f69313474453867416c6e7654734f7534507843753875345735676113008201527f2f515455534a76513842375a373862345a635971367a5565762b654d6e3443746113208201527f56706f6a746d4338794d51616b4657383157695a7468632b59596e57686258566113408201527f59622b78587470484a2b416241646964484e484a4757426f2f58314b72334b386113608201527f597a32774765507a6b5730486c41452b7168384a7645764a47422f4c543438616113808201527f57652b495a34536651422b314c69754763714144796741664f767a504757702f6113a08201527f5276764935634c51657055594866414373482b4d76364f362b4948316436316c6113c08201527f675068584b5065634f66376f73563344454438783353552b4843356942745a526113e08201527f31594274625030394f6a3744336b2f504d39566348645174592b755a386a45796114008201527f736c2b72574f4d70367750722f52316e4871744d61706779485965514a4c77616114208201527f57612f6c542f74697a7462342b536963664270623777413168473538736532496114408201527f6d62626434726e2b554666656373552f6b4168637749327470787271615a65776114608201527f78724e4d2b456672377a31624772367744476b37714352706a4f387a543471456114808201527f38584467726230526c4e446a65577a466d6b345a39384b507261663465584d386114a08201527f3736636257742f6a3653665767794838332f6a43575749394f4a666e762b46566114c08201527f574d726d6443705a2b4265654662417238486e384e4a456f66437373706332636114e08201527f7a696a6d2f6f336e6654496634542f776e6e686a30644f2f51356e2b6957397a6115008201527f31427950662b4d445542584b6644694d48324930433838394c57504e566249356115208201527f78764f43384d614a706d54766e396250464c3172384f773847467376764832696115408201527f715752546d376936664d496e5a47764e6c576e2f682b634c3755664d2f3854586115608201527f417373312b444a3861694236764832697157527a6a4f38436e6a545865506a2f6115808201527f77314d6737496644634863533531637749377349667a66415479653876796a526115a08201527f564c4935492f384c62362b35557430347869766732536561536a5948352b37646115c08201527f44543565686439472b4c304c654a636b6d6b6f3251342f76372f534d2f534c4e6115e08201527f31524a2f2f78752b584a4a6f4b746b4d774a2f7843655553305a50712b6734766116008201527f503166416d363743653355456a504641766b54304e4d656338497144335172506116208201527f507448736d2f43584556345278312b48353048553279524537616c584a5a71716116408201527f624b34335969444a58363752584b6b75734133774f7439696e32674b74516b766116608201527f4a653777313469654c45336f72594e6f4562676d305a535855396e472b506d696116808201527f6971596b357161364d304730685030537a5a572b2f774e664c6b6f3070626f526116a08201527f364a565178674c6c5173336c72365a376a2f41546b4b2f53584f306e39624c6e6116c08201527f752f397073566b6e6d754d487632674534666d544b305250716b7362682f68776116e08201527f344f4f462b4c5439666e496f3471773679796a522f4d376247647332456b4e426117008201527f6c423858624f4169746852644a31654b5649704c55536b4b4c31516f484877636117208201527f4278547756694144423572356b5345485479512f6e32626c395a4a366733564c6117408201527f4c39343543627a5675527735326f2f7a30592f53753769434a746156644d517a6117608201527f465449366c37443565682b6b6a766875444a705956777977394744623235774c6117808201527f597479557a4176674e375030734f3468582f465778757562453139446535316d6117a08201527f59434847725069434a7459565777483879656c637775627241533430757153726117c08201527f4b3268695863376c347a2f5065644b327a626d4554556b506d44774e77526f306117e08201527f7365355a366a4270516e586a78543168633666334e6e5736774870786a3356336118008201527f466e2f48755765354c75376e53337739794c5a30337430614e4c6e45467739446118208201527f59426b3866376d6677325a4a484a544747583353315267307357365478496b426118408201527f48412b7069394735684531756b644b416a6d316e2f55595437593142362b2b546118608201527f71662b6a42386338324a784c32487869507a3830716e2b3250787034593944456118808201527f75707557646263366c37425a612f7a4e476a5378626c766a4c31376e386858756118a08201527f61596c767a71434a396b627654665856374d376c35715735487330624e4e46656118c08201527f7254765037467875586a7072726d737a42303175587470586e6564314c745a6c6118e08201527f3866742b37447872304d533637507a484a707a6e645335686b35312f2b79576b6119008201527f3477326161492f5a7639547236662f793477666f75643756543879394e3267536119208201527f4e6a6d5a71586f783933376e45696248684a664747376e7a4f32637877704a2b6119408201527f7431613974512f70487a4e6a72486c397130393959533764316e697a633748756119608201527f477538506d6d68767869656b4e336d394e4830656d47762f576f342b34467a366119808201527f61343333536f2b774f65506430674f764a5434524e4947733863316639594b486119a08201527f36412b614e42696a447a735836344a6e53396f4c7559424853494536546669516119c08201527f632f6c67415a2b56486b73386437374d6542716330516564792f5947483351756119e08201527f63674d666c6837574252384b6d6f524e38436e7055556538676b47542f63336f611a008201527f67304554363449504f68634f2b4b427a6d57587751656653592b4244306c7462611a208201527f743853504b66776d6d4430584e41477438533154705176346e77584e392b4b76611a408201527f344b504f4a5665414a34574536677865516566694e3059666c42375742522b38611a608201527f7547655a775165444a74594648335175577878384d4767694f4b42423538366f611a808201527f36734767795a6a424a35314c6d344550426b3032476669676331454d2b467a51611aa08201527f6e415662436a6c33485461724234506d72443377537549372b47445178444867611ac08201527f63383546652b42354a565a59747852314c69764e364f6d47574947504f706464611ae08201527f446a34594e4845632b4c687a6f56555042733035624a62797a7158544748314f611b008201527f656d51623842584743337732614134632b4c787a2b5953702f7036672b633365611b208201527f4864753245515251454f5655346c70646d6b70784363367377483864546b5241611b408201527f634841444350737a526775437833664435506966374845436336304c396c686f611b608201527f4f706c6867626d7179337a35324879374c44445844357339454a727659354d54611b808201527f6d4f73586e636e4159354d354671416e38757942304877666d7977773134754e611ba08201527f42614670336e41436334574742614870695377775633565a454a706562537777611bc08201527f5633565a454a704b77776c435532645a594b353347526167352b664e67744430611be08201527f616d654275583758575243615373634a30464e64466f536d647a6b576f4b6536611c008201527f4c41684e433463466f616d364c444458324f514535716f75653862634e37484a611c208201527f417652556c77576861577979494452566c77586d47707563494452566c77586d611c408201527f47707373434533565a5947357869594c30464e64467679344e7a593551576971611c608201527f4c67764d4e545a5a454a717179774a7a6a553057684b62717373426359354d54611c808201527f684b62717373426359354d466f616d364c44445832475242614b6f7543387731611ca08201527f4e6a6c42614d6f65433877314e6c6b516d71724c416e4f4e5452614570757179611cc08201527f7746786a6b784f457075717977467a562f626b674e4758765934473573766578611ce08201527f494451392f7463436331583339776c43552f592b463567726535384c5174506a611d008201527f2f793477563358504b63795676524f6835774d5676377a76646a7a6e37425875611d208201527f6e424139482b6a2b74583233342f332f6d6d512f4576526b4c30465039754c6a611d408201527f47334e6c3731574f76644c46782f393533643364336433643364336433643364611d608201527f336433642f574d50446751414141414167507866473046565656565656565656611d808201527f56565656565656565664714441784941414141415166396639794e5541414141611da08201527f414a59432b464a33584956742b726f41414141415355564f524b35435949493d611dc08201526211179f60e91b611de0820152611dc38152611e0081019181831067ffffffffffffffff8411176124e6578260405283835281519081611e20840152805b8281106124d15750828201611e400152601f01601f19168101036040019150f35b8086918501611e4083820151910152016124b0565b634e487b7160e01b81526041600452602490fd5b80fdfea264697066735822122037cc85ed62612c4f9c240ec903ff4fd876fc387538b026d4e5f38d6575546ad664736f6c63430008100033",
  "devdoc": {
    "kind": "dev",
    "methods": {},
    "version": 1
  },
  "userdoc": {
    "kind": "user",
    "methods": {},
    "version": 1
  },
  "storageLayout": {
    "storage": [],
    "types": null
  }
}