{
  "address": "0xb54Df8CDfc1A1671969019372550Bd444771DAc1",
  "abi": [
    {
      "inputs": [],
      "name": "getPmFont",
      "outputs": [
        {
          "internalType": "bytes",
          "name": "",
          "type": "bytes"
        }
      ],
      "stateMutability": "pure",
      "type": "function"
    }
  ],
  "transactionHash": "0x0308f8aa8444ff96ff0e0c21fdad53159a5db875f3ca70d149edf15e500f4aff",
  "args": [],
  "solcInputHash": "71b3836ae7ce8f3df7170930a1b76bc8",
  "bytecode": "0x6080806040523461001657611e29908161001c8239f35b600080fdfe6080600436101561000f57600080fd5b6000803560e01c63f17e85721461002557600080fd5b34611df05780600319360112611df057602091661e39ba3cb6329f60c91b838201526a40666f6e742d666163657b60a81b60278201527f666f6e742d66616d696c793a225065726d616e656e74204d61726b6572223b0060328201527f7372633a75726c28646174613a6170706c69636174696f6e2f666f6e742d776f60518201527f66663b636861727365743d7574662d383b6261736536342c643039475267414260718201527f414141414142466741413041414141414759414141514243414141414141414160918201527f414141414141414141414141414141414141425055793879414141424d41414160b18201527f414538414141426759624c6a6f324e745958414141414741414141416277414160d18201527f41576f575378366759335a30494141414166414141414143414141414167415660f18201527f4141426d63476474414141423941414141506341414146686b6b48612b6d64736101118201527f6557594141414c734141414c30514141455367536f783064614756685a4141416101318201527f4473414141414132414141414e6769565777646f614756684141414f2b4141416101518201527f414230414141416b42486342354768746448674141413859414141414e4141416101718201527f41445166306741626247396a595141414430774141414163414141414842686d6101918201527f48585a74595868774141415061414141414234414141416741686f43475735686101b18201527f6257554141412b4941414142757741414131525157384d396347397a644141416101d18201527f45555141414141554141414149502b3241454277636d567741414152574141416101f18201527f41416341414141486141614d68586963593242684b6d4b63774d444b774d43306102118201527f68366d4c675947684230497a336d55775a6752796d5268676f494742515632416102318201527f415146635050324347427759464268436d504c2b483261775a536c676441554b6102518201527f677a51784d42557966514e534367774d41475836444a4141654a786a594742676102718201527f5a6f426747515a47426842494166495977587757426738677a636641776344456102918201527f774d6167774f4449344d62677778444145504c2f503141637848646c384762776102b18201527f59776a362f2f2f2f772f38482f2b2f37762b762f7a7638376f4f5967415559326102d18201527f6442464d674b454a48544342334d6b43597247794d62427a63444a7763664d516102f18201527f4e6e62514141444976784d5241414156414142346e463251505537454d4243466103118201527f5978495763674d6b43386b6a61796c5774756970556a6952554a71776f6641306103318201527f2f45693745746b37494b57686363465a336e5970637a454533675257514f50786103518201527f65365035394761516d427035342f644376504d6750742f674c7664352b7668676103718201527f495978535a6563676e69784f444d534b4c464b6a4b71544c61753031713644436103918201527f3753616f537230386235417470786f6232384458436b6e72752f6a6565304c426103b18201527f38766a644d7439595a41644d4e6d454352384475473743624148482b772b4c556103d18201527f314172705665507650486f6e55546957524b72453248694d54684b7a78654b596103f18201527f4d646258376d4a4f6532617757466d637a3454576f3542494f49525a615549666104118201527f67677878677838392f745744535034627857386a58714163524e394d6e5636546104318201527f504269614e4d5745374378795537652b6a42474a3752666c59477463414869636104518201527f6456644c6a79545a576333376673614e52305a47354b73694b353952575631646104718201527f5656315a6c546c643356336a6d7066614d75345a6a3741745754416a445167516104918201527f6b7355494934546b4255755145507741784a594e43336241487061736b4542736104b18201527f57434a766a47794d6b6231416f6a6b334b33734749644631757971654e2b37396104d18201527f766e504f6437354f352f2f3552312f2f3450585036542f534833542b74504d586104f18201527f6e5537374e726b6a4f347a563957352f384461703738696d33683830635578496105118201527f637a694b343672657676336c3659536f514e542b5541576d7a6b6d37756943376105318201527f37616f394a786478736e596c38634238646b4776343758647167306b706548776105518201527f336e37303468385a4c3837336238553557694c5639697175423266782f6a41686105718201527f6735736a307a5745686c7962587159634e367159626f592b453558766e5468426105918201527f47655753434d4f46743562364c4f465538697756564e4c437573646a536967586105b18201527f7a49365735344f51434330537a6a434a354f57304b656e674f4b7650686e6e586105d18201527f4d5546463449707751586c434765455737315046343779707370796c69564f4a6105f18201527f5436336b6c464a4f4c6b4f69456a562f507464644a77626e36616532392b4c7a6106118201527f5a393156795930736a2f50797047734a5a53783965704a624a726c496e4847466106318201527f3661304835626f3875756b545159686e6b68477358784456375a306b797576796106518201527f555431635433754561533670544c573354504861364d477855467761504532786106718201527f72544a31587163716f5652545a78696e7272525a6b795a614d783758546f6e486106918201527f506a58574a306933724169685569322f3374725233546a696748514d6350426e6106b18201527f3946383766396a707844696673393064612b2b516672593778304538335656586106d18201527f6d32707a7662713561736932525a3672514d6f36434c554b464b6c556c6179726106f18201527f37613653765962743968426f54306b7256326f3132392b396f3844524c74356a6107118201527f4f384244727559422b58314c5939464b4d55614e77543659566c6e5231586d4b6107318201527f3366725a2b6e4a302b51737658323249344577547167516e666c566a385452626107518201527f6e323975746b4f64684e7a726e684f456e66376145384a4e6c686465634647756107718201527f3170646a6f5953647572414d7862466662793833793848393249596b4f4d47596107918201527f314e324c5a313939374649392f7671726c7a4e647162526472334f54705a6c476107b18201527f524b7656596c6c6e79315662466e56715a4a6f37593567434869686c6f6a65796107d18201527f5269756a5230326d545a5942463577717956796c756148347543787952327a6c6107f18201527f6b784543424a674a49595a506a3545385354796d79584d5057486c46327450616108118201527f615371457063552b42362f2f37665850364c2f514833662b2b6945486948676b6108318201527f316f475232336870466f6e7a774b6674646274366d327a664d42626a617276626108518201527f376a6c62625464586279685a675445705763336d7334424634716553653437566108718201527f4b684a762f2b497a6f6d70316f485a4b3231556b36514d686b614f5a504a437a6108918201527f6c7557386a4365393675485747344a476a7362766e6a58486c485748347951566108b18201527f546c6a455745734332676b4a714b6447674756655573346f746354576c3356396108d18201527f3264646472547a4c732b617a467a3370355856754d7955303030374a6f4a496b6108f18201527f306332484837383630676d5479446768704163636749706c57343266546c726a6109118201527f4a484344467769376b4c616236384c306a374e715854684f62576b694a3555676109318201527f6873536b576347724e457331317556424a474535386b6635332b6433342f346f6109518201527f4e306952356a7a54726e496d434548774d53424465364539734a6c496e31414c6109718201527f36756c4d4b67626c6b46785834436f3568676f495258572f396b414155556e586109918201527f5355453465436963484d7773423173703871384d7951427779784a6e6e3275476109b18201527f466533336f5251686b75465269455a42695136535331625533534d4e486b42756109d18201527f724d5374594f5958745134486a763655585543722f775434754875492b7036586109f18201527f44647367646273476e4836674a464d7873577933726572744b6b496a676f4856610a118201527f59612f4c4741394a78577662316548365070305136506151554641576a353354610a318201527f39767163517169332b4c31646c51514a74554a4d6c6b756635486c646d6a526b610a518201527f686b74524a4b57324262534e75774c41506e7031564d385862576e4253303379610a718201527f5557724c58414c326844766566374b3547636d696d7775456b61657375483335610a918201527f693438466b576b4a3174444e36653233546b457a5853717a7a6e747479707959610ab18201527f5835773957626f73424f4f63304d36714744524f2f6f5a44737a6c392f697566610ad18201527f66507057736c6a4f484246525567567a302f6e5553436b454e364f6d535a7272610af18201527f4f6a73613143452b7a725149306731496b766938304e3151545a766a6e6f456b610b118201527f57454b303165304a30674441684377334638384b616e4e694961364d6a33302b610b318201527f4c51577237743939686d4a6a61526a30536d756b386a37525242357938352f30610b518201527f642b67504f39383936436439494f4e7554343344694966493143595753506c46610b718201527f7a667479524e704748694e646d3176794a594e4c74552f52664b594f66487967610b918201527f35337947564431465651675a6473366f734a5a626f4a33343270584c56454e78610bb18201527f654f39706d5364646842714d30674663704a4168494433307162654a58337a7a610bd18201527f644e35596f46714b4d457954675463614b653536624c4c734e597477464e496d610bf18201527f3956624d506a783574754238795a334a7a79347565395a316c39344e59345763610c118201527f337a653733337775555646644e30326e513050726556597368736f4b6d59684a610c318201527f3235322f66385a34415a59433774426534637a47635330543147776958565255610c518201527f2f48645659325455774a2b382f6d2f367a346a6a397842485642425a3158414e610c718201527f7145445831655a42456f4658314a534779424a33326972514773714776365371610c918201527f33374168526d34503950714e6a4c576f545a674e4d775132442b79764c4a6470610cb18201527f4678774d337453544f6a65516471474f336e6e3333636e34356d775362514a45610cd18201527f41416a4330414c49415162694b74576a6d306c7558474b4d4c675a5676776839610cf18201527f4c6f454378377a567846536957336c676c78695244796672365a4e5874625661610d118201527f6f79426238596b6539484d51582b4e484c632f4f63303773514e2f3977522f39610d318201527f38587432744c686f77415567566973384572496b546641394d727a5a33553447610d518201527f483333322b6130376e7330447a5873464b3565313766644c3156786662592b50610d718201527f58677a5473347044354954587730723578536466595756566d44524652614564610d918201527f38666f2f454d762f366e797a382f314f70355a67382b714f376c434944377078610db18201527f457a46353961552b58473050616c42576452574e6e47776f696a783967314347610dd18201527f4f73345132415a3159334f39655144314f626d4a5959316a466830646f763254610df18201527f7335645031346b5a6239382f566b5a4269624568595650517243714453774b71610e118201527f62446f4c784963513152464f44494b6f765965366a4d2b50614351593562354d610e318201527f73737379484f664a5972564b462b394e37576a594a6558753972625770793962610e518201527f6b52484268717342395972354e4a587a39386559534a616e7439503366757554610e718201527f6a31644d7776635a37377968466f3470736630756f586c6d4e51732b63643778610e918201527f794865722f416a6c417975382b50574c4d426f4f6b37786454485135794c5743610eb18201527f696e74464530742b743136754868336c38424b477436557663754e426d355777610ed18201527f79696f707874647a526d4f7346362f2f6e66346c2f56486e67383476647a7264610ef18201527f62625576344b534f4163664a48626e5a687877474b557031564772454d595932610f118201527f6f70767339585631553231576432533132306634414f5a7a4b68385436426258610f318201527f4e4d7058586a74347a77796f62575a6c6550546b75734b75727a346364326464610f518201527f6d73312f395876667677554e653058354b4e657067394d5149627247784d6766610f718201527f77355a414c54304e342f45594e44317558486a722f70344d4f5a52765a49516c610f918201527f31576f327a564578335367626273366d7870654f5347726b654e43382f375750610fb18201527f54733575356c557965764869646b425141517a78773848417170515856302f57610fd18201527f5033553531466d43436e436b53686d62754b5155735762526a6e3339542f4356610ff18201527f502b72387870375259434c32434c70696e2b31446759714d335774644c7a4b376110118201527f6f543173763778536b63567348366871572b2f74496a78702b774245784178676110318201527f52747755346b59657174303547634e684f4957734b43455949556e715578386d6110518201527f596e4c35354f36382f37797255783236615443556f44643438653350546778746110718201527f706b667a7957512b506836354943465052696872453776342f4e75507469657a6110918201527f6968463476544a7a476979326a736b454c7a4c796a6552343068656e763751576110b18201527f703938697561365738326e42584e36566b3366755834796f302f3333377139456110d18201527f336837424261584a7644334a7054464f333979766a33497569797246416733386110f18201527f724775616b55623052516965684f45304777364f53694c4a79645751515555456111118201527f334b4c4a69514659795439304a394e324a4a62353876472b316c6a556d7239466111318201527f54483866534c754c4d497568764a3546664f33463778436a6779325831554d776111518201527f5979432f614d3557636866643937354a32383676556178696854386e327a66796111718201527f67485077656e3465486679444b63437a6941444d457a584c73387565707476766111918201527f2f76627676634e44366f6d483565736e6a372b7a634d33304f4c6746396b46566111b18201527f6631437959676a68522f664434576d597a622f796a652b636363644d50526f6c6111d18201527f4f6f467743556f3467654643395a4a682f6458375a324f5742423839466f63776111f18201527f4447394c33383950767a616e30716d552f46336164566d52445265444850584f6112118201527f72687256395657766447375130796a4c6b6e7469514863466479574e6b6768636112318201527f33683835574c3130326d307536374d5062746f45545153436a693470633854426112518201527f747a4d4770545744596131354e703447744163704c714e6e496a51706e4e61676112718201527f54436f786152376a336e6e395133614d3276546e6950732b4a44665262572f516112918201527f466e316876534f676f7978757271704471357a43323543446a5934322f5038576112b18201527f2f705345427a6451533758333134642b756f7156583837623152744c646b47326112d18201527f4e2f2f4c62754e62752b75397563435538415a4939534d36553666784e3537466112f18201527f714242574562306b6647697556782b646e7438677a7134757848423764504a786113118201527f6d7a66426333534e5278774273383561785745357657342b6d5062504370735a6113318201527f6b796c30314e4275726c6a4d42344c435565645273644547533671566c586c786113518201527f476b41634830736d586962614d4a525332685332554537684574706e704362786113718201527f68757341762b525651422b4172685965587a68367252507478313172574547696113918201527f2b3055534a556c6b374c465242497a7930692f6d4668307337444e365742334c6113b18201527f7866436b4c4e65445974724c54304b71304c74373466416947676a6c554b356c6113d18201527f724e50454c3871614b4a515752614d746c5a6137595843462b754454782f32726113f18201527f6f634e4842676e735043486f336b6873427831686e63372f41456b6b644f59416114118201527f414141414151414141414541516a4a6542557066447a7a3143417345414141416114318201527f4141444a4e556f6741414141414e55727a4e662f35762f56417938432b7741416114518201527f41416b414167414141414141414869635932426b594741702b4c6562515a355a6114718201527f2b76387a426842675a454146764142304d4152664141414141587341414146376114918201527f414141437a2f2f6d416f494143514a4e2f2b77444777414a416f674143514b396114b18201527f2f2f45432b674146416f38414a414b5741416f435467414b416d3441414141416114d18201527f41415941444145514164494334674f77424651452b675777426a7747356765696114f18201527f434a52346e474e675a474267344758597a73444541414b4d594a4b4c4163686c6115118201527f544151784152596c41546341414869636c56484e61747441455037576356494b6115318201527f72656d7470616568703654452b7648524f67586241644845474b666b7269694c6115518201527f4c4b4a49597158592b4e496e7941766b4c666f4d506651682b686839676e35656115718201527f4c3847596c464974752f764e7a44666637497741764d4e504b47792f6948754c6115918201527f466632527778323877686548442f414a633465372b49445734554f38786150446115b18201527f523369504a3464372b497a767a464c64313753572b4f57776771695a777833306115d18201527f564f3377416362716d384e64424f7148773466347148343766415376383862686115f18201527f4872353268714f7158707338573752796e4a37494941674475566e4c655657326116118201527f4d73354c6255346c4c6c4e507a6f70434c4b30526f7874746c7672576d326c7a6116318201527f6e3553617a4d764533476b7a31396c446b5a6a5143344977477366546566544d6116518201527f32424c366a7247664b4d352f725532545636565968622f6b4c7471324876722b6116718201527f617258796b6a704a46397172544f59586561724c526a662b52547961544b386d6116918201527f2f5945585949514b4e645977794a466877586b4c6a7048696850634141554a756116b18201527f7751305a676e4e79533873596b3131434d2b7555566b796377694d365138456c6116d18201527f4f32714e745454764458764a3835624d6d6258756b5669567265596c4c594d376116f18201527f47356e7a7a504241725930765a455a6733784b78636f77703439454c4772734b6117118201527f2f54324e66315755506636313954627359394f7a374c7a682f2b70755a7442796117318201527f776b50345843753750455a7137705252546173694c324f30594c5855616a5a326117518201527f596a3475324f304945335a387862505050384a582f414863714b5162414869636117718201527f5932426d4149502f6d786d4d475441424c774173746748327541482f686241456117918201527503528a09e94903337b936b0ba14113bb7b33311149d960551b6117b182015272666f6e742d7765696768743a6e6f726d616c3b60681b6117c782015272666f6e742d7374796c653a6e6f726d616c3b7d60681b6117da820152671e17b9ba3cb6329f60c11b6117ed820152661e17b232b3399f60c91b6117f58201526117dc815261180081019181831067ffffffffffffffff841117611ddc578260405283835281519081611820840152805b828110611dc757508282016118400152601f01601f19168101036040019150f35b80869185016118408382015191015201611da6565b634e487b7160e01b81526041600452602490fd5b80fdfea264697066735822122078594ef5cbf5b94133591b33a3e1a8ca1be1fc23cf630e675cae7d86efe4af2a64736f6c63430008100033",
  "devdoc": {
    "kind": "dev",
    "methods": {},
    "version": 1
  },
  "userdoc": {
    "kind": "user",
    "methods": {},
    "version": 1
  },
  "storageLayout": {
    "storage": [],
    "types": null
  }
}